:020000040800F2
:10000000080B002099000008F5000008F700000820
:1000100000000000000000000000000000000000E0
:10002000000000000000000000000000F9000008CF
:100030000000000000000000FB000008FD000008B8
:10004000AB000008AB000008AB000008AB000008E4
:10005000AB000008AB000008AB000008090E000868
:10006000AB000008AB000008AB000008AB000008C4
:10007000AB0000080F020008AB000008AB0000084E
:100080000448854602F032FC00480047B5000008ED
:10009000C046C046080B002004488047044800477B
:1000A000FEE7FEE7FEE7FEE7FEE7FEE7952700082E
:1000B000810000081CB500F073FFE120400200F051
:1000C0006DF800F0B7F900F0B9FE0121881E01912A
:1000D0000090FF210023064AF531022000F0CCFEFB
:1000E00000F005FF00F08EF800F068FBF8E7000074
:1000F000010800087047FEE770477047704700002E
:10010000002810D000220146C0318A760A838A82F4
:10011000CA82114668234B431B1840335A85491C39
:1001200089B20229F6D37047F1B58AB0082001F0F0
:1001300065F8402001F062F801A801F0DEF901261F
:100140000225934F0196029501A93846069501F0C4
:10015000ACF90024019501A938460695029401F0F6
:10016000A4F90A98079068460484448484840C2186
:10017000C184884D07A9284601F082FF284601F076
:10018000A0FF0D21684601704470867000F030FFBA
:100190008149284601F0A1FF0BB0F0BD10B5FFF773
:1001A000C3FF7E48FFF7ACFF10BD10B5794C014688
:1001B000204601F0D3FF7A49204601F08EFF10BDA2
:1001C00070B50446C034258BA18A682251430918B2
:1001D00040314B8DA28AE18A002812D08A4210D089
:1001E000A17E00290DD19D420BD2218B68235A4359
:1001F00010184018491C21838079FFF7D6FF012091
:10020000A07670BD6548DBE7644908607047F8B5C3
:10021000604F6149384601F0C0FF00280ED0002031
:1002200069460870384601F09DFF694608705B48D2
:100230000368002B02D001225A4898475849384693
:1002400001F0ABFF002832D0544CC034A58A268B75
:100250005349384601F0BFFF6820504945436A18AA
:1002600010464030438DB34202D9208B111812E062
:1002700000254585A08A401CA082A08AC007C00F27
:10028000A0822583A28AE08A82420BD0208B682339
:100290005A4351180918401C20838979384601F0C7
:1002A0005DFF04E03E49384601F02AFFA5760821AB
:1002B000384601F072FF002806D00821384601F0C8
:1002C0008AFF384601F04EFFF8BD10B5314C0146AB
:1002D000204601F043FF4021204601F05EFF002848
:1002E000F9D010BD70B50446C034218BA28AE38AD0
:1002F00000281CD09A421AD068235A431618354653
:100300004035688D884208D9208B3118401C2083E5
:100310008879FFF7DAFF218BF3E700206885A18A4F
:10032000491CA182A18AC907C90FA182208370BD7F
:10033000F0B51A4BC0339D8ADC8A002905D0002A0B
:1003400003D00126A643AE4201D10020F0BD6825AE
:100350006C43124D6419A080002005E00E78271828
:10036000BE71401C80B2491C9042F7D34034628574
:10037000D88A401CD882D88AC007C00FD882D88AB1
:100380000021682250434019403041850120F0BDD2
:1003900000200040004400402505000040000020EF
:1003A00026060000FF0F00007047FA4908667047F4
:1003B000F8B5F94C258BE78A0E789621681C02F077
:1003C0007FFAB9420AD0204680384655208B401C1F
:1003D0002083208B962102F073FA2183F8BD10B59B
:1003E000002826D00D218901002241188A778A83AE
:1003F0000A834A83032311461B0214244C43241806
:10040000E418491C89B262830429F6D3014680317D
:10041000CA820A834A83C1188A80CA8000219A232B
:100420004B431B18FF330133491C89B29A860429B8
:10043000F5D310BDD84810B58038FFF7D0FFD748A6
:10044000FFF7E2FED349D648086610BD70B5D14C1F
:1004500014204034238B668B19464143CE488038A4
:100460000818032109024518CE496A8B41182889CA
:10047000B3420DD0C74B1B6E002B09D09847002804
:1004800006D000206883207E401C8007800F2083D8
:1004900070BD30B5BF4C14204034628BBE49504310
:1004A000803940186121C900521C258B40189207E1
:1004B0000023418A920FAA420ED0002204290AD3B7
:1004C0000F2908D24D1C0F2D05D28D1C0F2D02D2E5
:1004D000CD1C0F2D01D3428230BD0A1F4271012273
:1004E00005E08518AD78EB18521C9BB292B28A4297
:1004F000F7D38AB2551C811C45825354428A1B0A89
:10050000551C45825354428A0D23551C4582535431
:10051000428A0A25531C43825554A07E401C800702
:10052000800F608330BD10B59A499B4C40310B8BD6
:100530004A8B14215143803C09196124521CE40068
:1005400092070919920F9A4207D04A8A0F2A04D2B9
:100550008B1CD054488A401C488210BD30B50446DC
:100560000D463A20FFF7DFFF1A20FFF7DCFF204699
:10057000FFF7D9FF0120FFF7D6FF2846FFF7D3FF8B
:10058000FFF787FF30BDF8B500282DD00321090201
:100590004418A288E1888A4226D09A21514309183A
:1005A0009C3188783A2803D0521C9007800F1AE0BB
:1005B0000879002813D0242802D026280FD104E07F
:1005C00000F0D3F90121252007E08879CB790028B4
:1005D0000BD0012818D000212720FFF7BFFF20797A
:1005E000401C8007800FA080F8BD087A4A7A00027C
:1005F00010188A7A00021018CA7A000210184A7974
:10060000921F92B20C311DE0087A4A7A58400002DB
:100610005A4010188A7A00025A401018CA7A00020A
:100620005A4015184879604F801F82B2002005E0BB
:100630000E18367B5E403E54401C80B29042F7D389
:100640005949284600F059F90146C5E7002817D056
:10065000032109024218D1889A234B431B18FF3308
:100660001D331B8B002B0CD0491C8907890FD180AF
:100670009A2359430818FF30002201308286012056
:1006800070470020704730B50022002816D098230C
:100690001C5A0121231F05E04518AD78AA18491CF2
:1006A00092B289B28B42F7DC411E615C801E205CF5
:1006B0000902401880B2904201D0002030BD0120D4
:1006C00030BDF8B5044607468034208B0090E08AA0
:1006D000002F21D0009988421ED0032000023B1831
:1006E000DA889A205043C619608B395C3546FF354D
:1006F0001D35288B9C36002802D0962856D258E00B
:100700003A290AD0E08A401CE082E08A962102F071
:10071000D7F8E182E08A6083F8BD521C92079B887B
:10072000920F9A42F8D001222A83B61C8155608B21
:100730009621401C80B202F0C3F86183F8BD395C99
:10074000288BB21C431C2B838154608B9621401C48
:1007500080B202F0B5F86183298B082929D370791A
:100760008E2823D808308C46884222D83046FFF79E
:100770008AFF00281AD0E18A60460818E082E08AE1
:10078000962102F09DF8E182E08A60833846FFF707
:100790005DFFF8BD1C0400209C010020B10300088F
:1007A000310300080A030000000000200020288315
:1007B000A8E7608B00998842C1D1EAE710B51248DA
:1007C000FFF77FFF1048FFF7DEFEFFF73FFE10BD8B
:1007D000704770477047704710B504463A20FFF7DE
:1007E000A2FE1A20FFF79FFEE0B2FFF79CFE00205A
:1007F000FFF799FEFFF74DFE10BDC1B22B20ADE60D
:1008000001212B20AAE600001C0100200168FE4AFD
:1008100011400122520791420AD14168C90CCA1FF6
:10082000F93A05D1416872B6006880F30888084734
:10083000704701680122090109095203914206D259
:100840004168F24A1160006880F3088808477047E1
:1008500030B5002307E0C45CCD5CAC4201D0002081
:1008600030BD5B1C9BB29342F5D3012030BD704775
:1008700000687047F7B50F00054612D0E44885427E
:100880000FD30298E349281888420AD800240CE0C4
:10089000A600B959284601F05BFD01CDB959814246
:1008A00001D00020FEBD641CA4B202988442EFD3A4
:1008B0000120FEBDF8B5012516460F460446002965
:1008C00006D0D348844203D3D349A019884201D922
:1008D0000020F8BD72B601F0A1FC342001F0E0FC6C
:1008E000324639462046FFF7C5FF002800D10025D3
:1008F00001F09AFC62B62846F8BDF7B5002682B032
:100900000C463546009000290CD0C149884209D3D5
:1009100004994018C049884204D8881402F032F87B
:10092000070013D1002005B0F0BD617820780902DE
:100930004018A178E2780904120689184018B1001D
:10094000761C2D1D7850B6B2ADB2241D0498854298
:10095000EBD38003020C39460098FFF7ABFF044647
:10096000384601F0E5FF2046DDE770B5012501F0CE
:1009700055FC342001F094FC1A24EE066002801924
:1009800001F093FC042801D0002503E0641CA4B20C
:10099000382CF3D301F048FC284670BDF8B500238D
:1009A00000295AD09A4CA04257D39A4D8418AC4291
:1009B00053D8840752D08407A40F051B0020561C6F
:1009C000B44604E040CD8700401CDE5180B2604553
:1009D000F8D300203FE0012C04D0022C10D0032CCF
:1009E0001DD029E08500AC465D596F462E0A3E7049
:1009F0002E0C7E702D0EBD706546ED182D790CE025
:100A00008500AC465D596F462E0C3E702D0E7D70F4
:100A10006546ED18AD88BD702D0AFD700CE08500AF
:100A20005E59ED18370E6E4637706D682F0A777075
:100A30002F0CB7702D0EF5706F467E783D7836021C
:100A4000AD19BE78FF7836043F06F619AD19860059
:100A5000401C8D5180B29042BDD3F8BD002304E00C
:100A600010C89D005B1C4C519BB29342F8D3F8BD5B
:100A7000F8B514460D00064651D0654886424ED35F
:100A8000A00064498019884249D8A0088000083035
:100A900001F078FF631ED917890FC918B2078B10B0
:100AA000002A20D0B107890F8C46721A00219B1CA6
:100AB0009E460BE008CA8E0083551F0A36187770D1
:100AC0001F0CB7701F0E491CF77089B28E45F1DC00
:100AD000002105E062468A18825C6A54491C89B28A
:100AE000A142F7D319E000225B1C9C460BE002CE2A
:100AF0009300C1540F0A1B185F700F0C090E9F70F2
:100B0000521CD97092B29445F1DC002103E0425CA2
:100B10006A54491C89B2A142F9D301F009FFF8BD1A
:100B2000F7B584B0012001909004050C05980028C9
:100B30002FD0002D2DD036490498884229D335492D
:100B40004019884225D872B601F068FB01204002A6
:100B500001F018FF07001CD01F210498C906401897
:100B6000410AC6050120F60D4002841B0091A542F2
:100B700000D82C460098802241020120C0060818A7
:100B800039460390FFF70AFFB1080020A60802913A
:100B90000AE0002007B0F0BD0299091889007958D1
:100BA000491C03D1401C80B28642F5D8864242D906
:100BB000039801F07AFB002008E0059982008A582A
:100BC000029909188900401C7A5080B28642F4D8F4
:100BD000802239460398FFF74DFE00281ED0A5421B
:100BE00021D00098A108401C0090059889000818A1
:100BF00005900498002600190490281B012485B252
:100C00006402A542B6D8B4E70000FE2F040000201D
:100C1000003400080074000800700008384601F035
:100C200087FE00200190384601F082FE01F0FCFAB8
:100C300062B60198AEE7324605990498CBE7F7B55E
:100C400084B0069D0E000746A4D0002DA2D072B637
:100C500001F0E4FA01246402204601F093FE0090C2
:100C6000002897D01F20C0063818C705410AFF0D7D
:100C7000069AE41B0391A24200D81446039801226D
:100C800041020120C006081801905202029000990A
:100C9000FFF7EEFE029801F008FB002005E0315C52
:100CA000C319009A401CD15480B2A042F7D38022CD
:100CB00000990198FFF7DEFD00280FD00698A042AA
:100CC0000FD003983619401C0390281B01240027DD
:100CD00085B26402A542D1D82C46CFE7009801F036
:100CE00027FE009801F024FE01F09EFA52E770B54D
:100CF0000D46044601F092FA284601F0D6FA214644
:100D0000284601F025FB042803D001F08DFA0120CC
:100D100070BD01F089FA002070BD00001FB50120F0
:100D2000000300F06BFA072069460873012048733E
:100D3000887303A800F05CF9684600F0B2FC9448A0
:100D40006946888000200880C880924C48802046F0
:100D500000F07FFC0121204600F05AFC01212046D2
:100D600001F026F91FBDF8B58B4C064660780D469C
:100D700007460521401C01F0A3FD2078814201D1E6
:100D80000020F8BD8448F900803809188E65617824
:100D9000C9000818C56560780521401CC0B201F083
:100DA0008FFD61700120F8BD70B57B4D0024803D42
:100DB000A1004A19106900281DD02B194033187D55
:100DC000002818D01069401E10611069002812D147
:100DD000106C002802DA6858106105E0002803DD75
:100DE00069581161401E1064187C002808D0116BEE
:100DF000106AFFF7B8FF641CE4B2042CD8D370BDAE
:100E0000116A106B8847F6E710B5624C0121204645
:100E100001F0D6F8002805D00121204601F0DCF8C9
:100E2000FFF7C2FF10BD10B55A4800F04DFC10BDD1
:100E300010B5584800F04DFC10BD704770B5564BCA
:100E40000020803B554D024601268400E1180A61CE
:100E50001A510A630D620A6419184031401C40B2ED
:100E60000E750428F1DB4C4802704270FFF756FF04
:100E7000484800F029FC70BDF0B5059E069F002E85
:100E800010D0454D8400803D29516419761E26649A
:100E90002363226221612818403007740121017503
:100EA0000846F0BD0020F0BDF8B5411C1ED0042856
:100EB0001CDA394E00218000803E84192161364DB4
:100EC000364F29780FE0C8008019826D236A9A4254
:100ED00004D1C26D236B9A4200D18765491CC8B208
:100EE000052101F0EDFC68788842ECD1F8BD10B521
:100EF000294C2078617888420DD02146C000803985
:100F00004018816DC06D884720780521401CC0B213
:100F100001F0D6FC217010BD411C07D0042805DA71
:100F20001D4A0021803A1018403001757047411C5D
:100F300007D0042805DA184A0121803A10184030F9
:100F40000175704710B50020134B144C0246803BCE
:100F50008100C9180A610A64C100C918401C40B266
:100F60008C650428F4DB10BD411C07D0042805DA89
:100F70000949800080390A58401802617047064AC2
:100F80008000803A115080180161012070470000F4
:100F900080BB000000040040040500203B0E000858
:100FA00010B500F075F801F01CFC10BD0B4C0121D0
:100FB000204601F001F8204600F08BFB094C08495F
:100FC000204601F09DF8204601F081F8BFF34F8FD5
:100FD00006490548C860BFF34F8FFEE70004004094
:100FE00025050000004400400400FA0500ED00E083
:100FF00010B500214156FF23CAB29207D40E4278A1
:10100000A3409207120EA24000290BDA0907090F2C
:1010100008398C081A49A4006118CC699C43144310
:10102000CC6107E08C081749A40061180C689C4348
:1010300014430C60827801210078002A04D0C00695
:10104000C00E8140104804E0C006C00E81400E482A
:101050008030016010BD0A490A6902430A61704785
:1010600007490A6982430A61704704220749042834
:10107000086902D09043086170471043FBE7000005
:1010800000ED00E000E400E000E100E000E000E04E
:101090008E484168032212031143416041688C4A23
:1010A000114041608169802291438161016A894ACE
:1010B00011400162016A884A114301627047834A04
:1010C0001168F023994300010843106070477F4A7C
:1010D00091697C23994380000843906170477B4A63
:1010E000516803231B039943014351607047774ABA
:1010F0005168F0239943014351607047734A516826
:1011000007231B0299430143516070476F4A116ADC
:10111000490049080143116270476C4A116A032370
:101120009B029943014311627047684A116A090999
:101130000901014311627047644A116A930499439B
:1011400001431162704770B504466448406940210C
:1011500008405E4D40286249624A68682FD080048A
:10116000614E800F3BD068688004800F012838D022
:10117000216068680007000F115C304601F0A0FB99
:101180002061686857490005800F1C39095C3046AA
:1011900001F096FBE060686852490006000F1039C4
:1011A000095C206801F08CFB606069684D4A490564
:1011B000490F183A515C01F083FBA06070BD8004B8
:1011C000830F4A4809D0216069680907090F515CFB
:1011D00001F076FB20614648DCE72060F4E72660FA
:1011E000C7E744482060C4E738490A6902430A61F6
:1011F000704736490A6982430A61704733494A6930
:1012000002434A61704731494A6982434A617047E3
:101210002E49CA680243CA60CA688243CA607047DE
:101220002A4A516809010909014351607047274A58
:10123000516803235B06994301435160704741099C
:10124000224A01290AD002290AD0D169C006C00E5B
:10125000012282400A4205D0012070471168F5E75B
:101260009169F3E7002070471848C16901221143D2
:10127000C161C1699143C16170471448416A8214D8
:101280009143416270471148416A8214114341629F
:1012900070470E48416A49084900416270470B484F
:1012A000416A0122114341627047084881698022E6
:1012B00091438161704705488169802211438161B2
:1012C0007047024880690002000C7047001002401D
:1012D0000FF8FFF9F0FFFF3F010C00000070004025
:1012E00000127A0024000020006CDC02005A620226
:1012F00040420F0000366E01B34910B5884201D15B
:10130000042003E0B149884202D10820FFF780FFA2
:1013100010BD10B50120FFF77BFF10BDF0B5002117
:101320000F27A94B41E001228A4002423CD0082904
:1013300015D0092913D01D684E000324B44025435D
:101340001D600C0716D508290DD009290BD05D6A40
:101350004C07E60E3C46B44025435D6211E01D6833
:101360004E000224EAE75D6A4C07E60E3C46B440B4
:10137000A543F2E71D6A4C07E60E3C46B440254300
:101380001D625C6894435C60082912D0092914D05E
:10139000DD684E000324B440A543DD609C6814431F
:1013A0009C60DC6A9443DC62491C0246CA40BAD1A4
:1013B000F0BDDC6801252D0402E0DC680125ED04A8
:1013C0002C43DC60EAE7F0B500211EE001238B40EE
:1013D000034219D07D4A15684E000324B4402543CA
:1013E0001560156A4E07F70E0F26BE40354315628D
:1013F00055689D435560D568A543D56094681C43E6
:101400009460D46A9C43D462491C0246CA40DDD130
:10141000F0BD10B5140752070F23D20E9340914030
:10142000002C04DA426A9A431143416210BD026AF9
:101430009A431143016210BD70B505688C07A40F73
:10144000530003269E40B5439C402C430460012971
:1014500005D0112903D0022901D0122908D14368EF
:1014600001249440C906C90FA34391401943416028
:1014700070BD10B5C368520003249440A34391404B
:101480001943C16010BD10B5836801249440A34383
:1014900091401943816010BD10B5C36A0124944086
:1014A000A34391401943C16210BD70B50C46064676
:1014B00000251DE00120A840014218D02A463046F0
:1014C0006169FFF7A6FF2A4630466168FFF7B4FF5F
:1014D0002A463046A168FFF7CCFF2A463046E1682D
:1014E000FFF7D1FF2A4630462169FFF7D5FF6D1C73
:1014F00021680846E840DDD170BD35490160002112
:10150000C16041600F2281604261016170470069E2
:10151000084000D001207047006980B270474069E0
:10152000084000D001207047406980B27047816157
:10153000704781627047090481617047816270471A
:101540004161704742694A4042617047012212047A
:101550008A18C261C161C261C169C069704710B5B2
:1015600000280DD019480C074907CB0E0F219940D0
:101570009A40002C06DA436A8B431A43426210BD3C
:101580001148F0E7036A8B431A43026210BD114A07
:101590001168490949010143116070470D4B1968F1
:1015A00040229143002801D0114300E0914319608B
:1015B0007047084B196820229143002801D011433D
:1015C00000E0914319607047001C0040002000407B
:1015D000FFFF000000140040FE4910B5884201D111
:1015E000C01403E0FC49884203D18014FFF710FEC9
:1015F00010BDFA498842FBD14014F7E70268702316
:101600009A430A430260704781857047018570479D
:1016100081827047018670470122D2020029016849
:1016200001D0114300E09143016070470122D203D1
:101630000029016801D0114300E091430160704727
:10164000026803231B029A43026002680A43026095
:10165000704770B5E14E0D460446B04206D0698829
:10166000FFF7CCFFE9882046FFF7EAFFA888A085AE
:1016700028882085D74B9C4201D1287A20860120DA
:10168000A082B44203D0697A2046FFF7C5FF9C428E
:1016900002D0D148844203D1A97A2046FFF7C6FF81
:1016A00070BD0021C943818000210180C18041803B
:1016B000017241728172704781847047808C7047DB
:1016C000808D7047008D70470168012211430160D1
:1016D000704701684908490001607047028B082380
:1016E0009A430A4302837047028BBD4B09021A409A
:1016F000114301837047828B08239A430A438283F4
:101700007047828BB64B09021A40114381837047A0
:101710004030828A08239A430A43828270470168D4
:10172000802211430160704701688022914301606B
:1017300070470168022291430160704701680222EC
:1017400011430160704704220029016801D0114350
:1017500000E0914301607047818270474168042234
:1017600011434160704741680422914341607047D2
:1017700041680122114341607047416849084900AE
:101780004160704781867047018770478187704745
:10179000403001807047403001837047808E704731
:1017A000008F7047808F704740300088704740300E
:1017B000008B7047028970239A430A430281704765
:1017C00070B5046A640864000462058B046A1B0532
:1017D000F3261B0CB54313432B437E4D0122A84235
:1017E00002D07D4DA84201D1022500E00A25AC437C
:1017F0000C4314430383046270BDF0B59446026A3F
:101800001025AA430262078B046A764A0E0117402C
:101810001A076346120C1B063A431B0C13436D4A0E
:10182000904202D06C4A904203D120218C43344331
:1018300002E0A02294430C432C4303830462F0BDD6
:10184000F0B59446026AFF250135AA430262878BF0
:10185000046AF32297431A05120C63461A435D4B40
:101860000E023A43984203D141158C43344303E0BE
:1018700005235B029C430C432C4382830462F0BD2E
:10188000F0B59C46036A01252D03AB430362878BA9
:10189000046A544B12061F40120C63463A431B075E
:1018A0001B0C13434B4F0E036A00B84202D1944302
:1018B000344301E094430C432C4383830462F0BD22
:1018C0000289494B09021A4011430181704702897C
:1018D000464B1A400A43028170470122D2039142CB
:1018E000018901D1114301E04904490C018170478C
:1018F0000189C908C90001817047028B0C239A43F2
:101900000283028B0A4302837047028B384B1A40D2
:101910000283028B09020A4302837047828B0C23E5
:101920009A438283828B0A4382837047828B304B37
:101930001A408283828B09020A438283704710B562
:101940000446FFF737FF208907210843208110BD97
:1019500070B516460D46044660290CD0012231466A
:10196000FFF72EFF29462046FFF724FF2089072195
:101970000843208170BD01223146FFF73EFFF1E7A9
:1019800070B50D46164604461946FFF799FF3146D5
:101990002046FFF7A2FF29462046FFF798FF20893F
:1019A000C108C90007200143702081430143218100
:1019B00070BD70B50D46164604461946FFF780FF08
:1019C00031462046FFF789FF29462046FFF77FFF73
:1019D00020890FE0000C004000040040001000408F
:1019E000FFF70000FF0C0000FFF00000FFCF000039
:1019F000FFF30000012189030843208170BD0289A3
:101A0000D208D200028102890A430281704702890A
:101A100080239A43028102890A4302817047426807
:101A200070239A43426042680A43426070470268EA
:101A300008239A43026002680A430260704700214B
:101A4000418001228280C1800181704730B50C46FF
:101A5000054608884988A288238900280BD00428D5
:101A600011D00828284616D0FFF70AFFE18828463B
:101A7000FFF75CFF30BD2846FFF7A2FEE18828464D
:101A8000FFF73BFF30BD2846FFF7B7FEE188284649
:101A9000FFF73BFF30BDFFF7D3FEE1882846FFF795
:101AA0003DFF30BDF0B50C464988002601250746AC
:101AB000002900D10226A288012A00D1022520880F
:101AC00023890028384610D0FFF797FEE188384672
:101AD000FFF71BFF23892A4631463846FFF770FE81
:101AE000E1883846FFF709FFF0BDFFF769FEE1889E
:101AF0003846FFF702FF23892A4631463846FFF76A
:101B00007CFEE1883846FFF700FFF0BD10B5036AA0
:101B100002249440A34391401943016210BD10B5C3
:101B2000036A08249440A34391401943016210BD05
:101B3000026A01238B401A4302627047026A012342
:101B40008B409A4302627047026A04238B401A4317
:101B500002627047026A04238B409A430262704714
:101B6000006A084000D00120704730B503461833A2
:101B70000124056A9440E443A4B225400562002A8A
:101B800010D0082A0ED0121F1004400CC018026892
:101B900007231B039A43026002680906090C0A43E3
:101BA000026030BD5008C018026870239A4302607A
:101BB0000268F4E7028B70239A430A43028370475A
:101BC000028BF74B09021A40114301837047828B45
:101BD00070239A430A4382837047828BF04B090239
:101BE0001A401143818370474030828A70239A43A0
:101BF0000A4382827047028B04239A430A4302837A
:101C00007047028BE74B09021A401143018370476A
:101C1000828B04239A430A4382837047828BE14B71
:101C200009021A401143818370474030828A04239D
:101C30009A430A4382827047028B80239A430A4365
:101C400002837047028B5204520C09021143018334
:101C50007047828B80239A430A4382837047828B2A
:101C60005204520C09021143818370474030828A2A
:101C700080239A430A4382827047F0B50C4605469A
:101C80000021FFF75BFF6E68288B70218843800876
:101C9000278880000743218900222846FFF736FF66
:101CA0006088002804D000212846FFF741FF03E0A8
:101CB00000212846FFF742FFBB48854217D16189C2
:101CC00000222846FFF72BFFA088002804D000211F
:101CD0002846FFF739FF03E000212846FFF73AFFC7
:101CE000032000028643A0893043E68906436E60E4
:101CF0002F83E088A886F0BDF0B50C460546042188
:101D0000FFF71CFF6E68288BA84904220840217841
:101D100009060F0C074321892846FFF7F7FE608864
:101D2000002804D004212846FFF702FF03E0042125
:101D30002846FFF703FF9C48854219D16189042298
:101D40002846FFF7ECFEA088002804D0042128468E
:101D5000FFF7FAFE03E004212846FFF7FBFE03200D
:101D600080028643A089E189800030438E000643CB
:101D70006E602F83E0882887F0BDF0B50C460546DD
:101D80000821FFF7DBFE6E68A88B7021884380086E
:101D9000278880000743218908222846FFF7B6FEDE
:101DA0006088002804D008212846FFF7C1FE03E020
:101DB00008212846FFF7C2FE7B48854219D1618978
:101DC00008222846FFF7ABFEA088002804D008218F
:101DD0002846FFF7B9FE03E008212846FFF7BAFEC0
:101DE000032000038643A089E189000130430E01EE
:101DF00006436E60AF83E088A887F0BDF0B50D465E
:101E000004460C21FFF79AFE6668A08B67490C22F6
:101E10000840297809060F0C074329892046FFF757
:101E200075FE6888002804D00C212046FFF780FE4C
:101E300003E00C212046FFF781FE5B48844205D178
:101E4000304621148843A9898E0106436660A78322
:101E5000E88840342080F0BDF0B50C4606461021DD
:101E6000FFF76CFE756837464037B88A70218843A3
:101E70002188102201438C4621893046FFF746FE17
:101E80006088002804D010213046FFF751FE03E09F
:101E900010213046FFF752FE4348864205D12846BE
:101EA000B1138843A1890D02054375606046B8826D
:101EB000E0883883F0BD403081880122D20311438D
:101EC00081807047403081884904490C8180704787
:101ED0000021018041808180C18001814181818117
:101EE000C1817047016801221204114301607047EB
:101EF00001680122120491430160704701680122C8
:101F00005204114301607047016801225204914359
:101F100001607047012292020029016801D011433B
:101F200000E091430160704710B504460B460888F5
:101F30004988DA8808439988114308431989084376
:101F4000598908439989084344210853987B0028FC
:101F500001D0002100E001212046FFF7DBFFD97B03
:101F6000012000040029216801D0014300E08143E1
:101F70002160197C012040040029216801D001431F
:101F800000E08143216010BD0021018041808180FB
:101F9000C1800181418181818173C1730174704766
:101FA000FF8F0000FFFB0000000C0040FF8C0000D2
:101FB00082890A438281F2E782898A438281EEE73D
:101FC000026980890A400840002A03D0002801D015
:101FD0000120E4E70020E2E7C9430161DFE700698F
:101FE0000840DCD00120DAE7C9430161D7E70000EF
:101FF0007C4910B5884201D1102003E07A4988421B
:1020000002D12020FFF704F910BD82890C239A43E6
:102010000A4382817047828903235B029A430A4301
:1020200082817047028A03231B039A430A43028278
:102030007047828901231B039A430A4382817047B8
:1020400070B586B005460C466846FFF77CF80298E6
:102050001922A100504300F033FC0646642100F031
:102060002FFC0401200964214843301A000132305A
:1020700000F026FC0007000F2043288106B070BD49
:1020800070B50C4605460968FFF7DAFFA1882846B7
:10209000FFF7CFFFE1882846FFF7C4FF21892846D4
:1020A000FFF7B9FF61892846FFF7AFFF70BD4B21ED
:1020B000C901016000218180C18001810C21418121
:1020C00070478189012252031143818170478189C0
:1020D000012252039143818170470A06CB06520FB9
:1020E000DB0E01219940012A06D0022A06D01430C5
:1020F00002680A43026070470C30F9E71030F7E7D6
:102100000A06CB06520FDB0E01219940012A06D0A8
:10211000022A06D0143002688A43026070470C30ED
:10212000F9E71030F7E7028A120912010282028AE7
:102130000A430282704782890123DB029A4382812B
:1021400082890A43828170478189022211438181F9
:10215000704781890222914381817047C905C90D69
:10216000818070478088C005C00D70478189012239
:10217000114381817047818A08221143818270470F
:10218000818A08229143818270470088084000D0EC
:1021900001207047C9430180704730B50A06530FCC
:1021A000CD060124ED0E2246AA40012B0DD0022BB4
:1021B0000DD0838A090A134000888C402040002BF0
:1021C00007D0002805D0012030BD8389F2E7038ABB
:1021D000F0E7002030BD0A0A01219140C943018087
:1021E000704700000044004000480040F74A116872
:1021F000C908C900014311607047F44800684007EE
:10220000400F7047F1480168102211430160704788
:10221000EE4801681022914301607047EB48EC4999
:102220004160EC4941607047E848016980221143F0
:1022300001617047E548E6498160E6498160704781
:10224000E24801694215914301617047DF48006926
:10225000800501D50120704700207047DB4904202C
:10226000CA68D20701D001207047CA68520701D559
:1022700002207047C968C906FBD50320704700B526
:102280000346FFF7EBFF02E0FFF7E8FF5B1E0128C4
:1022900003D0002B00D1072000BD002BF4D1FAE7BA
:1022A000CA49CA680243CA607047F0B5064634207E
:1022B000FFF7F6FF0B273F043846FFF7E0FF04283F
:1022C0000FD1C24C20690225284320616661206934
:1022D0004021084320613846FFF7D1FF2169A94317
:1022E0002161F0BD70B53420FFF7DAFF0B252D0416
:1022F0002846FFF7C4FF04280ED1B44C20690426F9
:102300003043206120694021084320612846FFF7BF
:10231000B6FF2169B143216170BD70B53420FFF76C
:10232000BFFF0B252D042846FFF7A9FF04280ED177
:10233000A64C2069A615304320612069402108433E
:1023400020612846FFF79BFF2169B143216170BDE1
:10235000F0B505460E46800701D00620F0BD3420BA
:10236000FFF79EFF01277F033846FFF788FF042809
:10237000F4D1964C20690121084320612E60384633
:10238000FFF77DFF2169490849002161F0BD8F48B1
:10239000C069002801DA012070470020704770B53D
:1023A000FFF7F5FF002801D0052070BD3420FFF7AE
:1023B00077FF0B2636043046FFF761FF03460428FB
:1023C00015D1FFF737FF814C206920252843206174
:1023D00020694021084320613046FFF750FF034643
:1023E000042806D0072B02D02069A8432061184694
:1023F00070BD3420FFF754FFF6E7FFB59C46174643
:102400000E46FFF7C4FF002802D0052004B0F0BD3F
:10241000FFF710FF3420FFF743FF0B200004FFF706
:102420002EFF0428F2D1694C206910252843206131
:102430003E43604606430998009906430A980643BE
:1024400030040843644908606802FFF718FF072852
:10245000DCD02169A9432161D8E7F0B50E460746D3
:10246000FFF795FF002801D00520F0BD3420FFF7CD
:1024700017FF01204003FFF702FF0428F5D1FFF703
:10248000D9FE524C2069102528432061300452495E
:10249000384348606802FFF7F2FE0728E5D021695B
:1024A000A9432161F0BDFFB59C4617460E46342076
:1024B000FFF7F6FE01204003FFF7E1FE0146FFF7BC
:1024C00066FF002801D00520A0E7042919D1FFF7F5
:1024D000B1FE3E4C20691025284320613E436046F2
:1024E0000643099800990643300408433A49886036
:1024F0006802FFF7C4FE0146072802D02069A843FE
:102500002061084682E7F0B50E460746FFF73FFF19
:10251000002801D00520F0BD3420FFF7C1FE0120C6
:102520004003FFF7ACFE0428F5D1FFF783FE274CEC
:102530002069102528432061300427493843C860AA
:102540006802FFF79CFE0728E5D02169A9432161B5
:10255000F0BDF0B51D4CE0697C2108408603FFF713
:1025600016FF002801D00520F0BD3420FFF798FEAB
:102570000B273F043846FFF782FE0428F4D1FFF70B
:1025800059FE206920252843206120694021084305
:1025900020613846FFF773FE042811D13420FFF77D
:1025A0007FFE2069A843206120691025284320610F
:1025B000FF2000040640084806603846FFF75FFE2B
:1025C0000728D1D02169A9432161F0BD0020024034
:1025D00023016745AB89EFCD00F6FF1FF0B56A4CCC
:1025E000E0697C2108408603FFF7D1FE002801D076
:1025F0000520EAE73420FFF753FE0B273F04384657
:10260000FFF73DFE0428E0D1FFF714FE20692025E6
:102610002843206120694021084320613846FFF7A4
:102620002EFE042810D13420FFF73AFE2069A8437B
:1026300020612069102528432061A52006435348C6
:1026400006603846FFF71BFE0728BED02169A94364
:102650002161BAE74C48C069800701D50120704765
:1026600000207047F0B5484DE8697C21084084039C
:10267000FFF7F0FF002801D1A5200443FFF787FEF4
:10268000002801D00520A0E73420FFF709FE0B2722
:102690003F043846FFF7F3FD042896D1FFF7CAFD43
:1026A0002869202630432861286940210843286191
:1026B0003846FFF7E4FD042819D13420FFF7F0FD78
:1026C0002869B043286128691026304328612046D4
:1026D0002E4C20603846FFF7D2FD042807D1342065
:1026E000FFF7DEFD2A48E0603846FFF7C8FD0728FF
:1026F000C9D02969B143296167E72349C9698908B4
:10270000014201D001207047002070471E48006A36
:10271000C0B270471C48006A0005000F70471A4994
:10272000096A090A014201D0012070470020704760
:102730001548006A0002000E7047134800688006C2
:1027400001D501207047002070470F490A690243F4
:102750000A6170470C490A6982430A6170470A4955
:10276000C968014201D00120704700207047064926
:10277000C969014201D00120704700207047014320
:1027800001484162704700000020024000F6FF1F30
:10279000CC33FFFF10B53E4841694022914341616F
:1027A0003C484168032212031143416041683A4AA0
:1027B000114041608169802291438161016A374AF9
:1027C00011400162016A364A11430162354C2068AA
:1027D00010210843206000F02DF80120C00660623F
:1027E00010BD10B52A4841694020014029484029C0
:1027F0002D4A2E4C416808D08904890F15D04168B4
:102800008904890F012912D002E08904890F0AD0B6
:102810002260406826490006000F095C206800F02D
:102820004FF8206010BD234902E0234900E023490E
:102830002160EEE70EB500201A4A00900190029048
:1028400010680121C008C00008431060114B58688F
:102850005860586858600E48416940229143416170
:102860000220052109021A6802400192029A521CB4
:102870000292019A002A02D0022A04D002E0029AAF
:102880008A42F0D1FEE70020FEF729FC0EBD0000D1
:1028900000700040001002400FF8FFF9F0FFFF3F0A
:1028A000010C00000020024000127A0034000020D9
:1028B000F0290008005A6202006CDC0200366E014A
:1028C00030B50B46014600202022012409E00D46C8
:1028D000D5409D4205D31D469540491B2546954050
:1028E00040191546521E002DF1DC30BD064C012565
:1028F000064E05E0E36807CC2B430C3C98471034A8
:10290000B442F7D3FDF7C0FB002A0008202A0008D4
:1029100002E008C8121F08C1002AFAD170477047A8
:10292000002001E001C1121F002AFBD17047000006
:1029300010B5002823D0124B0022001F196803E0B5
:10294000814203D80A4649680029F9D1002A0AD0F1
:102950001368841A9C4204D100681818106010464D
:1029600002E0506000E01860002907D002680B1AEE
:10297000934203D10B68D21802604968416010BDD0
:1029800038000020F0B50B30C108C900144F0026F4
:10299000144A0FE003688B420BD38B4205D95C1AB3
:1029A0004318456830C3083B00E04368136002C029
:1029B00004E0021D10680028ECD13046002803D145
:1029C0003868002801D00020F0BD064A0648106093
:1029D000064A121AD208D20044C001203860D7E754
:1029E0003C000020380000200C05002008070020D3
:1029F00001010101010101010204080C101818185D
:102A0000202A0008000000204000000010290008D3
:102A1000602A000840000020C80A000020290008A1
:102A20000000000000000000060C18300101010148
:102A30000204081001010101010101010204080C56
:102A4000101818180102030406080A0C1820202088
:102A500020202020006CDC020000000000000000AC
:04000005080000816E
:00000001FF
