:020000040800F2
:10800000C85101204981000817DD0008A1D40008EB
:1080100015DD0008959F0008B980010800000000E8
:10802000000000000000000000000000576201088E
:1080300029CF000800000000E7E90008618100087E
:108040006381000863810008638100086381000880
:108050006381000863810008638100086381000870
:108060006381000863810008638100086381000860
:108070006DC10008B9C10008638100086381000870
:10808000638100086381000863810008657E010840
:10809000C17E0108638100086381000863810008D4
:1080A0006381000863810008638100086381000820
:1080B000816301086381000863810008638100080F
:1080C0006381000863810008638100086381000800
:1080D00063810008AD7B0108957C01087D7D010866
:1080E00063810008638100086381000863810008E0
:1080F00063810008638100086381000863810008D0
:1081000063810008638100086381000863810008BF
:108110003D660108638100086381000863810008EF
:10812000638100086381000863810008638100089F
:10813000DFF810D000F004FB00480047019601086A
:10814000AFF30080C8510120064880470648004729
:10815000FEE7FEE7FEE7FEE7FEE7FEE7FEE7FEE7F7
:10816000FEE7FEE7E962010831810008D2B201E0D2
:1081700000F8012B491EFBD270470022F6E710B52C
:1081800013460A4604461946FFF7F0FF204610BD85
:1081900030B505462A460B4612F8010B13F8014B81
:1081A00008B1A042F8D01CB1002802D06D1CF1E744
:1081B000284630BD421C10F8011B0029FBD1801A53
:1081C000704710B5002200E0521C835C8C5CA34217
:1081D00001D1002BF8D1D8B2E1B2401A10BD03464C
:1081E00011F8012B00F8012B002AF9D1184670472D
:1081F00080EA010210B502F00043400022D04A009C
:108200001FD0010E01EB1261C0F35600C2F35602FB
:1082100040F4000042F40002A0FB022000047F3979
:10822000140400D0401C50EA124001D44000491E02
:10823000C2B20C0604EBD010401C4008802A02D0C9
:1082400003E0002010BD20F00100002900DA00202A
:10825000184310BD96230022114600F08BB820F081
:108260000040C10DC0F3160040F400007F2901DA80
:1082700000207047962903DCC1F19601C840704781
:1082800096398840704700F0004230F000400AD034
:10829000C10D01F56071C0F3160042EA0151C20838
:1082A000400711437047002001467047002801DB5A
:1082B000C0F10040002901DBC1F10041814270475B
:1082C000002801DBC0F10040002901DBC1F10041C1
:1082D0008842704730B50B46014600202022012419
:1082E00009E021FA02F59D4205D303FA02F5491B84
:1082F00004FA02F52844151EA2F10102F1DC30BD9A
:108300002DE9F05F0546002092469B4688460646CA
:10831000814640241BE0284641464746224600F05D
:1083200030FA53465A46C01A914110D311461846A6
:10833000224600F017FA2D1A67EB01084F46224635
:108340000120002100F00EFA17EB00094E41201E1B
:10835000A4F10104DFDC484631462A464346BDE825
:10836000F09F0029A8BF7047401C490008BF20F0BB
:108370000100704710B4B0FA80FC00FA0CF050EA2B
:10838000010404BF10BC704749B1CCF1200421FAAC
:1083900004F411FA0CF118BF012121430843A3EBA7
:1083A0000C01CB1D4FEA00614FEA102042BF0020B4
:1083B00010BC704700EBC35010440029A4BF10BC90
:1083C0007047401C490008BF20F0010010BC7047F6
:1083D0002DE9FE4F804681EA0300C00F0C46009055
:1083E00021F0004123F00045B8EB0200A94105D27D
:1083F0004046214690461C460B46024623F000406C
:10840000104347D0270DC7F30A00C3F30A51029067
:10841000401A019040286BDAC3F3130040F4801B2C
:108420000098924620B10023D2EB030A63EB0B0BBA
:1084300001985946C0F14002504600F093F90646B3
:108440000D4650465946019A00F0ABF910EB080072
:108450006141002487EA115284EAE7731A4340D04D
:10846000009A62B3019A012A4FEA075215DC001BF9
:1084700061EB02014FF0004202EA0752CDE90042EF
:10848000001C41F5801132462B4600F0ABF903B0D9
:10849000BDE8F08F40462146F9E7001B61EB020181
:1084A000001C41F5801300185B412018A2F500174D
:1084B00047EB030140EAD570B6196D4111E06D0834
:1084C0004FEA360645EAC0754FEA0752001B61EBDA
:1084D0000201001C41F5801149084FEA30000019E3
:1084E000514132462B4603B0BDE8F04F00F06BB966
:1084F0000098012240000023D0EB020263EBE073FE
:10850000009821464FEAE074B8EB000061EB0401EB
:10851000E9E783F000435BE781F0004158E72DE98C
:10852000FE4F81EA030404F0004421F0004100946E
:108530004FF0000B23F0004350EA01045ED052EAF2
:1085400003045BD0C3F30A54C1F30A552C44A4F2CC
:10855000F3340194A0FB0254C1F3130141F48011E0
:10856000C3F3130343F4801301FB024400FB034EE7
:10857000840A970A44EA815447EA8357A4FB0768B0
:1085800002958D0A05FB07854FEA932C04FB0C54DA
:108590002705029D4FEA065847EA1637B5EB08054E
:1085A0006EEB070C870E920E47EA811742EA8312A0
:1085B000A7FB0201B6EB0B0164EB00042B0D43EAB1
:1085C0000C335E1844EB1C50DA465146E7FB0201BF
:1085D000C5F313044FEA0B3343EA14534FEA043252
:1085E000019C43EA0603A4F10C040294009CCDE92B
:1085F00000B400F0F7F803B0BDE8F08F00200146AA
:10860000F9E72DE9F04D81EA030404F0004B21F075
:10861000004514464FF0000A23F0004150EA0502DD
:1086200020D054EA01021DD0C5F30A570246C5F313
:108630001303C1F31300C1F30A5640F4801543F449
:108640008013A7EB0608101BD64608F2FD3873EB23
:10865000050002D308F1010801E092185B41B8F16E
:10866000000F03DA00200146BDE8F08D00204FF432
:108670008011064684460EE0171B73EB050705D3F1
:10868000121B63EB050306434CEA010C49084FEA51
:10869000300092185B4150EA0107EDD152EA030025
:1086A00012D082EA040083EA0501084305D0101BBA
:1086B000AB4106D20122002306E000224FF0004326
:1086C00002E06FF0010253101AEB06004CEB085168
:1086D00010EB0A0041EB0B01BDE8F04D00F073B860
:1086E000C1F30A52C1F3130140F2FF3341F4801188
:1086F0009A4202DA00200146704740F233439A4220
:10870000A2F2334202DC524200F03BB800F02AB839
:1087100030B5041E71F1000404DB4FF00044404208
:1087200064EB0101141E73F1000405DB1C464FF0DD
:108730000043524263EB0403994208BF904230BDAC
:10874000064C074D06E0E06840F0010394E807009E
:1087500098471034AC42F6D3FFF7EEFC6CA7010843
:108760008CA70108202A04DB203A00FA02F100203D
:1087700070479140C2F1200320FA03F3194390405F
:108780007047202A04DB203A21FA02F000217047CA
:1087900021FA02F3D040C2F1200291400843194669
:1087A0007047202A06DBCB17203A41FA02F043EA51
:1087B000E07306E041FA02F3D040C2F1200291409A
:1087C00008431946704710B5141E73F1000408DA07
:1087D000401C41F1000192185B411A4301D120F085
:1087E000010010BD2DE9F04D92469B4611B1B1FA42
:1087F00081F202E0B0FA80F220329046FFF7B2FF39
:1088000004460F4640EA0A0041EA0B0153465A4625
:10881000084313D0114653EA010019D0C8F14002B1
:108820005046FFF7AEFF05460E46504659464246B3
:10883000FFF798FF084305D0012004E020463946A1
:10884000BDE8F08D0020054346EAE0762C4337432F
:108850000A986305E40AA0EB08000022FD0A44EA36
:1088600047540A3002D500200146E9E701051019F6
:108870006941DDE9084500196941BDE8F04DA2E70D
:1088800070B58C1810F8015B15F0070301D110F8D2
:10889000013B2A1106D110F8012B03E010F8016BFF
:1088A00001F8016B5B1EF9D12B0705D40023521E82
:1088B0000DD401F8013BFAE710F8013BCB1A921CEA
:1088C00003E013F8015B01F8015B521EF9D5A142E8
:1088D000D8D3002070BD000070B54FF6FF720023A2
:1088E0000A25624C052824D2DFE800F00324496FF2
:1088F0009700207E461C04EB400026768180207E77
:10890000B0FBF5F105FB110020760025002104EBFA
:1089100041008088904200D20246984200D9034626
:108920000544491CC9B20A29F1D3A81AC01AC008C3
:10893000608370BD94F83400461C04EB400084F85A
:108940003460018494F83400B0FBF5F105FB1100AC
:1089500084F834000025002104EB4100008C904293
:1089600000D20246984200D903460544491CC9B2C8
:108970000A29F1D3A81AC01AC008E08670BD94F87D
:108980005000461C04EB400084F85060818794F846
:108990005000B0FBF5F105FB110084F850000025F4
:1089A000002104EB4100808F904200D202469842A1
:1089B00000D903460544491CC9B20A29F1D3A81AB3
:1089C000C01AC008A4F8520070BD94F86C00461C90
:1089D00004EB400084F86C60A0F8581094F86C0028
:1089E000B0FBF5F105FB110084F86C0000250021B7
:1089F00004EB4100B0F85800904200D20246984281
:108A000000D903460544491CC9B20A29F0D3A81A63
:108A1000C01AC008A4F86E0070BD94F88800461C07
:108A200004EB400084F88860A0F8741094F8880083
:108A3000B0FBF5F105FB110084F88800002500214A
:108A400004EB4100B0F87400904200D20246984214
:108A500000D903460544491CC9B20A29F0D3A81A13
:108A6000C01AC008A4F88A0070BD0000E010012000
:108A700010B500F0A9F800F061F8BDE8104000F072
:108A8000A9B900000149012008707047E0100120D9
:108A900010B540F2046010F0FDFF40F2096010F0E4
:108AA000F9FF244C204610F021F8022010F09EFE21
:108AB000072303220021204810F022FD002010F09F
:108AC00085F80022A115204610F0DBF800220221D3
:108AD000204610F0D6F84FF460220121204610F015
:108AE00055F8002120460FF0F5FF012211462046DF
:108AF0000FF0D3FF05230A220021204610F072F860
:108B000005230B220021204610F06CF8204610F0BF
:108B100019F80A2004F009FA20460FF0AFFF0122ED
:108B20001146204610F016F82046BDE810400121FD
:108B300010F09AB80024014000100140214A0021A1
:108B400011705170002002EB40039980401CC0B2AC
:108B50000A28F8D311765183D161002002EB40033B
:108B60001984401CC0B20A28F8D382F83410D18688
:108B70009163002002EB40039987401CC0B20A2891
:108B8000F8D382F85010A2F852105165002002EB81
:108B90004003A3F85810401CC0B20A28F7D382F84B
:108BA0006C10A2F86E101167002002EB4003A3F8CE
:108BB0007410401CC0B20A28F7D302F8881F5180F5
:108BC00051607047E010012070B540F2026010F073
:108BD00061FF40F2036010F05DFF40F2046010F0AE
:108BE00059FF40F2096010F055FF2B4C20460FF062
:108BF0007DFF022010F0FAFDC02303220021274848
:108C000010F07EFC012303220021254810F078FC9F
:108C1000244D302303220021284610F071FC072345
:108C200003220021284610F06BFC00200FF0CEFF3D
:108C30000022A115204610F024F80022022120462F
:108C400010F01FF84FF46022012120460FF09EFF24
:108C5000002120460FF03EFF0122114620460FF072
:108C60001CFF05230622002120460FF0BBFF2046F3
:108C70000FF068FF0A2004F058F920460FF0FEFEBE
:108C80000122114620460FF065FF2046BDE87040E6
:108C900001210FF0E9BF000000240140000801405D
:108CA000000C01400010014070B5474C20780028AE
:108CB0007ED0464E022130460FF080FF002877D04C
:108CC00000202070607840F6FF75052866D2DFE846
:108CD00000F00316293D510030460FF0C2FF014657
:108CE0000020FFF7F9FD608B40F6E4414843B0FBFC
:108CF000F5F000EB400101EBC000E0614EE03046D2
:108D00000FF0AFFF01460120FFF7E6FDE08E40F6D1
:108D1000E4414843B0FBF5F000EB400101EBC0003B
:108D2000A0633BE030460FF09CFF01460220FFF7B6
:108D3000D3FDB4F8520040F6E4414843B0FBF5F0EF
:108D400000EB400101EBC000606527E030460FF00A
:108D500088FF01460320FFF7BFFDB4F86E0040F620
:108D6000E4414843B0FBF5F000EB400101EBC000EB
:108D7000206713E030460FF074FF01460420FFF730
:108D8000ABFDB4F88A0040F6E4414843B0FBF5F08F
:108D900000EB400101EBC000C4F88C006078401C7F
:108DA00000F0070060700A4905230A5C002100E01A
:108DB00008E030460FF016FF3046BDE87040012154
:108DC0000FF052BF70BD0000E010012000240140F0
:108DD0000C0300201CB519200DF0A6FB084900204B
:108DE0004870411ECDE900100123064A05211920D3
:108DF0000DF0D8FABDE81C40012103480FF034BF44
:108E0000E0100120858A0008002401402DE9F05F70
:108E100040F2026010F03EFE40F2036010F03AFEB5
:108E200040F2046010F036FE40F2056010F032FEB1
:108E300040F2066010F02EFE6A4D4FF400642346A7
:108E400003221021284610F05BFB66003346032204
:108E50000421284610F054FBA7003B4603220421BE
:108E6000284610F04DFB082303220421284610F069
:108E700047FB102303220421284610F041FB334610
:108E800003220421584810F03BFB3B4603220421F7
:108E9000554810F035FBE30003220421524810F03E
:108EA0002FFB27013B46032204214F4810F028FBEB
:108EB0004FF48078434603220421284610F020FB1B
:108EC000DFF82891802303220421484610F018FB84
:108ED000DFF81CA13B4603220421504610F010FB92
:108EE000802303220421284610F00AFB402303229A
:108EF0000421484610F004FB0223032204212846E3
:108F000010F0FEFA202303220421284610F0F8FA7C
:108F1000DFF8E0B0102303220421584610F0F0FAE5
:108F2000202303220421584610F0EAFA40230322AA
:108F30000421584610F0E4FA434603220421504627
:108F400010F0DEFA012303220421284610F0D8FA9B
:108F5000802303220421244810F0D2FA3B46032246
:108F60000421284610F0CCFAE3000322042128460D
:108F700010F0C6FA631003220421284610F0C0FA4C
:108F8000A31003220421284610F0BAFA2346032234
:108F90000421504610F0B4FA33460322042150460F
:108FA00010F0AEFA402303220421284610F0A8FA5C
:108FB0004023032204210C4810F0A2FA08230322C4
:108FC0000421484610F09CFA022303220421504653
:108FD00010F096FA5846BDE8F05F01230322042101
:108FE00010F08EBA00140140000C01400010014046
:108FF00000080140001801402DE9F041294C4FF4D0
:109000000061204610F078FAA6143146204610F090
:1090100073FA65142946204610F06EFA082120469E
:1090200010F06AFA1021204610F066FA31461E4E02
:10903000304610F061FA2946304610F05DFA6900BA
:10904000304610F059FAAD002946304610F054FA77
:10905000A6153146204610F04FFA144F80213846AD
:1090600010F04AFA2946124D284610F045FA8021A0
:10907000204610F041FA4021384610F03DFA022116
:10908000204610F039FA2021204610F035FA3146FA
:10909000284610F031FA2046BDE8F041012110F0D9
:1090A0002BBA000000140140000C014000100140E8
:1090B0000008014030B500220021002803D0B0F89C
:1090C000A2506B1E06E0002030BD4418A478624018
:1090D000491C89B28B42F8DCD143C9B2401C285CE0
:1090E000884201D0002030BD012030BD2DE9F0477D
:1090F0000646002E19D0B6F8BA02B6F8BC1288425D
:1091000013D000EBC00101EB401106EB8101CE3121
:109110004FF003088A78552A09D0401C80B2B0FB72
:10912000F8F108FB1100A6F8BA02BDE8F08748790B
:10913000B0283FD1087A0024FB4FFC4D012802D013
:109140000328F6D140E1DFF8E493887A09F10409B5
:1091500089F80000C87A89F80100087B89F80200C4
:10916000487B89F80300F249D9F80000FFF740F87E
:10917000C9F80000FFF740FF0022042109F10800B0
:109180000EF09BFFB87E10B10128D2D1AFE0F87D80
:1091900015280FD2DFE800F00E0B0E0F20314253DE
:1091A00064680E0E0E6C0E0E70899A8185000D207B
:1091B00006F0FCF8D4E12878401CC0B228700128E1
:1091C00002D1142006F0F2F828780228F2D11520F6
:1091D00006F0ECF82C70C3E12878401CC0B228706F
:1091E000012802D11C2006F0E1F828780228E1D1FC
:1091F0001D2006F0DBF82C70B2E12878401CC0B2CC
:109200002870012802D1242006F0D0F828780228FE
:10921000D0D1252006F0CAF82C70A1E12878401C96
:10922000C0B22870012802D12C2006F0BFF828789F
:109230000228BFD12D2006F0B9F82C7090E12878D3
:10924000401CC0B22870012802D1352006F0AEF8CB
:1092500028780228AED1362006F0A8F82C707FE1DD
:109260003E2006F0A3F87BE1472006F09FF877E167
:10927000592006F09BF873E12878401CC0B2287092
:10928000012802D1142006F091F82878022891D103
:10929000152006F08BF82C7062E13E2006F086F86F
:1092A0005EE1472006F082F85AE12878401CC0B2FF
:1092B0002870012802D12C2006F078F8287802289E
:1092C00089D12D2006F072F82C7049E12878401CD5
:1092D000C0B22870012802D1352006F067F828783E
:1092E000022889D1362006F061F82C7038E1F87D2B
:1092F0000E2892D2DFE800F01717170718293A4B0B
:109300005C60171717642878401CC0B228700128C9
:1093100002D1702006F04AF8287802288ED16F20FA
:1093200006F044F82C701BE12878401CC0B228706D
:10933000012802D1782006F039F8287802288ED149
:10934000792006F033F82C700AE12878401CC0B26E
:109350002870012802D1802006F028F828780228F9
:1093600085D1812006F022F82C70F9E02878401C85
:10937000C0B22870012802D12C2006F017F82878F6
:10938000022803D12D2006F011F82C70E8E028788F
:10939000401CC0B22870012802D1352006F006F822
:1093A0002878022803D1362006F000F82C70D7E088
:1093B000992005F0FBFFD3E0A22005F0F7FFCFE0F6
:1093C000B42005F0F3FFCBE058488A7A08300270E9
:1093D000CA7A42700A7B8270497BC170FFF70CFE2B
:1093E0005248002204210C300EF067FEB87E10B106
:1093F00001284ED156E0F87D00284AD0022804D03A
:10940000082847D0092844D148E06878401CC0B2F9
:109410006870012805D1387E032802D1042005F0A8
:10942000C5FF6878012805D1387E022802D10620C0
:1094300005F0BCFF6878012805D1387E012802D1EB
:10944000042005F0B3FF6878012805D1387E042890
:1094500002D1082005F0AAFF6878022806D1387EDC
:10946000032803D1062005F0A1FF6C70687801285D
:1094700005D1387E052802D1062005F097FF6878CF
:1094800002286DD1387E05286AD1082005F08EFFAC
:109490006C7065E0042005F089FF61E0062005F0AE
:1094A00085FF5DE0F87DE8B3022804D0082850D09D
:1094B000092855D151E06878401CC0B26870012875
:1094C00005D1387E032802D1042005F06FFF6878AB
:1094D000012805D1387E022802D1062005F066FF5A
:1094E0006878012805D1387E012802D1042005F0D2
:1094F0005DFF6878012805D1387E042802D1082054
:1095000005F054FF6878022806D1387E032803D17D
:10951000062005F04BFF6C70687801280ED1387E6C
:10952000052807E014E00000E08500200800002086
:1095300000007A4402D1062005F038FF687802283E
:109540000ED1387E05280BD1082005F02FFF6C7056
:1095500006E0042005F02AFF02E0062005F026FFC1
:10956000B6F8BA02401C80B2B0FBF8F108FB11005B
:10957000A6F8BA02D9E500281ED0B0F8BC1201EB5B
:10958000C10202EB411200EB8202B2F87021AAB1D3
:10959000491C89B20322B1FBF2F302FB1311A0F8BC
:1095A000BC1201EBC10303EB411100EB810000226F
:1095B000A0F87021012070470020704700207047FC
:1095C00000282BD0002280F8B024A0F8AE24A0F808
:1095D000AA24A0F8AC24002101EBC10303EB411342
:1095E00000EB8303A3F86023491C89B20329F3D35A
:1095F00020F8C82F42808280A0F8F221A0F8F42140
:10960000C838002101EBC10303EB411300EB8303D6
:10961000A3F87021491C89B20329F3D370470000D5
:1096200010B50548FFF7CCFF044800F065FABDE827
:109630001040034800F032B8540B00204596000853
:109640006999000870B50D48B0F8CA20B0F8C84054
:109650000D78531CC821B3FBF1F601FB1633A3426E
:109660000AD0855430F8CA2F521C02800288B2FBFF
:10967000F1F301FB1321018070BD0000540B0020A9
:1096800010B5054800F010F80348FFF72FFDBDE8BE
:10969000104000F03BB90000540B00200149C1F814
:1096A000B4047047540B00202DE9F0410446B4F88F
:1096B000CA10B4F8C800002C23D0884221D0B4F8D6
:1096C000BC0200EBC00202EB401204EB8205CE3577
:1096D000B4F8CC20A25CB5F8A230C8279BB14FF0FB
:1096E0000008A02B7ED3A5F8A28034F8C80F401C38
:1096F00020802088B0FBF7F107FB11002080208834
:10970000A080BDE8F081552A0CD034F8C80F401C69
:1097100020802088B0FBF7F107FB11002080208813
:10972000A080EEE7401C0321B0FBF1F301FB130026
:10973000B4F8BA128842E4D00120A5F8A200AA70B9
:1097400034F8CC0F401C80B2B0FBF7F107FB1100DE
:109750002080D6E7225CB5F8A200431C2844A5F877
:10976000A2308270B4F8CC00401C80B2B0FBF7F29B
:1097700007FB1200A4F8CC00B5F8A260062E3BD37C
:10978000A8799A280ED9A5F8A28034F8C80F401CF1
:1097900020802088B0FBF7F107FB11002080208893
:1097A000A080AEE7801DB04226D82846FFF782FC95
:1097B00088B134F8C80F304420802088B0FBF7F11E
:1097C00007FB110020802088A080C83C2046BDE80F
:1097D000F041FFF7D0BEA5F8A28034F8C80F401CB6
:1097E000208000E008E02088B0FBF7F107FB1100C3
:1097F00020802088A08084E7B4F8CC008842A9D1DA
:109800007FE730B505460C46552000F019F80020DA
:1098100000F016F8AA2000F013F8B02000F010F8BD
:10982000032000F00DF8042000F00AF8E8B200F080
:1098300007F8E0B200F004F8BDE8304000F024B8CA
:1098400030B51049B1F8AA44B1F8AC2402EBC20318
:1098500003EB421301EB830101F2BE21521C0323EF
:10986000B2FBF3F503FB1522A24209D0B1F8A22006
:10987000A02A05D28B1CD05431F8A20F401C0880BE
:1098800030BD0000540B0020F0B5002200211E4E18
:10989000B6F8AA54B6F8AC4404EBC40000EB44108C
:1098A00006EB800000F2BE20B0F8A230641C032753
:1098B000B4FBF7FC07FB1C44AC4203D0052B02D2DF
:1098C000A0F8A210F0BDA02BFCD25C1F8471B0F8F0
:1098D000A25004E04418A4786240491C89B28D4229
:1098E000F8D8D143C218917030F8A21F491C0180EA
:1098F000B6F8AC04401C80B2B0FBF7F107FB1100D6
:10990000A6F8AC04F0BD0000540B002070B5154C57
:10991000B4F8AA34B4F8AC6403EBC30000EB431012
:1099200004EB80000546B0F8602300F53071B0F814
:10993000BE02B34214D0D4F8B434002B10D09847F0
:1099400000280DD00020A5F86003B4F8AA04401C3C
:1099500080B20321B0FBF1F201FB1200A4F8AA04CB
:1099600070BD0000540B002070B51B4CB4F8D454EB
:10997000B4F8D634002907D032B15E1C06F00706D1
:10998000AE4203D1002070BD002070BD4D256B4359
:1099900004EB43039880002005E01E1811F8015BDA
:1099A000B571401C80B29042F7D3A3F89C2004F21A
:1099B000D6442088401C2080208800F007002080AA
:1099C000208800214D22A4F2D644504304EB4000ED
:1099D000A0F89C10012070BD2C060020002816D095
:1099E000002280F8DA24A0F8D824A0F8D424A0F823
:1099F000D62400214D234B4300EB4303A3F89C20C6
:109A0000491C89B20829F5D3014880F824257047FC
:109A10002C06002070B5054640F2026010F03AF8BE
:109A2000224C4FF400730322182120460FF068FDEA
:109A300023150322482120460FF062FD40F20E60FC
:109A400010F028F81A4C204610F0A2FC29462046B7
:109A500010F05EFC0021204610F04BFD0021204656
:109A600010F039FD0021204610F027FD002120468E
:109A700010F0EEFC0021204610F0E4FC0821204606
:109A800010F031FD0421204610F01FFD01220221BB
:109A900025200FF04FFE40F20531204610F0E9FC82
:109AA0002046BDE8704010F0BBBC0000000801403B
:109AB0000038014010B5064C0146204610F064FC09
:109AC0002046BDE8104040F2063110F0D2BC000044
:109AD0000038014010B54FF41650FFF79BFFBDE86A
:109AE00010400148FFF77ABF2C060020014800F023
:109AF00009B800002C0600200149086070470000EA
:109B00002C06002010B50446B4F8D804B4F8D414D8
:109B10004D22514304EB4101B1F89C20B4F8D41418
:109B2000B4F8D634002C17D0994215D094F8DA3412
:109B3000002B11D190420FD2B4F8D804421CA4F8E3
:109B4000D8244D22514304EB410108448079FFF7AA
:109B5000B1FF012084F8DA0410BD00007CB5E748AD
:109B6000E74CE84D40880B287ED2DFE800F07D0608
:109B70007D4066BEE4FDFCFBFA00E349002008706E
:109B800002F078FAE1A1002003F0E2F9E0A101205F
:109B900003F0DEF9FFF730FA01200090019094F80D
:109BA0002F104FF47A7041430A23DB4A08200CF04F
:109BB000F9FB207E032801D105F0F8FB207E022866
:109BC00002D1052005F0F2FB207E012802D10320FE
:109BD00005F0ECFB207E042802D1072005F0E6FB0F
:109BE000207E052840D1BDE87C4005F0DFBB022087
:109BF00005F0DCFBC94C80230322102120460FF026
:109C00007FFC802120460FF079FC00210320FFF724
:109C1000F8FD00210320FFF7F4FD02F02BFABBA1B1
:109C2000002003F095F9BEA1012003F091F9BDE8F1
:109C30007C40BEA1022003F08BB908200CF0A4FCEC
:109C40002868322802DA217E032928D0322802DA55
:109C5000217E012936D0002806D002F00BFAABA1F4
:109C6000002003F075F900E01CE1B3A1012003F02E
:109C70006FF9B4A1022003F06BF9B5A20021032013
:109C80002B6803F0B3F9002104200CF02BF9082015
:109C90000CF04AFCBDE87C40012005F001BA02F05E
:109CA000E9F99AA1002003F053F9A3A1012003F0E0
:109CB0004FF9A8A1022003F04BF9BDE87C40052034
:109CC00005F074BB02F0D6F990A1002003F040F932
:109CD00099A1012003F03CF99EA1022003F038F97C
:109CE000BDE87C40092005F061BB022005F05EFB69
:109CF0009A4C80230322102120460FF001FC802182
:109D000020460FF0FBFB00210320FFF77AFD002126
:109D10000320FFF776FD02F0ADF97CA1002003F0EF
:109D200017F97FA1012003F013F9BDE87C407FA162
:109D3000022003F00DB908200CF026FC2868322818
:109D400018DA207E052815D002F094F96FA10020C2
:109D500003F0FEF882A1012003F0FAF882A10220AC
:109D600003E0B6E0A1E065E03EE003F0F1F8092091
:109D700005F01CFB2868322813DA207E052810D154
:109D800002F078F961A1002003F0E2F874A101204B
:109D900003F0DEF874A1022003F0DAF8072005F0E2
:109DA00005FB286832287DDD02F064F957A1002008
:109DB00003F0CEF86AA1012003F0CAF861A10220E5
:109DC00003F0C6F862A2002103202B6803F00EF90D
:109DD000002104200CF086F808200CF0A5FBBDE85B
:109DE0007C40012005F05CB9022005F0DFFA614CEF
:109DF00002230322102120460FF082FB022120467D
:109E00000FF07CFB00210320FFF7FBFC0021032067
:109E1000FFF7F7FC02F02EF93CA1002003F098F8C0
:109E20003FA1012003F094F8BDE87C403FA102204F
:109E300003F08EB808200CF0A7FB2868322812DA4D
:109E400002F018F931A1002003F082F84AA10120A4
:109E500003F07EF844A1022003F07AF8BDE87C40CC
:109E6000092005F0A3BA02F005F928A1002003F0AB
:109E70006FF841A1012003F06BF832A1022003F03A
:109E800067F833A2002103202B6803F0AFF800210C
:109E900004200CF027F808200CF046FBBDE87C40BD
:109EA000012000E029E005F0FBB808200CF03CFBA5
:109EB00002F0E0F833A1002003F04AF8FFF79CF825
:109EC000012104200CF00EF8BDE87C40012005F0D3
:109ED000E7B808200CF028FB084800220421543081
:109EE0000EF0EBF8FFF788F8002104200BF0FAFFE2
:109EF000BDE87C40012005F0D3B87CBD12020020F3
:109F0000E08500201000002009000020474E44009A
:109F100054657374696E6700ADF30008001001406A
:109F200041564F204D455445520000004D65617328
:109F30007572656D656E74005448524F54544C45AB
:109F40000000000041626E6F726D616C00000000E5
:109F5000256400004E6F726D616C000000140140BA
:109F60004252414B45000000474E44204E6F726DF7
:109F7000616C00000008014044455241494C4C4589
:109F800055520000474E442054657374205061734D
:109F900073000000FEE710B500230022002804D162
:109FA00010BD845C6340521C92B28A42F9D3DA43FA
:109FB0004254012010BD30B500230022002801D0FA
:109FC0004C1E05E0002030BD855C6B40521C92B2F7
:109FD000A242F9D3DA43D2B2084410F8010C9042FD
:109FE00001D0002030BD012030BD00002DE9FE4F22
:109FF00082464FF00008CDF80880BAF1000F71D00A
:10A00000C146FE4D4FF0FF3B012740F2E52009FB22
:10A0100000F00AEB8006B6F8240CB6F8261C88423D
:10A0200012D000EB800101EB401106EB8104943467
:10A030002179552909D0401C81B21420B1FBF0F2DE
:10A0400000FB1210A6F8240C2AE26079A97D0829E9
:10A0500023D2DFE801F022220499FDFC22FD15281D
:10A0600056D008DC002818D001280DD0032815D0C0
:10A07000132812D140E02428F5D025285BD02728CA
:10A0800068D02B28F5D17BE095F864000028F0D14A
:10A09000DA2005F08BF985F86470F6E195F8710027
:10A0A00090B195F872000028F7D095F8250018B106
:10A0B000E42005F07BF9E8E195F827000028ECD0D2
:10A0C000DE2005F073F9E0E195F8250018B1E220F3
:10A0D00005F06CF9D9E195F8270020B1DC2005F0F6
:10A0E00065F9D2E1E4E195F826000028D5D040F2E8
:10A0F0000D1005F05BF9C8E1E0790290029818B103
:10A10000DD2005F053F9C0E1DC2005F04FF9BCE19A
:10A11000E0790290029810B9E86D401EE865296D5B
:10A12000E86D884203D2DE2005F040F9ADE1DF2082
:10A1300005F03CF9A9E1E0790290029818B1E3201A
:10A1400005F034F9A1E1E22005F030F908200CF027
:10A150001BFA9AE1E0790290029838B1E96CA86D97
:10A16000884209D2E42005F021F98EE1A86D00288B
:10A1700093D0401EA86588E1E52005F017F984E139
:10A18000E02005F013F980E1062850D008DC002813
:10A1900091D002280DD0032824D005288BD138E097
:10A1A00007285AD013285CD0152868D02B288AD1CC
:10A1B00078E095F8250010B995F8270048B195F892
:10A1C0006400002886D1EC2005F0F0F885F8647072
:10A1D0005BE195F8260000288DD040F20D1005F0C7
:10A1E000E5F852E195F8250018B1EE2005F0DEF80B
:10A1F0004BE195F8270018B1F22005F0D7F844E1BB
:10A2000095F82600002891D040F20D1005F0CEF808
:10A210003BE1E0790290029828B1C5F85880F0201F
:10A2200005F0C4F831E1EE2005F0C0F82DE1E07949
:10A230000290029818B9A86D08B1401EA865E96C93
:10A24000A86D884205D2F02005F0B0F81DE177E056
:10A250002CE0F12005F0AAF817E1F62005F0A6F8A9
:10A2600013E1E0790290029828B1C5F85C80F420EF
:10A2700005F09CF809E1F22005F098F805E1E07995
:10A280000290029810B9E86D401EE865296DE86DEE
:10A29000884203D2F42005F089F8F6E0F52005F0B5
:10A2A00085F8F2E0F62005F081F8EEE0801E062841
:10A2B0000DD2DFE800F0030D141C2D4095F864006A
:10A2C000002804D1FA2005F071F885F86470DCE00C
:10A2D00095F8250050B3FC2005F068F8D5E095F816
:10A2E000260018B340F20D1005F060F8CDE0FD2017
:10A2F00005F05CF8E0790290029828B1C5F8588022
:10A30000FE2005F053F8C0E0FC2005F04FF8BCE05B
:10A31000E0790290029810B9A86D401EA865E96C1A
:10A32000A86D884203D2FE2005F040F8ADE0FF2082
:10A3300005F03CF8A9E04FF4807005F037F8A4E090
:10A34000012806D002281CD0032842D004282BD193
:10A3500073E095F8640038BB95F8270010B995F8BC
:10A36000250020B140F2051005F020F806E095F830
:10A37000260018B140F20D1005F018F885F8647049
:10A3800083E095F8250080B1C5F858804FF48370BC
:10A3900005F00CF8CDE900B740F20713184A4FF466
:10A3A0007A7109200BF0FEFF6FE095F8270018B3D3
:10A3B000C5F85C8040F2091004F0F8FFCDE900B761
:10A3C0004FF485730E4A4FF47A7109200BF0EAFFBF
:10A3D0005BE008200CF0D8F895F82500B8B1E96CDE
:10A3E000A86D491E88420DD2E17909B1401CA865CB
:10A3F0004FF4837004F0DAFF47E00000E0850020AE
:10A40000ADF300084FF4847004F0D0FF3DE095F800
:10A410002700D0B3296DE86D491E884208D2E17942
:10A4200009B1401CE86540F2091004F0BFFF2CE0C0
:10A430004FF4847004F0BAFF27E0E07978B195F822
:10A44000250020B185F8677085F8258016E095F81D
:10A45000270098B185F8667085F827800EE095F89A
:10A46000250020B185F8617085F8258006E095F813
:10A47000270018B185F8617085F8278008200CF056
:10A4800053F84FF4867004F091FFB6F8240C401C8A
:10A4900080B21421B0FBF1F201FB1200A6F8240CEB
:10A4A00009F1010909F0FF09B9F1000F3FF4ADAD61
:10A4B000BDE8FE8F002823D040F2E522514300EB97
:10A4C0008101B1F8260C00EB800202EB401201EB97
:10A4D0008202B2F82421AAB1401C80B21422B0FB3F
:10A4E000F2F302FB1300A1F8260C00EB800303EB50
:10A4F000401001EB80000022A0F8242101207047C9
:10A500000020704700207047F0B5214BB3F8D47499
:10A51000B3F8D64400290AD04AB1661C0F25B6FB11
:10A52000F5FC05FB1C66BE4203D10020F0BD0020F7
:10A53000F0BD04EB840606EB4414164E06EB8404CF
:10A54000C4F8280C002007E004EB000C11F8017B94
:10A550008CF82C7C401C80B29042F5D3A4F8B82C27
:10A5600003F2D6431888401C18801888B0FBF5F118
:10A5700005FB110018801888002100EB800202EB17
:10A58000401006EB8000A0F8B81C0120F0BD0000D0
:10A5900094A200209492002030B500283FD000F50E
:10A5A000805101F2D44100248C718C800C804C804D
:10A5B000002101EB810202EB411200EB8202A2F8C2
:10A5C000B84C491CC9B20F29F3D3002101EBC102D9
:10A5D00002EB811200EB420222F88C4F54809480EF
:10A5E000491CC9B20029F1D00022002140F2E52324
:10A5F000534300EB830301EB810505EB411503EBAE
:10A600008505A5F82441491CC9B21429F3D3A3F840
:10A61000244CA3F8264C521CD2B2002AE5D030BDFF
:10A62000F0B589B0054640F219700FF033FA40F2E8
:10A6300003600FF02FFA4FF4C0600FF02BFA0022E6
:10A64000012114200FF076F80022022113200FF0D0
:10A6500071F801214FF4EA100EF0A4FF324C4FF4D0
:10A6600080730322482120460EF04AFF631503221F
:10A67000182120460EF044FF06A900200EF002FD2E
:10A6800001A900200EF0FEFC284F38460EF046FBD4
:10A6900000248DF81C4001268DF81D608DF81E40A9
:10A6A0008DF81F408DF820408DF821408DF818401E
:10A6B0008DF8194005208DF81A008DF81B402420D4
:10A6C0007D2D25D0FA2D26D0B5F5FA7F27D0ADF80F
:10A6D000220006A938460EF09BFBADF80E60ADF8DF
:10A6E0001040ADF81260ADF80440ADF80640ADF88A
:10A6F0000840ADF80A40ADF80C408DF8146001A890
:10A700000EF01EFB022138460EF010FC09B0F0BD21
:10A71000ADF82200DDE71220ADF82200D9E70920CC
:10A72000ADF82200D5E70000000C014000640040B5
:10A730002DE9F041002937D0B0F5006F34D2002365
:10A74000DFF868C0BCF88E00BCF88C70401C8C250B
:10A75000B0FBF5F405FB1400B84225D0002421E03D
:10A7600003EBC30000EB83100CEB400011F8016B0E
:10A77000B0F88E8008F8006030F88E6F761C068086
:10A7800030F88E69761CB6FBF5F805FB1866BE42FC
:10A790000AD030F88E6FB6FBF5F805FB1866068018
:10A7A000641CE4B29442DBD3BDE8F08194920020B3
:10A7B00030B50022002804D00121B0F898502B1F9A
:10A7C00007E0002030BD4418A478224492B2491C0E
:10A7D00089B28B42F7DC411E695C4FF6FF7303EAD6
:10A7E0000121801E285C084480B2904201D00020E4
:10A7F00030BD012030BD000070B50446002C16D0DD
:10A80000B4F8D003B4F8D213884210D04D2141439C
:10A8100004EB4101CE3105258A783A2A08D0401C44
:10A8200080B2B0FBF5F105FB1100A4F8D00370BDB8
:10A83000087958B10B4890F8200138B10A4A002035
:10A840001070B1F89820891C0BF00AFCB4F8D00302
:10A85000401C80B2B0FBF5F105FB1100A4F8D00359
:10A8600070BD0000E08500204A00002000281AD0BA
:10A87000B0F8D2134D224A4300EB4202B2F86621EF
:10A880009AB1491C89B20522B1FBF2F302FB131104
:10A89000A0F8D21300224D23594300EB4100A0F849
:10A8A0006621012070470020704700207047002873
:10A8B00027D0002280F8DC26A0F8DA26A0F8D626D9
:10A8C000A0F8D82600214D234B4300EB4303A3F807
:10A8D0006C24491C89B20529F5D320F8C82F428081
:10A8E0008280A0F80823A0F80A23C83800214D234D
:10A8F0004B4300EB4303A3F86621491C89B20529A9
:10A90000F5D3704700B50448FFF7D1FF03485DF861
:10A9100004EB00F037B8000070A7002009A500087C
:10A92000F0B5174BB3F8CA50B3F8C86000206D1CDF
:10A93000C824B5FBF4F704FB1755B5421ED01BE045
:10A9400011F8015BB3F8CA70DD5533F8CA5F6D1CAE
:10A950001D8033F8CA596D1CB5FBF4F704FB17557D
:10A96000B5420BD0B3F8CA50B5FBF4F704FB17554A
:10A97000A3F8CA50401C80B29042E1D3F0BD000061
:10A9800070A700200149C1F8E006704770A70020B9
:10A990002DE9F0410446B4F8CA10B4F8C800002C00
:10A9A00021D088421FD0B4F8D2234D20504304EB6D
:10A9B0004005CE35B4F8CC00205CB5F89830C827F7
:10A9C0009BB14FF00008962B7ED3A5F8988034F801
:10A9D000C80F401C20802088B0FBF7F107FB110056
:10A9E00020802088A080BDE8F0813A280CD034F87F
:10A9F000C80F401C20802088B0FBF7F107FB110036
:10AA000020802088A080EEE7521C0521B2FBF1F3E4
:10AA100001FB1321B4F8D0239142E4D00121A5F821
:10AA20009810A87034F8CC0F401C80B2B0FBF7F13E
:10AA300007FB11002080D6E7225CB5F89800431C84
:10AA40002844A5F898308270B4F8CC00401C80B23D
:10AA5000B0FBF7F207FB1200A4F8CC00B5F8986041
:10AA6000082E3BD368798E280ED9A5F8988034F843
:10AA7000C80F401C20802088B0FBF7F107FB1100B5
:10AA800020802088A080AEE70830B04226D8284633
:10AA9000FFF78EFE88B134F8C80F3044208020883C
:10AAA000B0FBF7F107FB110020802088A080C83C94
:10AAB0002046BDE8F041FFF7D9BEA5F8988034F8EC
:10AAC000C80F401C208000E008E02088B0FBF7F1B0
:10AAD00007FB110020802088A08084E7B4F8CC0018
:10AAE0008842A9D17FE700B53A2000F011F81A207A
:10AAF00000F00EF8AA2000F00BF8012000F008F892
:10AB0000062000F005F85DF804EB00F023B8000023
:10AB100030B50F49B1F8D646B1F8D8264D23534386
:10AB200001EB430101F57571521C0523B2FBF3F5EE
:10AB300003FB1522A24209D0B1F89820962A05D22B
:10AB40008B1CD05431F8980F401C088030BD000099
:10AB500070A70020F0B500232D4CB4F8D666B4F8E9
:10AB6000D8264D20504304EB400000F57570B0F836
:10AB70009810521C0525B2FBF5F705FB1722B242CF
:10AB800004D0042903D20021A0F89810F0BD962922
:10AB9000FCD24A1C962AF9D28A1C962AF6D2CA1CE2
:10ABA000962AF3D20A1F4271012205E08618B67870
:10ABB00033449BB2521C92B28A42F7D3B0F8981039
:10ABC0004A1C0144A0F898208B70B0F898101B0A1A
:10ABD0004A1C0144A0F898208B70B0F898100D23FF
:10ABE0004A1C0144A0F898208B70B0F898100A23F2
:10ABF0004A1CA0F8982008448370B4F8D806401C7A
:10AC000080B2B0FBF5F105FB1100A4F8D806F0BD49
:10AC100070A7002070B5144CB4F8D626B4F8D83616
:10AC20004D20504304EB40000546B0F86C6400F240
:10AC3000D631B0F8D4039A4215D0D4F8E036002BC0
:10AC400011D0F2B2984700280DD00020A5F86C046E
:10AC5000B4F8D606401C80B20521B0FBF1F201FB2E
:10AC60001200A4F8D60670BD70A7002010B5002809
:10AC700039D000247030847184800480448070381E
:10AC8000002100EB0112A2F86C40491C89B2002996
:10AC9000F7D0002100EBC10254809480D480491C7D
:10ACA00089B20329F6D300220021491C89B2002968
:10ACB000FBD002EB420100EBC1018C85CC85521C1C
:10ACC00092B2032AF0D3FF2280210748FDF74EFA03
:10ACD00005480A380460446080F8E640012180F8A5
:10ACE000E31180F8E21110BDA290002010B50748D2
:10ACF000FFF7BCFF064800F059F80448FF22C821BE
:10AD0000BDE810408E30FDF731BA000014900020ED
:10AD100009A5000830B500230E4CE58A05EB850532
:10AD200004EB850568600AE0E08A11F8015B00EB3E
:10AD3000800004EB80001844C5725B1CDBB29342B8
:10AD4000F2D3E08A00EB800004EB800082720020E6
:10AD5000E08230BD7C92002010B50548FFF718FE58
:10AD60000348FFF749FDBDE81040FFF753BF00005F
:10AD700070A7002010B5054800F0E4F80348FFF77D
:10AD800035F9BDE8104001F089B800009492002028
:10AD900010B5054800F0D6FE034800F0BBF9BDE849
:10ADA000104000F091BF000054AE002001498867B8
:10ADB000704700001490002010B500F007FE034813
:10ADC00000F0BEFDBDE8104000F07ABF54AE002098
:10ADD00010B50446552000F01DF8204600F01AF882
:10ADE000002000F017F8BDE8104000F039B830B589
:10ADF00005460C46552000F00DF8284600F00AF8EC
:10AE0000012000F007F8204600F004F8BDE83040CB
:10AE100000F026B830B510490C884A88498801EB03
:10AE2000810303EB41110D4B03EB810142F69C635F
:10AE30001944521C5023B2FBF3F503FB1522A24226
:10AE400009D0B1F890208C2A05D20B1DD05431F8CE
:10AE5000900F401C088030BD300B012054AE002004
:10AE60002DE9F043254CB4F8DC1CB4F8DE2CA4F535
:10AE7000A04702EB820000EB421007EB800542F690
:10AE8000A060284405F50055B5F82C6F0378521CD6
:10AE90004FF05008B2FBF8FC08FB1C228A4205D098
:10AEA0004FF00009552B03D0A5F82C9FBDE8F08387
:10AEB000F11E892904D3A5F82C9FFF210170F5E725
:10AEC0008170314600F0FFF8761CA5F82C6F04F66F
:10AED000DE442088401C20802088B0FBF8F108FB6D
:10AEE00011002080208800EB800101EB401007EB6F
:10AEF000800000F50050A0F82C9FD7E754FE0020FA
:10AF000030B505460C465520FFF784FFA720FFF714
:10AF100081FF0620FFF77EFF2846FFF77BFF00201A
:10AF2000FFF778FF0020FFF775FF0020FFF772FFA3
:10AF30000220FFF76FFF2046FFF76CFFBDE83040AF
:10AF4000FFF78EBF2DE9F0478046B8F1000F7DD0A6
:10AF50000026B1468C2706EBC60000EB861008EBF6
:10AF60004004B4F88E10B4F88C00884224D040F22B
:10AF7000E520704308EB8002B2F8260C00EB80035A
:10AF800003EB401302EB83059435B4F89030E35C97
:10AF9000B5F890C0BCF1000F0FD0BCF18C0F77D387
:10AFA00034F88C0F401C20802088B0FBF7F107FBA1
:10AFB000110020802088A0807EE0552B0CD034F832
:10AFC0008C0F401C20802088B0FBF7F107FB11009C
:10AFD00020802088A0806FE0401C1421B0FBF1FC91
:10AFE00001FB1C00B2F8241C884265D00120A5F8A2
:10AFF00090002B7134F8900F401C80B2B0FBF7F139
:10B0000007FB1100208057E0225CB5F89000431C3C
:10B010002844A5F890300271B4F89000401C80B22A
:10B02000B0FBF7F207FB1200A4F89000B5F890A06F
:10B03000BAF1040F3CD3A879882810D9A5F89090CC
:10B0400034F88C0F401C2080208800E039E0B0FBF1
:10B05000F7F107FB110020802088A0802CE0001D64
:10B06000504525D85146281DFEF7A5FF88B134F874
:10B070008C0F504420802088B0FBF7F107FB1100B3
:10B0800020802088A08031464046FFF713FA13E065
:10B090000EE0A5F8909034F88C0F401C208020889A
:10B0A000B0FBF7F107FB110020802088A08003E0AF
:10B0B000B4F890008842A7D1761CF6B2002E3FF477
:10B0C0004AAFBDE8F08710B500230022002804D164
:10B0D00010BD845C6340521C92B28A42F9D343543F
:10B0E000012010BD30B500230022002801D04C1EE5
:10B0F00005E0002030BD855C6B40521C92B2A2423C
:10B10000F9D3084410F8010C984201D0002030BD5A
:10B11000012030BD2DE9F14F9CB000261B96FB4865
:10B120000068199064216846FDF727F81C980028EC
:10B1300068D00027DFF8D8A3DFF8D89340F6913025
:10B140001C99784301EB8008414608F50058B8F88F
:10B15000980EB8F89A2E904250D000EB800202EB85
:10B16000401201EB820458342179552909D0401C42
:10B1700080B25021B0FBF1F201FB1200A8F8980E4A
:10B180003CE06079A6287DD00FDC09287BD005DC67
:10B1900048B3032878D0052817D131E30C2874D0A0
:10B1A000902820D0912810D117E1EA282DD006DC74
:10B1B000A7286BD0A8286AD0A92806D1E1E1EB28FE
:10B1C00047D0EC287ED0ED287DD0D3480670B4F867
:10B1D0009020211D00200AF043FFCD4800220421C9
:10B1E0000D300CF06AFFB8F8980E401C80B2502168
:10B1F000B0FBF1F201FB1200A8F8980E7F1CFFB221
:10B20000002F9BD01DB0BDE8F08FE47900F032FF35
:10B21000C2A1012001F09CFE8AF8006000210B20F1
:10B220000AF060FEE007DED09AF80000401CC0B2D1
:10B230008AF80000012802D16E2004F0B7F89AF8CD
:10B2400000000228CFD1722004F0B0F88AF8006024
:10B25000C9E7E579E80728D0207A0002A9F840007C
:10B26000617A0843A9F840009AF80400401CC0B273
:10B270008AF80400C8B101280AD002280CD003289B
:10B2800013D10DE0F5E0AFE2A9E209E221E12EE100
:10B290009A2004F08BF808E09B2004F087F804E083
:10B2A0009C2004F083F88AF80460A80725D5207A4A
:10B2B0000002A9F84200617A0843A9F842009AF80E
:10B2C000030001E040E079E0401CC0B28AF80300CE
:10B2D00098B1012804D0022806D003280DD107E038
:10B2E000A32004F063F808E0A42004F05FF804E071
:10B2F000A52004F05BF88AF80360E8438007A7D133
:10B30000207A0002A9F84400617A0843A9F84400B1
:10B310009AF80500401CC0B28AF80500002897D0B2
:10B32000012809D002280BD0032891D1532004F022
:10B330003DF88AF8056056E7512004F037F852E7E7
:10B34000522004F033F84EE7E579247A00F092FEBB
:10B3500079A1012001F0FCFD8AF801608AF8026001
:10B3600000210B200AF0BEFD95B9012C10D19AF8EE
:10B370000100401C8AF80100872004F017F89AF8B1
:10B380000100022804D18B2004F010F88AF8016033
:10B39000012DD0D1012CCED19AF80200401C8AF8A0
:10B3A0000200902004F002F89AF802000228C2D1AC
:10B3B000942003F0FBFF8AF8026014E7654C2068D4
:10B3C000401C206011200BF0DFF820680128B2D16A
:10B3D000012118200AF086FD05E75F4D2878401C02
:10B3E0002870E4793CB199F83000012803D1662037
:10B3F00003F0DCFF2E7084B199F8300002280CD1E4
:10B400002878012802D1622003F0D0FF2878022892
:10B4100003D1662003F0CAFF2E70ACB199F830005A
:10B42000032811D12878012802D1622003F0BEFF41
:10B430002878022802D1642003F0B8FF2878032876
:10B4400002D1662003F0B2FF002CB6D12E7000F0BE
:10B4500011FE42A1002001F07BFD43A1012001F07B
:10B4600077FD002115200AF03DFD08200BF05CF867
:10B47000B9E612200BF058F81A963D4819AA007840
:10B480000CE0BDF86810BDF8683001EB8001214484
:10B49000097AD154BDF86810491C1A91BDF868109A
:10B4A0000429EED39DF8640048B99DF8650030B9D1
:10B4B0009DF8660018B99DF86700022804D00021A5
:10B4C00001200AF00FFD8EE6012108460AF00AFD70
:10B4D00089E612200BF058F8E07918B1A620FFF7A2
:10B4E00077FC80E6002101200AF0FCFC7BE61320BB
:10B4F0000BF04AF8E0791F49097881423CD1207A63
:10B5000018B1A920FFF773FC6DE635E064A50108CA
:10B51000AC020020E08500204A00002048656164FC
:10B520006C6967687473206661696C20746F20743D
:10B5300075726E206F6E00005455524E205349476D
:10B540004E414C206661696C20746F207475726E78
:10B55000206F6E00300000202A00002043616C69DB
:10B5600062726174696F6E004661696C0000000070
:10B570004C00002048000020002102200AF0B2FC0C
:10B5800031E613200AF0D0FF94F807B0257A04F1D1
:10B5900009016846FCF723FE0DF80560A348007812
:10B5A00028B355200AF0C8FC02200AF0C5FC002090
:10B5B0000AF0C2FC01200AF0BFFC58460AF0BCFCAD
:10B5C00028460AF0B9FC1A9609E0BDF86800204444
:10B5D000407A0AF0B1FCBDF86800401C1A90BDF832
:10B5E0006800A842F1D30AF0C9FC90480670904860
:10B5F0000078002888D08F480078584529D16946BE
:10B600008D48FCF7C5FD20B355200AF095FC0220BB
:10B610000AF092FC00200AF08FFC01200AF08CFC5A
:10B6200058460AF089FC28460AF086FC1A9609E07A
:10B63000BDF868002044407A0AF07EFCBDF868003E
:10B64000401C1A90BDF86800A842F1D30AF096FC9D
:10B6500023E055200AF070FC02200AF06DFC002067
:10B660000AF06AFC00200AF067FC58460AF064FC05
:10B6700028460AF061FC1A9609E0BDF868002044EB
:10B68000407A0AF059FCBDF86800401C1A90BDF8D9
:10B690006800A842F1D30AF071FC65480670A2E583
:10B6A000E07988B33A2002F091FF1A2002F08EFF71
:10B6B000062002F08BFF0C2002F088FF207A02F0B7
:10B6C00085FF607A02F082FFA07A02F07FFFE07AC5
:10B6D00002F07CFF207B02F079FF607B02F076FFB6
:10B6E000A07B02F073FFE07B02F070FF207C02F091
:10B6F0006DFF607C02F06AFFA07C02F067FFE07CD7
:10B7000002F064FF02F084FFE0790028C7D15520E1
:10B710000AF012FC0C200AF00FFC07200AF00CFCC7
:10B7200001200AF009FC207A01F0BBFE0546607A90
:10B7300001F0B7FE65F31F10C0B20AF0FDFBA07A5E
:10B7400001F0AFFE0546E07A01F0ABFE65F31F1095
:10B75000C0B20AF0F1FB207B01F0A3FE0546607B3E
:10B7600001F09FFE65F31F10C0B20AF0E5FBA07B5D
:10B7700001F097FE0546E07B01F093FE65F31F1094
:10B78000C0B20AF0D9FB207C01F08BFE0546607C3C
:10B7900001F087FE65F31F10C0B20AF0CDFBA07C5C
:10B7A00001F07FFE0546E07C01F07BFE65F31F1093
:10B7B000C0B20AF0C1FB1A960AE0BDF8680048441E
:10B7C00090F80C010AF0B8FBBDF86800401C1A9014
:10B7D000BDF868001428F0D30AF0D0FB03E501217E
:10B7E00003200AF07FFBFEE440F6B83111200AF096
:10B7F0005DFEB4F89020211D00200AF031FCF2E437
:10B8000099F80A0158B10D48E2790078824201D1D5
:10B81000012100E000211E200AF077FBE3E4B4F8E8
:10B820009020211D00200AF01BFCDCE44F000020CA
:10B830004E00002048000020D07E00204B00002059
:10B8400010B5002826D040F69132514300EB81011B
:10B8500001F500521346B2F89A0E00EB800202EB9B
:10B86000401201EB8202B2F8E820AAB1401C80B27B
:10B870005022B0FBF2F402FB1400A3F89A0E00EB86
:10B88000800303EB401001EB80000022A0F8E820C9
:10B89000012010BD002010BD002010BD2DE9F04199
:10B8A000244BB3F8DC5CB3F8DE0C00290BD052B1AA
:10B8B000441C5027B4FBF7F607FB1644AC4204D1F6
:10B8C0000020BDE8F0810020FBE700EB8004DFF8FA
:10B8D0006CC004EB40100CEB800404F50056164DD0
:10B8E000C6F89C5E002008E0251805F5005511F803
:10B8F000018B85F8A08E401C80B29042F4D3A6F84C
:10B900002C2F03F6DE431888401C18801888B0FBE3
:10B91000F7F107FB110018801888002100EB800266
:10B9200002EB40100CEB800000F50050A0F82C1F3B
:10B930000120C6E754FE0020F4FF011854AE002099
:10B9400030B5002841D000F5A04101F6DC410024CB
:10B950008C718C800C804C80002101EB810202EB09
:10B96000411200EB820202F50052A2F82C4F491C52
:10B97000C9B25029F1D300212B224A4300EB4202E5
:10B9800022F8504F54809480491CC9B20029F3D04A
:10B990000022002140F69133534300EB830301EB77
:10B9A000810505EB411503EB8505A5F8E840491C29
:10B9B000C9B25029F3D303F50053A3F8984EA3F866
:10B9C0009A4E521CD2B2002AE3D030BDF0B589B0F5
:10B9D000054640F219700EF05DF840F203600EF07B
:10B9E00059F84FF4C0600EF055F8002201211420E0
:10B9F0000DF0A0FE0022022113200DF09BFE01217C
:10BA00004FF4EA100DF0CEFD324C4FF48073032258
:10BA1000482120460DF074FD6315032218212046AD
:10BA20000DF06EFD06A900200DF02CFB01A90020F1
:10BA30000DF028FB284F38460DF070F900248DF8E2
:10BA40001C4001268DF81D608DF81E408DF81F40AA
:10BA50008DF820408DF821408DF818408DF8194060
:10BA600005208DF81A008DF81B4024207D2D25D04F
:10BA7000FA2D26D0B5F5FA7F27D0ADF8220006A919
:10BA800038460DF0C5F9ADF80E60ADF81040ADF8D0
:10BA90001260ADF80440ADF80640ADF80840ADF8CE
:10BAA0000A40ADF80C408DF8146001A80DF048F97B
:10BAB000022138460DF03AFA09B0F0BDADF8220087
:10BAC000DDE71220ADF82200D9E70920ADF8220009
:10BAD000D5E70000000C0140006400402DE9F04172
:10BAE000002600292AD0DFF858C0BCF85200BCF864
:10BAF0005070002350241FE02B2070430CEB4000BB
:10BB000011F8015BB0F8528008F8005030F8525F2D
:10BB10006D1C058030F852596D1CB5FBF4F804FB20
:10BB20001855BD420AD030F8525FB5FBF4F804FB5B
:10BB3000185505805B1CDBB29342DDD3BDE8F08174
:10BB400054AE00202DE9F04304464FF00008002CCD
:10BB500027D00027B4F85220B4F85000904220D0EB
:10BB600004F500508446B0F89A0E00EB800303EB16
:10BB7000401304EB83055835B4F85430E15CB5F854
:10BB8000903050267BB18C2B7ED334F8500F401C64
:10BB900020802088B0FBF6F106FB11002080208871
:10BBA000A080BDE8F08355290CD034F8500F401C1C
:10BBB00020802088B0FBF6F106FB11002080208851
:10BBC000A080EEE7401CB0FBF6F206FB1200BCF8CA
:10BBD000982E9042E5D00120A5F89000297134F804
:10BBE000540F401C80B2B0FBF6F106FB1100208020
:10BBF000D7E7215CB5F89000431C2844A5F89030A5
:10BC00000171B4F85400401C80B2B0FBF6F106FBA1
:10BC10001101A4F85410B5F89010042942D3A87962
:10BC200088280ED9A5F8907034F8500F401C208059
:10BC30002088B0FBF6F106FB110020802088A08050
:10BC4000AFE78946001D494688422BD8281DFFF7DB
:10BC500049FAB0B1B4F850004844A4F85000B4F820
:10BC60005000B0FBF6F106FB1101A4F85010B4F837
:10BC70005010A4F8541041462046BDE8F043FFF7A9
:10BC8000DFBDA5F8907000E00CE034F8500F401CC8
:10BC900020802088B0FBF6F106FB11002080208870
:10BCA000A0807EE7B4F854009042A2D179E700006A
:10BCB00002490A784A70087070470000B2020020FA
:10BCC0000220FFF7F5BF000010B50F48B0F8DC1CEC
:10BCD000B0F8DE2C0D480078002813D0012811D0D0
:10BCE00002280FD191420DD0094800F013F820B17D
:10BCF000BDE810400420FFF7DBBFBDE81040022084
:10BD0000FFF7D6BF10BD000054FE0020B202002095
:10BD100054AE0020F0B585B000F5A04101F6DC413D
:10BD20008A880B8803EB830404EB431300EB830343
:10BD300003F50053B3F82C5F0C884E880B88A1F6EE
:10BD4000DC4103EB830707EB431300EB830342F66D
:10BD50009C673B44002804D0B44204D1002005B0C5
:10BD6000F0BD0020FBE70026AA423FD28DF8096013
:10BD70002C480421007820B18DF808102A48019041
:10BD800009E02A48807D01280CD005280AD08DF8CA
:10BD9000086001200090A81A082808DB08208DF808
:10BDA0000A0006E08DF8081018680190F3E78DF896
:10BDB0000A000020694606E014181C440D18247976
:10BDC000EC72401CC0B29DF80A408442F4D8184C72
:10BDD000694620460DF0EFF8042805D001212046E1
:10BDE0000DF0A4F80120BAE70020B8E704EB8402C4
:10BDF00002EB441200EB820000F50050A0F82C6F1B
:10BE000001F6DC410888401C088008885022B0FBFD
:10BE1000F2F302FB130008808E800220FFF748FF38
:10BE200000209CE74A000020F4FF0118E085002074
:10BE30000064004010B500F5A041B1F8E03CB1F855
:10BE4000DC2C02EB820404EB421200EB820202F5CE
:10BE50000052B2F82C2F002804D0D01A082803DB97
:10BE6000082002E0002010BDC0B201F54E610B8831
:10BE7000184408800888904201D2012010BD00209B
:10BE800010BD000002490A784A700870704700002F
:10BE9000A50200200220FFF7F5BF000010B50F48F3
:10BEA000B0F8D414B0F8D6240D480078002813D088
:10BEB000012811D002280FD191420DD0094800F07D
:10BEC00013F820B1BDE810400420FFF7DBBFBDE848
:10BED00010400220FFF7D6BF10BD000094A2002042
:10BEE000A502002094920020F0B585B000F58051A5
:10BEF00001F2D4418B880A8802EB820404EB4212DF
:10BF000000EB8202B2F8B85C0C884E880A88A1F275
:10BF1000D44102EB820707EB421200EB820202F6E9
:10BF20002842002804D0B44204D1002005B0F0BD5E
:10BF30000020FBE70026AB423FD28DF809602C4C75
:10BF40000421A07D01280FD005280DD0607E012896
:10BF50000FD08DF8086001200090E81A08280DDB4A
:10BF600008208DF80A000BE08DF808101068019089
:10BF7000F3E78DF8081010680190EEE78DF80A00DD
:10BF80000020694606E01C1814440D182479EC7250
:10BF9000401CC0B29DF80A408442F4D8154C694652
:10BFA00020460DF008F8042805D0012120460CF0A9
:10BFB000BDFF0120BAE70020B8E704EB840202EBE2
:10BFC000441200EB8200A0F8B86C01F2D44108885A
:10BFD000401C088008880F22B0FBF2F302FB13001C
:10BFE00008808E800220FFF74DFF00209EE70000B2
:10BFF000E08500200064004010B500F58051B1F8E4
:10C00000D834B1F8D42402EB820404EB421200EBE2
:10C010008202B2F8B82C002804D0D01A082803DB1A
:10C02000082002E0002010BDC0B201F59B610B8822
:10C03000184408800888904201D2012010BD0020D9
:10C0400010BD000010B540F204600DF023FD084C57
:10C050004FF480730322102120460DF051FA63152E
:10C0600020460322BDE8104010210DF049BA00001F
:10C070000010014010B50024204600F005F8641CB3
:10C08000E4B2042CF8D310BD7CB50B4906C9CDE948
:10C0900000121DF8000040F0800500242819C1B2EC
:10C0A00000200EF02FFA202101200EF02BFA641C44
:10C0B000E4B2142CF2D37CBD58A5010810B5044697
:10C0C00000200DF045F86008000340F6E441B0FBA5
:10C0D000F1F082B2002108460DF014F8BDE81040DE
:10C0E00000200DF055B810B5044601200DF030F8D1
:10C0F0006008000340F6E441B0FBF1F082B2002199
:10C1000001200CF0FFFFBDE8104001200DF040B809
:10C1100010B540F21D700DF0BDFC40F202600DF054
:10C12000B9FC114C10230322002120460DF0E8F940
:10C1300020230322002120460DF0E2F900200DF01B
:10C1400037F8002108460DF043F800200DF010F8F4
:10C1500001200DF02DF8002101200DF039F8BDE887
:10C16000104001200DF004B80008014010B50F4C3C
:10C170000222012120460DF0E3F8002814D002220B
:10C18000012120460DF0D6F8012120460DF036F8A9
:10C190000222012120460DF0BBF8022104480DF0D7
:10C1A000ADF904490120087010BD000000000240F4
:10C1B000001801400400002070B5104C0222114606
:10C1C00020460DF0BDF8002817D002221146204667
:10C1D0000DF0B0F80A4D802128460DF0FFFC002834
:10C1E000F9D1002107480DF0ABFC02221146204690
:10C1F0000DF08EF804490120487070BD0000024027
:10C20000003C004000300140040000202DE9F047D0
:10C210004FF4A0600DF03EFCDFF8E09001214846AD
:10C220000DF010F8374CDFF8D880C4F8008036489D
:10C23000A0600025A5762561257665764FF4807788
:10C240006760BE00E660012148460CF0E9FF4FF44C
:10C2500040506061012148460DF098F822460121C6
:10C2600048460DF012F8022148460CF0EBFF1C3C4A
:10C27000C4F800802448801EA0600120A0762561BB
:10C2800025766576E6606760022148460CF0C8FFB7
:10C29000B0006061022148460DF078F82246022184
:10C2A00048460CF0F2FF164C00210C3C20460DF0E5
:10C2B00047FC012120460DF043FC0122114648466F
:10C2C0000CF0DDFF0122022148460CF0D8FF0222CB
:10C2D000012148460DF01CF80222114648460DF097
:10C2E00017F8002120460DF037FC012120460DF003
:10C2F00033FCBDE8F04701F013BD00000000024030
:10C300000C3C0040580300200200002010B51149E9
:10C31000887E00280CD001281AD1897D4FF4FA704C
:10C3200001290FD001F0F2F8BDE81040FEF7EABA9B
:10C330004FF4E1300AF0D0FA0AF080FDBDE8104079
:10C340000AF0B0BB01F0E2F8BDE81040FEF7CEBC49
:10C3500010BD0000E085002030B50022002100283B
:10C3600003D0B0F852506B1E06E0002030BD4418D8
:10C37000A4786240491C89B28B42F8DC401C285CDE
:10C38000904201D0002030BD012030BD2DE9F04F9A
:10C390009BB00746FD4800681A900025642101A85B
:10C3A000FBF7EBFE0021002F18D0B7F87402B7F8A6
:10C3B0007622904212D0C0EBC00202EB420207EBA1
:10C3C0008204D034A278552A0BD0401C80B20521BB
:10C3D000B0FBF1F201FB1200A7F874021BB0BDE83C
:10C3E000F08FE078DFF8A8A3EA4E4FF00008A72806
:10C3F00074D00FDC092872D005DC50B303286FD04D
:10C4000005281BD138E30C286BD091286AD0A628C8
:10C4100014D199E1DE490978491CC9B2EB2842D010
:10C4200008DCDFF87493A8287ED0A9287DD0EA28FC
:10C4300004D11AE0EC2879D0ED2878D0B4F8522055
:10C44000A11C002009F00CFE00220421D3480BF0AF
:10C4500034FEB7F87402401C80B20521B0FBF1F243
:10C4600001FB1200A7F87402B8E764798AF800109B
:10C4700034B900210B2009F035FD08200AF054F8EA
:10C48000E007E6D09AF80000012802D1132002F05C
:10C490008DFF9AF800000228DBD1162002F086FFFB
:10C4A0008AF80080D5E76579E80729D0A079B849EE
:10C4B00000020C310880E27910430880A6F84000A1
:10C4C0009AF80100401CC0B28AF80100C0B10128EE
:10C4D00009D002280BD0032812D10CE079E1BFE289
:10C4E000B9E217E2CAE03F2002F060FF08E0402016
:10C4F00002F05CFF04E0412002F058FF8AF801805E
:10C50000A80728D5A079A24900021031E27910438A
:10C510000880A6F842009AF80300401CC0B28AF8CE
:10C520000300C0B1012803E061E173E13BE0FAE000
:10C5300004D0022806D003280DD107E0482002F0DD
:10C5400035FF08E0492002F031FF04E04A2002F004
:10C550002DFF8AF80380E8438007A3D1A0798C4996
:10C5600000021431E27910430880A6F844009AF8DA
:10C570000400401CC0B28AF80400002892D00128B0
:10C5800009D002280BD003288CD1532002F00EFFD3
:10C590008AF804805DE7512002F008FF59E7522035
:10C5A00002F004FF55E76579A4798AF8001094B188
:10C5B000F07D04280FD1022D0DD1012902D11B20BD
:10C5C00002F0F4FE9AF80000022804D11E2002F0C6
:10C5D000EDFE8AF80080A4B1F07D052811D1032D6D
:10C5E0000FD19AF80000012802D1232002F0DEFECC
:10C5F0009AF80000022804D1262002F0D7FE8AF81B
:10C6000000809CB1F07D062810D17DB99AF8000019
:10C61000012802D12B2002F0C9FE9AF8000002285E
:10C6200004D12F2002F0C2FE8AF80080A4B1F07D70
:10C63000072811D1012D0FD19AF80000012802D14D
:10C64000342002F0B3FE9AF80000022804D1392009
:10C6500002F0ACFE8AF80080FFF70CFD50A101202B
:10C6600000F076FC8AF805808AF8068000210B200D
:10C6700009F038FC082009F057FFEAE69AF80200B2
:10C68000401C8AF80200647944B196F83000012811
:10C6900004D1662002F08AFE8AF802809CB196F8E6
:10C6A000300002280FD19AF80200012802D162203E
:10C6B00002F07CFE9AF80200022804D1662002F003
:10C6C00075FE8AF80280C4B196F83000032814D1B0
:10C6D0009AF80200012802D1622002F067FE9AF85F
:10C6E0000200022802D1642002F060FE9AF80200E3
:10C6F000032802D1662002F059FE002CBDD18AF831
:10C700000280FFF7B7FC2AA1002000F021FC2BA13A
:10C71000012000F01DFC0021152009F0E3FB08209A
:10C7200009F002FF95E6DAF80800401CCAF8080094
:10C73000112009F029FFDAF8080001289DD1012114
:10C74000182009F0CFFB84E6122009F0EDFE1D4809
:10C750001AA9007805EB8002224492794A556D1C93
:10C76000EDB2042DF6D39DF8680048B99DF8690034
:10C7700030B99DF86A0018B99DF86B00022823D0E3
:10C780000021012009F0AEFB63E6000054A501087A
:10C7900028000020E085002048000020B902002089
:10C7A0004661696C20746F207475726E206F6E0024
:10C7B00043616C6962726174696F6E004661696C95
:10C7C000000000004C0000200121084609F08AFB0F
:10C7D0003FE6122009F0D8FE607918B1A62000F0DB
:10C7E000A6FA36E60021012009F07CFB31E6132091
:10C7F00009F0CAFE607999F80010814205D1A0794C
:10C8000018B1A92000F0A2FA23E60021022009F0C5
:10C8100069FB1EE6132009F087FE94F805B0A6799F
:10C82000E11D01A8FBF7DBFC01A800F80680DFF89A
:10C830007CA29AF80000F0B1552009F07DFB02209F
:10C8400009F07AFB002009F077FB012009F074FB66
:10C85000584609F071FB304609F06EFB05E060199F
:10C86000C07909F069FB6D1CEDB2B542F7D309F050
:10C8700085FB8AF80080DFF838A29AF800000028CB
:10C88000A6D099F80000584523D101A98948FBF7A3
:10C890007FFCF0B1552009F04FFB022009F04CFB62
:10C8A000002009F049FB012009F046FB584609F039
:10C8B00043FB304609F040FB002505E06019C079D4
:10C8C00009F03AFB6D1CEDB2B542F7D309F056FB07
:10C8D0001DE0552009F030FB022009F02DFB00205F
:10C8E00009F02AFB002009F027FB584609F024FB39
:10C8F000304609F021FB002505E06019C07909F0F8
:10C900001BFB6D1CEDB2B542F7D309F037FB8AF87B
:10C9100000809EE504F112016748FBF760FC664861
:10C9200021790D3801F80080607988B33A2001F050
:10C930004DFE1A2001F04AFE062001F047FE0C20B1
:10C9400001F044FEA07901F041FEE07901F03EFEE5
:10C95000207A01F03BFE607A01F038FEA07A01F007
:10C9600035FEE07A01F032FE207B01F02FFE607B85
:10C9700001F02CFEA07B01F029FEE07B01F026FEF9
:10C98000207C01F023FE607C01F020FE01F040FEDF
:10C9900060790028BDD1552009F0CEFA0C2009F0AD
:10C9A000CBFA072009F0C8FA012009F0C5FAA079EE
:10C9B00000F077FD8046E07900F073FD68F31F100A
:10C9C000C0B209F0B9FA207A00F06BFD8046607AB7
:10C9D00000F067FD68F31F10C0B209F0ADFAA07A4D
:10C9E00000F05FFD8046E07A00F05BFD68F31F1009
:10C9F000C0B209F0A1FA207B00F053FD8046607BB5
:10CA000000F04FFD68F31F10C0B209F095FAA07B4B
:10CA100000F047FD8046E07B00F043FD68F31F1007
:10CA2000C0B209F089FA207C00F03BFD8046607CB2
:10CA300000F037FD68F31F10C0B209F07DFA7019DD
:10CA400090F80C0109F078FA6D1CEDB2142DF6D3B4
:10CA500009F094FAFDE40121032009F043FAF8E417
:10CA600040F6B831112009F021FDB4F85220A11C84
:10CA7000002009F0F5FAECE496F80A0150B10F4AEB
:10CA800060791278904200D10121227C1E2009F0A9
:10CA90003CFADEE4B4F85220A11C002009F0E0FAD0
:10CAA0000022042106480BF008FBD2E44F000020CE
:10CAB0004E000020D07E0020EC8600204B0000209D
:10CAC000B902002000281ED0B0F87612C1EBC102D6
:10CAD00002EB420200EB8202B2F82221AAB1491C09
:10CAE00089B20522B1FBF2F302FB1311A0F8761212
:10CAF000C1EBC10101EB410100EB81000022A0F874
:10CB00002221012070470020704700207047002834
:10CB100029D0002380F88035A0F87E35A0F87A353A
:10CB2000A0F87C3500214D224A4300EB4202A2F8D6
:10CB30001033491C89B20529F5D320F8C83F43803A
:10CB40008380A0F8AC31A0F8AE31C8380021C1EB29
:10CB5000C10202EB420200EB8202A2F82231491C20
:10CB600089B20529F3D3704710B50548FFF7CFFF09
:10CB7000044809F0C1FEBDE81040034800F024B8A5
:10CB8000686A00208DCB00085D67010870B50D480C
:10CB9000B0F8CA20B0F8C8400D78531CC821B3FBC8
:10CBA000F1F601FB1633A3420AD0855430F8CA2FA0
:10CBB000521C02800288B2FBF1F301FB13210180B9
:10CBC00070BD0000686A00200149C1F88405704703
:10CBD000686A00202DE9F0410446B4F8CA10B4F8A0
:10CBE000C800002C23D0884221D0B4F87602C0EBD4
:10CBF000C00202EB420204EB8205D035B4F8CC202F
:10CC0000A25CB5F85230C8269BB14FF00008962BB5
:10CC10007ED3A5F8528034F8C80F401C20802088AD
:10CC2000B0FBF6F106FB110020802088A080BDE853
:10CC3000F081552A0CD034F8C80F401C2080208881
:10CC4000B0FBF6F106FB110020802088A080EEE703
:10CC5000401C0521B0FBF1F301FB1300B4F8741282
:10CC60008842E4D00120A5F85200AA7034F8CC0F15
:10CC7000401C80B2B0FBF6F106FB11002080D6E725
:10CC8000225CB5F85200431C2844A5F8523082704B
:10CC9000B4F8CC00401C80B2B0FBF6F206FB1200E8
:10CCA000A4F8CC00B5F85270042F3BD32879922811
:10CCB0000ED9A5F8528034F8C80F401C2080208877
:10CCC000B0FBF6F106FB110020802088A080AEE7C3
:10CCD000001DB84226D82846FFF73EFB88B134F83D
:10CCE000C80F384420802088B0FBF6F106FB110005
:10CCF00020802088A080C83C2046BDE8F041FFF796
:10CD0000E1BEA5F8528034F8C80F401C208000E036
:10CD100008E02088B0FBF6F106FB11002080208897
:10CD2000A08084E7B4F8CC008842A9D17FE710B591
:10CD30000446552000F034F8204600F031F8002079
:10CD400000F02EF8BDE8104000F04CB830B50546B4
:10CD50000C46552000F024F8284600F021F8012068
:10CD600000F01EF8204600F01BF8BDE8304000F04F
:10CD700039B870B506460C461546552000F010F837
:10CD8000304600F00DF8022000F00AF8204600F0CE
:10CD900007F8284600F004F8BDE8704000F022B81B
:10CDA00030B50F49B1F87A45B1F87C254D2353438E
:10CDB00001EB430101F51E71521C0523B2FBF3F593
:10CDC00003FB1522A24209D0B1F89820962A05D279
:10CDD0008B1CD05431F8980F401C088030BD0000E7
:10CDE000686A0020F0B500230021204DB5F87A755F
:10CDF000B5F87C454D20604305EB400000F51E7002
:10CE0000B0F89820641C0526B4FBF6FC06FB1C4415
:10CE1000BC420DD0962A08D2541C962C05D2941CE4
:10CE2000962C02D2D41C962C03D30021A0F8981083
:10CE3000F0BDD41E047104E04418A4786340491C7A
:10CE400089B29142F8D3B0F898104A1CA0F8982003
:10CE500008448370B5F87C05401C80B2B0FBF6F145
:10CE600006FB1100A5F87C05F0BD0000686A0020F3
:10CE700070B5144CB4F87A35B4F87C654D2058433D
:10CE800004EB40000546B0F8102300F27A21B0F818
:10CE90007802B34214D0D4F88435002B10D09847D0
:10CEA00000280DD00020A5F81003B4F87A05401C26
:10CEB00080B20521B0FBF1F201FB1200A4F87A0563
:10CEC00070BD0000686A002030B505460C4655204C
:10CED000FFF766FFA720FFF763FF0620FFF760FF5D
:10CEE0002846FFF75DFF0020FFF75AFF0020FFF7FD
:10CEF00057FF0020FFF754FF0220FFF751FF2046A5
:10CF0000FFF74EFFBDE83040FFF76CBF10B5054896
:10CF1000FFF760FE0348FFF739FABDE81040FFF75E
:10CF2000A7BF0000686A0020704710B54FF47A74FC
:10CF30000AE0224605E00A2100E000BF491E89B24E
:10CF4000FBD2521E92B2F6D2401E80B2F1D210BD78
:10CF5000F8B506460F4612A0006800900024384637
:10CF6000FBF728F9C5B2142D00D91425C5F114001A
:10CF700000EBD070C0F347001DF8061041F08001AF
:10CF80000E180AE03019C1B200200DF0BBFA395D6D
:10CF900001200DF0B7FA641CE4B2AC42F2D3F8BD44
:10CFA000004014542DE9F8430F4616460EA10968B7
:10CFB00000911DF8000040F080083C460BE008EBB3
:10CFC0000400C1B200200DF09DFA715D01200DF04A
:10CFD00099FA641CE4B2142C03D2E51B705D00289E
:10CFE000EDD1BDE8F8830000004014540FB4F0B553
:10CFF00087B007460D4619A00068069000240FABC5
:10D00000142101A80E9A0BF0BFF80021009100280E
:10D010001FDB14281DD201A8FBF7CCF8C0B2C5F164
:10D020001402824200DA1046C6B206A8C05D40F083
:10D03000800001AF05440AE02819C1B200200DF0BC
:10D0400061FA395D01200DF05DFA641CE4B2B4426E
:10D05000F2D307B0F0BC5DF814FB0000004014549C
:10D060002DE9F0439DB0282113A8FBF786F8002690
:10D0700012961196109600240D960E960F960A960B
:10D080000B960C96079608960996049605960696B2
:10D090000196029603962822C84913A801F0AEFD16
:10D0A00004224FF4B31112A801F0A8FD0422C449D0
:10D0B00011A801F0A3FD04224FF4B41110A801F04F
:10D0C0009DFDC04F9DF860307B759DF84B009DF82D
:10D0D00048109DF84A2040EA01619DF8490000048B
:10D0E00040EA02200143B9649DF847009DF84420BE
:10D0F0009DF8465040EA02609DF84520120442EA3D
:10D1000005221043F8649DF843209DF840509DF897
:10D1100042C042EA05629DF841502D0445EA0C25C3
:10D120002A433A65FF2B00D17E75FF2900D1BE64EA
:10D13000FF2800D1FE64FF2A00D13E6513A803E05A
:10D14000015D3955641CE4B2797DA142F8D8387884
:10D1500004254FF006084C287ED03C46BB1D9AA201
:10D1600003210DA80AF0F6FF98A10DA8FBF729F8F6
:10D17000002872D0934B94A2082101A80AF0EAFF7C
:10D18000904B91A2052104A80AF0E4FF8D4B8EA2DA
:10D19000032107A80AF0DEFF8A4B8BA204210AA80C
:10D1A0000AF0D8FF874B88A206210DA80AF0D2FF0B
:10D1B00087A10DA8FBF705F8022700287DD086A1DE
:10D1C0000DA8FAF7FEFF002878D085A10DA8FAF780
:10D1D000F8FF002873D084A10DA8FAF7F2FF4FF0F2
:10D1E000030900286CD082A10DA8FAF7EAFF0028F5
:10D1F00067D081A10DA8FAF7E4FF00287ED080A1B6
:10D200000DA8FAF7DEFF002879D07FA10DA8FAF764
:10D21000D8FF002874D07EA10DA8FAF7D2FF00280D
:10D220006FD07DA10DA8FAF7CCFF00286AD07CA1B1
:10D230000DA8FAF7C6FF00287ED07BA10DA8FAF74B
:10D24000C0FF002879D07AA10AA8FAF7BAFF00280F
:10D2500075D078A107A801E020E080E0FAF7B1FFDF
:10D2600000286FD074A107A8FAF7ABFF00286AD096
:10D2700072A107A8FAF7A5FF00286ED070A104A834
:10D28000FAF79FFF002869D06FA101A8FAF799FF6C
:10D29000002870D0A6751DB0BDE8F083494B4AA2A6
:10D2A00005210DA80AF056FF464B47A206210AA801
:10D2B0000AF050FF66A10DA804E053E054E055E0E9
:10D2C00056E059E0FAF77DFFC0B363A10DA8FAF765
:10D2D00078FFA8B362A10DA8FAF773FF88B362A123
:10D2E0000DA8FAF76EFF60B361A10DA8FAF769FF08
:10D2F00038B361A10DA8FAF764FF04E03FE040E015
:10D3000042E044E045E0E0B153A10DA8FAF759FF2F
:10D31000B8B15BA10DA8FAF754FF90B15AA10AA8C1
:10D32000FAF74FFFB0B15AA10AA8FAF74AFF00284E
:10D33000B1D187F81680AEE72DE02EE004E02FE0B3
:10D3400004E005E02EE02FE0BD75A4E7BD75A2E77F
:10D35000BD75A0E787F816809DE727E028E001204B
:10D36000A07598E7A77596E7A77594E7A77592E764
:10D3700084F816908FE71DE084F816908BE7A77568
:10D3800089E784F8169086E70520A07583E7A575E0
:10D3900081E7A5757FE7A5757DE784F816807AE7B4
:10D3A000A57578E7A57576E7A57574E7A57572E7A5
:10D3B000A57570E70720A0756DE700000030160026
:10D3C00000701600E0850020257300004742000031
:10D3D0004243323031000000424332383000000016
:10D3E0004243323831000000424333303000000005
:10D3F00042433330320000004243333531000000F5
:10D4000042433335320000004243353530000000DE
:10D41000424E313335000000424E313336000000B9
:10D4200045483030310000004369747261000000EB
:10D43000334B4D00413500004138000041360000BB
:10D44000413843430000000053706172726F7700EF
:10D450004C343030000000004C343031000000000B
:10D460004C313832000000004C32303000000000F7
:10D470004C333030000000004C33303100000000ED
:10D480004C343032000000004C453138440000007C
:10D490004C453138550000000021182008F022BD0D
:10D4A000FEE7A0F13001092901D8C8B27047A0F108
:10D4B0004101052902D83738C0B27047A0F1610197
:10D4C000052902D85738C0B27047FF2070470009BD
:10D4D000092802D83030C0B27047A0F10A010529EE
:10D4E00002D83730C0B27047FF20704700F00F00FD
:10D4F000092802D83030C0B27047A0F10A010529CE
:10D5000002D83730C0B27047FF20704710B5FDF722
:10D5100087F80348FDF740F8BDE81040FEF7BABCB5
:10D520009492002010B50446552000F057F820468C
:10D5300000F054F8002000F051F8012000F04EF8FF
:10D54000BDE8104000F070B82DE9F0410F4600240E
:10D550000026D118204D4FF0550C01281AD0042870
:10D5600035D1792005F8730F85F801C0AF70EE70E2
:10D570002E716E71733D18487422793001F03EFBB4
:10D58000281990F8740000F029F8641CE4B2792C92
:10D59000F6D31CE0872005F8730F85F801C0AF7043
:10D5A000EE70180E2871180C6871180AA871EB71CA
:10D5B000733D094880227B3001F020FB281990F848
:10D5C000740000F00BF8641CE4B2872CF6D3BDE8BD
:10D5D000F04100F029B80000E085002030B5104986
:10D5E0000C884A88498801EB810303EB41110D4BFC
:10D5F00003EB810101F62841521C0F23B2FBF3F526
:10D6000003FB1522A24209D0B1F890208C2A05D242
:10D610000B1DD05431F8900F401C088030BD000025
:10D6200068A70020949200202DE9F043234CB4F821
:10D63000D414B4F8D624A4F5805702EB820000EB92
:10D64000421007EB800505F62C40B5F8B86C03785E
:10D65000521C4FF00F08B2FBF8FC08FB1C228A4258
:10D6600005D04FF00009552B03D0A5F8B89CBDE8B4
:10D67000F083F11E892904D3A5F8B89CFF2101701D
:10D68000F5E781703146FCF786FC761CA5F8B86C8E
:10D6900004F2D6442088401C20802088B0FBF8F19A
:10D6A00008FB11002080208800EB800101EB401076
:10D6B00007EB8000A0F8B89CD9E7000094A20020F6
:10D6C000074A01681140B1F1005F07D141684FF48A
:10D6D0008072B2EBD14F01D100F004B87047000066
:10D6E0000000FE2F084A01680A40B2F1005F09D12C
:10D6F00040684FF48072B2EBD04F03D172B681F321
:10D7000008880047704700000000FE2F70B540F207
:10D7100003600CF0BFF940F206600CF0BBF93E4C20
:10D720004FF480730322102120460BF0E9FE6315AD
:10D730000322102120460BF0E3FE231503221021C3
:10D7400020460BF0DDFEE3140322102120460BF0EF
:10D75000D7FEA3140322102120460BF0D1FE631440
:10D760000322102120460BF0CBFE4FF4804303220E
:10D77000102120460BF0C4FE4FF400430322102179
:10D7800020460BF0BDFE80230322102120460BF023
:10D79000B7FE04230322102120460BF0B1FE08231C
:10D7A0000322102120460BF0ABFE1C4D0223032266
:10D7B000102128460BF0A4FE00200AF09DFC082151
:10D7C00020460BF09BFE042120460BF097FE8021A3
:10D7D00020460BF093FE082120460BF08DFE012120
:10D7E00000200CF08FFE062100200CF08BFE0C2197
:10D7F00000200CF087FE382100200CF083FE02236D
:10D800000322102128460BF07BFE2846BDE870401D
:10D8100002210BF073BE000000180140000C014013
:10D8200001490120087070479085002002490020BE
:10D8300081F84C0070470000908500207CB50021E5
:10D84000224D4FF40042002401EB810005EBC003A0
:10D850001C71002003EB4006F280401CC0B202287D
:10D86000F8D3002005EB81031E1886F84840401CC1
:10D87000C0B20428F8D3491CC9B20029E4D0002062
:10D88000FF212A185170401CC0B20028F9D085F839
:10D890002C4085F82D4000200222052305EB400195
:10D8A00001F82E2F4B70401CC0B20A28F6D32C7002
:10D8B00000F0FAF86C644FF0FF30CDE9000400236B
:10D8C000034A14210C2008F06DFD7CBD90850020DA
:10D8D00021D80008F0B500252A4F2B4E05EB850016
:10D8E00007EBC000001D017800EB4104A41C208858
:10D8F00000F4004120F4004011B1012834D03BE095
:10D9000001280FD038D936F8151000EB8000B1EBA4
:10D91000800F10D10221284600F0E0F82088401C3A
:10D92000208029E00021284600F0D8F8208800F463
:10D930000040208020E0144A921C32F81520114447
:10D94000B1EB800F18D80321284600F0C7F82088D3
:10D9500000F40040208036F815101422B1FBF2F1DB
:10D96000491C0844208007E00121284600F0B6F851
:10D97000208800F4004020806D1CEDB2002DADD059
:10D98000F0BD0000908500205EA5010810B500F0F4
:10D990001BF8FFF79FFFBDE8104000F061B80000E2
:10D9A000014948647047000090850020002808D194
:10D9B000042906D2002A04D0024800EB8100C2608C
:10D9C000C3617047908500202DE9F047224F3878D9
:10D9D00000283ED000203870796C002939D0781C9E
:10D9E000884700214FF0010801EB810007EBC002DE
:10D9F00012F804CF02EB4C039B1C1C8804F4004972
:10DA000024F4004607EBD100457801F0070008FA3E
:10DA100000FA05EA0A05C0F10F008540ADB24D4598
:10DA20000AD147F6FF7086420FD216B1641C1C80E3
:10DA30000BE0A41C1C8008E00CF1010C0CF00100B0
:10DA4000107002EB40006D1C4580491CC9B20029D2
:10DA5000CAD0BDE8F0870000908500207047000024
:10DA600010B5104C94F82C0094F82D10884217D063
:10DA700004EB400010F82E1F4078002910D1042834
:10DA80000ED204EB8000C168C069884714F82C0FDF
:10DA9000401CC0B20A21B0FBF1F201FB1200207061
:10DAA00010BD00009085002030B50021094A0A4DC4
:10DAB000002001EB810305EBC30303EB8004E2606C
:10DAC000401CC0B20428F8D3491CC9B20029EFD0C9
:10DAD00030BD00005DDA00089085002070B51D4A59
