:020000040800F2
:10000000004F0020490100085B120008C3040008EB
:1000100059120008110400081D2400080000000007
:10002000000000000000000000000000E11D0008CA
:10003000C104000800000000FD150008610100086F
:100040006301000863010008630100086301000800
:1000500063010008630100086301000863010008F0
:1000600063010008630100086301000863010008E0
:100070001504000869040008630100086301000812
:1000800063010008630100086301000863010008C0
:1000900063010008630100086301000863010008B0
:1000A00063010008630100086301000863010008A0
:1000B000B51E000863010008630100086301000821
:1000C0006301000863010008630100086301000880
:1000D0006301000863010008ED22000863010008C5
:1000E0006301000863010008630100086301000860
:1000F0006301000863010008630100086301000850
:10010000630100086301000863010008630100083F
:100110002D21000863010008630100086301000845
:10012000630100086301000863010008630100081F
:10013000DFF810D000F092F800480047BF2C00080C
:10014000AFF30080004F0020064880470648004774
:10015000FEE7FEE7FEE7FEE7FEE7FEE7FEE7FEE777
:10016000FEE7FEE7691E00083101000840EA0103CE
:100170009B0703D009E008C9121F08C0042AFAD25D
:1001800003E011F8013B00F8013B521EF9D2704721
:10019000D2B201E000F8012B491EFBD270470022C9
:1001A000F6E710B513460A4604461946FFF7F0FF76
:1001B000204610BD30B505462A460B4612F8010B05
:1001C00013F8014B08B1A042F8D01CB1002802D0AE
:1001D0006D1CF1E7284630BD421C10F8011B0029B8
:1001E000FBD1801A7047034611F8012B00F8012B50
:1001F000002AF9D1184670472DE9F05F0546002026
:1002000092469B4688460646814640241BE0284687
:1002100041464746224600F042F853465A46C01A25
:10022000914110D311461846224600F029F82D1AA4
:1002300067EB01084F4622460120002100F020F81C
:1002400017EB00094E41201EA4F10104DFDC4846F3
:1002500031462A464346BDE8F09F0000064C074D54
:1002600006E0E06840F0010394E807009847103486
:10027000AC42F6D3FFF760FF84360008A4360008CE
:10028000202A04DB203A00FA02F100207047914056
:10029000C2F1200320FA03F3194390407047202A4B
:1002A00004DB203A21FA02F00021704721FA02F320
:1002B000D040C2F120029140084319467047000027
:1002C0002DE9F041404C0126002594F8DA1100296F
:1002D00011D094F821124A1C214484F8212281F87B
:1002E000DB0194F8211232290ED384F8DA6184F804
:1002F0002152BDE8F0815428FBD184F8DA6184F8FA
:10030000216284F8DB01F4E70A28F2D104F2022426
:1003100004F8285CE5773A2060732074E074A075D7
:1003200060762577A4F202242B4828A10746FFF720
:1003300041FF0028DDD129A13846FFF73BFF002807
:10034000D7D094F8DB015428D3D194F8DC01542899
:10035000CFD194F8DD014D28CBD104F2E3142078FD
:1003600084F82A00607884F82B00A07884F82D00A7
:10037000E07884F82E00207984F83000607984F8E1
:100380003100A07984F83300E07984F83400207AD1
:1003900084F83600607A84F83700A07A84F839004F
:1003A000E07A84F83A00A4F2E3140020211881F8DE
:1003B000DB51401CC0B23228F8D3032001F03CFED0
:1003C00084F8226295E70000B803002054544D3AA7
:1003D0004D41432D3F0000009305002054544D3AF9
:1003E0004D41432D0000000003490020087003A187
:1003F000064801F0C9BC00000100002054544D3AE9
:10040000434F4E4E4543544544000000A403002092
:10041000FEE7000010B5104C02220121204602F038
:100420007DFA002817D002220121204602F070FA3E
:100430000A4802F083FE0121204602F045FA02221A
:100440000121204602F052FA1021054802F0E8FB93
:1004500004490120087010BD000002400030014036
:10046000000801400000002070B5124C0222114625
:10047000204602F053FA00281AD0022211462046E4
:1004800002F046FA0C4D8021284602F09FFE00281B
:10049000F9D10021284602F056FE022211462046DC
:1004A00002F024FABDE870401021044802F0B8BB05
:1004B00070BD000000000240003001400008014013
:1004C0007047FEE730B500220021002803D0B0F8C5
:1004D000A0506B1E05E0002030BD445C6240491C0A
:1004E00089B28B42F9DCD143C9B2401E285C8842F4
:1004F00001D0002030BD012030BD00002DE9FC41BD
:100500000546002D19D0B5F82A04B5F82C148842F8
:1005100013D000EB001101EB801105EB410404F551
:10052000807405262178552909D0401C80B2B0FB83
:10053000F6F106FB1100A5F82A04BDE8FC816078FD
:1005400012283BD008DC04282CDA00282AD0012805
:100550000FD0022826D126E0262862D004DC1428F9
:1005600036D02428F6D153E0282879D02A28F1D192
:10057000A6E0002001F060FD01240094574B584A8A
:100580004FF4FA710020019401F0A6FC012001F063
:100590005FFE0420CDE900040123524A32210720E6
:1005A00001F09AFC8FE0002001F046FD022001F0EE
:1005B00043FD0121032000F08DFA84E04FF4401147
:1005C000002001F089F80121132000F083FA7AE07D
:1005D000454F384602F0B2FD0021084601F0F4FA1A
:1005E000384602F0BCFDE0780002217908440002A0
:1005F000617908440002A1790144A078001F82B209
:10060000E01D01F011FA0146152000F063FA5AE0EE
:1006100000F041FB00F024FB0146252000F05AFACF
:1006200051E0E078217940B101281AD002283ED06B
:100630000021272000F04EFA45E060790002A17900
:1006400008440002E17908440002217A0844A178B4
:10065000891F8AB204F1090100F016FC0146E8E79F
:1006600027E0607948400002A2794A401044000225
:10067000E2794A4010440002227A4A401318A078D6
:10068000801F82B20020194F09E004EB000C9CF897
:1006900009C08CEA010C07F800C0401C80B29042EF
:1006A000F3D31249184600F0EFFB0146C1E70021E1
:1006B000BFE700F0BAFA0146292000F00BFA02E089
:1006C0002B2000F095F9B5F82A04401C80B2B0FB4D
:1006D000F6F106FB1100A5F82A042EE700800008B9
:1006E000190E0008512200080030014028060020A1
:1006F00000281ED0B0F82C1401EB011202EB81127D
:1007000000EB4202B2F8A021AAB1491C89B205222D
:10071000B1FBF2F302FB1311A0F82C1401EB01134F
:1007200003EB811100EB41000022A0F8A021012081
:100730007047002070470020704700282BD000220F
:1007400080F85E27A0F85C27A0F85827A0F85A2761
:10075000002101EB011303EB811300EB4303A3F82A
:10076000CE24491CC9B20529F3D320F8FA2F828080
:100770004280A0F83023A0F83223FA38002101EBA0
:10078000011303EB811300EB4303A3F8A021491CE1
:10079000C9B20529F3D3704770B5054640F204602D
:1007A00002F076FC224C4FF480630222182120468E
:1007B00002F038FAE31402224821204602F032FA0D
:1007C00040F2137002F064FC1A4C204602F098FECE
:1007D0002946204602F054FE0021204602F041FF47
:1007E0000021204602F02FFF0021204602F01DFFCD
:1007F0000021204602F0E4FE0021204602F0DAFE4D
:100800000821204602F027FF0421204602F015FFB0
:1008100001220221342002F0A7FA40F205312046DD
:1008200002F0DFFE2046BDE8704002F0B1BE0000DD
:1008300000100140004C004070B50546074C0621F1
:10084000204602F0AAFE2946204602F055FE204628
:10085000BDE8704040F2063102F0C3BE004C0040DB
:1008600010B54FF4E130FFF797FFBDE810400148A5
:10087000FFF763BFC806002010B5054800F00AF86E
:100880000348FFF73BFEBDE81040014800F09DB96A
:10089000C80600202DE9F0410446B4F8FC10B4F875
:1008A000FA00002C24D0884222D0B4F82C0400EBAB
:1008B000001202EB801204EB420505F58075B4F8D6
:1008C000FE20A25CB5F8A030FA279BB14FF00008DB
:1008D000A02B7DD3A5F8A08034F8FA0F401C20800F
:1008E0002088B0FBF7F107FB110020802088A08052
:1008F000BDE8F081552A0CD034F8FA0F401C208056
:100900002088B0FBF7F107FB110020802088A08031
:10091000EEE7401C0521B0FBF1F301FB1300B4F836
:100920002A148842E4D00120A5F8A0002A7034F8E7
:10093000FE0F401C80B2B0FBF7F107FB11002080D6
:10094000D6E7225CB5F8A000431CA5F8A0302A54D5
:10095000B4F8FE00401C80B2B0FBF7F207FB1200B7
:10096000A4F8FE00B5F8A060042E3BD3A8789C281C
:100970000ED9A5F8A08034F8FA0F401C20802088FA
:10098000B0FBF7F107FB110020802088A080AFE7C3
:10099000001DB04226D82846FFF794FD88B134F8F0
:1009A000FA0F304420802088B0FBF7F107FB1100DC
:1009B00020802088A080FA3C2046BDE8F041FFF767
:1009C00097BEA5F8A08034F8FA0F401C208000E004
:1009D00008E02088B0FBF7F107FB11002080208899
:1009E000A08085E7B4F8FE008842AAD180E7000025
:1009F00010B504465521084800F086F821460648FF
:100A000000F082F80021044800F07EF8BDE81040B4
:100A1000014800F09CB80000C806002070B588B0FE
:100A20001C2212A101A8FFF7A1FB01A8FFF7D4FB2C
:100A3000C6B25521144800F067F80121124800F0B1
:100A400063F83146104800F05FF8002401AD05E07E
:100A5000295D0D4800F058F8641CE4B2B442F7D3A5
:100A6000094800F074F808B070BD0000425F434DC3
:100A70005F46575F424C5F44545F42433138325FB8
:100A800056342E302E310000C806002070B50546C1
:100A90002846FFF7A1FBC6B255210D4800F034F8F7
:100AA00041210B4800F030F83146094800F02CF89D
:100AB000002405E0295D064800F026F8641CE4B235
:100AC000B442F7D3BDE87040014800F040B80000E0
:100AD000C806002030B505460C465521094800F0EF
:100AE00013F82946074800F00FF80121054800F0E7
:100AF0000BF82146034800F007F8BDE830400148F4
:100B000000F025B8C806002030B5B0F85A2702EB2F
:100B1000021303EB821200EB420202F22E42B0F803
:100B20005847B0F85A37002810D05B1C0520B3FB9B
:100B3000F0F500FB1530A04208D0B2F8A000A028C4
:100B400004D2115432F8A00F401C108030BDF0B513
:100B500000240022B0F85A1701EB011303EB8111B6
:100B600000EB410101F22E41B1F8A030B0F8587706
:100B7000B0F85A5700280CD06D1C0526B5FBF6FCC2
:100B800006FB1C55BD4204D0032B03D20020A1F864
:100B9000A000F0BDDD1E8D7003E08D5C6C40521C2A
:100BA00092B29A42F9D3E243CA5431F8A02F521CB0
:100BB0000A8000F25A700188491C01800188B1FB4B
:100BC000F6F206FB12110180F0BD10B50446B4F830
:100BD0005C17B4F8580700EB001202EB801004EB2E
:100BE0004000B0F8CE24B4F85807B4F85A37002CB7
:100BF0001AD0984218D0914216D294F85E17002964
:100C000012D1B4F85C174A1CA4F85C2700EB001260
:100C100002EB801004EB4000084490F82E04FFF72C
:100C20000BFE012084F85E0710BD70B520229605EA
:100C30004FF6FF74950106EBC2230021184600F021
:100C400060F89B1CA04209D1891C89B2A942F5D346
:100C5000521C92B2802AEED3012070BD002070BDDC
:100C600070B51022D6054FF6FF74D50106EBC223EE
:100C70000021184600F045F89B1CA04209D1891CB0
:100C800089B2A942F5D3521C92B2802AEED3012038
:100C900070BD002070BD2DE9F047012572B601F04E
:100CA00079FF40F20537384601F0AEFE4FF4417847
:100CB000404601F0A9FE40F20239484601F0A4FE88
:100CC0001024E60506EBC42001F00AFF82463846F0
:100CD00001F09AFE404601F097FE484601F094FE6E
:100CE000BAF1000F01D0002505E001F098FB641C6B
:100CF000A4B2802CE6D301F0DFFE62B62846BDE840
:100D0000F087008870472DE9F04106460D461746EA
:100D10000124002D07D0A6F10060B0F5802F04D388
:100D20000020BDE8F0810020FBE772B601F032FF41
:100D300040F2053001F068FE4FF4417001F064FEAE
:100D400040F2023001F060FE3A462946304600F09B
:100D500007F800B9002401F0AFFE62B62046E0E7D4
:100D60002DE9F05F05460E461746002E07D0A5F187
:100D70000060B0F5802F04D30020BDE8F09F002074
:100D8000FBE7002440F205384FF4417940F2023A83
:100D900018E036F81410284601F044FE2846FFF704
:100DA000B0FF8346AD1C404601F02EFE484601F0E0
:100DB0002BFE504601F028FE36F81400584505D1A8
:100DC000641CA4B2BC42E4D30120D6E70020D4E7DF
:100DD0001CB50E4801680E4841600C49091D0968A0
:100DE00081600A4908310968C16000214FF0006044
:100DF00002F00CF801200321CDE900100346054A5A
:100E00003221022001F068F81CBD0000E8F7FF1F46
:100E1000200200201D0A0008074A01681140B1F1B4
:100E2000005F07D141684FF48072B2EBD14F01D11E
:100E300000F004B8704700000000FE2F30B4104AE4
:100E400001681140B1F1005F18D141684FF4807220
:100E5000B2EBD14F12D172B60A49CA684FF0FF32D5
:100E6000CA60CB680023CB600C690A610A690B6118
:100E70004168006880F3088830BC084730BC704780
:100E80000000FE2F00100240F0B5ADF6040D002466
:100E90000023002908D0104E8519B5F5603F05D311
:100EA00000200DF6040DF0BD0020FAE701AF0BE0C5
:100EB0000D784E7805EB06252646641CA4B227F86B
:100EC0001650891C9B1C9BB29342F1D3C2F34F0274
:100ED00001A9FFF718FFE4E70080FFF701490120AF
:100EE00008707047280E00207CB50021224D4FF479
:100EF0000042002401EB810005EBC0031C710020BF
:100F000003EB4006F280401CC0B20228F8D3002058
:100F100005EB81031E1886F8C040401CC0B20428AF
:100F2000F8D3491CC9B20429E4D30020FF212A18B0
:100F30005170401CC0B20028F9D085F8A44085F853
:100F4000A5400020052205EB400101F8A62F4A70BC
:100F5000401CC0B20A28F6D32C7000F0F3F8C5F894
:100F6000BC404FF0FF30CDE900040023034A32219A
:100F7000012000F0B1FF7CBD280E0020DD0E00082E
:100F8000F0B500252B4F2C4E05EB850007EBC0007C
:100F9000001D017800EB4104A41C208800F40041EE
:100FA00020F4004011B1012836D03DE0012811D0D5
:100FB0003AD936F8151000EBC00202EB0010B1EB85
:100FC000400F10D10221284600F0D6F82088401C9E
:100FD000208029E00021284600F0CEF8208800F487
:100FE0000040208020E0144A083232F815201144D5
:100FF000B1EB400F18D80321284600F0BDF8208837
:1010000000F40040208036F815103222B1FBF2F1D6
:10101000491C0844208007E00121284600F0ACF874
:10102000208800F4004020806D1CEDB2042DABD36D
:10103000F0BD0000280E00207236000810B500F048
:101040000DF8FFF79DFFBDE8104000F053B8000019
:101050000149C1F8BC007047280E00202DE9F04777
:10106000224F387800283FD000203870D7F8BC10C5
:10107000002939D0781C884700214FF0010801EB86
:10108000810007EBC00212F804CF02EB4C039B1C5B
:101090001C8804F4004924F4004607EBD10045788D
:1010A00001F0070008FA00FA05EA0A05C0F10F008E
:1010B0008540ADB24D450AD147F6FF7086420FD24A
:1010C00016B1641C1C800BE0A41C1C8008E00CF111
:1010D000010C0CF00100107002EB40006D1C45800B
:1010E000491CC9B20429CAD3BDE8F087280E0020E4
:1010F0007047000010B5124C94F8A40094F8A510A5
:1011000088421BD004EB400111F8A60F497804284F
:1011100014D2042912D200EB800004EBC00000EBD3
:101120008100C168C069884714F8A40F401CC0B290
:101130000A21B0FBF1F201FB1200207010BD00008B
:10114000280E002030B50021094A0A4D002001EB8D
:10115000810305EBC30303EB8004E260401CC0B2D3
:101160000428F8D3491CC9B20429EFD330BD0000CC
:10117000F1100008280E002070B51D4A02EB800314
:101180000B4493F8C040002C03D0002083F8C0002B
:1011900070BD92F8D0300BB1002070BD92F8A54020
:1011A0000A232546641CB4FBF3F603FB164692F8AB
:1011B000A440A64207D1641CE4B2B4FBF3F603FBDF
:1011C000164482F8A44002EB450484F8A60092F885
:1011D000A50002EB400080F8A71012F8A50F401CF4
:1011E000C0B2B0FBF3F103FB11001070012070BD21
:1011F000280E002010B50446044801F05DFD00F003
:101200001F0040F00801217010BD000000100140D7
:1012100010B540F2046001F03BFF0D4C01230222A7
:101220004821204601F0FEFC02231A4648212046B0
:1012300001F0F8FC042302224821204601F0F2FCD0
:10124000FFF752FEBDE810400248FFF701BF000063
:1012500000100140F5110008FEE770474FF4A06050
:1012600001F0CABD30B5002307E0C45CCD5CAC42E0
:1012700001D0002030BD5B1C9BB29342F5D301200E
:1012800030BD00F001B800002DE9F04190B000251C
:101290000F95744C84F86951002073A12218095CE1
:1012A00082F86A11401CC0B20328F6D3CC34A4F8EB
:1012B000A25084F8A450042084F8A50084F8A65015
:1012C000012084F8A7006948006860676749091D24
:1012D0000B68A367091D0A68E267009064A168486B
:1012E00001F09EF8102267495E4800F051FA1A2674
:1012F00004F86C6CCC3C002063A12218095C82F8D5
:101300006110401CC0B21A28F6D35E4C0122403452
:1013100021460FA800F03CFA9DF83C101A2904D091
:1013200031460F96204600F034FB564C1A224134C9
:10133000214602A800F02CFA1A2253A102A8FFF7B6
:1013400091FF20B91A2221464FA000F0DFFB454C47
:1013500040344C48603000F04BFA2070032752268E
:101360004FF045081F2806D9277084F80180A67021
:10137000E670257105E0434902466131601C00F0CA
:1013800007FA384CA034474800F032FA20703F2862
:1013900006D9277084F80180A670E670257105E0F3
:1013A00040490246491C601C00F0F2F92D4C803483
:1013B0003C48803800F01CFA20701F2806D927709E
:1013C00084F80180A670E670257105E03549024673
:1013D0007F39601C00F0DCF9294C6C3C31486038E6
:1013E00000F006FA20701F2806D9277084F80180C3
:1013F000A670E670257105E02A4902465F39601C37
:1014000000F0C6F91E4C4C3C2648403800F0F0F97C
:1014100020701F2806D9277084F80180A670E67016
:10142000257105E01F4902463F39601C00F0B0F904
:10143000134C2C3C1B48203800F0DAF920701F2890
:1014400008D9277084F80180A670E670257110B065
:10145000BDE8F081134902461F39601C00F098F97D
:10146000F5E700003002002042543800E8F7FF1F83
:101470002530386C582530386C582530386C580079
:101480007C03002000F03F00425F434D5F46575F02
:10149000424C5F44545F42433138325F56342E3001
:1014A0002E310000A0E03F0070B540F2046001F072
:1014B000EFFD4023022210210C4801F0B3FB022172
:1014C0000B4801F0ADFB40F2026001F0E1FD094D77
:1014D0004FF48074234602221021284601F0A2FB1B
:1014E00021462846BDE8704001F098BB001001403D
:1014F000000C014000080140F0B5A9B0324D95F84C
:101500006801002853D0314E96F8220200284ED0B0
:101510002F4C94F8490018B994F84A00002846D096
:101520002CA103A8FEF75FFE112085F82001002002
:1015300031182A1891F80D1282F82111401CC0B2FE
:101540001128F5D312222549254800F0DFFA0020A2
:101550003021221882F83210401CC0B21428F8D36F
:101560002044002780F8327019481D4A94F849C079
:1015700032301C4B2C3203A9BCF1000F04D094F87C
:101580004AC0BCF1000F14D00FF25C0CCDE901C1D0
:10159000009016A106A800F043FF06A8FFF776FA10
:1015A00085F8687186F8227204F8497F677029B05F
:1015B000F0BD0FF2440CCDE901C100900BA106A8CB
:1015C00000F02EFFE9E7000030020020B803002001
:1015D000DC050020424331385578780080E03F0038
:1015E00050030020C505002030000000257325733E
:1015F000257325732573000031000000704700003B
:1016000010B501F0A1FC102001F0CEFC102001F07B
:10161000D9FC4FF4806401281AD0002001F000FCAE
:10162000204601F007FC002001F00EFC18490020C4
:1016300001F058FD182001F0B7FC182001F0C2FCA1
:10164000022001F069FD01F071FD0828FBD110BDF9
:10165000002001F0E5FB204601F0ECFB002001F04A
:10166000F3FB002001F04CFD4FF4E0114FF480300B
:1016700001F038FD182001F097FC182001F0A2FCC1
:10168000022001F049FD01F051FD0828FBD110BDF9
:101690000000040870B5044600F084F90D4D1021D7
:1016A000284601F0BBFAD82000F0C0F8C4F3074088
:1016B00000F0BCF8C4F3072000F0B8F8E0B200F086
:1016C000B5F81021284601F0ABFABDE8704000F0F3
:1016D000DBB80000000801402DE9F04105468846CE
:1016E000C5F30330002804D0012101EB15418EB26F
:1016F00000E02E0C0024C0F1100706E004EB1530CA
:10170000000300F023F8641CA4B2A742F6DCC7EB88
:101710001837C7F30F15002405E030190004FFF750
:10172000B9FF641CA4B2AC42F7D3002470190504BD
:1017300007F00F0605E005EB043000F007F8641C25
:10174000A4B2A642F7D8BDE8F081000070B5044607
:1017500000F028F90D4D1021284601F05FFA2020F5
:1017600000F064F8C4F3074000F060F8C4F3072009
:1017700000F05CF8E0B200F059F81021284601F0C2
:101780004FFABDE8704000F07FB80000000801404B
:101790002DE9F04104460F461546002C23D0002DBC
:1017A00021D0124E1021304601F038FA032000F00B
:1017B0003DF8C7F3074000F039F8C7F3072000F001
:1017C00035F8F8B200F032F804E0002000F02EF80E
:1017D00004F8010B6D1EADB2F7D23046BDE8F04102
:1017E000102101F01DBABDE8F081000000080140A1
:1017F00008B5014604226846FFF7CAFF9DF80000BD
:1018000008BD08B5014604226846FFF7C1FF9DF8F0
:1018100003009DF800109DF8022000EB01609DF888
:101820000110090401EB0221084408BD70B505460A
:101830000024144E06E02046641CA4B2C82801D936
:10184000002070BD0221304601F0C0FC0028F2D01B
:1018500029463546284601F08AFC002406E0204649
:10186000641CA4B2C82801D9002070BD01212846FB
:1018700001F0ACFC0028F2D0284601F075FCC0B2A3
:1018800070BD00000030014010B5094C1021204609
:1018900001F0C4F90520FFF7C9FF0020FFF7C6FFDC
:1018A000C007FAD12046BDE81040102101F0B8B9B8
:1018B000000801402DE9F05F05460E469046002DD8
:1018C00065D0B8F1000F62D0F0B24142CFB24FEA1A
:1018D000182408F0FF0A4FF4807990B1F0B240422A
:1018E000C0B206EB000B3CB33A463146284600F046
:1018F0006BF85E463D44A8EB070080B2040AC7B20D
:101900003BE07CB9424631462846BDE8F05F00F036
:101910005BB84A463146284600F056F806F5807610
:1019200005F58075641EE4B2F3D25246314628466E
:10193000BDE8F05F00F048B8BA450ED9AAEB070041
:10194000C4B23A463146284600F03EF85946E819F6
:101950002246BDE8F05F00F037B8424631462846DF
:10196000BDE8F05F00F030B84A463146284600F046
:101970002BF806F5807605F58075641EE4B2F3D287
:101980003A4631462846BDE8F05F00F01DB8BDE894
:10199000F09F08B58DF8001001460122684600F05E
:1019A000B5F808BD10B5074C1021204601F036F9F6
:1019B0000620FFF73BFF2046BDE81040102101F054
:1019C0002FB90000000801402DE9F04105460F46FF
:1019D0001446002C24D0FFF7E5FF124E10213046AC
:1019E00001F01CF90220FFF721FFC7F30740FFF7C2
:1019F0001DFFC7F30720FFF719FFF8B2FFF716FF27
:101A000003E02878FFF712FF6D1C641EA4B2F8D221
:101A10001021304601F004F9BDE8F041FFF734BF72
:101A2000BDE8F081000801402DE9F04704468846F2
:101A30001746002C0ED06FB14FF48059484601F084
:101A40005DF90546280008D04F4541D93E0BC7F344
:101A50000B0720E00020BDE8F0870020FBE74A46A6
:101A600041462046FFF726FF4A4641462846FFF7F3
:101A70008FFE0020215C2A5C914204D0284601F0B0
:101A8000A5F80020E7E7401C80B24845F2D308F5EE
:101A9000805804F58054761EB6B2E0D23A464146EC
:101AA0002046FFF707FF3A4641462846FFF770FEFB
:101AB00000200AE0215C2A5C914204D0284601F013
:101AC00085F80020C7E7401C80B2B842F2D318E086
:101AD0003A4641462046FFF7EDFE3A464146284643
:101AE000FFF756FE00200AE0215C2A5C914204D0F8
:101AF000284601F06BF80020ADE7401C80B2B842E8
:101B0000F2D3284601F062F80120A4E72DE9F05F46
:101B100007468B461546002F54D0002D52D04FF467
:101B2000805001F0EBF880465FEA08004AD04FEAA7
:101B30001B39CBF30B06C6F58054A54238D82C468A
:101B400036E0311818F80110FF2903D1401C80B28B
:101B5000A042F6D3A04213D25046FFF7F7FD002073
:101B600005E08219395C08F80210401C80B2A042DE
:101B7000F7D351464FF480524046FFF79BFE04E0F6
:101B8000224659463846FFF795FEA54204D1404605
:101B9000BDE8F05F01F01AB809F1010900262744F9
:101BA000A344281B85B24FF48054A54200D82C468C
:101BB0004FEA093A4FF4805251464046FFF7E8FD9C
:101BC0000020C5E7BDE8F09F10B5084A506091605D
:101BD000074C1146204601F000FB204601F0BFFAF9
:101BE0002046BDE8104001F0BFBA00001C000020F4
:101BF0000030014070B540F2026001F049FA184C23
:101C0000A02303221821204601F00CF840230322D0
:101C10004821204601F006F81023032219462046E9
:101C200001F000F840F20C6001F032FA0D4D284648
:101C300001F0A0FA0C4900244C604FF48270086057
:101C40008C604C616815C860082088610C6128466A
:101C500001F0C3FA284601F082FA0448047070BD0E
:101C600000080140003001401C000020000000205E
:101C70001CB518490A784A70087000280DD0012850
:101C800018D0022808D1012000900190124B134A6D
:101C9000C821002000F020F91CBD1148FFF7A8FD65
:101CA000AA2803D0BDE81C400220E1E7BDE81C40A3
:101CB0000120DDE702210B4800F0B2FF0848001DBB
:101CC000FFF79FFD0349891E8860BDE81C40FEF7B1
:101CD000E2BF00000600002000800008190E000886
:101CE00000A03500000C01401CB507480021017020
:101CF00041700120009001900023044A0A2108202D
:101D000000F0EAF81CBD000006000020711C00086D
:101D100030B5ADF2044D4FF48065294601A8FEF7B9
:101D20003EFA16480078002825D0012823D1134C0C
:101D30000121A41EA06801EB90202188884206D2D0
:101D40000220FFF795FF00210D48FFF722FE2088B3
:101D50004FF4C83101EB80212A4601A8FFF718FD96
:101D6000208808492A4601EB802001A9FFF78CF85A
:101D70002088401C20800DF2044D30BD060000205C
:101D800000A0350000800008F8B50446002200924B
:101D9000571E002805D021B1027822B10A7822B15D
:101DA00013E03846F8BD3846F8BD3846F8BD23463E
:101DB0000A4601E05B1C521C1E781EB115780DB15D
:101DC000AE42F7D012782AB1641C2278002AEED1F4
:101DD0003846F8BD201A0090BDF8000000B2F8BDEA
:101DE000704710B5FFF70CFC00F004F8BDE8104098
:101DF000FFF734BA10B5184B5868C0F38100174983
:101E0000174A002805D0012805D0022805D0116006
:101E100010BD116010BD116010BD586800F4803015
:101E2000104C30B1586800F40030B0F5003F02D0DB
:101E300002E0214600E021465868C0F383405B6819
:101E40001B0101D540F010000F2801D3401C00E019
:101E5000801C4143116010BD0010024000127A0046
:101E60001000002000093D000E48016841F001010A
:101E7000016041680C4A1140416002680B490A4008
:101E80000260026822F4802202604268084B1A4015
:101E9000426002680A4002604FF41F01816001F055
:101EA000F7B90000001002400C00FFE8FFFFF6FE4B
:101EB000FFFF00F710B501218C07204601F0D5FA8D
:101EC000002807D00121204601F0CCFABDE81040DF
:101ED00000F050B810BD0000F0B5DDE90567002E38
:101EE00019D04FF0050CB1FBFCF40C4D45F8204027
:101EF00005EB80042267C4F8A830761EC4F8E060C1
:101F0000B1FBFCF1A163284480F81871012180F82D
:101F100026110120F0BD0020F0BD0000700000205F
:101F200070B5134A0F2492F8AD311D465B1CB3FB0C
:101F3000F4F604FB163392F8AC61B34201D10020F1
:101F400070BD02EBC503C3F8340192F8AD0102EB9A
:101F5000C000C0F8381192F8AD01401CC0B2B0FB0F
:101F6000F4F104FB110082F8AD01012070BD000006
:101F70007000002070B50024174D05EB8402906BB3
:101F800000B3291991F82601E0B1906B401E9063CF
:101F9000906BB8B9D2F8E000002803DA55F82400B5
:101FA000906307E006DD55F824309363A0F101004B
:101FB000C2F8E00091F8180148B1D2F8A810106FEB
:101FC000FFF7AEFF641CE4B20E2CD6D370BD116FC8
:101FD000D2F8A8008847F5E770000020704700009D
:101FE00070B5002000220F4B0F4C012503EB800140
:101FF0008A6343F820200C67C1F8A820C1F8E020CC
:10200000191881F82651401C40B20E28EEDB83F8E7
:10201000AC2183F8AD2100F009F8BDE8704000F074
:1020200039B8000070000020DD1F000848F69F410D
:10203000092000F051B80000F0B5411C24D00E2852
:1020400022DA124C002104EB8003996394F8AC016E
:102050000F4D0F2214E004EBC0011F6FD1F8346163
:10206000BE4207D1D1F83861D3F8A870BE4201D181
:10207000C1F83451401CC0B2B0FBF2F102FB1100B8
:1020800094F8AD118142E6D1F0BD0000700000204F
:10209000DD1F00084FF0804001F06AB910B50D4C0B
:1020A00094F8AC0194F8AD11884211D004EBC00053
:1020B00000F59A7001684068884794F8AC01401CAC
:1020C000C0B20F21B0FBF1F201FB120084F8AC01A9
:1020D00010BD0000700000207FB504460D464FF48F
:1020E000E06000F0D5FF4FF08046304601F0D2F8B6
:1020F000ADF800500021ADF80210ADF804100294C4
:10210000ADF80C108DF80E106946304601F038F924
:102110000121304601F031F90121304601F09EF9EC
:10212000022211461C2000F01FFE7FBD2DE9F04168
:10213000434E4249304601F05FFA424CD8B1B4F800
:10214000FC50B4F8FA70304601F0D2F9C0B2691C04
:10215000FA22B1FBF2F302FB1311B9426BD06055C6
:1021600034F8FC0F401C20802188B1FBF2F002FB08
:10217000101024F8FC0935463349284601F03CFA92
:10218000F0B3B4F85817B4F85C0701EB011202EB96
:10219000811104EB4102B2F8CE1481420BD9B4F89C
:1021A0005C17481CA4F85C07881890F82E14284681
:1021B00001F0A2F930E00026A2F8CE6404F5EB6449
:1021C0002088401C208020880521B0FBF1F201FB13
:1021D00012002080A68021886088A4F5EB648142EB
:1021E00013D0B4F85C27501CA4F85C0701EB011075
:1021F00000EB811004EB4000104490F82E1400E036
:102200000AE0284601F078F906E040F20631284657
:1022100001F0DCF984F85E670C49284601F0ECF91E
:10222000002808D00321284601F0B7F92846BDE868
:10223000F04101F05DB9BDE8F08100000503050043
:10224000004C0040C80600200603060000050300FD
:102250003EB5244841688DF800104168090A8DF8A0
:1022600001104168090C8DF802104168090E8DF8C3
:10227000031081688DF804108168090A8DF8051033
:102280008168090C8DF806108168090E8DF8071019
:10229000C1688DF80810C168090A8DF80910C16875
:1022A000090C8DF80A10C068000E8DF80B0055213E
:1022B0000D48FEF729FC08210B48FEF725FC0021FC
:1022C0000948FEF721FC00246D460748295DFEF70A
:1022D0001BFC641CE4B20C2CF7D3BDE83E40024862
:1022E000FEF735BC20020020C8060020FEB5454E92
:1022F0004349304601F080F9434C002548B302952C
:10230000304601F0F5F80290236823B1012202A9BA
:1023100040F6FF70984794F8220218B99DF808001B
:10232000FDF7CEFF394A11780846491C142907D217
:102330009DF80830C9B21170334A143A13545554F9
:102340000120009001900023314A64210A20FFF708
:10235000C3FD3049304601F04FF9C8B3B4F8D2019B
:10236000B4F8D6114D22504304EB4002B2F89C0061
:1023700088420AD9B4F8D611481CA4F8D6018818A6
:102380008179304601F0B8F82AE0A2F89C5004F5B3
:10239000E9742088401C208020880321B0FBF1F2E2
:1023A00001FB12002080A58022886088A4F5E974D2
:1023B00082420ED0B4F8D611481CA4F8D6014D20A4
:1023C000424304EB420008448179304601F094F81E
:1023D00006E040F20631304601F0F8F884F8D851B2
:1023E0000D49304601F008F9002808D00321304695
:1023F00001F0D3F83046BDE8FE4001F079B8FEBDEB
:102400000503050000440040B8030020010000203F
:10241000E90300080603060000050300FEE7704715
:102420000FB4084B10B504A902AA039800F01CF8D9
:10243000044602A9002000F042FA204610BC5DF8D4
:1024400014FB0000BF28000802E008C8121F08C1E2
:10245000002AFAD170477047002001E001C1121F25
:10246000002AFBD1704700002DE9FF4F8DB00F46C9
:102470000546002606E025280BD0DDE90F1290471F
:102480006D1C761C28780028F5D111B03046BDE8C7
:10249000F08F0024A246A1460122E94900E004434E
:1024A00015F8013F203B02FA03F00842F7D12878E3
:1024B0002A2810D06FF02F022878A0F130010929C6
:1024C00014D80AEB8A0102EB410144F0020400EB4C
:1024D000010A6D1CF0E701CF5FEA000A03D544F45E
:1024E0000054CAF1000A44F002046D1C28782E281A
:1024F00017D115F8010F44F004042A280ED06FF00C
:102500002F022878A0F1300109290AD809EB8901A6
:1025100002EB410100EB01096D1CF2E757F8049B47
:102520006D1C28786C280FD006DC4C2817D0682842
:102530000DD06A2814D104E0742810D07A280FD165
:102540000DE044F400140AE044F4801401E044F483
:1025500040146978814202D104F580146D1C6D1C11
:1025600028786E281ED00CDC632830D004DC0028CC
:102570008BD0582811D19FE0642867D069280CD1EE
:1025800064E073282DD004DC6F2872D0702804D149
:1025900094E075286ED078286DD0DDE90F12904751
:1025A000761C4BE1C4F30250022806D0032809D060
:1025B000042801CF09D0066040E101CFF117C0E93E
:1025C00000613BE101CF068038E1067036E117F883
:1025D000040B8DF8000000208DF80100EB4601206F
:1025E00003E057F804BB4FF0FF3061074FF00001E4
:1025F00002D40DE008F10101884649450FDA804513
:10260000F8DB1BF808100029F4D108E008F10101FB
:1026100088468142FADB1BF808100029F6D1DDE973
:102620000F23AAEB08008146214600F031F930441F
:1026300000EB080604E0DDE90F121BF8010B9047E0
:10264000B8F10108F7D221464846F2E00A21C4F366
:1026500002524FF0000B0891022A04D001CFC1179B
:10266000032A09D00AE0FF1D27F00707F7E8020157
:1026700008E02CE01EE01FE000B2C117042A01D1DF
:1026800040B2C117021E71F1000206DA0023D0EB3E
:10269000030063EB01012D2202E0220504D52B2269
:1026A0008DF82420012203E0E20701D02022F7E781
:1026B000904653E00A210BE0102109E010214FF071
:1026C000000B44F004044FF00809089103E00821CE
:1026D0004FF0000B0891C4F30252022A04D001CF3C
:1026E0000021032A06D006E0FF1D27F00707F7E8C0
:1026F000020103E080B2042A00D1C0B24FF000080A
:1027000022072BD52A78702A07D0DDF820C08CF05C
:10271000100C5CEA0B0C05D00EE040228DF8242052
:10272000012208E050EA010306D030238DF824305E
:102730008DF8252002229046089B83F0080353EA77
:102740000B030BD150EA010201D1620706D53022FA
:102750008DF824204FF00108A9F101092A78582AA0
:1027600004D038A20B9208AA0A920BE03AA2F9E729
:102770005B46089AFDF740FD0B9B9B5C0A9A521E34
:102780000A92137050EA0102F2D10A98ADEB0000F0
:1027900000F1200B600702D524F4803401E04FF0F3
:1027A0000109D94502DDA9EB0B0000E0002000EB98
:1027B0000B0141440890AAEB010AE00306D4DDE9CD
:1027C0000F232146504600F063F806444FF00009FD
:1027D00008E009A911F80900DDE90F12904709F195
:1027E0000109761CC145F4DBE0030CD5DDE90F23BC
:1027F0002146504600F04CF8064404E0DDE90F1293
:1028000030209047761C0899481E08900029F5DC76
:1028100008E00A980A990078491C0A91DDE90F122C
:102820009047761CBBF10001ABF1010BF1DC2146B6
:102830005046DDE90F2300F019F806446D1C21E62F
:102840000928010030313233343536373839616286
:10285000636465660000000030313233343536374A
:102860003839414243444546000000002DE9F0411B
:10287000044600251E461746880404D405E0394660
:102880002020B0476D1C641EF9D52846BDE8F081B4
:102890002DE9F041044600251E469046C80301D5A7
:1028A000302700E02027880404D505E0414638465B
:1028B000B0476D1C641EF9D52846BDE8F0810A6852
:1028C000531C0B601070704770B505460C462146CE
:1028D000284600F049F840B104EB840005EB800085
:1028E000816821F00101816070BDFEE770B5064688
:1028F0000C4615462146304600F036F838B104EB58
:10290000840006EB80008168A943816070BDFEE70A
:10291000436889008A4013434360704710B58C00B8
:102920001346A24001EB810100EB8101022B04D090
:10293000042B08D0082B0CD0FEE7006810408968F3
:1029400001F002010AE000681040896801F004010A
:1029500004E000681040896801F0080110B109B175
:10296000012010BD002010BD02460120034B9A42F9
:1029700002D1042900D90020704700000004024061
:1029800000B5034600F00AF85B1E012801D1002BB8
:10299000F8D1012800D1042000BD00000020084922
:1029A000CA68D20701D001207047CA68D20601D593
:1029B00003207047C9684907FBD502207047000013
:1029C0000020024000B5034600F00AF85B1E012813
:1029D00001D1002BF8D1012800D1042000BD000056
:1029E00000200849CA6CD20701D001207047CA6C88
:1029F000D20601D503207047C96C4907FBD50220D8
:102A00007047000000200240054901EB90110A6860
:102A100000F01F030120984002430A607047000045
:102A200000200240F0B504460D462048204E4FF4E9
:102A300070270088B0F5007F26D21E48844211D24C
:102A40003846FFF79DFF00280BD1306940F00100A8
:102A5000306125803846FFF793FF316921F001018D
:102A60003161F0BD3846FFF7ADFF0028F9D1306D78
:102A700040F00100306525803846FFF7A3FF316D37
:102A800021F001013165F0BD3846FFF779FF0028DC
:102A9000F9D1306940F00100306125803846FFF7F8
:102AA0006FFF316921F001013161F0BDE0F7FF1FD7
:102AB00000200240FFFF07080748016941F080013C
:102AC000016106490988B1F5007F03D9016D41F024
:102AD000800101657047000000200240E0F7FF1F01
:102AE00070B504462848294D4FF470260088B0F58B
:102AF000007F32D92648844215D23046FFF740FF86
:102B000000280FD1286940F0020028616C61286913
:102B100040F0400028613046FFF732FF296921F07C
:102B20000201296170BD3046FFF74CFF0028F9D142
:102B3000286D40F0020028656C65E869800700D5C3
:102B40006C61286D40F0400028653046FFF73AFF81
:102B5000296D21F00201296570BD3046FFF710FF95
:102B60000028F9D1286940F0020028616C612869C9
:102B700040F0400028613046FFF702FF296921F04C
:102B80000201296170BD0000E0F7FF1F0020024034
:102B9000FFFF070809480169094A0B06094901D5E1
:102BA00042604160084B1B88B3F5007F04D9036D78
:102BB0001B0601D5426441647047000000200240BA
:102BC00023016745AB89EFCDE0F7FF1F10B5002863
:102BD00021D0114B0022001F196803E0814203D865
:102BE0000A4649680029F9D152B11368841A9C42F7
:102BF00004D1006818441060104602E0506000E004
:102C0000186039B102680B1A934203D10B681A4459
:102C100002604968416010BD1400002041617047A6
:102C2000016170472DE9F04301F00F04CD0600D596
:102C3000144300224FF00F0C012707FA02F51D4044
:102C400014D0D0F8008096000CFA06F928EA09089A
:102C500004FA06F949EA0809282902D0482902D0CD
:102C600002E0456100E00561C0F80090521C92B29C
:102C7000082AE2D3082207FA02F51D4016D0D0F840
:102C80000480A2F10806B6000CFA06F928EA090841
:102C900004FA06F949EA0809282902D0482902D08D
:102CA00002E0456100E00561C0F80490521C92B258
:102CB000102AE0D3BDE8F083806880B2704772B616
:102CC000FEF7F2FBFFF78DF8FFF78AF9FDF7C8FD75
:102CD000FEF790FFFEF77CF8FEF7D3FAFEF798FABE
:102CE000FFF702F862B6FFF713F8FFF7D7F9FDF721
:102CF000C3FDFEF701FCFEF7A1F9F4E7F0B50B30D8
:102D0000154D20F007010024144A0FE003688B42A0
:102D10000BD38B4205D95E1A43184768C3E9006795
:102D200000E04368136002C004E0021D1068002840
:102D3000ECD12046002802D1286808B10020F0BD5F
:102D4000064A07481060074A121A22F00702C0E933
:102D5000002401202860D7E718000020140000207C
:102D6000040F0020002F0020F0B506460F46002378
:102D700000242048006800F4E0654FF4A06085421C
:102D80002FD006DCB5F5407F31D0B5F5806F06D188
:102D90002AE0B5F5C06F21D0B5F5E06F1CD000F08A
:102DA0002BF802230224C3F104008740C4F104017C
:102DB0000F20C84010403843000106F1E02181F89F
:102DC000000406F01F01012088407109890001F10B
:102DD000E021C1F80001F0BD0424E4E7012303244D
:102DE000E1E702230224DEE703230124DBE70423D7
:102DF000D9E700000CED00E00249084302490860F1
:102E0000704700000000FA050CED00E0024A114096
:102E1000014302480160704780FFFF1F08ED00E09A
:102E2000034A516821F0F0010143516070470000EE
:102E300000100240034A516821F4E06101435160EF
:102E40007047000000100240034A516821F46051AD
:102E500001435160704700000010024070B588B017
:102E60000246002031A104AE91E83800C96838C696
:102E700007912FA10AC9CDE902132DA10AC9CDE9F5
:102E800000132E4C6168C1F381012D4B002923D022
:102E9000012923D0022923D019466368C3F3031301
:102EA00004ADEB5C21FA03F36568C5F3022502AEBD
:102EB000755D23FA05F56468C4F3C2241DF8044067
:102EC00023FA04F45AB3012A2BD0022A2BD0032A66
:102ED00000D1204608B070BD1946DEE71946DCE790
:102EE000616801F48031174DB1F5803F0CD02B465D
:102EF0006168C1F3834165682D0101D541F010017E
:102F00000F2909D2891C08E0616801F40031B1F58C
:102F1000003FEDD12B46EBE7491C5943BDE708467E
:102F2000D8E71846D6E72846D4E70000000000009E
:102F30000000000001020304060708090010024017
:102F400000127A0000093D0010B50C4C206840F0DA
:102F500001002060002000F035F860680849084052
:102F600060602068074908402060206820F48020C5
:102F700020604FF41F00A06010BD00000010024050
:102F80000C0000E0FFFFF6FE064A02EB9011096814
:102F900000F01F0201209040014201D00120704743
:102FA0000020704700100240054901EB90110A68AB
:102FB00000F01F030120984002430A6070470000A0
:102FC0000010024070B501460023002400202F4D60
:102FD000182951D003DC59B3102955D106E0B1F5B9
:102FE000006F13D0B1F5106F4ED131E04FF6FF7581
:102FF00003E01120FFF7C8FF5B1C08B9AB42F8D112
:103000001120FFF7C1FF10B301243DE040F6010697
:103010006FF07C4503E03046FFF7B6FF5B1C08B954
:10302000AB42F8D13046FFF7AFFF80B101242BE06F
:103030004FF4A06503E00120FFF7A6FF5B1C08B971
:10304000AB42F8D10120FFF79FFF00B101241BE044
:1030500040F6011603E03046FFF796FF5B1C08B907
:10306000AB42F8D13046FFF78FFF68B101240BE087
:103070001920FFF789FF5B1C08B9AB42F8D1192072
:10308000FFF782FF00B10124204670BDFFFF0F0053
:10309000054901EB90110A6800F01F0301209840D8
:1030A00002430A607047000000100240054901EB2E
:1030B00090110A6800F01F030120984082430A60C3
:1030C0007047000000100240054901EB90110A68AA
:1030D00000F01F030120984002430A60704700007F
:1030E0000010024010B5044B5A68044C22400843BB
:1030F0001043586010BD000000100240FFFFC2F7EF
:10310000044A516821F40031012801D141F4003111
:103110005160704700100240034A516821F00301DA
:1031200001435160704700000010024002484068AF
:1031300000F00C007047000000100240016821F010
:10314000400101607047002904D0416821F001016D
:1031500041607047416821F0020141607047016899
:1031600041F0400101607047C06880B27047C160A3
:103170007047000010B5144940180FD0B0F5806FAB
:1031800016D0B0F5784F1DD14FF443742046FFF7A9
:103190009BFF2046BDE81040FFF788BF40F20E4479
:1031A0002046FFF791FF2046BDE81040FFF77EBFA5
:1031B00040F20F442046FFF787FF2046BDE810404D
:1031C000FFF774BF10BD000000C8FFBF8068084251
:1031D00001D00120704700207047026802F441527C
:1031E0000B6813434A681A438B681343CA681A432F
:1031F0000B6913434A691A43896911430160C16924
:1032000021F40061C161704700211E48026842F448
:10321000803202604FF6FF73491C026802F40032EC
:103220000AB99942F8D10168890300D4FEE74168E0
:10323000416041684160416841F48061416041689A
:1032400021F440314160416841F4403141604168BE
:103250000D4A1140416041680C4A114341600168C8
:1032600041F08071016001688901FCD5416821F05D
:1032700003014160416841F0020141604168090772
:10328000FCD5704700100240FFFFC3F7000028087C
:10329000FFF7BABF10B5344A811A141590424DD0C9
:1032A00014DCB0F1804F2DD03049401832D0A0420C
:1032B0003AD0B0F5006F55D140F203442046FFF7F5
:1032C00003FF2046BDE81040FFF7F0BEA1423FD00B
:1032D000B1F58E3F0CD0B1F5923F43D140F20D34A1
:1032E0002046FFF7F1FE2046BDE81040FFF7DEBEA6
:1032F00040F20B342046FFF7E7FE2046BDE81040C1
:10330000FFF7D4BE2046FFF7DFFE2046BDE81040A1
:10331000FFF7CCBE40F201442046FFF7D5FE204621
:10332000BDE81040FFF7C2BE40F202442046FFF75E
:10333000CBFE2046BDE81040FFF7B8BE40F2044483
:103340002046FFF7C1FE2046BDE81040FFF7AEBEA5
:1033500040F205442046FFF7B7FE2046BDE8104086
:10336000FFF7A4BE10BD00000010004000FCFFBF2E
:10337000016841F0010101607047C9430161704774
:1033800030B50A888262284A284B90421FD0B0F19B
:10339000804F1CD0264CA04219D0264CA04216D0FB
:1033A000254CA04213D0984211D0244CA0420ED0FC
:1033B000234CA0420BD0234CA04208D0224CA04268
:1033C00005D0224CA04202D0214CA0420FD104686B
:1033D00024F07004046004688D7805F060052C43C7
:1033E000046004680D7905F010052C4304608C68B6
:1033F000C462184CA0420CD0174CA04209D00468FB
:1034000024F44074046004688D8905F440752C43ED
:103410000460904201D0984201D1897B01634169E7
:1034200041F00101416130BD002C014000340140F8
:103430000004004000080040000C0040004C014027
:10344000005001400054014000180040001C0040A2
:10345000002000400010004000140040C2680A43F1
:10346000C2607047C94301617047C2680A40006981
:10347000084202D00AB101207047002070470000C6
:1034800070B504460D460020174BE21A1E159C42EB
:1034900016D008DC154962180ED0B24217D10220AE
:1034A000FFF7DCFC13E0B2420ED0B2F56C4F0ED148
:1034B0000320FFF7D3FC0AE00220FFF7CFFC06E071
:1034C0000220FFF7CBFC02E00220FFF7C7FC00EB75
:1034D0005500B0FBF5F04FF6F071014000F00F021F
:1034E0001143A16070BD0000004C004000BCFFBF54
:1034F0004068C0F308007047C1F30801416070479D
:1035000010B5214A811A1315904228D00EDC1F49AC
:1035100040181AD0984236D140F212442046FFF7A4
:10352000D3FD2046BDE81040FFF7C0BD994220D032
:10353000B1F56C4F27D140F20E342046FFF7C4FDA1
:103540002046BDE81040FFF7B1BD40F211442046CF
:10355000FFF7BAFD2046BDE81040FFF7A7BD40F2D7
:1035600013442046FFF7B0FD2046BDE81040FFF7AA
:103570009DBD40F214442046FFF7A6FD2046BDE85D
:103580001040FFF793BD10BD004C004000BCFFBFD2
:10359000C16841F40051C160704700EB91100068B0
:1035A00001F01F0201219140084201D00120704723
:1035B00000207047426922F400720A43426170475A
:1035C000426922F480720A434261704710B5C1F328
:1035D0008912835801F01F040121A1408B438350BD
:1035E00010BD10B5C1F38912835801F01F040121E9
:1035F000A1400B43835010BD30B5C1F389128258EE
:1036000001F01F04012505FA04F31A4000EB915064
:103610000068C1F3044105FA01F31840002802D004
:103620000AB1012030BD002030BDC26822F4C06262
:10363000C260C2680A43C2607047C26822F00402D6
:103640000A43C2607047026922F440520261026973
:103650000A4302617047C26822F008020A43C2604E
:103660007047C26822F48052C260C2680A43C260D6
:103670007047D007DC05D007E8032C012C012C0192
:103680002C010000A4360008000000201C000000EF
:1036900048240008C03600081C000020E44E00004A
:1036A0005824000800000000000000000000000096
:1036B0000000000000F36F060000000000000000A2
:0400000508000131BD
:00000001FF
