:020000040800F2
:10800000C09400204981000839DB0008DDD0000859
:1080100035DB0008DB9000082D2B01080000000074
:10802000000000000000000000000000550D0108E5
:10803000B1CA000800000000B9DB00086181000837
:108040006381000863810008638100086381000880
:108050006381000863810008638100086381000870
:108060006381000863810008638100086381000860
:1080700041C2000889C200086381000863810008CA
:10808000638100086381000863810008512A0108A8
:10809000812A010863810008638100086381000868
:1080A0006381000863810008638100086381000820
:1080B000610E010863810008638100086381000884
:1080C0006381000863810008638100086381000800
:1080D0006381000899270108DD28010863810008F1
:1080E00063810008638100086381000863810008E0
:1080F00063810008638100086381000863810008D0
:1081000063810008638100086381000863810008BF
:1081100063810008638100086381000863810008AF
:10812000638100086381000863810008638100089F
:10813000DFF810D000F03AF8004800471539010880
:10814000AFF30080C09400200648804706480047EF
:10815000FEE7FEE7FEE7FEE7FEE7FEE7FEE7FEE7F7
:10816000FEE7FEE7FD0D010831810008D2B201E013
:1081700000F8012B491EFBD270470022F6E710B52C
:1081800013460A4604461946FFF7F0FF204610BD85
:1081900010B5002200E0521C835C8C5CA34201D12C
:1081A000002BF8D1D8B2E1B2401A10BD064C074DF1
:1081B00006E0E06840F0010394E8070098471034B7
:1081C000AC42F6D3FFF7B8FF284A0108484A010835
:1081D00010B501460022002309B9002010BD00237C
:1081E00004E0881CC05C4240581C83B2B1F898007F
:1081F000401E9842F5DCD043C2B2B1F89800401E50
:108200008C1C205C904201D00020E7E70120E5E7CC
:108210002DE9F04F9BB0054636201A90002400202F
:108220001990189017901690342109A8FFF7A5FF10
:10823000A04600200890814682460790834600268B
:108240000690059004900390029015B91BB0BDE80C
:10825000F08FB5F83414B5F83604814200D1F5E753
:10826000B5F834044D21484305F5997101EB4004FC
:10827000A07855280ED0B5F83404401CA5F8340475
:10828000B5F83404052190FBF1F201FB1200A5F8CA
:108290003404DBE7E0781A901A9818287ED009DCBD
:1082A000A0F1100008287AD2DFE800F017465382C8
:1082B000AFC0C1FD322873D008DC192871D01A284C
:1082C00070D030286FD0312869D1ACE133286BD021
:1082D00034286AD03528F7D126E303224FF4B211AF
:1082E00019A805F03FFD0322FE4918A805F03AFD44
:1082F000552000F003FD102000F000FD002000F0EC
:10830000FDFC9DF8640000F0F9FC9DF8650000F0AC
:10831000F5FC9DF8660000F0F1FC9DF8600000F0AF
:10832000EDFC9DF8610000F0E9FC9DF8620000F0B2
:10833000E5FC00F00FFD09E34FF48021002005F07B
:10834000A9FC0020E84908600121112000F0C3FCCD
:10835000FCE22079001FC0B2089094F8059094F8D0
:1083600006A0E079079094F808B04FEA096040EA67
:108370000A41079841EA002040EA0B06314604F121
:108380000900089A05F064FE07463946122000F0FD
:10839000A2FCD5480068401CD34907E0CCE0D4E2F9
:1083A000C9E109E11AE130E1F2E122E20860CDE23F
:1083B000CD480068000ECD490870CB480068000C1D
:1083C0004870C9480088000A8870C7480078C8709B
:1083D000C74805F0A7FC4FF4B11005F0A3FCAA2193
:1083E000C34805F0EAFD04224FF4B111BF4805F07F
:1083F00051FD132000F061FC01200090C306BD4A2E
:108400006421019008F03AFDA0E260791790A0790C
:108410000490049917980BF05FFD0BF00FFD0BF023
:1084200087F90121142000F056FC8FE28EE260797A
:108430001690169800F0010038B10020AE4908628D
:108440004FF40031480005F025FC169800F00200BA
:10845000022808D10020A84948624FF480114FF447
:10846000C02005F017FC169800F00400042808D17D
:108470000020A14988624FF460014FF4001005F01C
:1084800009FC169800F00800082803D14FF4B0103A
:1084900005F048FC994805F045FC0121162000F044
:1084A0001AFC53E2FFE72079801FC0B203904FF01F
:1084B00000080AE0A11C08F10900085C09A901F8FC
:1084C000080008F1010000F0FF0803988045F1DB87
:1084D00003988DF8380060798DF83900A0798DF80F
:1084E0003A00E0798DF83B00207A8DF83C00607A04
:1084F0008DF83D00A07A8DF83E00804805F012FC12
:108500001E227E4909A805F0A3FD07467FB104F0AD
:10851000E9FA7948007D28B14FF4805178480BF092
:10852000A1F904E04FF4805175480BF099F93946F0
:10853000172000F0D0FB09E21E22704909A805F0BF
:1085400011FC9DF83800FF2802D10A208DF8380070
:10855000552000F0D3FB182000F0D0FB002000F0E5
:10856000CDFB9DF8390000F0C9FB9DF83A0000F002
:10857000C5FB9DF83B0000F0C1FB9DF83C0000F0FE
:10858000BDFB9DF83D0000F0B9FB9DF83E0000F0FA
:10859000B5FB4FF0000808E009A911F8080000F049
:1085A000ADFB08F1010000F0FF089DF838004045E0
:1085B000F2DC00F0CFFBC9E1524805F0B3FB607973
:1085C0004D4981F84900084690F849104D4805F09A
:1085D000F4FC0121192000F07EFBB7E1494805F0C9
:1085E000F3FB454981F84900552000F087FB1A202C
:1085F00000F084FB002000F081FB3F4991F8490026
:1086000000F07CFB00F0A6FBA0E1207906904FF47F
:10861000B011601D069A05F01BFD07463946302053
:1086200000F059FB92E13448C07D042841D1207903
:10863000089094F8059094F806A0E079079094F8D3
:1086400008B04FEA096040EA0A41079841EA002071
:1086500040EA0B062C480068B04206D02648806AE3
:10866000401C25498862284806600020019008982F
:1086700084280FD02079801C019008E0FF22A11CE3
:108680000198401C0A540198401C80B20190019846
:108690008728F3DB1848806A401E00EB40104FF437
:1086A000001202EB80018422601D05F0D1FC074618
:1086B0003CE02079001FC0B2089094F8059094F82F
:1086C00006A0E079079094F808B04FEA096040EA04
:1086D0000A41079841EA002040EA0B060A48006870
:1086E000B04213E0005016001000002014000020DB
:1086F0000010160079D300084C0F0020003016003F
:1087000000180140009016001800002006D098487C
:10871000806A401C964988629648066006F50011FA
:1087200004F10900089A05F093FC07463946312008
:1087300000F0D1FA0AE12079001FC0B2089094F845
:10874000059094F806A0E079079094F808B04FEAF5
:10875000096040EA0A41079841EA002040EA0B0616
:1087600084480068B04206D08148006A401C8049B5
:1087700008628048066006F5802104F10900089A25
:1087800005F066FC07463946322000F0A4FADDE029
:108790002079001FC0B208907549089881F8E3005D
:1087A00094F8059094F806A0E079079094F808B042
:1087B0004FEA096040EA0A41079841EA002040EA8E
:1087C0000B066C480068B04206D06948406A401CFD
:1087D000674948626748066006F5C02104F1090050
:1087E000089A05F035FC07463946332000F073FA45
:1087F000ACE060790590059820B1012821D00228CD
:108800005BD13BE04FF4B31005F08CFA5848006A96
:10881000000E8DF808005648006A000C8DF809001B
:108820005348008C000A8DF80A00514890F8200047
:108830008DF80B0004224FF4B31102A805F02AFBB7
:108840003BE04D4805F06EFA4948406A000E8DF84D
:1088500008004748406A000C8DF809004448808CA5
:10886000000A8DF80A00424890F824008DF80B00A9
:108870000422414902A805F00DFB1EE04FF4B4109C
:1088800005F050FA3A48806A000E8DF80800384822
:10889000806A000C8DF809003548008D000A8DF8BB
:1088A0000A00334890F828008DF80B0004224FF49A
:1088B000B41102A805F0EEFA00BF00BF4FF6FF703A
:1088C0002C4908602A48807D092828D1284890F83A
:1088D000E310406A401E01EBC0102549C1F8E800D2
:1088E00091F8E320496A491E02EBC11005F0B0FC83
:1088F0001F4981F8E400214805F014FA1C48D0F81B
:10890000E8101E4805F08FFC4FF4B61005F00AFA87
:10891000174890F8E4104FF4B61005F084FC3420AA
:10892000059900F0D8F911E04FF4B51005F0FAF907
:108930002079421C4FF4B511201D05F089FB074634
:108940003946352000F0C7F900E000BF00BFB5F898
:108950003404401CA5F83404B5F83404052190FB18
:10896000F1F201FB1200A5F8340400BF6EE4000030
:108970004C0F0020180000200070160000B01600F8
:1089800010B50146002209B9002010BDB1F8360427
:108990004D23584301F5997303EB4002B2F8980058
:1089A00008B90020F1E7B1F83604401CA1F83604FC
:1089B000B1F83604052390FBF3F403FB1400A1F88F
:1089C00036040024B1F836044D23584301F5997359
:1089D00003EB4000A0F898400120D6E710B500B99D
:1089E00010BD002380F84037A0F83E37A0F83A3792
:1089F000A0F83C3700210AE000244D224A4300F54C
:108A0000876303EB4202A2F898404A1C91B2052901
:108A1000F2DB0022A0F82C21A0F82E21A0F83021B2
:108A20000023A0F83434A0F8363400210AE00024F2
:108A30004D224A4300F5997303EB4202A2F8984095
:108A40004A1C91B20529F2DB002280F84C2700BFB6
:108A5000C6E7000010B50548FFF7C0FF044800F066
:108A600005FB044800F040F810BD00002C14002065
:108A7000798A00088D8E0008F0B504461546134E1D
:108A8000B6F82E01B6F82C2100230B78461C4FF4C3
:108A9000967796FBF7FC07FB1C66964200D1F0BD6B
:108AA0000A4E3354B6F82E61761C084FA7F82E6193
:108AB0003E46B6F82E614FF4967796FBF7FC07FB1F
:108AC0001C66024FA7F82E6100BFE8E72C140020B7
:108AD00010B5044800F00EF80248FFF799FB00F0CB
:108AE0008BF910BD2C1400200149C1F844077047D0
:108AF0002C1400202DE9F0430446B4F82E71B4F88C
:108B00002C910025A84600260CB9BDE8F083B94594
:108B100000D1FAE7B4F836044D21484304F59971C1
:108B200001EB4005B4F83001265CB5F89800B8BBFD
:108B3000552E10D08C1F2088401C208020884FF498
:108B4000967190FBF1F201FB120020802088A0803A
:108B5000A4F59674D9E7B4F83604401C052190FBBF
:108B6000F1F201FB1201B4F83404814200D1CCE7E8
:108B700035F8981F2888401C25F89809A81C4654E9
:108B8000B4F83001401CA4F83001B4F830014FF4BF
:108B9000967190FBF1F201FB1200A4F830018AE01B
:108BA000FFE7B5F89800962814DB0020A5F8980098
:108BB00004F596742088401C208020884FF496711C
:108BC00090FBF1F201FB120020802088A080A4F528
:108BD00096749AE76BE0B4F83001265C35F8981F7C
:108BE0002888401C25F89809A81C4654B4F8300180
:108BF000401CA4F83001B4F830014FF4967190FB9A
:108C0000F1F201FB1200A4F83001B5F89800042835
:108C100000DA4CE02879922814DD0020A5F89800AD
:108C200004F596742088401C208020884FF49671AB
:108C300090FBF1F201FB120020802088A080A4F5B7
:108C4000967462E7B5F898802879001D404500DDEC
:108C50002DE02846FFF7BCFAA0B90020A5F898003F
:108C600004F596742088401C208020884FF496716B
:108C700090FBF1F201FB120020802088A080A4F577
:108C8000967442E704F5967420884044208020883A
:108C90004FF4967190FBF1F201FB120020802088C6
:108CA000A080A4F596742046FFF76AFE2DE7B4F87D
:108CB0003001B8428FD100BF27E710B504465520D8
:108CC00000F01CF8204600F019F8002000F016F81B
:108CD00000F040F810BD30B505460C46552000F0B8
:108CE0000DF8284600F00AF8012000F007F82046A9
:108CF00000F004F800F02EF830BD000070B5014619
:108D0000124CB4F83A27B4F83C37B4F83C474D2538
:108D10006C430F4D05EB44005C1C052594FBF5F6F8
:108D200005FB1644944200D170BDB0F89840962CD3
:108D300000DBF9E7B0F89850841C6155B0F8984012
:108D4000641CA0F8984000BFEEE700002C1400203F
:108D500064180020F0B500230022254EB6F83A47EB
:108D6000B6F83C57B6F83C674D277E43214F07EBDA
:108D70004600B0F898106E1C052796FBF7FC07FB21
:108D80001C66A64200D1F0BD032903DA0026A0F834
:108D90009860F8E7962900DBF5E7CE1E0671002201
:108DA00004E0861CB65C7340561CB2B28A42F8DB03
:108DB000DE43F7B2B0F898C00CF10106A0F8986055
:108DC000861C06F80C700A4EB6F83C67761CB7B2E3
:108DD000074EA6F83C77B6F83C67052796FBF7FCEC
:108DE00007FB1C66B7B2024EA6F83C7700BFCAE785
:108DF0002C140020641800202DE9F0412148B0F81F
:108E00003A47B0F83C574D2060431F4901EB400002
:108E1000B0F898604D20604301EB4000871C4D2066
:108E2000604331F81080AC4201D1BDE8F0811548B3
:108E3000D0F8440700B9F8E7124832463946D0F86E
:108E400044374046984700B9EFE700224D20604381
:108E50000D4901EB4000A0F898200A48B0F83A0705
:108E6000401C81B20748A0F83A17B0F83A0705212C
:108E700090FBF1F201FB120081B20248A0F83A1710
:108E800000BFD2E72C14002064180020F0B505467E
:108E90002B48B0F8D464B0F8D64401B10AB9002028
:108EA000F0BD601CC71700EB5777FF10A0EBC7079A
:108EB000B74201D10020F3E74D206043204F3F1D12
:108EC00027F8105000230CE011F801CB4D2060432F
:108ED0001B4F3F1D07EB4000801C00F803C0581CCF
:108EE00083B29342F0DB4D206043154F3F1D07EBEB
:108EF0004000A0F89820381FB0F8D604401C87B274
:108F00000F48A0F8D6740746B7F8D604C71700EB89
:108F10005777FF10A0EBC7071FFA87FC084FA7F889
:108F2000D6C44FF0000C3846B0F8D6044D2778432D
:108F3000034F3F1D07EB4000A0F898C00120AFE7AA
:108F4000441C002010B500B910BD002380F8DA34AD
:108F5000A0F8D834A0F8D434A0F8D634002109E021
:108F600000244D224A43031D03EB4202A2F898401D
:108F70004A1C91B20829F3DB0022024B83F8242516
:108F800000BFE1E7441C002010B5044640F2026037
:108F90000AF0F0FE0423032218211F480AF064FCA3
:108FA0000823032248211C480AF05EFC40F211709D
:108FB0000AF0E0FE19480BF069FA214617480BF059
:108FC00013FA002115480BF023FB002113480BF086
:108FD0000FFB002111480BF0FBFA00210F480BF0AA
:108FE000B9FA00210D480BF0ADFA08210B480BF03F
:108FF00007FB042109480BF0F3FA01220221262085
:109000000AF0E0FC40F2053104480BF0B8FA0348DE
:109010000BF084FA10BD000000080140004400403D
:1090200010B50446062106480BF07DFA2146044897
:109030000BF027FA40F2063101480BF0A0FA10BD00
:109040000044004010B54FF4E130FFF79DFF0248A7
:10905000FFF778FF10BD0000441C002010B5024847
:1090600000F00AF810BD0000441C0020014908600F
:1090700070470000441C00202DE9F0470446B4F876
:10908000D874B4F8D4044D214843211D01EB4000AD
:10909000B0F89880B4F8D454B4F8D6940CB9BDE8BC
:1090A000F0874D4500D1FAE794F8DA0400B1F6E70D
:1090B000474510DAB4F8D864711CA4F8D8144D21CF
:1090C0006943221D02EB4101891C885DFFF7A8FF5F
:1090D000012184F8DA1400BFE1E700BFFEE710B514
:1090E0000246002300240AB9002010BD002403E03A
:1090F000105D4340601C84B28C42F9D3D843C3B2A4
:1091000053540120F1E710B50246002300240AB9A8
:10911000002010BD002403E0105D4340601C84B2B9
:10912000481EA042F8D8D843C3B2481E105C9842EB
:1091300001D00020EDE70120EBE70000FEB5054679
:109140000027002401260020029005B9FEBD00265C
:1091500003E3D720704305F19C0101EBC000B0F898
:10916000B426D720704301EBC000B0F8B6068242A7
:1091700000D1F0E2D720704305F19C0101EBC00261
:10918000D720704301EBC000B0F8B406C0EBC001BB
:1091900001EB401002EB80042079552824D0D72021
:1091A000704305F19C0101EBC000B0F8B406401C0F
:1091B00082B2D720704301EBC000A0F8B426D720BC
:1091C000704301EBC000B0F8B4060B2190FBF1F244
:1091D00001FB120082B2D720704305F19C0101EB24
:1091E000C000A0F8B426B6E26779F748807D082869
:1091F00072D2DFE800F0047105DBF1F071EF84E278
:10920000152F6AD007DC7FB1012F0ED0032F43D07A
:10921000132F71D174E0242F6FD0252F6ED0272FFC
:109220006DD02B2FF5D1BAE0BEE0102005F08EF9FD
:10923000E54890F8E20018B1102005F087F92AE01F
:10924000E148807E18B1A62005F080F923E0DE48D1
:1092500090F83C0038B9112005F078F90120DA497E
:1092600081F83C0017E0D848C07D01280AD1D648D3
:10927000007F38B1D44890F83C0018B94F2005F071
:1092800065F908E0D148007828B1172005F05EF9AB
:109290000020CE49087087E0082007F0E1FECA48A8
:1092A00090F84A0088B1C84890F84B0060B1C648B1
:1092B000C07E18B11C2005F049F905E0C248407F86
:1092C00010B1152005F042F96EE0BF48C07E28B10C
:1092D0001A2005F03BF90EE016E21DE0BA48407F87
:1092E00018B1132005F032F905E0B748007F10B13E
:1092F0004F2005F02BF957E055E024E024E032E060
:10930000E0790290029818B9132005F01FF94BE09C
:10931000142005F01BF947E0E0790290029820B98B
:10932000A948406B401EA8494863A748416B806A22
:10933000401C814203D2152005F008F902E01620F6
:1093400005F004F930E02FE0E0790290029830B99E
:109350001A2005F0FBF8092007F0BEFE24E01B20D0
:1093600005F0F4F820E0E0790290029848B99648B8
:10937000006B002804D99448006B401E9249086392
:1093800012E09148006B9049496A884203D21C2040
:1093900005F0DCF802E01D2005F0D8F804E01E20FE
:1093A00005F0D4F800E000BF00BFAEE1062F52D0B8
:1093B00007DC97B1022F11D0032F28D0052F71D1D0
:1093C0003AE0072F62D0132F64D0152F73D02B2FC4
:1093D00068D187E08DE0DFE08CE088E07A48C07EED
:1093E00010B97948407F58B1774890F83C0068B987
:1093F000242005F0ABF80120734981F83C0005E01A
:109400007148007F10B14F2005F0A0F86FE06E4862
:10941000C07E18B1262005F099F80CE06A48407F1C
:1094200018B12A2005F092F805E06748007F10B1D6
:109430004F2005F08BF85AE0E0790290029818B9B5
:10944000262005F083F852E000205F4908632820B9
:1094500005F07CF84BE0E0790290029840B95A4858
:10946000006B002804D95848006B401E5649086319
:109470005548006B5449496A884203D2282005F0B8
:1094800065F802E0292005F061F830E02E2005F0B3
:109490005DF82CE0E0790290029828B92A2005F0C6
:1094A00055F824E022E006E00020474948632C20DC
:1094B00005F04CF81BE0E0790290029820B9424890
:1094C000406B401E404948633F48416B806A401CE6
:1094D000814203D22C2005F039F802E02D2005F05E
:1094E00035F804E02E2005F031F800E000BF00BFA1
:1094F0000BE100BFB81E06284BD2DFE800F0030FD7
:10950000161D2F46304890F83C0030B9322005F047
:109510001DF801202C4981F83C003BE02A48C07E20
:1095200010B1342005F012F834E02748007F10B164
:109530004F2005F00BF82DE0352005F007F8E07915
:109540000290029818B9342005F000F822E00020BB
:109550001D490863362004F0F9FF1BE0E079029012
:10956000029820B91848006B401E17490863164836
:10957000006B1549496A884203D2362004F0E6FFA1
:1095800002E0372004F0E2FF04E0382004F0DEFFC0
:1095900000E000BF00BFB8E0012F06D0022F22D0AC
:1095A000032F4AD0042F77D17BE0074890F83C0086
:1095B000C0B90548407F10B90348C07E40B13D2086
:1095C00004F0C4FF0AE000004C0F00200A00002055
:1095D0006448007F10B14F2004F0B8FF01206149BA
:1095E00081F83C008EE05F48C07E88B100205D4974
:1095F00008633E2004F0AAFF0120811E3F235A4A3F
:10960000CDE900104FF47A710A2007F037FC13E01F
:109610005448407F80B1002052494863412004F003
:1096200095FF0120811E42234F4ACDE900104FF4DF
:109630007A710A2007F022FC64E0092007F04CFD53
:109640004848C07EA0B14748016B406A401E814235
:109650000AD2E07920B14348006B401C41490863BD
:109660003E2004F073FF1BE0402004F06FFF17E082
:109670003C48407FA0B13B48416B806A401E81421C
:109680000BD2E07920B13748406B401C3549486324
:10969000412004F05BFF03E033E0402004F056FF7C
:1096A00030E0E07998B12F48C07E30B101202D49DB
:1096B00081F83F000020C8761CE02A48407FC8B1EE
:1096C0000120284981F83E000020487712E0254813
:1096D000C07E30B10120234981F839000020C876CE
:1096E00008E02048407F28B101201E4981F8390058
:1096F00000204877092007F0B3FC442004F026FF3F
:1097000000E000BF00BF00E000BF00BFD7207043F3
:1097100005F19C0101EBC000B0F8B406401C82B218
:10972000D720704301EBC000A0F8B426D7207043C7
:1097300001EBC000B0F8B4060B2190FBF1F201FB85
:10974000120082B2D720704305F19C0101EBC000EA
:10975000A0F8B42600BF701CC6B2012EFFF6F9AC0B
:1097600000BFF3E44C0F00204DE5000870B5024641
:1097700000230AB9002070BDD720484302F19C04A1
:1097800004EBC005D720484304EBC000B0F8B60690
:10979000C0EBC00404EB401005EB8003B3F89A0063
:1097A00008B90020E7E7D720484302F19C0404EB06
:1097B000C000B0F8B606401C85B2D720484304EB81
:1097C000C000A0F8B656D720484304EBC000B0F85C
:1097D000B6060B2490FBF4F504FB150085B2D720E8
:1097E000484302F19C0404EBC000A0F8B6560025E3
:1097F000D720484304EBC006D720484304EBC00001
:10980000B0F8B606C0EBC00404EB401006EB8000D5
:10981000A0F89A500120AEE7F0B505460B46334854
:10982000B0F86C6DB0F86E1D03B10AB90020F0BD40
:10983000481C0A2790FBF7FC07FB1C00B04201D133
:109840000020F4E72A48C07D012803D02848C07DC5
:10985000022808D1274FC1EBC10000EB411C26486C
:1098600040F82C7006E0C1EBC10000EB4117224824
:1098700040F8275000240CE013F8017BC1EBC10035
:1098800000EB411C1C4800EB8C00001D0755601CC0
:1098900084B29442F0DBC1EBC10000EB41171648E3
:1098A00000EB8700A0F89A201048B0F86E0D401C1D
:1098B00087B20E48A0F86E7DB0F86E0D0A2790FBB7
:1098C000F7FC07FB1C0087B20848A0F86E7D002754
:1098D000B0F86E0DC0EBC00C0CEB401C064800EB62
:1098E0008C00A0F89A700120A1E700004822002017
:1098F0004C0F0020F4FF01189C29002030B50146D0
:1099000001B930BD002481F8724DA1F8704DA1F865
:109910006C4DA1F86E4D00200CE00024C0EBC0039C
:1099200003EB401501F2547303EB8503A3F89A404F
:10993000431CD8B20A28F0DB00201AE00023C0EB59
:10994000C00404EB401401EB8404A4F89630C0EB8F
:10995000C00404EB401401EB8404A4F89830C0EB7D
:10996000C00404EB401401EB8404A4F89A30431CB7
:10997000D8B20128E2DB002025E0002210E000251B
:10998000D723434301F19C0404EBC303C2EBC2049D
:1099900004EB421403EB8403A3F89A50531CDAB28D
:1099A0000B2AECDB0025D723434301F19C0404EB95
:1099B000C303A3F8B456D723434304EBC303A3F86C
:1099C000B656431CD8B20128D7DB00BF99E7000088
:1099D00010B588B0044640F219700AF0CBF940F295
:1099E00002600AF0C7F94FF4C0600AF0C3F9002220
:1099F0000121142009F0E6FF00220221132009F0C2
:109A0000E1FF4FF4006303224821344809F02CFFA2
:109A10004FF4805303221821304809F025FF05A98F
:109A2000002009F08CFB6946002009F088FB2C48D7
:109A300009F02CF900208DF8180001208DF819008C
:109A400000208DF81A008DF81B008DF81C008DF891
:109A50001D008DF814008DF8150005208DF81600F6
:109A600000208DF817007D2C03D12420ADF81E00B6
:109A70000FE0FA2C03D11220ADF81E0009E0B4F576
:109A8000FA7F03D10920ADF81E0002E02420ADF8D2
:109A90001E0005A9124809F091F90120ADF80A004D
:109AA0000020ADF80C000120ADF80E000020ADF84C
:109AB0000000ADF80200ADF80400ADF80600ADF806
:109AC000080001208DF81000684609F0EFF8022127
:109AD000034809F008FA08B010BD00000008014072
:109AE000006400402DE9F043A8B004460D469046BE
:109AF0004FF000091CB9002028B0BDE8F083002613
:109B0000002716E0022E0DD14FEA18223046711CB4
:109B10008EB20DF8002008F0FF023046711C8EB2A4
:109B20000DF80020E05D0DF80600701C86B2781C70
:109B300087B2681FB842E5D8205C0106281F205C68
:109B400041EA0041E81E205C41EA0020A91E615C58
:109B500040EA0109E81E81B2684602F055FB48451B
:109B600001D00020C8E70120C6E700002DE9F04140
:109B70000446002600250027A8460CB9BDE8F08160
:109B8000B4F8A812B4F8AA02814200D1F6E7B4F8FA
:109B9000A80200EBC00101EB401104F1BC0000EB96
:109BA0008105A87855280ED0B4F8A802401CA4F866
:109BB000A802B4F8A802032190FBF1F201FB120005
:109BC000A4F8A802DAE7E979A87941EA00264CF27C
:109BD0000231701A8E4232D008DC76B1A6F54140CF
:109BE000A0F1090050B1F9283FD11AE0B0F5807F0B
:109BF00010D0B0F5007F38D133E037E0254890F839
:109C00003C0030B9322004F0A1FC0120214981F848
:109C10003C002BE01F48C07E10B1352004F096FCBC
:109C200024E01C48006B1B49496A884203D2362055
:109C300004F08CFC02E0372004F088FC16E01548A4
:109C4000006B401E134908630846006B496A88424E
:109C500003D2362004F07AFC02E0372004F076FCD0
:109C600004E0382004F072FC00E000BF00BF00F008
:109C700031FAB4F8A802401CA4F8A802B4F8A8026B
:109C8000032190FBF1F201FB1200A4F8A80200BF2F
:109C900074E700004C0F002010B50146002209B9FE
:109CA000002010BDB1F8AA0200EBC00303EB401383
:109CB00001F1BC0000EB8302B2F8A20008B9002059
:109CC000EFE7B1F8AA02401CA1F8AA02B1F8AA0273
:109CD000032390FBF3F403FB1400A1F8AA02002372
:109CE000B1F8AA0200EBC00404EB401401F1BC007F
:109CF00000EB8400A0F8A2300120D2E710B500B933
:109D000010BD002380F89E34A0F89C34A0F898344D
:109D1000A0F89A3400210CE0002301EBC10202EB11
:109D2000411400F52B7202EB8402A2F8A2304A1C07
:109D300091B20329F0DB002220F8B42F4280C280C8
:109D4000B4380023A0F8A832A0F8AA3200210CE011
:109D5000002301EBC10202EB411400F1BC0202EB53
:109D60008402A2F8A2304A1C91B20329F0DB00BFA2
:109D7000C6E7000000B50348FFF7C0FF024800F047
:109D800067F800BD1C580020199800082DE9F04321
:109D9000DFF8A0C0BCF8B670BCF8B43000240D46A3
:109DA0000026C0F30A06ACF8B86007F1010C4FF0CA
:109DB000B4089CFBF8F908FB19CC9C4501D1BDE81F
:109DC000F083002431E015F801CBDFF86880B8F8A3
:109DD000B680DFF8609009F808C0CC46BCF8B6C081
:109DE0000CF1010CC846A8F8B6C0C446BCF8B6C011
:109DF0000CF1010C4FF0B4089CFBF8F908FB19CCEE
:109E00009C4500D113E0DFF82CC0BCF8B6C04FF081
:109E1000B4089CFBF8F908FB19CCDFF81880A8F807
:109E2000B6C004F1010C1FFA8CF49442CBDB00BFE6
:109E300000BFC4E71C58002010B5044800F00EF81D
:109E40000248FFF793FE00F0A7FA10BD1C5800204F
:109E50000149C1F8A00470471C5800202DE9F043C7
:109E60000446B4F8B670B4F8B4900025A8460026AD
:109E70000CB9BDE8F083B94500D1FAE7B4F8AA02FD
:109E800000EBC00101EB401104F1BC0000EB8105C7
:109E9000B4F8BA00265CB5F8A20090BB552E0ED0DF
:109EA00034F8B40F401C20802088B42190FBF1F2DC
:109EB00001FB120020802088E080B43CD9E7B4F890
:109EC000AA02401C032190FBF1F201FB1201B4F83D
:109ED000A802814200D1CCE735F8A21F2888401C97
:109EE00025F8A209A81C465434F8BA0F401C20805B
:109EF0002088B42190FBF1F201FB120024F8BA098A
:109F00007FE0FFE7B5F8A200A02811DB0020A5F84C
:109F1000A20034F8B40F401C20802088B42190FBAC
:109F2000F1F201FB120020802088E080B43CA0E721
:109F300063E0B4F8BA00265C35F8A21F2888401CFC
:109F400025F8A209A81C465434F8BA0F401C2080FA
:109F50002088B42190FBF1F201FB120024F8BA0929
:109F6000B5F8A200092800DA47E06879972811DDE2
:109F70000020A5F8A20034F8B40F401C20802088EF
:109F8000B42190FBF1F201FB120020802088E080D8
:109F9000B43C6EE7B5F8A28068790930404500DD31
:109FA0002BE0B4F8B820B5F8A210A81CFFF79AFD72
:109FB00088B90020A5F8A20034F8B40F401C208016
:109FC0002088B42190FBF1F201FB12002080208850
:109FD000E080B43C4DE734F8B40F40442080208842
:109FE000B42190FBF1F201FB120020802088E08078
:109FF000B43C2046FFF750FE3BE7B4F8BA00B84245
:10A0000097D100BF35E710B50446552000F064F83D
:10A01000AA2000F061F80C2000F05EF8022000F0A9
:10A020005BF8201200F058F8E0B200F055F800F0AC
:10A0300081F810BD2DE9F04106460C4617469846BA
:10A040000025012E3ED18B20214981F84C0055215D
:10A050001F4880F84D10AA2180F84E10162180F874
:10A060004F10002180F85010211280F8511080F814
:10A070005240002180F85310008E401C010A144801
:10A0800080F8551090F83000401CC1B2104880F89C
:10A090005410002180F85610802180F8571007EBEB
:10A0A00008018022583003F05DFE00BF07E0084938
:10A0B0004C316A1C885C00F00FF8681CC5B28B2D0F
:10A0C000F5DB00E000BF00BF00F034F8BDE8F08130
:10A0D0004C0F00207047000070B50146134CB4F8D7
:10A0E0009824B4F89A34B4F89A4404EBC40505EB08
:10A0F00044150F4C04EB85005C1C032594FBF5F61E
:10A1000005FB1644944200D170BDB0F8A240A02CCB
:10A1100000DBF9E7B0F8A250841C6155B0F8A2400A
:10A12000641CA0F8A24000BFEEE700001C5800200D
:10A13000C85A00202DE9F04FA9B04FF0000B0026BF
:10A14000B0469349B1F89894B1F89A44B1F89A148A
:10A1500001EBC10202EB41128E4901EB820ABAF80F
:10A16000A27004EBC40101EB44128A4901EB8201A5
:10A170008D1C95F8551028910020611C032291FB3D
:10A18000F2F302FB1311494502D129B0BDE8F08F6B
:10A190009C2F01DC052F0CDA002204EBC40101EB3B
:10A1A00044137C4901EB8301A1F8A220FF2129700F
:10A1B000EBE7391FCAB204EBC40101EB4413754944
:10A1C00001EB83014A710026B04617E0022E0BD145
:10A1D00007233146721CD6B20DF8013053233146A5
:10A1E000721CD6B20DF8013015F808100DF80610E3
:10A1F000711CCEB208F1010101F0FF08B845E5DBA2
:10A20000BA1C91B2684601F0FFFF010E04EBC402D4
:10A2100002EB44135F4A02EB8302B2F8A23004EB74
:10A22000C40202EB441C5B4A02EB8C02B2F8A2208F
:10A23000521C1FFA82FC04EBC40202EB441E554A76
:10A2400002EB8E02A2F8A2C0E954C0F3074204EB6D
:10A25000C40101EB44134F4901EB8301B1F8A23073
:10A2600004EBC40101EB441C4A4901EB8C01B1F839
:10A27000A210491C1FFA81FC04EBC40101EB441E2F
:10A28000444901EB8E01A1F8A2C0EA54C0F30722B1
:10A2900004EBC40101EB44133E4901EB8301B1F827
:10A2A000A23004EBC40101EB441C3A4901EB8C01E0
:10A2B000B1F8A210491C1FFA81FC04EBC40101EBA8
:10A2C000441E344901EB8E01A1F8A2C0EA54C2B287
:10A2D00004EBC40101EB44132E4901EB8301B1F8F7
:10A2E000A23004EBC40101EB441C2A4901EB8C01B0
:10A2F000B1F8A210491C1FFA81FC04EBC40101EB68
:10A30000441E244901EB8E01A1F8A2C0EA54F022B8
:10A3100004EBC40101EB44131E4901EB8301B1F8C6
:10A32000A2106A5404EBC40101EB4412194901EB79
:10A330008201B1F8A210491C8AB204EBC40101EBFE
:10A340004413144901EB8301A1F8A2201049B1F88C
:10A350009A14491C8AB20E49A1F89A24B1F89A14A9
:10A36000032291FBF2F302FB13118AB20849A1F810
:10A370009A240022B1F89A1401EBC10303EB4113B4
:10A38000044901EB8301A1F8A22000BFFDE6000013
:10A390001C580020C85A00202DE9F0412648B0F88A
:10A3A0009844B0F89A5404EBC40000EB44112348DD
:10A3B00000EB8100B0F8A26004EBC40000EB441194
:10A3C0001E4800EB8100871C04EBC40000EB441125
:10A3D0001A4830F82180AC4201D1BDE8F08116481E
:10A3E000D0F8A00400B9F8E7F2B213483946D0F823
:10A3F000A0344046984700B9EFE7002104EBC400C1
:10A4000000EB44120D4800EB8200A0F8A2100A48AD
:10A41000B0F89804401C81B20748A0F89814B0F82E
:10A420009804032190FBF1F201FB120081B2024873
:10A43000A0F8981400BFD0E71C580020C85A00208C
:10A440002DE9F04304461546012009B9BDE8F08323
:10A45000B4F5006F00DBF9E70020012801DA0028DD
:10A4600000DAF3E7C0EBC00707EB4017DFF8ECC0FA
:10A470000CEB8707B7F89860C0EBC00707EB4017F5
:10A480000CEB8707B7F89620771C4FF0960C97FBDC
:10A49000FCF80CFB1877974200D1D7E7002357E070
:10A4A00011F8017BC0EBC00C0CEB401CDFF8AC805A
:10A4B00008EB8C0CC0EBC00808EB4018DFF89C9050
:10A4C00009EB8808B8F898800CF80870C0EBC00752
:10A4D00007EB4017CC460CEB8707B7F898707F1C4A
:10A4E000C0EBC00C0CEB401CC84608EB8C0CACF865
:10A4F0009870C0EBC00707EB4017C4460CEB87070A
:10A50000B7F898707F1C4FF0960C97FBFCF80CFB8B
:10A510001877974200D11DE0C0EBC00707EB40174A
:10A52000DFF838C00CEB8707B7F898704FF0960C3F
:10A5300097FBFCF80CFB1877C0EBC00C0CEB401C35
:10A54000DFF8188008EB8C0CACF898705F1CFBB23D
:10A55000AB42A5DB00BF00BF78E700004822002027
:10A560002DE9F04705460E4691469A460027B84623
:10A5700001244F4890F83C0D4D4981F83D0D0846A7
:10A5800080F83C5D552E16D006DC522E10D0532E8E
:10A590000FD0542E13D10DE0ED2E05D0EF2E0ED19D
:10A5A00084274FF013080BE02B274FF0070807E034
:10A5B00000BF00BF00BF17274FF0040800E000BF36
:10A5C00000BF25B1012D03D0022D6CD122E06BE03C
:10A5D00053464A46EC21062000F022FF102000F0EE
:10A5E000CDFEF8B200F0CAFE380A00F0C7FE08F04F
:10A5F000FF0000F0C3FEFF2000F0C0FE002000F0CE
:10A60000BDFE304600F0BAFE002000F0B7FE00F0BC
:10A61000D9FE49E0012443E053464A46EB21062097
:10A6200000F0FEFE204600F0A9FE611EC1EBC10154
:10A63000204A505C00F0A2FE611EC1EBC101491C22
:10A640001C4A505C00F09AFE611EC1EBC101891CDE
:10A65000184A505C00F092FE611EC1EBC101C91C9A
:10A66000144A505C00F08AFE611EC1EBC101091D55
:10A67000104A505C00F082FE611EC1EBC101491D11
:10A680000C4A505C00F07AFE611EC1EBC101891DCD
:10A69000084A505C00F072FE00F094FE601CC4B2E8
:10A6A0004445B9DD00E000BF00BFBDE8F087000011
:10A6B000CC2F00200A3D002030B5014600240023A5
:10A6C00009B9002030BD012305E0881CC05C20448E
:10A6D00084B2581C83B2B1F89800001F9842F4DC91
:10A6E000B1F89800C01E8D1C2A5C4FF6FF7000EA7E
:10A6F0000222B1F89800001F285C104482B2A242E6
:10A7000001D00020DEE70120DCE700002DE9F8435E
:10A7100005464FF00008002400269F48006800907E
:10A720000DB9BDE8F883B5F89C12B5F89E028142D8
:10A7300000D1F6E7B5F89C024D21484305F1CE0162
:10A7400001EB4004A0783A280ED0B5F89C02401CDA
:10A75000A5F89C02B5F89C02032190FBF1F201FBE5
:10A760001200A5F89C02DCE794F80480E0782A281F
:10A7700050D1B8F1F20F1CD006DCB8F1000F0AD0AE
:10A78000B8F1F10F44D107E0B8F1F30F1BD0B8F1E5
:10A79000F40F3DD132E03CE0112006F061FCA079DD
:10A7A00018B1492003F0D2FE02E04E2003F0CEFEA5
:10A7B0002FE0A07918B94E2003F0C8FE02E04A202D
:10A7C00003F0C4FE25E0A079012809D17348006B8D
:10A7D000002804D97148006B401E7049086318E0D6
:10A7E0006E48006B6D49496A884203D24B2003F0E2
:10A7F000ADFE02E04C2003F0A9FE0AE0A07918B9F2
:10A800004E2003F0A3FE02E04D2003F09FFE00E087
:10A8100000BFB1E0B8F1A80F15D009DCB8F1000F06
:10A8200010D0B8F1A60F72D0B8F1A70F70D170E0B8
:10A83000B8F1A90F21D0B8F1C10F46D0B8F1C30FBC
:10A84000F4D146E097E0102006F00AFC00205449BD
:10A850000870A079082809D1E079012806D11020D4
:10A8600006F0FEFB182003F071FE05E001204B49C5
:10A8700081F83A0003F06EFD7DE0A07908281DD133
:10A8800000260BE04748825DB01DA11C085C824297
:10A8900001D0002705E00127701CC6B2E079B04264
:10A8A000F0DC00BF1FB1192003F050FE0CE00120C6
:10A8B0003A4981F83A0003F04DFD05E0012037499F
:10A8C00081F83A0003F046FD55E0522003F03EFEC9
:10A8D00051E000260BE03448825D301DA11C085C6D
:10A8E000824201D0002705E00127701CC6B26079C2
:10A8F000B042F0DC00BF1FB1532003F027FE05E09B
:10A900000120264981F83B0003F024FD33E00DE0EF
:10A9100030E0A07918B1542003F018FE05E00120C2
:10A920001E4981F83B0003F015FD24E0002607E0F6
:10A9300006F11900A11C085C0DF80600701CC6B2D7
:10A94000042EF5DB9DF8000068B99DF8010050B9B0
:10A950009DF8020038B99DF80300022803D1512068
:10A9600003F0F4FD05E001200C4981F83B0003F001
:10A97000F1FC00E000BF00BFB5F89C02401CA5F848
:10A980009C02B5F89C02032190FBF1F201FB12003E
:10A99000A5F89C0200BFC4E6244601084C0F002025
:10A9A0000A000020220300208C02002010B501467E
:10A9B000002209B9002010BDB1F89E024D23584372
:10A9C00001F1CE0303EB4002B2F8980008B9002071
:10A9D000F1E7B1F89E02401CA1F89E02B1F89E0278
:10A9E000032390FBF3F403FB1400A1F89E02002460
:10A9F000B1F89E024D23584301F1CE0303EB400012
:10AA0000A0F898400120D6E710B500B910BD00238A
:10AA100080F87434A0F87234A0F86E34A0F8703462
:10AA200000210AE000244D224A4300F5287303EB7D
:10AA30004202A2F898404A1C91B20329F2DB00229C
:10AA400020F8C82F42808280C8380023A0F89C32AA
:10AA5000A0F89E3200210AE000244D224A4300F172
:10AA6000CE0303EB4202A2F898404A1C91B203299C
:10AA7000F2DB00BFCAE7000000B50348FFF7C4FFE0
:10AA8000024800F051F800BD084200201998000863
:10AA90002DE9F0410646234FB7F8CA50B7F8C80071
:10AAA00000230C466F1C4FF0C80C97FBFCF80CFB06
:10AAB0001877874201D1BDE8F08100232CE014F81B
:10AAC000017BDFF860C0BCF8CAC0DFF8588008F826
:10AAD0000C704746B7F8CA707F1CC446ACF8CA7001
:10AAE0004746B7F8CA707F1C4FF0C80C97FBFCF8BC
:10AAF0000CFB1877874200D110E00A4FB7F8CA70F4
:10AB00004FF0C80C97FBFCF80CFB1877DFF814C06B
:10AB1000ACF8CA705F1CBBB29342D0DB00BF00BF71
:10AB2000C9E70000084200200149C1F878047047D5
:10AB3000084200202DE9F0430446B4F8CA70B4F886
:10AB4000C8900025A84600260CB9BDE8F083B94599
:10AB500000D1FAE7B4F89E024D21484304F1CE013A
:10AB600001EB4005B4F8CC00265CB5F8980090BB2A
:10AB70003A2E0ED034F8C80F401C20802088C821FF
:10AB800090FBF1F201FB120020802088A080C83CDD
:10AB9000DBE7B4F89E02401C032190FBF1F201FBBD
:10ABA0001201B4F89C02814200D1CEE735F8981F1B
:10ABB0002888401C25F89809A81C465434F8CC0F66
:10ABC000401C20802088C82190FBF1F201FB12007C
:10ABD00024F8CC097BE0FFE7B5F89800962811DB54
:10ABE0000020A5F8980034F8C80F401C2080208869
:10ABF000C82190FBF1F201FB120020802088A08088
:10AC0000C83CA2E75FE0B4F8CC00265C35F8981F9A
:10AC10002888401C25F89809A81C465434F8CC0F05
:10AC2000401C20802088C82190FBF1F201FB12001B
:10AC300024F8CC09B5F89800082800DA43E06879D0
:10AC40008E2811DD0020A5F8980034F8C80F401CAC
:10AC500020802088C82190FBF1F201FB12002080A7
:10AC60002088A080C83C70E7B5F8988068790830E3
:10AC7000404500DD27E02846FFF71EFD88B900208B
:10AC8000A5F8980034F8C80F401C20802088C821FF
:10AC900090FBF1F201FB120020802088A080C83CCC
:10ACA00053E734F8C80F404420802088C82190FB27
:10ACB000F1F201FB120020802088A080C83C2046D1
:10ACC000FFF774FE41E7B4F8CC00B8429BD100BF57
:10ACD0003BE7000010B504463A2000F0B3F80A48FC
:10ACE000807D092803D12A2000F0ACF802E01A2068
:10ACF00000F0A8F8204600F0A5F8002000F0A2F827
:10AD000000F0CCF810BD00004C0F002000B53A2038
:10AD100000F098F82A2000F095F8F22000F092F860
:10AD2000002000F08FF8092000F08CF8104991F80D
:10AD3000E40000F087F80E49D1F8E810080E00F0A2
:10AD400081F80B49D1F8E810C1F3074000F07AF818
:10AD50000749B1F8E810C1F3072000F073F804497F
:10AD600091F8E80000F06EF800F098F800BD0000DF
:10AD70004C0F002030B505460C463A2000F062F832
:10AD80000B48807D092803D12A2000F05BF802E0FF
:10AD90001A2000F057F8284600F054F8012000F07F
:10ADA00051F8204600F04EF800F078F830BD000071
:10ADB0004C0F00202DE9F047A6B006460C4698211E
:10ADC0006846FDF7DAF90025270EC4F30748C4F3F7
:10ADD000072904F0FF0A31198022684602F0C2FFF9
:10ADE0003A2000F02FF82A2000F02CF8F32000F091
:10ADF00029F8002000F026F8384600F023F84046F5
:10AE000000F020F8484600F01DF8504600F01AF80F
:10AE1000802000F017F800BF05E01DF8050000F0E5
:10AE200011F8681CC5B2802DF7DB00F037F826B0AA
:10AE3000BDE8F08710B504460921F120FFF79AFF1D
:10AE400010BD000070B50146124CB4F86E24B4F881
:10AE50007034B4F870444D256C430F4D05EB44003D
:10AE60005C1C032594FBF5F605FB1644944200D1C7
:10AE700070BDB0F89840962C00DBF9E7B0F8985018
:10AE8000841C6155B0F89840641CA0F8984000BF3D
:10AE9000EEE7000008420020A8440020F0B50022A0
:10AEA0000023384EB6F86E44B6F87054B6F87064A5
:10AEB0004D277E43344F07EB4600B0F898106E1CC8
:10AEC000032796FBF7FC07FB1C66A64200D1F0BDEA
:10AED000042903DA0026A0F89860F8E7962908DA32
:10AEE0004E1C962E05DA8E1C962E02DACE1C962E5D
:10AEF00000DBECE70E1F4671012305E0861CF65CC3
:10AF00001644B2B25E1CB3B28B42F7DBB0F898C005
:10AF10000CF10106A0F89860861C06F80C20170AB0
:10AF2000B0F898C00CF10106A0F89860861C06F8ED
:10AF30000C700D27B0F898C00CF10106A0F89860CD
:10AF4000861C06F80C700A27B0F898C00CF10106B0
:10AF5000A0F89860861C06F80C700A4EB6F870646B
:10AF6000761CB7B2074EA6F87074B6F87064032763
:10AF700096FBF7FC07FB1C66B7B2024EA6F870748E
:10AF800000BFA4E708420020A84400202DE9F041BA
:10AF90002148B0F86E44B0F870544D2060431F490A
:10AFA00001EB4000B0F898604D20604301EB400099
:10AFB000871C4D20604331F81080AC4201D1BDE8C0
:10AFC000F0811548D0F8780400B9F8E7F2B21248D9
:10AFD0003946D0F878344046984700B9EFE7002268
:10AFE0004D2060430D4901EB4000A0F898200A482D
:10AFF000B0F86E04401C81B20748A0F86E14B0F897
:10B000006E04032190FBF1F201FB120081B20248B1
:10B01000A0F86E1400BFD2E708420020A844002028
:10B0200010B50446B4F82003B4F82213884200D1C6
:10B0300010BDB4F8200300EB800004EB80004068F2
:10B040005749084428B15749084420B301287AD108
:10B050005AE0554890F8170FE0B9B4F8200300EB18
:10B06000800004EB8000C07A00F0010058B14E4827
:10B0700090F8160F70B901204B4981F8160F062081
:10B0800003F064FA06E00120474981F8170F072012
:10B0900003F05CFA73E0B4F8200300EB800004EBEB
:10B0A0008000407CEF2819D1B4F8200300EB800029
:10B0B00004EB8000C07A132810D1B4F8200300EB11
:10B0C000800004EB8000C07B012803D1072003F03F
:10B0D0003DFA18E00A2003F039FA14E0B4F820032E
:10B0E00000EB800004EB8000407CEF280BD1B4F82B
:10B0F000200300EB800004EB8000C07A112802D10D
:10B10000092003F023FA3AE0B4F8200300EB8000B2
:10B1100004EB8000407CEF281AD1B4F8200300EB48
:10B12000800004EB8000C07A132811D1B4F820030A
:10B1300000EB800004EB8000C07B012804D10720D5
:10B1400003F004FA19E019E00A2003F0FFF914E013
:10B15000B4F8200300EB800004EB8000407CEF2873
:10B160000BD1B4F8200300EB800004EB8000C07A20
:10B17000112802D1092003F0E9F900E000BF00BF67
:10B18000B4F82003401CA4F82003B4F820032821BD
:10B1900090FBF1F201FB1200A4F8200300BF47E787
:10B1A000D800FEE7010615FFCC2F002070B505463C
:10B1B00005B970BD002185F8261DA5F8241DA5F848
:10B1C000201DA5F8221D002407E0002105F53460AC
:10B1D00000EB04108181601C84B21E2CF5DB00247E
:10B1E0001AE00020C4EBC40101EB441105EB81011E
:10B1F000A1F89600C4EBC40101EB441105EB8101F9
:10B20000A1F89800C4EBC40101EB441105EB8101E6
:10B21000A1F89A00601C84B2032CE2DB002416E043
:10B22000002601E0701C86B2282EFBDB0022C9201C
:10B23000604305F5EA7101EB8000A0F82023C920E6
:10B24000604301EB8000A0F82223601C84B2032C31
:10B25000E6DBFF2280210B48FCF788FF00200A492B
:10B26000C1F8340D00210848C0F8381D00200649F7
:10B2700081F81A0E012081F8170F81F8160F00BF10
:10B2800097E700000A3D0020CC2F002010B50648AB
:10B29000FFF78CFF054800F06BF8FF22C821044837
:10B2A000FCF764FF10BD0000CC2F002019980008A7
:10B2B0000A3D002070B5034600201B4CB4F8224321
:10B2C00004EB8404184D05EB8404636000BF0DE0BB
:10B2D00011F8015B144CB4F8224304EB8404124EC1
:10B2E00006EB84040B342554441CE0B29042EFDB9F
:10B2F0000D4CB4F8224304EB84040B4D05EB84049D
:10B30000A2722C46B4F82243641CA5F822432C46B2
:10B31000B4F82243282594FBF5F605FB1644024DAC
:10B32000A5F8224370BD0000E43E002010B504489B
:10B33000FFF700FC0248FFF7E9F9FFF727FE10BD11
:10B340000842002010B5044800F0D6F80248FDF786
:10B35000F5FE00F08DFD10BD4822002010B5034819
:10B36000FFF75EFE00F082F810BD0000E43E002012
:10B370000149C1F8280D7047CC2F002070B5014657
:10B380000F4CB4F8202DB4F8223DB4F8225D04F53A
:10B39000346404EB05105C1C1E2594FBF5F605FBDC
:10B3A0001644944200D170BD8489082C00DBFAE772
:10B3B0008589041D61558489641C848100BFF2E77E
:10B3C000CC2F002010B5154AB2F8200DB2F8221D7E
:10B3D0004A1C1E2392FBF3F403FB1422824200D189
:10B3E00010BD0E4AB2F8222D521C93B20B4AA2F89D
:10B3F000223DB2F8222D1E2392FBF3F403FB14220C
:10B4000093B2064AA2F8223D0023B2F8224D02F57B
:10B41000346202EB0412938100BFE1E7CC2F0020DD
:10B4200070B50446104DB5F8226D05F5346505EB91
:10B430000610FF2B01DCFF2A00DD70BD056825F03A
:10B4400060450560056864F39C650560056861F307
:10B4500019450560056862F30F250560056863F30B
:10B460000705056000BFE8E7CC2F00202DE9F0417B
:10B470001F48B0F8204DB0F8225D00F5346000EBB5
:10B48000041086891B4800EB0410071D194800EBC7
:10B490000410D0F80080AC4201D1BDE8F08114481E
:10B4A000D0F8280D00B9F8E7F2B211483946D0F8C3
:10B4B000283D4046984700B9EFE700210D4800EBD2
:10B4C000041081810A48B0F8200D401C81B2084860
:10B4D000A0F8201DB0F8200D1E2190FBF1F201FB19
:10B4E000120081B20248A0F8201D00BFD5E700007D
:10B4F000CC2F00200C3B00202DE9F04F0746002503
:10B500000024A346A0460FB9BDE8F08F0026E9E06D
:10B51000C6EBC60000EB461007EB8004B4F8989029
:10B52000B4F896A0CA4500D1DAE0D720704307F1FD
:10B530009C0101EBC002D720704301EBC000B0F8C2
:10B54000B606C0EBC00101EB401002EB8005B4F879
:10B550009A0014F80080B5F89A00E0BBB8F1550FD6
:10B560000ED034F8960F401C20802088962190FB46
:10B57000F1F201FB120020802088A080963CAFE011
:10B58000D720704307F19C0101EBC000B0F8B6066C
:10B59000401C0B2190FBF1F201FB1202D7207043FB
:10B5A00007F19C0101EBC000B0F8B406824200D163
:10B5B00096E035F89A1F2888401C25F89A09281D1E
:10B5C00000F8018034F89A0F401C208020889621D2
:10B5D00090FBF1F200E004E001FB120024F89A096C
:10B5E0007DE0B5F89A0096280EDB34F8960F401CE3
:10B5F00020802088962190FBF1F201FB1200208030
:10B600002088A080963C6BE064E0B4F89A0014F8BF
:10B61000008035F89A1F2888401C25F89A09281DB3
:10B6200000F8018034F89A0F401C20802088962171
:10B6300090FBF1F201FB120024F89A09B5F89A0088
:10B64000042800DA46E0A879922811DD0020A5F848
:10B650009A0034F8960F401C20802088962190FB99
:10B66000F1F201FB120020802088A080963C35E09A
:10B67000B5F89AB0A879001D584500DD2AE0B5F864
:10B680009A10281DFDF73FFD88B90020A5F89A0003
:10B6900034F8960F401C20802088962190FBF1F210
:10B6A00001FB120020802088A080963C16E034F830
:10B6B000960F584420802088962190FBF1F201FBE0
:10B6C000120020802088A080963C31463846FEF744
:10B6D0004DF803E0B4F89A00484596D100BF00BF8A
:10B6E000701CC6B2012EFFF613AF00BF0CE730B5D9
:10B6F00001460023002291F8A24009B9002030BD84
:10B70000002204E0881C805C4340501C82B2B1F8E7
:10B71000A200401E9042F5DCB1F8A200401E8D1C34
:10B72000285C984201D00020E9E70120E7E700000B
:10B730002DE9F047044600270025A846A9460CB984
:10B74000BDE8F087B4F8A612B4F8A802814200D18F
:10B75000F6E7B4F8A60200EBC00101EB401104F1DA
:10B76000BA0000EB8105A87855280ED0B4F8A602DF
:10B77000401CA4F8A602B4F8A602032190FBF1F243
:10B7800001FB1200A4F8A602DAE7EF7837B1D02F58
:10B7900005D0D12F13D0D22F2AD125E029E06E7900
:10B7A0001EB9A72002F0D2FE23E000201A49C86289
:10B7B000032005F055FCA92002F0C8FE19E06E79BF
:10B7C00026B91548C06A401E1349C8621248C06AAB
:10B7D0001149096A884203D2A92002F0B7FE02E0AB
:10B7E000AA2002F0B3FE04E01E2002F0AFFE00E04B
:10B7F00000BF00BF00F03EFAB4F8A602401CA4F857
:10B80000A602B4F8A602032190FBF1F201FB12009C
:10B81000A4F8A60200BF93E74C0F002010B5014624
:10B82000002209B9002010BDB1F8A80200EBC00346
:10B8300003EB401301F1BA0000EB8302B2F8A2005F
:10B8400008B90020EFE7B1F8A802401CA1F8A8024F
:10B85000B1F8A802032390FBF3F403FB1400A1F852
:10B86000A8020023B1F8A80200EBC00404EB4014C6
:10B8700001F1BA0000EB8400A0F8A2300120D2E769
:10B8800010B500B910BD002380F89C34A0F89A349C
:10B89000A0F89634A0F8983400210CE0002301EBC6
:10B8A000C10202EB411400F2AA2202EB8402A2F8C8
:10B8B000A2304A1C91B20329F0DB002220F8B42FF9
:10B8C00042808280B4380023A0F8A632A0F8A832C3
:10B8D00000210CE0002301EBC10202EB411400F156
:10B8E000BA0202EB8402A2F8A2304A1C91B20329E8
:10B8F000F0DB00BFC6E7000000B50348FFF7C0FF5C
:10B90000024800F05DF800BD785300201998000847
:10B910002DE9F0410646234FB7F8B650B7F8B4000A
:10B9200000230C466F1C4FF0B40C97FBFCF80CFB8B
:10B930001877874201D1BDE8F08100232CE014F88C
:10B94000017BDFF860C0BCF8B6C0DFF8588008F8AB
:10B950000C704746B7F8B6707F1CC446ACF8B6709A
:10B960004746B7F8B6707F1C4FF0B40C97FBFCF855
:10B970000CFB1877874200D110E00A4FB7F8B67079
:10B980004FF0B40C97FBFCF80CFB1877DFF814C0F1
:10B99000ACF8B6705F1CBBB29342D0DB00BF00BFF7
:10B9A000C9E700007853002010B5044800F00EF8F5
:10B9B0000248FFF7BDFE00F0EBF910BD7853002000
:10B9C0000149C1F8A0047047785300202DE9F043E5
:10B9D0000446B4F8B670B4F8B4900025A846002622
:10B9E0000CB9BDE8F083B94500D1FAE7B4F8A80274
:10B9F00000EBC00101EB401104F1BA0000EB81053E
:10BA0000B4F8B800265CB5F8A20090BB552E0ED055
:10BA100034F8B40F401C20802088B42190FBF1F250
:10BA200001FB120020802088A080B43CD9E7B4F844
:10BA3000A802401C032190FBF1F201FB1201B4F8B3
:10BA4000A602814200D1CCE735F8A21F2888401C0D
:10BA500025F8A209A81C465434F8B80F401C2080D1
:10BA60002088B42190FBF1F201FB120024F8B80900
:10BA70007BE0FFE7B5F8A200A02811DB0020A5F8C5
:10BA8000A20034F8B40F401C20802088B42190FB21
:10BA9000F1F201FB120020802088A080B43CA0E7D6
:10BAA0005FE0B4F8B800265C35F8A21F2888401C77
:10BAB00025F8A209A81C465434F8B80F401C208071
:10BAC0002088B42190FBF1F201FB120024F8B809A0
:10BAD000B5F8A200042800DA43E028799C2811DD9B
:10BAE0000020A5F8A20034F8B40F401C2080208864
:10BAF000B42190FBF1F201FB120020802088A0808D
:10BB0000B43C6EE7B5F8A2802879001D404500DD01
:10BB100027E02846FFF7EBFD88B90020A5F8A20032
:10BB200034F8B40F401C20802088B42190FBF1F23F
:10BB300001FB120020802088A080B43C51E734F83B
:10BB4000B40F404420802088B42190FBF1F201FB27
:10BB5000120020802088A080B43C2046FFF75EFEC3
:10BB60003FE7B4F8B800B8429BD100BF39E710B541
:10BB70000446552000F080F8204600F07DF80020B3
:10BB800000F07AF800F0A6F810BD30B505460C4676
:10BB9000552000F071F8284600F06EF8012000F002
:10BBA0006BF8204600F068F800F094F830BD000013
:10BBB0002DE9F04180460E4617461C460025B8F197
:10BBC000010F25D0B8F1050F4CD17920284981F813
:10BBD0004C005521264880F84D1080F84E60002119
:10BBE00080F84F1080F8501080F8511039197422E5
:10BBF000523002F0B7F800BF07E01D494C316A1C13
:10BC0000885C00F039F8681CC5B2792DF5DB2AE0B4
:10BC10008720174981F84C005521154880F84D10B0
:10BC200080F84E60002180F84F10210E80F85010EF
:10BC3000210C80F85110210A80F8521080F85340EE
:10BC400039198022543002F08DF8002507E00849A8
:10BC50004C316A1C885C00F00FF8681CC5B2872D57
:10BC6000F5DB00E000BF00BF00F034F8BDE8F08174
:10BC70004C0F00207047000070B50146134CB4F81B
:10BC80009624B4F89834B4F8984404EBC40505EB52
:10BC900044150F4C04EB85005C1C032594FBF5F662
:10BCA00005FB1644944200D170BDB0F8A240A02C10
:10BCB00000DBF9E7B0F8A250841C6155B0F8A2404F
:10BCC000641CA0F8A24000BFEEE7000078530020FB
:10BCD00022560020F0B5002300222B4EB6F89644E1
:10BCE000B6F89854B6F8986406EBC60707EB461703
:10BCF000264E06EB8700B0F8A210012606806E1CC7
:10BD0000032796FBF7FC07FB1C66A64200D1F0BD9B
:10BD1000032903DA0026A0F8A260F8E7A02908DAD0
:10BD20004E1CA02E05DA8E1CA02E02DACE1CA02EF0
:10BD300000DBECE7CE1E0671002204E0861CB65C38
:10BD40007340561CB2B28A42F8DBB0F8A2C00CF1C4
:10BD50000106A0F8A260861C06F80C300A4EB6F860
:10BD60009864761CB7B2084EA6F89874B6F8986432
:10BD7000032796FBF7FC07FB1C66B7B2024EA6F83A
:10BD8000987400BFC3E700007853002022560020BB
:10BD90002DE9F0412648B0F89644B0F8985404EBE9
:10BDA000C40000EB4411234800EB8100B0F8A2600E
:10BDB00004EBC40000EB44111E4800EB8100871C1B
:10BDC00004EBC40000EB44111A4830F82180AC4267
:10BDD00001D1BDE8F0811648D0F8A00400B9F8E719
:10BDE000F2B213483946D0F8A0344046984700B91B
:10BDF000EFE7002104EBC40000EB44120D4800EB18
:10BE00008200A0F8A2100A48B0F89604401C81B243
:10BE10000748A0F89614B0F89604032190FBF1F2BD
:10BE200001FB120081B20248A0F8961400BFD0E7CF
:10BE3000785300202256002009490978084A517099
:10BE4000107030B1012805D0022804D0042804D194
:10BE500002E003E002E001E000E000BF00BF704745
:10BE60001D00002000B50220FFF7E6FF00BD000026
:10BE700070B51148B0F86C4DB0F86E5D0F480078A1
:10BE800030B1012805D0022804D0042811D10FE0D8
:10BE900010E00FE0AC420AD0074800F011F818B1EA
:10BEA0000420FFF7C9FF02E00220FFF7C5FF01E011
:10BEB00000E000BF00BF70BD482200201D00002030
:10BEC0002DE9F04F87B00446B4F8706DB4F86C0DEE
:10BED000C0EBC00101EB401104F2547000EB810093
:10BEE000B0F89A80B4F86CADB4F86E0D0690B4F862
:10BEF0006C0DC0EBC00101EB401104F2547000EB7B
:10BF000081094FF0000B1CB9002007B0BDE8F08F8D
:10BF10000698824501D10020F7E7464561DA002006
:10BF20008DF80D003F48807D012817D0022802D0EF
:10BF300005281BD113E03B48007E012806D10420D0
:10BF40008DF80C00D9F80070029706E000208DF8FB
:10BF50000C004FF0010BCDF804B017E000BF042037
:10BF60008DF80C00D9F8007002970FE000208DF8D2
:10BF70000C004FF0010B2B48807D082803D140F2C4
:10BF80005370019001E0CDF804B000BF00BFA8EBF2
:10BF90000600082803DB08208DF80E0004E0A8EB5B
:10BFA0000600C0B28DF80E00002508E0711909F1F5
:10BFB0000400415C0DF10F004155681CC5B29DF8AD
:10BFC0000E00A842F2DC01A9174807F003F8042884
:10BFD00001D1002099E70121134806F084FF0120D8
:10BFE00093E70021CAEBCA0000EB4A1204F2547036
:10BFF00000EB8200A0F89A10B4F86C0D401CA4F875
:10C000006C0DB4F86C0D0A2190FBF1F201FB1200EB
:10C01000A4F86C0D0021A4F8701D0220FFF70CFF9E
:10C02000002072E74C0F00200064004030B501464C
:10C03000B1F8703DB1F86C0DC0EBC00505EB4015D3
:10C0400001F2547000EB8500B0F89A20002409B981
:10C05000002030BDD01A082801DB082401E0D01AE6
:10C06000C4B2B1F8700D2044A1F8700DB1F8700D94
:10C07000904201DA0120ECE70020EAE710B504461F
:10C080003A48407FB0B33948406B401C3749486359
:10C090000846406B896A884203D90B2002F056FAA1
:10C0A00010BD3248406B000E314981F83E0D2F48DB
:10C0B000406B010C2E4880F83F1D2C48808E010AF1
:10C0C0002B4880F8401D294890F83410284880F803
:10C0D000411D2648406B401E4FF4001202EBC01178
:10C0E0008022244801F03EFEF9232722EF2101207F
:10C0F000FEF736FA1D48C07EB0B31C48006B401CEA
:10C100001A4908630846006B496A884203D90B2024
:10C1100002F01CFAC4E71548006B000E144981F8C0
:10C120003E0D1248006B010C114880F83F1D0F486E
:10C13000008E010A0E4880F8401D0C4890F830101F
:10C140000B4880F8411D0948006B401E4FF4C02287
:10C1500002EBC0118022074801F004FEF9232822D7
:10C16000EF210120FEF7FCF900BF99E74C0F0020FA
:10C17000CC2F00200E3D002010B50446012C20D10C
:10C18000F923FF2201210620FFF74AF90020FFF7DB
:10C19000F5F80020FFF7F2F80020FFF7EFF8002095
:10C1A000FFF7ECF80020FFF7E9F80020FFF7E6F8CA
:10C1B0000020FFF7E3F80020FFF7E0F8FFF702F9AF
:10C1C00021E0022C1FD1F923FF2201210620FFF7D5
:10C1D00027F94020FFF7D2F80020FFF7CFF8002022
:10C1E000FFF7CCF80220FFF7C9F80020FFF7C6F8E8
:10C1F0000020FFF7C3F80020FFF7C0F80020FFF78A
:10C20000BDF8FFF7DFF810BDF0B502460B4600257C
:10C21000681E00210FE0565C7040002407E0060E07
:10C22000064F57F8265000026840661CB4B2042C32
:10C23000F5DB4E1CB1B29942EDDBF0BD284601089A
:10C2400010B5022201210D4807F0F2F8A0B1022238
:10C2500001210A4807F0E4F80121084806F0BEFF72
:10C2600002220121054807F0C2F81021044807F016
:10C27000F9FA01200349087010BD000000000240D7
:10C28000000801400000002010B5022211460E48AF
:10C2900007F0CEF8B8B1022211460B4807F0C0F8FB
:10C2A00000BF8021094807F093FE0028F9D1002142
:10C2B000064807F03FFE02221146034807F097F8B0
:10C2C00001200349487010BD0000024000300140C9
:10C2D0000000002010B54FF4A06007F04BFD0121D5
:10C2E000394806F0ADFF3948394908603948886057
:10C2F000002088760861087648764FF480704860A0
:10C300008000C8600121304806F081FF4FF44050A2
:10C310002F49486101212C4807F0CBF82C4A012114
:10C32000294806F0CDFF0221274806F089FF27485B
:10C330002949086029488860012088760020086122
:10C34000087648764FF48060C8608010486002210B
:10C350001D4806F05CFF4FF480501F4948610221E0
:10C36000194807F0A6F81C4A0221174806F0A8FF52
:10C37000002116480C3807F0DDFD012113480C3868
:10C3800007F0D8FD012211460F4806F091FF012267
:10C3900002210D4806F08CFF022201210A4807F015
:10C3A00026F802221146084807F021F80021074824
:10C3B0000C3807F0CAFD012104480C3807F0C5FD10
:10C3C00001F0C1FB10BD0000000002400C30014034
:10C3D00068000020040000204C0000200200002023
:10C3E00010B501460023002209B9002010BD00222B
:10C3F00004E0881C805C4340501C82B2B1F8980075
:10C40000401E9042F5DCB1F89800401E8C1C205C68
:10C41000984201D00020E9E70120E7E72DE9F0414B
:10C4200004460027002500260CB9BDE8F081B4F8C9
:10C43000D013B4F8D203814200D1F6E7B4F8D003A8
:10C440004D21484304F1CE0101EB4005A878552861
:10C450000ED0B4F8D003401CA4F8D003B4F8D00335
:10C46000052190FBF1F201FB1200A4F8D003DCE7F8
:10C47000EF782648807D10B1022835D100E034E005
:10C4800037B1D02F05D0D12F13D0D22F2AD125E00C
:10C4900028E06E791EB9A22002F058F822E00020B0
:10C4A0001A49C862032004F0DBFDA42002F04EF814
:10C4B00018E06E7926B91548C06A401E1349C86253
:10C4C0001248C06A1149096A884203D2A42002F0C6
:10C4D0003DF802E0A52002F039F803E0642002F004
:10C4E00035F800BF00BF00E000BF00BFB4F8D003C4
:10C4F000401CA4F8D003B4F8D003052190FBF1F25E
:10C5000001FB1200A4F8D00300BF8EE74C0F0020FF
:10C5100010B50146002209B9002010BDB1F8D203C0
:10C520004D23584301F1CE0303EB4002B2F89800CB
:10C5300008B90020F1E7B1F8D203401CA1F8D203FA
:10C54000B1F8D203052390FBF3F403FB1400A1F828
:10C55000D2030024B1F8D2034D23584301F1CE0396
:10C5600003EB4000A0F898400120D6E710B500B9D1
:10C5700010BD002380F8DC36A0F8DA36A0F8D636F5
:10C58000A0F8D83600210AE000244D224A4300F5E5
:10C59000757303EB4202A2F898404A1C91B2052938
:10C5A000F2DB002220F8C82F42808280C8380023A6
:10C5B000A0F8D033A0F8D23300210AE000244D22A5
:10C5C0004A4300F1CE0303EB4202A2F898404A1C12
:10C5D00091B20529F2DB00BFCAE7000000B50348AD
:10C5E000FFF7C4FF024800F02FF800BD904C002078
:10C5F000B5110108F0B504461546124EB6F8CA004A
:10C60000B6F8C82000230B78461CC82796FBF7FC19
:10C6100007FB1C66964200D1F0BD0A4E3354B6F8B3
:10C62000CA60761C074FA7F8CA603E46B6F8CA60D3
:10C63000C82796FBF7FC07FB1C66024FA7F8CA60E9
:10C6400000BFE9E7904C00200149C1F8E0067047BF
:10C65000904C00202DE9F0430446B4F8CA70B4F8B9
:10C66000C8900025A84600260CB9BDE8F083B9455E
:10C6700000D1FAE7B4F8D2034D21484304F1CE01CA
:10C6800001EB4005B4F8CC00265CB5F8980090BBEF
:10C69000552E0ED034F8C80F401C20802088C821A9
:10C6A00090FBF1F201FB120020802088A080C83CA2
:10C6B000DBE7B4F8D203401C052190FBF1F201FB4B
:10C6C0001201B4F8D003814200D1CEE735F8981FAB
:10C6D0002888401C25F89809A81C465434F8CC0F2B
:10C6E000401C20802088C82190FBF1F201FB120041
:10C6F00024F8CC097BE0FFE7B5F89800962811DB19
:10C700000020A5F8980034F8C80F401C208020882D
:10C71000C82190FBF1F201FB120020802088A0804C
:10C72000C83CA2E75FE0B4F8CC00265C35F8981F5F
:10C730002888401C25F89809A81C465434F8CC0FCA
:10C74000401C20802088C82190FBF1F201FB1200E0
:10C7500024F8CC09B5F89800042800DA43E02879D9
:10C76000922811DD0020A5F8980034F8C80F401C6D
:10C7700020802088C82190FBF1F201FB120020806C
:10C780002088A080C83C70E7B5F898802879001D03
:10C79000404500DD27E02846FFF722FE88B900204B
:10C7A000A5F8980034F8C80F401C20802088C821C4
:10C7B00090FBF1F201FB120020802088A080C83C91
:10C7C00053E734F8C80F404420802088C82190FBEC
:10C7D000F1F201FB120020802088A080C83C204696
:10C7E000FFF796FE41E7B4F8CC00B8429BD100BFFA
:10C7F0003BE710B50446552000F01CF8204600F039
:10C8000019F8002000F016F800F040F810BD30B51F
:10C8100005460C46552000F00DF8284600F00AF8B1
:10C82000012000F007F8204600F004F800F02EF890
:10C8300030BD000070B50146124CB4F8D626B4F8ED
:10C84000D836B4F8D8464D256C430F4D05EB44005F
:10C850005C1C052594FBF5F605FB1644944200D1BB
:10C8600070BDB0F89840962C00DBF9E7B0F898500E
:10C87000841C6155B0F89840641CA0F8984000BF33
:10C88000EEE70000904C002064500020F0B500233B
:10C890000022294EB6F8D646B6F8D856B6F8D8666D
:10C8A0004D277E43254F07EB4600B0F898106E1CCD
:10C8B000052796FBF7FC07FB1C66A64200D1F0BDDE
:10C8C000962908DA4E1C962E05DA8E1C962E02DA70
:10C8D000CE1C962E03DB0026A0F89860EFE7962981
:10C8E00000DBECE7CE1E0671002204E0861CB65C7D
:10C8F0007340561CB2B28A42F8DBB0F898C00CF113
:10C900000106A0F89860861C06F80C300A4EB6F8AE
:10C91000D866761CB7B2084EA6F8D876B6F8D866B0
:10C92000052796FBF7FC07FB1C66B7B2024EA6F87C
:10C93000D87600BFC3E70000904C00206450002070
:10C940002DE9F0412148B0F8D646B0F8D8564D2030
:10C9500060431F4901EB4000B0F898604D206043F0
:10C9600001EB4000871C4D20604331F81080AC4241
:10C9700001D1BDE8F0811548D0F8E00600B9F8E72C
:10C98000124832463946D0F8E0364046984700B95A
:10C99000EFE700224D2060430D4901EB4000A0F875
:10C9A00098200A48B0F8D606401C81B20748A0F883
:10C9B000D616B0F8D606052190FBF1F201FB120065
:10C9C00081B20248A0F8D61600BFD2E7904C0020F2
:10C9D0006450002010B51948407E10B101282BD1B9
:10C9E0000AE04FF4E13004F0C9FC05F0CFFC04F09C
:10C9F00027FF00F04FFE1FE01048807D012802D085
:10CA000008280FD108E04FF4FA7000F069FBFEF738
:10CA10003DFCFEF771FF0DE0FA2000F061FBFDF731
:10CA2000A9F907E07D2000F05BFBFEF725F8FEF793
:10CA300063FF00BF00BF00BF00BF10BD4C0F002050
:10CA400010B540F2066007F095F94FF40063032239
:10CA500010210C4806F008FF4FF4805303221021E8
:10CA6000084806F001FF0848007D28B14FF48051C6
:10CA7000044806F0F7FE04E04FF48051014806F048
:10CA8000EFFE10BD001801404C0F002010B5044609
:10CA90002CB14FF40061054806F0E4FE04E04FF4C9
:10CAA0000061024806F0DCFE10BD000000180140E5
:10CAB000704710B50FE04FF47A7107E00A2200E0EA
:10CAC00000BF131EA2F10104A2B2F9D10B1EA1F105
:10CAD0000104A1B2F2D1031EA0F10104A0B2EAD177
:10CAE00010BD000010B5A4B028211AA8FBF745FB23
:10CAF000002019901890179000241490159016900B
:10CB00001190129013900E900F9010900B900C902B
:10CB10000D90089009900A90049005900690079057
:10CB20000190029003902822F7491AA801F01AF9FF
:10CB300004224FF4B31119A801F014F90422F349A7
:10CB400018A801F00FF904224FF4B41117A801F04E
:10CB500009F99DF87C00EE4948759DF87D0008753F
:10CB60009DF87E0048769DF8640000069DF86510EB
:10CB700040EA01409DF8661040EA01209DF86710E8
:10CB80000843E34908629DF8600000069DF86110C3
:10CB900040EA01409DF8621040EA01209DF86310D0
:10CBA0000843DB4948629DF85C0000069DF85D1073
:10CBB00040EA01409DF85E1040EA01209DF85F10B8
:10CBC0000843D34988629DF87C00FF2801D10020EA
:10CBD0004875CF48006AFF2802D10020CC4908627E
:10CBE000CB48406AFF2802D10020C9494862C848A2
:10CBF000806AFF2802D10020C5498862002406E02F
:10CC00001AA8005D40B2C2490855601CC4B2C048B1
:10CC1000407DA042F4DCBE4800784C285CD1BC4B7F
:10CC2000BCA2052114A805F083FFB94BB9A20621C7
:10CC300011A805F07DFFB8A114A8FBF7A9FA28B93F
:10CC40000420B34988750020C8752CE2B4A114A84B
:10CC5000FBF79EFA28B90420AD4988750020C875F5
:10CC600021E2B1A114A8FBF793FAC0B1B0A114A8B6
:10CC7000FBF78EFA98B1B0A114A8FBF789FA70B14E
:10CC8000AFA114A8FBF784FA48B1A5A114A8FBF73B
:10CC90007FFA20B1ACA114A8FBF77AFA28B90420D6
:10CCA0009B4988750020C875FDE1A9A111A8FBF773
:10CCB0006FFA28B90620964988750020C875F2E1F8
:10CCC000A5A111A8FBF764FA0028BED1062090495F
:10CCD00088750020C875E6E18D4B9B1D8DA2032150
:10CCE00014A805F025FF9EA114A8FBF751FA28B956
:10CCF0000120874988750020C875D4E1844B85A23E
:10CD0000072101A805F014FF814B82A20C2104A881
:10CD100005F00EFF7E4B7FA2082108A805F008FF52
:10CD20007B4B7CA205210BA805F002FF784B79A272
:10CD300003210EA805F0FCFE754B76A2042111A874
:10CD400005F0F6FE724B73A2062114A805F0F0FE62
:10CD500084A114A8FBF71CFA28B902206C49887535
:10CD60000020C8759FE181A114A8FBF711FA28B92A
:10CD70000220674988750020C87594E17DA114A838
:10CD8000FBF706FA20B9022061498875C8758AE167
:10CD90007AA114A8FBF7FCF928B902205C49887530
:10CDA0000020C8757FE177A114A8FBF7F1F980B9DD
:10CDB00076A104A8FBF7ECF928B90220544988753C
:10CDC0000420C8756FE10220514988750320C87599
:10CDD00069E171A114A8FBF7DBF928B902204C49DD
:10CDE00088750020C8755EE16DA114A8FBF7D0F925
:10CDF00028B90320464988750020C87553E16AA107
:10CE000014A8FBF7C5F928B903204149887500200B
:10CE1000C87548E166A114A8FBF7BAF928B9022041
:10CE20003B4988750020C8753DE163A114A8FBF754
:10CE3000AFF928B90320364988750020C87532E15A
:10CE40005FA114A8FBF7A4F928B90320304988751D
:10CE50000020C87527E15CA114A8FBF799F928B94F
:10CE600002202B4988750120C8751CE158A114A81F
:10CE7000FBF78EF928B90520254988750020C8756B
:10CE800011E155A114A8FBF783F928B90420204922
:10CE900088750020C87506E151A114A8FBF778F940
:10CEA00028B904201A4988750020C875FBE04EA1F6
:10CEB00014A8FBF76DF928B90420154988750020DE
:10CEC000C875F0E04AA114A8FBF762F928B904205C
:10CED0000F4988750020C875E5E047A114A8FBF745
:10CEE00057F928B906200A4988750020C875DAE084
:10CEF00043A111A8FBF74CF928B90420044988750F
:10CF00000020C875CFE07DE00030160000701600EC
:10CF10004C0F0020257300004C343030000000001E
:10CF20004C343031000000004C3138320000000039
:10CF30004C323030000000004C3330300000000034
:10CF40004C333031000000004C343032000000001F
:10CF50004C453138440000004C4531385500000044
:10CF6000474200004243323031000000424E363129
:10CF7000300000004243323830000000424331317B
:10CF80003000000042433238310000004243323862
:10CF90003145564C2D5331004243313832000000A8
:10CFA000424333303000000042433330320000004F
:10CFB0004243333531000000424333353200000034
:10CFC0004243323430000000424331343700000025
:10CFD0004243353530000000424E31333500000009
:10CFE000424E313332000000424E313336000000F1
:10CFF0004548303031000000436974726100000020
:10D00000334B4D0029A10EA8FBF7C2F828B9042024
:10D01000274988750020C87545E026A10EA8FBF7B2
:10D02000B7F828B90420224988750020C8753AE06D
:10D0300021A10EA8FBF7ACF828B904201C4988757B
:10D040000020C8752FE01DA10BA8FBF7A1F828B997
:10D050000420174988750020C87524E019A108A884
:10D06000FBF796F828B90720114988750020C87584
:10D0700019E016A114A8FBF78BF828B908200C4971
:10D0800088750020C8750EE012A101A8FBF780F892
:10D0900028B90920064988750020C87503E00020DA
:10D0A00003498875C87524B010BD000041350000E3
:10D0B0004C0F002041380000413600004138434306
:10D0C0000000000053706172726F77004353353077
:10D0D00035000000494F54353530000000BFFEE7F1
:10D0E00010B504462046FCF773FC0348FCF706FC29
:10D0F000FEF7B8FE10BD00004822002010B504461F
:10D10000552000F091F8204600F08EF8002000F045
:10D110008BF8012000F088F800F0B4F810BD000092
:10D120002DE9F04180460E4617461D460024B8F111
:10D13000010F28D0B8F1020F4FD0B8F1050F6BD115
:10D140007920384981F84C005521364880F84D1037
:10D1500080F84E60002180F84F1080F8501080F861
:10D16000511079197422523000F0FCFD00BF07E025
:10D170002C494C31621C885C00F056F8601CC4B22B
:10D18000792CF5DB49E08720264981F84C005521B0
:10D19000244880F84D1080F84E60002180F84F1030
:10D1A000290E80F85010290C80F85110290A80F8B7
:10D1B000521080F8535079198022543000F0D2FD7B
:10D1C000002407E017494C31621C885C00F02CF801
:10D1D000601CC4B2872CF5DB1FE08720114981F861
:10D1E0004C0055210F4880F84D1080F84E6000210A
:10D1F00080F84F1079198422503000F0B3FD0024DC
:10D2000007E008494C31621C885C00F00DF8601C96
:10D21000C4B2872CF5DB00E000BF00BF00F032F89D
:10D22000BDE8F0814C0F002070B50146134CB4F8F6
:10D230006C2DB4F86E3DB4F86E4DC4EBC40505EB2F
:10D2400044150F4C04EB85005C1C0A2594FBF5F695
:10D2500005FB1644944200D170BDB0F89A40962C5C
:10D2600000DBF9E7B0F89A50041D6155B0F89A4018
:10D27000641CA0F89A4000BFEEE70000482200209E
:10D280009C2900202DE9F0413948B0F86C7DB0F8B8
:10D290006E4DC4EBC40000EB4411364800EB810036
:10D2A000061DC4EBC40000EB4411324800EB8100C2
:10D2B000B0F89A5096F80080601C0A2190FBF1F2B9
:10D2C00001FB1200B84201D1BDE8F081B8F1550F61
:10D2D0000AD00021C4EBC40000EB4412254800EB47
:10D2E0008200A0F89A10EFE7952D01DC032D0CDAEF
:10D2F0000021C4EBC40000EB44121E4800EB820086
:10D30000A0F89A10FF203070DEE7E81EB0702946C2
:10D310003046FBF7E4FE681C81B2C4EBC40000EBAE
:10D320004412144800EB8200A0F89A101048B0F89C
:10D330006E0D401C81B20E48A0F86E1DB0F86E0D47
:10D340000A2190FBF1F201FB120081B20848A0F81B
:10D350006E1D0021B0F86E0DC0EBC00202EB401252
:10D36000044800EB8200A0F89A1000BFACE7000070
:10D37000482200209C29002010B504460949206855
:10D380000840B0F1005F00D010BD60686FF312007C
:10D39000B0F1006F00D0F7E7204600F005F800BFBD
:10D3A000F2E700000000FE2F70B504460A4920682D
:10D3B0000840B0F1005F0DD160686FF31200B0F16A
:10D3C000006F00D070BD72B66568206880F3088871
:10D3D00000BFA84700BFF5E70000FE2F2DE9F0478A
:10D3E000A6B006460C4698216846FAF7C6FE002508
:10D3F000270EC4F30748C4F3072904F0FF0A3119C4
:10D400008022684600F0AEFC4C2000F0B7FA4220C3
:10D4100000F0B4FA442000F0B1FA432000F0AEFA74
:10D42000502000F0ABFA012000F0A8FA102000F024
:10D43000A5FA052000F0A2FA002000F09FFA87204C
:10D4400000F09CFA042000F099FA384600F096FAB1
:10D45000404600F093FA484600F090FA504600F03B
:10D460008DFA002000F08AFA802000F087FA00BFD1
:10D4700005E01DF8050000F081FA681CC5B2802D9A
:10D48000F7DB00F0A9FA26B0BDE8F08730B5044616
:10D4900000250CB9002030BDB4F8A200801F81B275
:10D4A000E01D03F0B6FF0546B4F8A200401EA11C23
:10D4B000085CA84201D00020EDE70120EBE7000066
:10D4C0002DE9F04104460026002500270CB9BDE8EF
:10D4D000F081B4F85E13B4F86003814200D1F6E73E
:10D4E000B4F85E0300EBC00101EB401104F1CE0083
:10D4F00000EB8105A8784C280FD0B4F85E03401CDF
:10D50000A4F85E03B4F85E03C11700EB91718910B3
:10D51000A0EB8101A4F85E13D9E76E7A2548807DDF
:10D5200010B1062833D100E032E0072E2CD2DFE81C
:10D5300006F02B04082B0C162700882001F006F8B3
:10D5400023E08A2001F002F81FE06F7B1FB98A20D8
:10D5500000F0FCFF19E08B2000F0F8FF15E0AF7B36
:10D5600007B912E01348006B1249496A884203D296
:10D570008C2000F0EBFF02E08D2000F0E7FF04E0DC
:10D580008E2000F0E3FF00E000BF00BF00E000BF1E
:10D5900000BFB4F85E03401CA4F85E03B4F85E0359
:10D5A000C11700EB91718910A0EB8101A4F85E1303
:10D5B00000BF8CE74C0F002010B50146002209B9CE
:10D5C000002010BDB1F8600300EBC00303EB401373
:10D5D00001F1CE0000EB8302B2F8A20008B90020EE
:10D5E000EFE7B1F86003401CA1F86003B1F86003F5
:10D5F000C31700EB93739B10A0EB8303A1F8603378
:10D600000023B1F8600300EBC00404EB401401F107
:10D61000CE0000EB8400A0F8A2300120D1E710B5C5
:10D6200000B910BD002380F8F835A0F8F635A0F851
:10D63000F235A0F8F43500210CE0002301EBC10223
:10D6400002EB411400F2623202EB8402A2F8A23033
:10D650004A1C91B20429F0DB002220F8C82F428036
:10D660008280C8380023A0F85E33A0F86033002120
:10D670000CE0002301EBC10202EB411400F1CE02E9
:10D6800002EB8402A2F8A2304A1C91B20429F0DB1A
:10D6900000BFC6E710B50548FFF7C1FF044803F017
:10D6A00081FE044800F03EF810BD000084460020D2
:10D6B000B9D60008B5110108F0B504461546124E5A
:10D6C000B6F8CA00B6F8C82000230B78461CC82755
:10D6D00096FBF7FC07FB1C66964200D1F0BD0A4E94
:10D6E0003354B6F8CA60761C074FA7F8CA603E46A6
:10D6F000B6F8CA60C82796FBF7FC07FB1C66024F0A
:10D70000A7F8CA6000BFE9E78446002010B50448C6
:10D7100000F00EF80248FFF7D3FE00F0B5F910BD97
:10D72000844600200149C1F8FC057047844600206A
:10D730002DE9F0430446B4F8CA80B4F8C890002537
:10D74000002700260CB9BDE8F083C14500D1FAE7F7
:10D75000B4F8600300EBC00101EB401104F1CE000E
:10D7600000EB8105B4F8CC00265CB5F8A20098BBAC
:10D770004C2E0ED034F8C80F401C20802088C821C1
:10D7800090FBF1F201FB120020802088A080C83CB1
:10D79000D9E7B4F86013481CC11700EB91718910E8
:10D7A000A0EB8102B4F85E138A4200D1CBE735F8D2
:10D7B000A21F2888401C25F8A209A81C465434F84A
:10D7C000CC0F401C20802088C82190FBF1F201FB87
:10D7D000120024F8CC0981E0FFE7B5F8A200A028E8
:10D7E00011DB0020A5F8A20034F8C80F401C2080EF
:10D7F0002088C82190FBF1F201FB120020802088D4
:10D80000A080C83C9FE765E0B4F8CC00265C35F802
:10D81000A21F2888401C25F8A209A81C465434F8E9
:10D82000CC0F401C20802088C82190FBF1F201FB26
:10D83000120024F8CC09B5F8A2000B2800DA49E060
:10D84000E97AA87A01EB002087B2952F11DD00203C
:10D85000A5F8A20034F8C80F401C20802088C821F9
:10D8600090FBF1F201FB120020802088A080C83CD0
:10D8700069E7B5F8A21007F10B00814200DA29E050
:10D880002846FFF703FE88B90020A5F8A20034F867
:10D89000C80F401C20802088C82190FBF1F201FBBA
:10D8A000120020802088A080C83C4CE7B5F8A27008
:10D8B00034F8C80F384420802088C82190FBF1F24A
:10D8C00001FB120020802088A080C83C2046FFF782
:10D8D00073FE38E7B4F8CC00404595D100BF32E77D
:10D8E00010B504464C2000F049F8422000F046F8FC
:10D8F000442000F043F8432000F040F8502000F0AE
:10D900003DF8012000F03AF8102000F037F8E0B2BE
:10D9100000F034F8002000F031F8002000F02EF87C
:10D9200000F05AF810BD30B505460C464C2000F00A
:10D9300025F8422000F022F8442000F01FF8432090
:10D9400000F01CF8502000F019F8012000F016F843
:10D95000102000F013F8284600F010F8002000F026
:10D960000DF8022000F00AF8012000F007F8204628
:10D9700000F004F800F030F830BD000030B5024689
:10D980001349B1F8F235B1F8F445B1F8F41501EBEB
:10D99000C10505EB41150F4901EB8500611CCD1751
:10D9A00001EB9575AD10A1EB85059D4200D130BD11
:10D9B000B0F8A210A02900DBF9E7B0F8A250811C52
:10D9C0004A55B0F8A210491CA0F8A21000BFEEE71B
:10D9D00084460020E64900202DE9F0410026284831
:10D9E000B0F8F275B0F8F485B0F8F40500EBC001BA
:10D9F00001EB4011234800EB8104B4F8A25008F178
:10DA00000100C11700EB91718910A0EB8101B942AF
:10DA100001D1BDE8F0810A2D03DA0020A4F8A200AC
:10DA2000F7E7A02D00DBF4E7A5F10A00010AA172D7
:10DA3000E072B4F8A200401F81B2E01D03F0E9FCDF
:10DA40000646A01C4655B4F8A200401CA4F8A2004B
:10DA50000B48B0F8F405401C81B20948A0F8F41551
:10DA60000146B1F8F405C11700EB91718910A0EBE4
:10DA700081018AB20249A1F8F42500BFC9E700007C
:10DA800084460020E64900202DE9F0412748B0F8FF
:10DA9000F245B0F8F45504EBC40000EB44112448FF
:10DAA00000EB8100B0F8A26004EBC40000EB44116D
:10DAB0001F4800EB8100871C04EBC40000EB4411FD
:10DAC0001B4830F82180AC4201D1BDE8F0811748F5
:10DAD000D0F8FC0500B9F8E7144832463946D0F8CA
