:020000040800F2
:10000000082E002061010008991F0008711B0008DC
:10001000191F000885140008C53C000800000000F6
:10002000000000000000000000000000E5260008BD
:100030005D1700080000000077010008352800085F
:100040007B0100087B0100087B0100087B010008A0
:100050007B010008D12400087B0100087B01000817
:100060007B0100087B0100087B0100087B01000880
:100070007B0100087B0100087B0100087B01000870
:100080007B0100087B0100087B0100087B01000860
:100090007B0100087B0100087B0100087B01000850
:1000A0007B0100087B0100087B0100087B01000840
:1000B0007B0100087B0100087B0100087B01000830
:1000C0007B0100087B0100087B0100087B01000820
:1000D0007B010008FD390008353A00089D3A000808
:1000E0007B0100087B0100087B0100087B01000800
:1000F0007B0100087B0100087B0100087B010008F0
:100100007B0100087B0100087B010008192A000818
:100110007B0100087B0100087B0100087B010008CF
:100120007B0100087B0100087B0100087B010008BF
:100130007B0100087B0100087B0100087B010008AF
:100140007B0100087B010008DFF810D000F03AFCCA
:10015000004800475D470008AFF30080082E0020EC
:100160000648804706480047FEE7FEE7FEE7FEE751
:10017000FEE7FEE7FEE7FEE7FEE7FEE745290008AB
:1001800049010008D2B201E000F8012B491EFBD260
:1001900070470022F6E710B513460A460446194692
:1001A000FFF7F0FF204610BDF0B480EA0102D40F43
:1001B0004200B2EB410F02D20246084611464A0005
:1001C00042D0C30DDDB2C1F3C752AD1A202D35DACE
:1001D000C1F3160141F4000204B15242C5F12006F8
:1001E00002FA06F12A411044B3EBD05F23D0C4B128
:1001F000012DA0EBC35009DCF0BC4FF0004202EA35
:10020000C352DBB200F5000000F06ABA400000F112
:10021000807000EBC350A0F1807040EAD1704900BB
:1002200009E0490841EAC071A0EBC35000F50000A5
:10023000400800EBC350F0BC00F049BA6142012213
:1002400002EB4101001BF6E7F0BC704781F0004172
:10025000AAE780F00040A7E780EA010210B502F0AB
:100260000043400022D04A001FD0010E01EB126172
:10027000C0F35600C2F3560240F4000042F40002FC
:10028000A0FB022000047F39140400D0401C50EA77
:10029000124001D44000491EC2B20C0604EBD0103B
:1002A000401C4008802A02D003E0002010BD20F04E
:1002B0000100002900DA0020184310BD30B480EAA4
:1002C000010202F0004530F0004221F0004013D05E
:1002D00090B1C30DD40DC2F31601C0F31600E41A99
:1002E00041F4000140F400027D34914201D3641CCA
:1002F00000E04900002C02DA30BC002070474FF4C7
:1003000000000023914201D3891A034340084FEAB9
:100310004101F7D151B1914202D14FF0004105E0C6
:1003200002D24FF0010101E06FF0010103EBC45074
:10033000284430BC00F0CBB92DE9FE4F81EA03041C
:1003400004F0004421F0004100944FF0000B23F032
:10035000004350EA01045ED052EA03045BD0C3F3C9
:100360000A54C1F30A552C44A4F2F3340194A0FBBF
:100370000254C1F3130141F48011C3F3130343F496
:10038000801301FB024400FB034E840A970A44EAEF
:10039000815447EA8357A4FB076802958D0A05FB41
:1003A00007854FEA932C04FB0C542705029D4FEA66
:1003B000065847EA1637B5EB08056EEB070C870EB3
:1003C000920E47EA811742EA8312A7FB0201B6EBBD
:1003D0000B0164EB00042B0D43EA0C335E1844EB75
:1003E0001C50DA465146E7FB0201C5F313044FEAFD
:1003F0000B3343EA14534FEA0432019C43EA0603E9
:10040000A4F10C040294009CCDE900B400F0A5F91D
:1004100003B0BDE8F08F00200146F9E72DE9F04D6B
:1004200081EA030404F0004B21F0004514464FF02C
:10043000000A23F0004150EA050220D054EA0102EC
:100440001DD0C5F30A570246C5F31303C1F31300C9
:10045000C1F30A5640F4801543F48013A7EB060855
:10046000101BD64608F2FD3873EB050002D308F1E5
:10047000010801E092185B41B8F1000F03DA002097
:100480000146BDE8F08D00204FF4801106468446F9
:100490000EE0171B73EB050705D3121B63EB050377
:1004A00006434CEA010C49084FEA300092185B41C0
:1004B00050EA0107EDD152EA030012D082EA0400AB
:1004C00083EA0501084305D0101BAB4106D2012287
:1004D000002306E000224FF0004302E06FF001022B
:1004E00053101AEB06004CEB085110EB0A0041EBDD
:1004F0000B01BDE8F04D00F021B9C10F80EAE070BA
:100500000844CA079623002100F0EAB80EB540F26D
:10051000334102910021CDE900110A460B4600F05B
:100520001CF903B000BD00F0004220F00040C10DF6
:10053000C0F3160040F400007F2901DA0020704764
:10054000962903DCC1F19601C84001E09639884044
:10055000002AF4D04042704700F0004230F00040E2
:100560000AD0C10D01F56071C0F3160042EA0151D5
:10057000C208400711437047002001467047000041
:1005800030B5041E71F1000404DB4FF0004440421A
:1005900064EB0101141E73F1000405DB1C464FF0EF
:1005A0000043524263EB04038B4208BF824230BDDA
:1005B00030B5041E71F1000404DB4FF000444042EA
:1005C00064EB0101141E73F1000405DB1C464FF0BF
:1005D0000043524263EB0403994208BF904230BD8E
:1005E00001F0004330B421F0004150EA010206D08E
:1005F0000A0DA2F56072C1F31301002A02DC30BCBF
:1006000000207047440F44EAC104C100E01830BC28
:1006100000EBC25000F05BB8002801DBC0F10040E5
:10062000002901DBC1F1004181427047002801DB54
:10063000C0F10040002901DBC1F100418842704750
:1006400030B50B46014600202022012409E021FAA2
:1006500002F59D4205D303FA02F5491B04FA02F59F
:100660002844151EA2F10102F1DC30BD2DE9F05F36
:100670000546002092469B46884606468146402411
:100680001BE0284641464746224600F0BCF9534647
:100690005A46C01A914110D311461846224600F01E
:1006A000A3F92D1A67EB01084F46224601200021CD
:1006B00000F09AF917EB00094E41201EA4F1010445
:1006C000DFDC484631462A464346BDE8F09F002914
:1006D000A8BF7047401C490008BF20F001007047C8
:1006E00010B4B0FA80FC00FA0CF050EA010404BF28
:1006F00010BC704749B1CCF1200421FA04F411FA7E
:100700000CF118BF012121430843A3EB0C01CB1DC1
:100710004FEA00614FEA102042BF002010BC704732
:1007200000EBC35010440029A4BF10BC7047401C0C
:10073000490008BF20F0010010BC704710B5141E1E
:1007400073F1000408DA401C41F1000192185B418A
:100750001A4301D120F0010010BD2DE9F04D924661
:100760009B4611B1B1FA81F202E0B0FA80F2203278
:10077000904600F039F904460F4640EA0A0041EA83
:100780000B0153465A46084313D0114653EA010061
:1007900019D0C8F14002504600F035F905460E4622
:1007A00050465946424600F01FF9084305D0012043
:1007B00004E020463946BDE8F08D0020054346EAB6
:1007C000E0762C4337430A986305E40AA0EB08005F
:1007D0000022FD0A44EA47540A3002D500200146AF
:1007E000E9E7010510196941DDE90845001969418A
:1007F000BDE8F04DA2E72DE9FE4F804681EA0300F7
:10080000C00F0C46009021F0004123F00045B8EBEA
:100810000200A94105D24046214690461C460B469F
:10082000024623F00040104347D0270DC7F30A00CB
:10083000C3F30A510290401A019040286BDAC3F3C7
:10084000130040F4801B0098924620B10023D2EBA5
:10085000030A63EB0B0B01985946C0F14002504666
:1008600000F0C2F806460D4650465946019A00F07F
:10087000DAF810EB08006141002487EA115284EA9B
:10088000E7731A4340D0009A62B3019A012A4FEAF3
:10089000075215DC001B61EB02014FF0004202EA37
:1008A0000752CDE90042001C41F5801132462B462B
:1008B000FFF753FF03B0BDE8F08F40462146F9E74C
:1008C000001B61EB0201001C41F5801300185B4125
:1008D0002018A2F5001747EB030140EAD570B619BE
:1008E0006D4111E06D084FEA360645EAC0754FEAE2
:1008F0000752001B61EB0201001C41F58011490801
:100900004FEA30000019514132462B4603B0BDE892
:10091000F04FFFF713BF0098012240000023D0EBF7
:10092000020263EBE073009821464FEAE074B8EBF3
:10093000000061EB0401E9E783F000435BE781F02D
:10094000004158E770B521F0004303430CD0C1F3D8
:100950000A550024D5EB040564EB0403D617AD1A41
:10096000B34102DB0020014670BD201841EB02516B
:1009700070BD0EB5C10F80EAE0700844CA070021BF
:1009800040F233438DE80E000A460B46FFF7E5FEC2
:1009900003B000BDC1F30A52C1F3130140F2FF33AB
:1009A00041F480119A4202DA00200146704740F279
:1009B00033439A42A2F2334202DC524200F023B89F
:1009C00000F012B8064C074D06E0E06840F0010365
:1009D00094E8070098471034AC42F6D3FFF7B8FB11
:1009E00080530008A0530008202A04DB203A00FAB4
:1009F00002F1002070479140C2F1200320FA03F376
:100A0000194390407047202A04DB203A21FA02F073
:100A10000021704721FA02F3D040C2F12002914038
:100A2000084319467047202A06DBCB17203A41FAC3
:100A300002F043EAE07306E041FA02F3D040C2F16B
:100A4000200291400843194670472DE9F04D0023DC
:100A50001A461B1A8A4103DB00200146BDE8F08DCF
:100A6000C1F30A52C1F3130141F480154FF0000B9A
:100A7000D10702D100186D41521E0027044640F2F2
:100A8000FF11384601EB620A3E46804602460020CE
:100A90004FF48011FFF7B7FFC2197141BB1846EB45
:100AA0000100B4EB030C75EB000C04D3E41A65EB06
:100AB000000517460E46241908F101006D418046D5
:100AC0003428E3DDF91946EB0600091BA84103D2DF
:100AD0004FF0FF32134601E0002213461BEB0700E4
:100AE00046EB0A51BDE8F04DFFF728BE00B589B0CE
:100AF0000121042001F0E4FB0121080301F0B0FB17
:100B000005A801F005F81020ADF8140001208DF8BB
:100B100016008DF8170000208DF8180003200790AC
:100B200005A91F4800F000FF0221002000F040F856
:100B30004FF4E0414FF4003001F0AEFA00208DF8A0
:100B400004008DF805004FF460200290002003900F
:100B500001208DF8100001A9124800F0D7F80523F4
:100B6000012219460F4800F038F801210D4800F025
:100B700097F800BF20210B4800F0BFF80028F9D0FB
:100B8000084800F0E9F800BF064800F09FF8002888
:100B9000FAD10121034800F08EF809B000BD000031
:100BA000000801400008024010B5FFF79FFF10BD8C
:100BB00070B505460C4645B900214FF4807001F030
:100BC00085FA204601F076FA06E00121204601F080
:100BD0007DFA002001F06EFA70BDF0B504461546AE
:100BE00000200022122904D1E06D20F007001843F4
:100BF000E065092911DDE068A1F10A0606EB460768
:100C0000072606FA07F29043A1F10A0606EB46060C
:100C100003FA06F21043E0600CE0206901EB4107A3
:100C2000072606FA07F2904301EB410603FA06F2A3
:100C300010432061072D0FDA606B6E1E06EB8607EE
:100C40001F2606FA07F290436E1E06EB860601FA8F
:100C500006F21043606322E00D2D0FDA206BEE1FC9
:100C600006EB86071F2606FA07F29043EE1F06EBF7
:100C7000860601FA06F21043206310E0E06AA5F14F
:100C80000D0606EB86071F2606FA07F29043A5F12C
:100C90000D0606EB860601FA06F21043E062F0BD8F
:100CA00021B1826842F00102826003E0826822F092
:100CB00001028260704721B1826842F4A002826022
:100CC00003E0826822F4A00282607047014600209F
:100CD0008A6802F004020AB1012000E00020704797
:100CE0000146C86C80B270470246002013680B4072
:100CF0000BB1012000E00020704702460020936DF8
:100D00000B400BB1012000E00020704730B50246D7
:100D10000020002350680E4C20400C7840EA04204C
:100D2000506090680B4C2040D1E901542C434D7821
:100D300044EA450420439060D06A20F470000C7BA4
:100D4000641EE4B2234340EA0350D06230BD000089
:100D5000FFFEF0FFFDF7F1FF816841F004018160C3
:100D60007047F0B507460D4616460024552002F0A0
:100D70006FFD002002F06CFDAA2002F069FD3846EC
:100D800002F066FD002002F063FD002002F060FD2D
:100D900000BF04E0285D02F05BFD601CC4B2B442F9
:100DA000F8DB02F083FDF0BD10B504461B488088D7
:100DB0000F280DD100201A4908701A4A118CD069E9
:100DC00000F0B4FE01F068F801201449487021E0F9
:100DD00012488088F0B9124801780078401C104A07
:100DE0001070032916DB104600780F2190FBF1F2FA
:100DF00001FB120038B90C48007808B9012000E066
:100E0000002009490870074A118CD069064A1278F7
:100E100000F08EFE00200149888010BDD00B00201C
:100E2000F8000020C8000020F90000201FB50024B1
:100E3000684600F06DFE00BF1FE004EB44012B4A42
:100E400052F82100012101F03BFA04EB440027494C
:100E500001EB80000089ADF8000001200290002025
:100E60008DF8030004EB4401204A02EB810148683D
:100E7000694600F059FD601CC4B2052CDDD3002486
:100E80001FE004EB44011A4A52F82100012101F04D
:100E900017FA04EB4400164901EB80000089ADF815
:100EA00000000120029000208DF8030004EB4401B3
:100EB0000F4A02EB81014868694600F035FD601C6D
:100EC000C4B2042CDDD3FA2000F04FFCFA2000F06D
:100ED0004CFCFA2000F049FCFA2000F046FC044AE1
:100EE000918D906A012200F023FE1FBD8C0000202E
:100EF000C80000201EB5024609A419CC8DE81900CF
:100F0000002100BF07E01DF80100904201D1084612
:100F10001EBD481CC1B20A29F5D3FF20F8E7000026
:100F20007D055B1F273E7E157F3F0000FEB5034613
:100F30000A4610A5D5E90040AD68CDE90105009449
:100F400000210A2A01DD0020FEBD1DF80210CD1788
:100F500001EB5575ED105D5DCE1701EB5676F61081
:100F6000A1EBC6070126BE4035400DB10120EBE7DD
:100F70000020E9E70B1B2B3B02035A4951530000A9
:100F80001CB500F02FFAFFF751FF0120811E00234E
:100F9000084ACDE90010C821032001F04DFD0120D1
:100FA00000900023044A4FF4FA610190082001F0F8
:100FB00043FD1CBDA90D0008B113000870B5002445
:100FC0004148407800B970BD3F48801D00F0EEF800
:100FD0003D48807830B1012805D0022811D003287F
:100FE0006BD144E06AE038480021016241628162CD
:100FF000C1620146C87800F077F9022000F0DEF9FE
:101000005CE03148C078072807D02F48C078042812
:1010100003D02D48C07802280AD105212A48801D16
:10102000FFF784FF08B9012000E00020044615E026
:101030002548C078062807D02348C078032803D065
:101040002148C078012809D104211F48801DFFF7DD
:101050006DFF08B9012000E0002004461CB100200B
:1010600000F078F902E0032000F0A8F926E0164924
:101070008869FFF771FA05460022144BFFF780FAE2
:101080001AD0114890F82000401C0F4981F8200028
:10109000084690F82000032190FBF1F201FB1200BA
:1010A000094981F820000846816990F82020243001
:1010B00040F8221000F048FA00E000BF00BF002016
:1010C0000149487000BF7EE7D00B00200088C34074
:1010D0001FB50446FF22062101A8FFF753F8314847
:1010E000C06903902F49C869FFF71DFA00902D4889
:1010F00090F835008DF804002A4890F834008DF8F7
:1011000005002848006B38B30020264908639DF885
:101110000400032810D19DF800008DF806009DF80A
:1011200001008DF807009DF802008DF808009DF879
:1011300003008DF809000FE09DF80C008DF8060003
:101140009DF80D008DF807009DF80E008DF8080041
:101150009DF80F008DF80900092C15D19DF80400A9
:10116000032811D1104800909DF800008DF806006A
:101170009DF801008DF807009DF802008DF8080029
:101180009DF803008DF809000648007848B1062252
:1011900001A9B02000F0DCFE00200249087001F037
:1011A000FFF91FBDD00B002000CA9A3B2DE9F04F7C
:1011B00087B00646002400200490814600BF0DE061
:1011C0006000401C305C00F007016000801C305C57
:1011D00061F31F1005A90855601CC4B2042CEFDB95
:1011E000002416E005A9085DFFF784FE0546FF2DE3
:1011F00008D131483149886131A002F07FFD07B044
:10120000BDE8F08F0A2000FB09501FFA80F9601C2E
:10121000C4B2042CE6DB03240BE021462748801DE2
:10122000FFF784FE18B1C4F10400C0B20490601E40
:10123000C4B2012CF1DA0498FFF768F907463A4680
:101240000B460020244903F0F3FA82468B464846B9
:10125000FFF75CF907460022204BFFF76DF8524676
:101260005B46CDE90001FFF7D9F8CDE90201FFF7B0
:10127000B7F91249886100211048801DFFF756FE1A
:1012800010B14FF0FF3000E001208046FFF735F944
:1012900007460A4881693846FEF7DEFF074988613C
:1012A0008869FFF759F907463A460B460CA002F049
:1012B00025FD00BFA3E7000000401C46D00B002026
:1012C000436E742774205072617365204E756D6291
:1012D00065720D0A00000000000024400000F03F8D
:1012E0002566200D0A0000007CB5054616A103C93D
:1012F000CDE90001002400BF22E01DF80500012116
:10130000A140084068B104EB4402114B03EB820298
:10131000118904EB440203EB8202506800F006FCE2
:101320000CE004EB44020A4B03EB8202118904EB4C
:10133000440203EB8202506800F0F6FB601CC4B26A
:10134000052CDAD37CBD0000000C0B1A1A1E0A0A09
:101350008C00002010B5044604EB4402134B03EB51
:101360008202118904EB440203EB8202506800F010
:10137000DBFBC82000F0F9F904EB44020B4B03EB54
:101380008202118904EB440203EB8202506800F0F0
:10139000CDFBFA2000F0E9F9FA2000F0E6F9FA2096
:1013A00000F0E3F9FA2000F0E0F910BDC8000020D9
:1013B00000B50346052000F007F800BD014988701C
:1013C00070470000D00B002000B50246082A00DB61
:1013D00000BD0348C2700120FFF7F0FF00BFF7E730
:1013E000D00B002000B589B00121052000F068FF76
:1013F0000121480400F044FF05A800F089FB082003
:10140000ADF8140001208DF816008DF817008DF846
:101410001800002007900420089005A9174800F044
:1014200083FA4FF4166001900020ADF80800ADF883
:101430000A00ADF80C00ADF810000420ADF80E0065
:1014400001A90F4802F0B0FB26208DF80000022011
:101450008DF8010001208DF802008DF80300684628
:1014600000F0B6FD0121064802F05BFB012240F2CC
:101470002551034802F030FB09B000BD00080140CF
:101480000044004000BFFEE710B500F0B9FE4FF485
:10149000803000F039FE01F03BF8012827D1002010
:1014A00000F026FE4FF4806000F066FE002000F0A1
:1014B0006FFE012000F00CFA102000F0CDF90022A0
:1014C0004FF48011081100F06FFE012000F01EFFA4
:1014D00000BF392000F0CAFF0028FAD0032000F036
:1014E00083FE00BF00F0ECFF0C28FBD12BE00120B5
:1014F00000F006FF01F028F8002000F0F9FD4FF49D
:10150000806000F039FE002000F042FE012000F073
:10151000DFF9102000F0A0F900224FF480211046DE
:1015200000F042FE012000F0F1FE00BF392000F083
:101530009DFF0028FAD0032000F056FE00BF00F007
:10154000BFFF0C28FBD110BD2DE9FC5F0024A14694
:10155000A246A34600BF08E0644850F8241048465D
:10156000FEF722FE8146601CC4B2032CF4DB604906
:101570004846FEF7A3FE814600240CE05B4951F883
:1015800024004946FEF762FE05465146FEF70CFE72
:101590008246601CC4B2032CF0DB00214846FFF7F2
:1015A00045F84ED8514924398869FEF7D5FF0746DA
:1015B000504A514BFEF7C0FE05460E465046FEF718
:1015C000CBFF2A463346CDE90001FEF7D9FF38D8D4
:1015D00046482438C07805281AD1082143481E38C7
:1015E000FFF7A4FC10B1DFF814B11CE007213F485D
:1015F0001E38FFF79BFC10B1DFF804B113E00621A1
:101600003A481E38FFF792FC68B14FF07E5B0AE063
:10161000092136481E38FFF789FC10B14FF07E5B78
:1016200001E04FF07E5B3149243988695946FEF765
:1016300013FE2E492439C86101200863FFF748FDD5
:1016400052E000214846FEF7E7FF4DD227492439F2
:101650008869FEF781FF0546264A274BFEF76CFE98
:10166000074688465046FEF777FF3A464346CDE99F
:101670000001FEF79DFF37D81C482438C0780528A4
:101680001AD1082119481E38FFF750FC10B1DFF8B5
:101690006CB01CE0072115481E38FFF747FC10B15D
:1016A000DFF85CB013E0062110481E38FFF73EFC5F
:1016B00068B14FF07E5B0AE009210C481E38FFF745
:1016C00035FC10B14FF07E5B01E04FF07E5B0749C7
:1016D000243988695946FEF7BFFD04492439C86199
:1016E00001200863FFF7F4FCBDE8FC9FF40B002029
:1016F000000040409A9999999999B93F00247449FA
:1017000000007A4400BF1348006820F000701149BF
:1017100008600846006840F00070086000BF0E488E
:10172000006820F4C0600C4908600846006840F476
:101730008060086000BF0848006900F002000028CF
:10174000F9D100BF0448006900F002000228F9D175
:10175000704700002018004000700040704710B52E
:101760004FF4165001F024FC10BD10B50EE02F21EF
:1017700007E0362200E000BF131EA2F10104E2B22E
:10178000F9D10B1EA1F10104A1B2F2D1031EA0F107
:101790000104E0B2EBD110BD0249C9680143014A1E
:1017A000D16070470020024008B50021002200925D
:1017B00000200F4A126802F00202C2B90C4A1268F5
:1017C00042F001020A4B1A6000BF094A1268C2F3D4
:1017D0004001009A521C009219B9009AB2F5A06F0C
:1017E000F3D1034A1268C2F3400101B9012008BDD8
:1017F0000010024006201249C96801F0010109B138
:1018000001201CE00E49C96801F0040109B1032060
:1018100015E00B49C96801F0080109B104200EE088
:101820000749C96801F0100109B1052007E0044922
:10183000C96801F0400109B1072000E006207047A7
:10184000002002400348006940F08000014908611F
:1018500070470000002002400549096821F010018E
:10186000034A116011460968014311607047000086
:101870000020024078B504460D4606260020009060
:1018800004F0030010B10926304678BD7C20FFF734
:1018900083FF4FF4005000F033F80646062E12D1B5
:1018A0000A48006940F001000849086125604FF4CA
:1018B000005000F025F806460448006943F6FE7122
:1018C0000840024908613046DFE70000002002407E
:1018D00001460020034A106800F0F8000843106039
:1018E0007047000000200240024803494860034856
:1018F000486070472301674500200240AB89EFCD67
:1019000000B502460623FFF775FF034603E0FFF725
:1019100071FF0346521E012B01D1002AF7D102B9F3
:101920000A23184600BD0000F0B50346002500203C
:10193000002400220026E3E00F884FF0010C0CFA8F
:1019400002FC07EA0C06002E6FD055008F68022FAC
:1019500007D08F68122F04D08F6817B18F68032FBC
:1019600025D102F008078FB1586A57074FEAD76CA4
:101970000F2707FA0CF7B8434FEA427C4FEADC6CBA
:10198000CF6807FA0CF73843586210E0186A570717
:101990004FEAD76C0F2707FA0CF7B8434FEA427C9F
:1019A0004FEADC6CCF6807FA0CF7384318621C6802
:1019B0000F7A07F00F000327AF40BC4300FA05F78A
:1019C0003C431C60DC680F7907F003000327AF403D
:1019D000BC4300FA05F73C43DC600F7A07F00307CD
:1019E0006FB18F68032F0AD0DC6A8F7807F003008D
:1019F0000327AF40BC4300FA05F73C43DC6298681C
:101A000001279740B843CF7807F001079740384344
:101A100098600F79022F09D19F6A4FF0010C0CFAE0
:101A200002FC47EA0C079F620BE068E00F79012F88
:101A300007D19F694FF0010C0CFA02FC47EA0C0732
:101A40009F618F68012F08D08F68022F05D08F68A3
:101A5000112F02D08F68122F09D1586801279740A3
:101A6000B8430F7AC7F300179740384358608F6820
:101A700007F08057002F42D0244F38680127974045
:101A8000B8438F6807F48037B7F5803F02D101274C
:101A9000974038431D4F38603F1D386801279740F5
:101AA000B8438F6807F40037B7F5003F02D101272C
:101AB00097403843154F3F1D38603F1D3868012758
:101AC0009740B8438F6807F48017B7F5801F02D19D
:101AD0000127974038430D4F083738603F1D38685D
:101AE00001279740B8438F6807F40017B7F5001F28
:101AF00002D1012797403843044F0C373860521CFD
:101B00000F881741002F7FF417AFF0BD000401408C
:101B10004FF6FF7101800021C17081600F21C1600B
:101B20000021017181707047816270478161704747
:101B30000AB1816100E081627047000010B504467F
:101B40000523012221460948FFF747F801210748EC
:101B5000FFF7B1F800BF02210448FFF7C5F80028DD
:101B6000F9D00248FFF7BCF810BD000000080240A1
:101B700000BFFEE7014608687047000030B5034625
:101B80000C46154604B930BD0A48834203D35819A0
:101B90000949884200D9F6E7002207E01846FFF716
:101BA000E9FF44F822001B1D501C82B2AA42F5DB5B
:101BB00000BFE8E700300008000002082DE9F0410E
:101BC00004460D461646012715B90020BDE8F081F0
:101BD0000D48844203D3A0190C49884201D9002042
:101BE000F4E772B6FFF780FE3420FFF7D5FD3246EA
:101BF0002946204600F00CF800B90027FFF722FE26
:101C000062B63846E2E700000030000800F801083C
:101C10002DE9F04105460E46174616B90020BDE8ED
:101C2000F0811148854203D3E8191049884201D94F
:101C30000020F4E7002412E056F824102846FFF7AD
:101C400019FE2846FFF796FF80462D1D56F8240002
:101C5000404500D101E00020E1E7601C84B2BC42B5
:101C6000EADB0120DBE7000000300008000002088A
:101C700010B5FFF799FD10BD2DE9F05F05460C4644
:101C800016464FF00009C846AA46002714B900209E
:101C9000BDE8F09FB5F1006F03D3A8191949884238
:101CA00001D90020F4E74FF4806002F08BFD074675
:101CB0000FB90020ECE74FF00009C84614E0207887
:101CC000617800EB0120A17800EB0140E17800EBA6
:101CD00001624846411C1FFA81F947F82020241D63
:101CE00008F104001FFA80F8B045E8D3C6F38F026C
:101CF00039465046FFF762FF8346384602F006FD3C
:101D00005846C5E700F801081CB5FEF74DFF012055
:101D1000811E0023034ACDE900103221042000F087
:101D20008BFE1CBD291D00082DE9F05F4FF0000A55
:101D30000520FFF703FF8346FEF7E8FB80464FF0E0
:101D400066323A4BFEF7F8FA06460022384BFEF7A9
:101D500065FB0446FEF744FC3649086000BF30E0EE
:101D6000354951F82A00FEF7F7FB0646334A344B53
:101D7000FEF7E2FA04460D462E480068FEF7ECFB3B
:101D8000804622462B46FEF713FC16D82A4951F806
:101D90002A00FEF7E1FB06462A4A2B4BFEF7CCFA57
:101DA00004460D4623480068FEF7D6FB80462246CF
:101DB0002B46FEF7E5FB00D806E00AF1010000F033
:101DC000FF0ABAF1040FCBDB00BFBAF1040F04D154
:101DD00000201E490870BDE8F09F1C4800780128CB
:101DE00000D1F8E71A48007850450ED1BAF1030F38
:101DF00001D1002107E017490978481C00EBD07198
:101E00004910A0EB4101134A1170134911F80A104F
:101E1000104A12781144C8B2FFF7D6FA0C4880F87D
:101E200000A001200949087000BFD4E766660A4097
:101E30000000B04000010020DC520008CDCCCCCC2A
:101E4000CCCCEC3F9A9999999999F13F07010020E0
:101E50000501002006010020EC5200081FB50121F9
:101E6000042000F02DFA6846FFF752FE0120ADF87D
:101E7000000002208DF8020001208DF803000220EE
:101E80008DF804000120029069460248FFF74CFDDE
:101E90001FBD00000008014010B50B490878097803
:101EA000491C094A117000EBD0714910A0EB4101A7
:101EB00021B101210548FFF739FE03E00121034864
:101EC000FFF732FE10BD000088000020000801402E
:101ED00010B51D220E490F48FFF750FE0C48C06E8A
:101EE000072804D10A48B0F870000B280CD007204E
:101EF0000749C8660B20A1F8700074220548FFF757
:101F0000BBFEC820FFF731FC0148B0F8640010BDEB
:101F1000140100200078000800BFFEE70146002001
:101F2000082913D2DFE801F0120406080A0C0E108B
:101F300001200BE0022009E0052007E0032005E076
:101F4000042003E0062001E0072000BF00BF704727
:101F50002DE9F04107460D461646552001F078FC64
:101F6000002001F075FCAA2001F072FC384601F057
:101F70006FFC002001F06CFC002001F069FC0024E3
:101F800004E0285D01F064FC601CC4B2B442F8DBDC
:101F900001F08CFCBDE8F08110B5802000F084FADF
:101FA00078B14FF4803000F0AFF80121082000F044
:101FB000D1F80121102000F0CDF84FF4000000F01E
:101FC00063F810BD10B54FF4A06000F039F810BDF3
:101FD00070B5002100230F22C47804B3154C246887
:101FE00004F4E064C4F5E064210AC1F10403CA40CA
:101FF000447804FA03F184781440214309010E4C1B
:102000000678A155047804F01F050124AC4005783A
:102010006D11AD0005F1E025C5F8004109E0047837
:1020200004F01F050124AC40044D0678761145F8F4
:10203000264070BD0CED00E000E400E080E100E02F
:1020400002490143024A1160704700000000FA058E
:102050000CED00E070B504460D46052C01DA012DAB
:1020600000DD70BD04EB4402064B33F8221004EB94
:10207000440203EB820250682A46FFF759FD00BF75
:10208000EFE7000004000020024989680143014A8B
:10209000916070470010024002460020044BD86A4D
:1020A00020F4003020F4F83010430843D862704721
:1020B0000010024001460020034AD06A20F00F00C1
:1020C0000843D06270470000001002400246002022
:1020D000064BD86A20F4F87009B1104302E01043AF
:1020E00020F48070014BD86270470000001002405D
:1020F00001460020034A506820F0F0000843506079
:1021000070470000001002401149096821F4803135
:102110000F4A11601146096821F480211160B0F561
:10212000803F03D0B0F5802F0ED106E00849096842
:1021300041F48031064A116007E00549096841F41D
:10214000A021034A116000E000BF00BF70470000FB
:102150000010024031B1074A926842EA0022054B62
:102160009A6005E0034A926822EA0022014B9A60D5
:10217000704700000010024001460020034A5068EA
:1021800020F4E060084350607047000000100240F7
:1021900001460020034A506820F4605040EAC10024
:1021A000506070470010024030B50B4614460021C5
:1021B00000220B4D69682A6C0A4D294022F0030267
:1021C00008B1012804D1194340EA04052A4303E079
:1021D00040EA030529432243014D69602A6430BD6A
:1021E00000100240FFFFC0F701460020034A50687C
:1021F00020F00300084350607047000000100240C8
:102200001348406A40F0040011494862084640689B
:10221000104908400E494860084600680E490840C9
:102220000B4908600846006820F4802008600846D2
:1022300040680A490840064948604FF46050C86247
:1022400008630020486308644FF41F0088607047EB
:102250000010024000C0FFF8FEFFF6FEFFFF00F78F
:1022600029B1064A52690243044B5A6104E0034A09
:1022700052698243014B5A617047000000100240CE
:1022800029B1064AD2690243044BDA6104E0034AE9
:10229000D2698243014BDA617047000000100240AE
:1022A00029B1064A12690243044B1A6104E0034A49
:1022B00012698243014B1A6170470000001002400E
:1022C00029B1064A92690243044B9A6104E0034A29
:1022D00092698243014B9A617047000000100240EE
:1022E00029B1064AD2680243044BDA6004E0034A8B
:1022F000D2688243014BDA60704700000010024050
:102300000149086070470000000042420149086628
:102310007047000000004242F0B5002100BF0023DA
:10232000002600240025484F7F68DFF820C107EA17
:102330000C03454F7F6807F48036434F7F6AC7F32D
:10234000021503F000671FB9022707EB934304E06F
:102350004FF4F877C7EB93477B1C66B93A4F3F6C55
:1023600007F001071FB13A4F03FB07F20FE0394FA7
:1023700003FB07F20BE0344F7F6807F400371FB10F
:10238000354F03FB07F202E0314F03FB07F22E4FFC
:102390003F6C07F0020707B152082B4F7F6807F028
:1023A0000C0131B1042909D008290AD00C290DD11A
:1023B0000AE02A4F57F8257007600CE0254F0760A8
:1023C00009E0234F076006E0026004E0234F57F85E
:1023D0002570076000BF00BF1B4F7F6807F0F0014A
:1023E00009091F4F7C5C0768E7404760164F7F680C
:1023F00007F4E061090A1A4F7C5C4768E740876090
:10240000114F7F6807F46051C90A154F7C5C47681B
:10241000E740C7600C4FFF6A07F00F01114F7C5C6B
:102420004768B7FBF4F74761074FFF6A07F4F87195
:10243000090901F00F07DFF830C03CF81740B2FB84
:10244000F4F70761F0BD00000010024000003C08F6
:1024500000127A000024F40000093D00C052000878
:102460008052000890520008A052000810B50146A2
:102470000022002300204A11012A02D1094C2368BE
:1024800006E0022A02D1074C236A01E0054C636A88
:1024900001F01F02012494401C400CB1012000E017
:1024A000002010BD0010024001460020034A92683F
:1024B0000A400AB1012000E00020704700100240ED
:1024C0000248406800F00C00704700000010024015
:1024D00010B50820FFF7E8FF50B14FF40020FFF7D8
:1024E000D3FD3120FFF7C2FF10B10120FFF70EFF2F
:1024F0001020FFF7D9FF50B14FF48010FFF7C4FD53
:102500003920FFF7B3FF10B10320FFF76DFE10BDB8
:1025100038B5002000900024002500BF3120FFF7CF
:10252000A5FF05460098401C00900098B0F5005F9C
:1025300001D0002DF2D03120FFF798FF08B101241F
:1025400000E00024204638BD38B50020009000246B
:10255000002500BF2120FFF789FF05460098401C99
:1025600000900098B0F5A06F01D0002DF2D021208E
:10257000FFF77CFF08B1012400E00024204638BDAD
:1025800029B1064A12680243044B1A6004E0034A68
:1025900012688243014B1A607047000040280040D7
:1025A00010B500240EE004EB4402144B33F8221063
:1025B00004EB440203EB820250680022FFF7B8FAF2
:1025C000601CC4B2052CEED300240EE004EB4402E0
:1025D0000B4B33F8221004EB440203EB82025068E9
:1025E0000022FFF7A5FA601CC4B2062CEED300222D
:1025F00002210448FFF79CFA10BD000004000020EF
:1026000040000020000801401FB500246846FFF785
:102610007FFA00210120FFF7B3FF00BF21E004EBA8
:1026200044012D4A02EB810188680121FFF748FE31
:1026300004EB4400284931F82000ADF800000220E6
:102640008DF80400012002908DF8030004EB440192
:10265000214A02EB810148686946FFF765F9601C71
:10266000C4B2052CDBD3002421E004EB44011B4A57
:1026700002EB810188680121FFF722FE04EB440090
:10268000164931F82000ADF8000002208DF8040052
:10269000012002908DF8030004EB44010F4A02EB85
:1026A000810148686946FFF73FF9601CC4B2062CF7
:1026B000DBD30220ADF800008DF804000120029069
:1026C0008DF8030069460648FFF72EF90022022123
:1026D0000348FFF72DFA1FBD040000204000002032
:1026E00000080140704710B5FEF7CEFE00F0A4F8D8
:1026F000FFF768FC10BD000030B500220023002564
:1027000000243448006840F480303249086000BF3B
:1027100030480068C0F340446D1C14B9B5F5005F43
:10272000F6D12C480068C0F340441CB92A482B4914
:10273000086030BDFEF7E6FF2948006820F003007E
:10274000274908600846006840F0010008602148F9
:10275000406820494860084640684860084640682C
:1027600040F480604860084640681E4908401949A6
:1027700048600846006C20F0010008640846426882
:1027800042F48032036C42F4003200BF42F4201263
:1027900042600364006840F08070086000BF0D482C
:1027A000006800F000700028F9D00A48406820F066
:1027B0000300084948600846406840F0030048604C
:1027C00000BF0448406800F00C000C28F9D100BF9D
:1027D000AFE700000010024000093D0000000020AB
:1027E00000200240FFFFC0F7012080F3138800BFE4
:1027F00000BF00BF00BF00BF00BFBFF34F8F00BFCF
:1028000000BF00BF0948006800F4E06008490843C1
:10281000001D0649086000BF00BF00BFBFF34F8F17
:1028200000BF00BF00BF00BF00BFFDE70CED00E030
:102830000000FA057047000070B500210020002359
:1028400000240022374D6D6805F00C01354D6D6A8E
:10285000C5F3021231B104290AD008290CD00C2981
:102860004DD10DE0304D55F82250304E35604CE0E2
:102870002F4D2E4E356048E02E4D2C4E356044E0F5
:10288000284D6D682C4E05EA0600264D6D6805F44E
:102890008033244D2D6C05F0010400F000651DB956
:1028A000022505EB904004E04FF4F875C5EB904528
:1028B000681C73B91B4D2D6C05F0010525B11D4D2C
:1028C00045431A4E356012E0194D4543174E3560A9
:1028D0000DE0144D6D6805F4003525B1174D4543E5
:1028E000124E356003E0134D4543104E3560022C07
:1028F00004D10E4D2D686D080C4E356005E00A4D73
:1029000055F82250094E356000BF00BF054D6D6877
:10291000C5F303150A4E715D044D2D68CD40034E7D
:10292000356070BD001002406452000800000020B5
:102930000024F40000127A0000003C0800093D0069
:102940005452000810B52B48406A40F00400294951
:1029500048620846406828490840264948600846B9
:10296000006826490840234908600846006820F4AA
:102970008020086008464068214908401D49486099
:102980000020C8624FF46050086300204863086468
:102990001C4888600846C06940F08050C8611A48E9
:1029A000006800F48060B0F5806F0CD100BF17485C
:1029B000006820F00070154908600846006840F083
:1029C0000070086000BF1248006840F09000104995
:1029D00008600846006800F4807020B1084600686E
:1029E00020F400700860FFF787FE4FF0006009498F
:1029F000086010BD0010024000C0FFF8FFFFF6FEA7
:102A0000FFFF00070080BF04007000402018004056
:102A10000020024008ED00E010B50121054800F05B
:102A2000DCF928B10121034800F040F900F062F818
:102A300010BD000000100040F0B50446DDE9055669
:102A40000DB90020F0BD0520B1FBF0F00D4F47F8A7
:102A5000240007F1500040F82420283040F82430AA
:102A60006F1E283040F824700520B1FBF0F70548B0
:102A7000283040F82470A030065501270A30075549
:102A80000120DFE79801002010B50246184890F8B1
:102A90000501401C052390FBF3F403FB14031448C9
:102AA00090F80401834201D1002010BD104890F835
:102AB0000531DC3040F83320DC3890F80531DC306B
:102AC00000EBC30041600A4890F80501401CC3B206
:102AD000074880F8053190F80501052390FBF3F4D1
:102AE00003FB1400C3B2024880F805310120DCE783
:102AF0009801002010B5002450E02A4850F8240026
:102B0000002848D02748AA30005D00B944E0254895
:102B100050F82400401E234941F82400084650F88C
:102B2000240010BB01F1A000005D40B901F150028A
:102B300052F82400283A52F82410884708E0194A2D
:102B4000503252F82410283A52F82400FFF79CFF24
:102B50001448783050F82400002807DA1148283843
:102B600050F82410283040F8241014E00D48783034
:102B700050F8240000280EDD0A48283850F82410A8
:102B8000283040F82410783050F82400401E0549C1
:102B9000783141F8240000BF601CC4B20A2CACDBC1
:102BA00010BD0000C00100207047000010B50024D7
:102BB00019E00021134840F8241000201149283959
:102BC00041F8240010490F48283040F82410002113
:102BD000283040F82410283040F8241001213230E9
:102BE0000155601C44B20A2CE3DB0021054828385B
:102BF00080F8041180F8051100F008F800F01EF8C4
:102C000010BD0000C0010020A92B000810B545F63A
:102C1000BE51092000F096F910BD0000B0F1FF3F51
:102C200001D00A2800DB7047034951F820202831E1
:102C300041F8202000BFF6E79801002010B50121DF
:102C4000014800F0BFF810BD0010004070B500262C
:102C50000025134890F8041190F80501814200D135
:102C600070BD0F4890F80411DC3000EBC1052E68F0
:102C70006C682046B0470A4890F80401401CC1B275
:102C8000074880F8041190F80401052190FBF1F247
:102C900001FB1200C1B2024880F8041100BFDFE757
:102CA0009801002002698A430261704702698A43E1
:102CB000026170471AB183890B43838102E08389E3
:102CC0008B4383817047000010B504463548844229
:102CD00008D10121C014FFF703FB0021E014FFF726
:102CE000FFFA5EE0B4F1804F08D101210846FFF7FA
:102CF000D7FA00210120FFF7D3FA52E02A48844294
:102D000008D101210220FFF7CBFA00210220FFF7B2
:102D1000C7FA46E02548844208D101210420FFF784
:102D2000BFFA00210420FFF7BBFA3AE020488442B2
:102D300008D101210820FFF7B3FA00210820FFF78E
:102D4000AFFA2EE01B48844208D101211020FFF782
:102D5000A7FA00211020FFF7A3FA22E016488442C8
:102D600008D101212020FFF79BFA00212020FFF746
:102D700097FA16E01148844208D101214014FFF768
:102D8000AFFA00216014FFF7ABFA0AE00C48844266
:102D900007D101214015FFF783FA00216015FFF7E5
:102DA0007FFA10BD002C01400004004000080040E4
:102DB000000C0040001000400014004000340140AE
:102DC000003C004021B1026842F00102026003E0D1
:102DD000026822F001020260704730B5024600200E
:102DE00000230024156905EA0103958905EA010419
:102DF00013B10CB1012000E0002030BD0A460021D3
:102E00000168484B984211D0474B98420ED0B0F120
:102E1000804F0BD0454B984208D0454B984205D087
:102E2000444B984202D0444B984203D121F07001A8
:102E300053881943414B984206D0414B984203D0E6
:102E400021F44071D38819430160938883851388E6
:102E50000385344B984202D0334B984201D1137A08
:102E600003860123838201682E4B984211D02E4B9A
:102E700098420ED0B0F1804F0BD02C4B984208D026
:102E80002B4B984205D02B4B984202D02A4B9842AC
:102E900006D1537A13B141F4006101E021F40061DD
:102EA000254B984214D1937A13B141F4805101E03B
:102EB00021F48051D37A13B141F4005101E021F49F
:102EC0000051137B13B141F4804101E021F48041B2
:102ED000144B98420ED0144B98420BD0B0F1804F57
:102EE00008D0124B984205D0114B984202D0124B99
:102EF000984206D1537B13B141F4004101E021F423
:102F0000004101604168B0F1804F02D0084B984207
:102F100006D1937B13B141F4807101E021F48071FB
:102F200041607047002C0140003401400004004023
:102F300000080040000C0040003C00400010004031
:102F40000014004030B585B005460C460121102024
:102F5000FFF796F91548FFF7B7FEADF80850A0B295
:102F6000ADF804000020ADF80A00ADF806008DF8B9
:102F70000C0001A90D48FFF741FF01210B48FFF7A5
:102F800091FE012211460948FFF794FE33208DF887
:102F9000000002208DF801008DF8020001208DF85C
:102FA00003006846FFF714F805B030BD001000407C
:102FB00010B50446204600F001F810BD10B58AB0E7
:102FC000044601210920FFF77BF901218803FFF75F
:102FD00077F906A8FEF79CFD4FF40070ADF81800D5
:102FE00001208DF81A008DF81B0000208DF81C00C0
:102FF000022008900420099006A92048FEF794FCBE
:103000004FF48060ADF8180001208DF81A008DF89B
:103010001B008DF81C00002008900420099006A9D0
:103020001648FEF781FC02940020ADF80C00ADF8C4
:103030000E00ADF81000ADF814000C20ADF8120031
:1030400002A90F4800F0B0FD25208DF804000220F1
:103050008DF8050001208DF806008DF8070001A805
:10306000FEF7B6FF0121064800F05BFD012240F2A9
:103070002551034800F030FD0AB010BD00080140A2
:103080000038014030B501460022002309B9002074
:1030900030BD002304E0881CC05C4240581C83B251
:1030A000B1F8A200401E9842F5DCD043C2B2B1F89C
:1030B000A200401E8D1C2C5C944201D00020E7E74A
:1030C0000120E5E7F0B505462948B0F8D261B0F82F
:1030D000D44101B10AB90020F0BD601C032790FB68
:1030E000F7FC07FB1C00B04201D10020F4E74D20A3
:1030F00060431F4F3F1D27F8105000230CE011F8CC
:1031000001CB4D2060431A4F3F1D07EB4000801C50
:1031100000F803C0581C83B29342F0DB4D2060439B
:10312000134F3F1D07EB4000A0F89820381FB0F860
:10313000D401401C87B20E48A0F8D471B0F8D40175
:10314000032790FBF7FC07FB1C0087B20848A0F898
:10315000D4714FF0000CB0F8D4014D277843044FE0
:103160003F1D07EB4000A0F898C00120B4E7000025
:10317000A002002010B504462146054800F073FD6A
:1031800000BF4021024800F0D8FC0028F9D010BD53
:10319000004800402DE9F0410446B4F8D661B4F887
:1031A000D251B4F8D4810CB9BDE8F081454500D1C5
:1031B000FAE70FE0B4F8D671791CA4F8D6114D21C6
:1031C0006943221D02EB4101891CC85DFFF7D2FF54
:1031D000B4F8D6614D206843211D01EB4000B0F8E2
:1031E0009800B042E6DC00224D20684301EB40002D
:1031F000A0F89820B4F8D201401CA4F8D201B4F889
:10320000D201032190FBF1F201FB1200A4F8D201DC
:103210000021A4F8D61100BFC6E710B500B910BD53
:10322000002380F8D831A0F8D631A0F8D231A0F828
:10323000D431002109E000244D224A43031D03EB51
:103240004202A2F898404A1C91B20329F3DB00BF66
:10325000E5E7000010B58AB0044601210920FFF718
:103260002FF801218804FFF70BF806A8FEF750FCA1
:103270004FF48060ADF8180001208DF81A008DF829
:103280001B0000208DF81C000220089000200990EF
:1032900006A92048FEF748FB4FF40060ADF818007F
:1032A00001208DF81A008DF81B008DF81C000020FD
:1032B00008900520099006A91648FEF735FB0294F0
:1032C0000020ADF80C00ADF80E00ADF81000ADF820
:1032D00014000C20ADF8120002A90F4800F064FCA5
:1032E00027208DF8040002208DF8050001208DF8BC
:1032F00006008DF8070001A8FEF76AFE01210648C6
:1033000000F00FFC012240F22551034800F0E4FBDD
:103310000AB010BD000C01400048004010B54FF449
:103320001650FFF797FF0248FFF777FF10BD000028
:10333000A002002010B5024800F00AF810BD0000FD
:10334000A00200200149086070470000A002002090
:1033500010B504462046FFF71DFF10BD2DE9FE43C2
:1033600004464FF0FF090025A846002700200290E0
:103370000CB9BDE8FE83B4F80214B4F80404814229
:1033800000D1F6E7B4F8020400EBC00101EB4011F4
:1033900004F1CE0000EB8105A87855280ED0B4F8D2
:1033A0000204401CA4F80204B4F80204052190FBB6
:1033B000F1F201FB1200A4F80204DAE795F8059097
:1033C000B9F1B00F14D006DCB9F1010F0AD0B9F190
:1033D000030F7AD109E0B9F1B10F7CD0B9F1C00F78
:1033E000F7D182E000F043FC83E000F059FC80E07C
:1033F000FFF7D6F81420FEF7B8F92E7A3046FEF71C
:103400008DFD8046B8F1000F00D172E06F7A082E72
:1034100041D2DFE806F04004101C282E343A062F73
:1034200008DA012202213B48FEF782FB01213846DF
:1034300000F04AFC30E0062F08DA0122022135486C
:10344000FEF776FB0121384600F03EFC24E0052F14
:1034500008DA012202212F48FEF76AFB01213846D3
:10346000FEF7F8FD18E0012202212A48FEF760FB72
:1034700012E0012202212748FEF75AFB0CE001224C
:1034800002212448FEF754FB06E0012202212148D4
:10349000FEF74EFB00E000BF00BF4046FDF794FF83
:1034A00001201D49087000200863084680F8347028
:1034B00080F83560012000900923184A4FF47A61A2
:1034C00001900620FFF7B8FA01E011E003E014A034
:1034D00000F014FC0DE001200290FFF761F80122DA
:1034E00002A9B120FDF73DFC03E0FFF759F800E029
:1034F00000BF00BFB4F80204401CA4F80204B4F8F2
:103500000204052190FBF1F201FB1200A4F8020471
:1035100000BF2EE700080140D00B0020D1100008AA
:1035200020B2E9D1AFB1EDCDB7B5B5CEBBC3FCC1CB
:10353000EE0D0A0010B50146002209B9002010BDA9
:10354000B1F8040400EBC00303EB401301F1CE001B
:1035500000EB8302B2F8A20008B90020EFE7B1F84F
:103560000404401CA1F80404B1F80404052390FBF2
:10357000F3F403FB1400A1F804040023B1F80404DD
:1035800000EBC00404EB401401F1CE0000EB84001A
:10359000A0F8A2300120D2E710B500B910BD002379
:1035A00080F84037A0F83E37A0F83A37A0F83C370B
:1035B00000210CE0002301EBC10202EB411400F2F8
:1035C000064202EB8402A2F8A2304A1C91B20529FD
:1035D000F0DB002220F8C82F42808280C838002308
:1035E000A0F80234A0F8043400210CE0002301EB21
:1035F000C10202EB411400F1CE0202EB8402A2F8F8
:10360000A2304A1C91B20529F0DB00BFC6E70000DA
:1036100010B50548FFF7C0FF0448FFF793FE0448C4
:1036200000F03EF810BD00007C0400203536000894
:10363000C5300008F0B504461546124EB6F8CA006B
:10364000B6F8C82000230B78461CC82796FBF7FC69
:1036500007FB1C66964200D1F0BD0A4E3354B6F803
:10366000CA60761C074FA7F8CA603E46B6F8CA6023
:10367000C82796FBF7FC07FB1C66024FA7F8CA6039
:1036800000BFE9E77C04002010B5044800F00EF804
:103690000248FFF763FE00F05DF910BD7C040020D6
:1036A0000149C1F8440770477C0400202DE9F04728
:1036B0000446B4F8CA80B4F8C89000250027002654
:1036C0000CB9BDE8F087C14500D1FAE7B4F80404AD
:1036D00000EBC00101EB401104F1CE0000EB8105CD
:1036E000B4F8CC00265CB5F8A20090BB552E0ED0E5
:1036F00034F8C80F401C20802088C82190FBF1F2CC
:1037000001FB120020802088A080C83CD9E7B4F8D3
:103710000404401C052190FBF1F201FB1201B4F8F6
:103720000204814200D1CCE735F8A21F2888401C52
:1037300025F8A209A81C465434F8CC0F401C208060
:103740002088C82190FBF1F201FB120024F8CC097B
:103750007CE0FFE7B5F8A200A02811DB0020A5F867
:10376000A20034F8C80F401C20802088C82190FB9C
:10377000F1F201FB120020802088A080C83CA0E765
:1037800060E0B4F8CC00265C35F8A21F2888401C05
:1037900025F8A209A81C465434F8CC0F401C208000
:1037A0002088C82190FBF1F201FB120024F8CC091B
:1037B000B5F8A200062800DA44E0AF799A2F11DDAF
:1037C0000020A5F8A20034F8C80F401C20802088F3
:1037D000C82190FBF1F201FB120020802088A0801C
:1037E000C83C6EE7B5F8A210B81D814200DA29E0A6
:1037F0002846FFF747FC88B90020A5F8A20034F856
:10380000C80F401C20802088C82190FBF1F201FBEA
:10381000120020802088A080C83C52E7B5F8A27032
:1038200034F8C80F384420802088C82190FBF1F27A
:1038300001FB120020802088A080C83C2046FFF7B2
:1038400079FE3EE7B4F8CC0040459AD100BF38E796
:1038500070B50146134CB4F83A27B4F83C37B4F8C5
:103860003C4704EBC40505EB44150F4C04EB850005
:103870005C1C052594FBF5F605FB1644944200D12B
:1038800070BDB0F8A240A02C00DBF9E7B0F8A25060
:10389000841C6155B0F8A240641CA0F8A24000BF8F
:1038A000EEE700007C04002082080020F0B5002232
:1038B0000023264EB6F83A47B6F83C57B6F83C67B0
:1038C00006EBC60707EB4617214E06EB8700B0F85C
:1038D000A2106E1C052796FBF7FC07FB1C66A64290
:1038E00000D1F0BD052903DA0026A0F8A260F8E7B0
:1038F000A02900DBF5E74E1F8671002304E0861C3B
:10390000F65C72405E1CB3B2B0F8A2609E42F6DC78
:10391000D643B2B2861C7254B0F8A260761CA0F8EE
:10392000A2600A4EB6F83C67761CB7B2074EA6F8FE
:103930003C77B6F83C67052796FBF7FC07FB1C664F
:10394000B7B2024EA6F83C7700BFCAE77C0400205D
:10395000820800202DE9F0412648B0F83A47B0F837
:103960003C5704EBC40000EB4411234800EB8100FA
:10397000B0F8A26004EBC40000EB44111E4800EB59
:103980008100871C04EBC40000EB44111A4830F896
:103990002180AC4201D1BDE8F0811648D0F844073F
:1039A00000B9F8E7134832463946D0F84437404664
:1039B000984700B9EFE7002104EBC40000EB441284
:1039C0000D4800EB8200A0F8A2100A48B0F83A07B0
:1039D000401C81B20748A0F83A17B0F83A07052111
:1039E00090FBF1F201FB120081B20248A0F83A17F5
:1039F00000BFD0E77C0400208208002010B540F210
:103A000025510B4800F0A6F820B1094800F026F92E
:103A1000C4B200BF0821064800F08FF838B14FF457
:103A20005871034800F096F8014800F017F910BDEE
:103A30000038014010B540F22551164800F08AF8D0
:103A4000D0B1144800F00AF9C4B20320FFF7E6F839
:103A50001148407880B9104881888088401C0E4AFF
:103A60009080901D4454811F8888C11700EB11710C
:103A70000911A0EB011191800821064800F05DF8C2
:103A800038B14FF45871034800F064F8014800F071
:103A9000E5F810BD00440040D00B002008B540F20E
:103AA00025510B4800F056F888B1002000900848D6
:103AB00000F0D4F8C0B200900648006830B1054864
:103AC00001226946036840F6FF70984700BF08BDB1
:103AD00000480040A0020020F0B503460024002664
:103AE0000025002040F66A17B94200D100BF1846F1
:103AF000C1F3421401F01F06012707FA06F5012C55
:103B000001D10C3004E0022C01D1103000E014305F
:103B10001AB107682F43076002E00768AF430760E8
:103B2000F0BD21B1828942F40052828104E0828991
:103B30004DF6FF731A408281704702460020B1F5AE
:103B4000007F00D100BF13880B400BB1012000E0C3
:103B50000020704770B50246002400230025002095
:103B600040F66A16B14200D100BFC1F3421501F020
:103B70001F03012606FA03F3012D02D19689334073
:103B800006E0022D02D1168A334001E0968A3340C6
:103B90000C12012606FA04F41688344013B10CB155
:103BA000012000E0002070BD2DE9F04786B00546F9
:103BB0000F460024A24600BF00BF0026B88900B10E
:103BC00000BF2E462C8A4CF6FF700440F888044350
:103BD0002C82AC894EF6F3100440B888398908432A
:103BE000798908430443AC81AC8A4FF6FF40044016
:103BF000B8890443AC826846FEF78EFB14488642BF
:103C000005D01448864202D01348864202D1DDF81E
:103C10000CA001E0DDF808A00AEBCA0000EB0A10D6
:103C200039688900B0FBF1F86420B8FBF0F00401BA
:103C30002009642101FB1089322000EB0910B0FB40
:103C4000F1F000F00F0004432C8106B0BDE8F087CE
:103C5000003801400050014000540140014688886E
:103C6000C0F308007047C1F30802828070470CB5AA
:103C700000208DF802008DF8010001208DF8000071
:103C80008DF8030000208DF806008DF80500012056
:103C90008DF8040007226946FDF763F80CBD0000AB
:103CA0001CB5012000900023054AC821019009207D
:103CB000FEF7C2FE002211460320FDF752F81CBD9C
:103CC000E927000800BFFEE770B504460D46062C44
:103CD00001DA012D00DD70BD04EB4402064B33F820
:103CE000221004EB440203EB820250682A46FDF7DF
:103CF0001FFF00BFEFE70000400000200FB4054B9E
:103D000010B503A9044A029800F06AF910BC5DF8E6
:103D100014FB0000E9460008FC000020490050EABE
:103D2000C12018BF04204A0D18BF40F0010040F226
:103D3000FF72B2EB515F08BF40F00200012808BFDC
:103D4000052070472DE9F0414F1E00EBC7010446E6
:103D5000D1E9000115461E4637F006020DD02A466D
:103D60003346FCF7E9FA7F1E04EBC703D3E90023CF
:103D7000FCF741FD37F00602F1D1022F25D0042FC8
:103D800013D0062F18BFBDE8F0812A463346FCF752
:103D9000D3FAD4E90A23FCF72EFD2A463346FCF772
:103DA000CBFAD4E90823FCF726FD2A463346FCF774
:103DB000C3FAD4E90623FCF71EFD2A463346FCF776
:103DC000BBFAD4E90423FCF716FD2A463346FCF778
:103DD000B3FAD4E90223FCF70EFD2A463346FCF77A
:103DE000ABFAD4E90023BDE8F041FCF704BD0000C4
:103DF0000022134610460149FCF710BB0000F03FBB
:103E0000FCF7F9BC0022134610461146FCF706BB2E
:103E100040F2013200204FF0E041FCF793BD00007A
:103E2000024A00201107FCF78DBD000001FDFFFFD5
:103E300002E008C8121F08C1002AFAD17047704773
:103E4000002001E001C1121F002AFBD170470000D1
:103E50000149086070470000100100202DE9FF5F54
:103E600082B00021DDE90430020DDDF840B00343EB
:103E700018D044F61050A2F2FF32424315141198A4
:103E800001281FD0A5EB0B00401C5FEA000A4FF091
:103E900000064E4FDFF83891B046504615D5CAF1AE
:103EA000000413E0119801244AA3012801D16FEA0C
:103EB0000B010298119AC0E90031C0E9024206B034
:103EC000BDE8F09FCBF10000DFE704460021404A47
:103ED000491842EB0450CDE9001012E0E00707D08A
:103EE00032463B4640464946FCF726FA804689461C
:103EF00032463B4610461946FCF71EFA06460F4668
:103F00006410002CEAD1DDE90401DDE90023BAF1F7
:103F1000000F06DAFCF710FA42464B46FCF70CFAA3
:103F200005E0FCF77BFA42464B46FCF777FA04467D
:103F30000E460022284BFCF73BFB03D84FF0FF3026
:103F4000014607E00022254B20463146FCF753FC92
:103F5000FCF720FD102409E0002C0ADB0A220023D4
:103F6000FCF784FB039B30321A55641E50EA0102B1
:103F7000F2D1641C039AC4F111031444119A012A6A
:103F800003D0012208430DD10AE0084304D00020E9
:103F90004FF0110B119072E7A3EB0B056D1E0DE0B6
:103FA0005B4504DD4FF0000205F1010504E003DA92
:103FB0004FF00002A5F10105002AECD002981199FA
:103FC000C0E90231C0E9004579E700000000144073
:103FD0000000F03F300000000000F0430000E03F30
:103FE0002DE9FF4F95B09A46884606460025EEE13A
:103FF000252877D100242746F94A0121039400E0BF
:10400000044316F8013F203B01FA03F01042F7D1B8
:1040100030782A2811D06FF02F033078A0F13002C9
:10402000092A16D8039A44F0020402EB820203EB39
:1040300042021044761C0390EFE758F8042B0392D9
:10404000002A03DA504244F40054039044F002047E
:10405000761C30782E2816D116F8010F44F004048F
:104060002A280DD06FF02F023078A0F13003092BF1
:1040700009D807EB870302EB4303C718761CF3E765
:1040800058F8047B761C30786C280FD006DC4C285E
:1040900017D068280DD06A2814D104E0742810D0F5
:1040A0007A280FD10DE044F400140AE044F480149F
:1040B00001E044F440147278824202D104F5801485
:1040C000761C761C307866280BD013DC582877D005
:1040D00009DC002875D04528F6D04628F4D04728BA
:1040E0001AD193E118E0632835D0642879D0652887
:1040F00012D18BE1702873D008DC6728F1D06928D1
:104100006FD06E280DD06F2806D1ACE073282CD06C
:10411000752874D0782853D05246179990476D1C53
:1041200054E1C4F30250022809D003280DD0D8F876
:10413000001004280DD00D6008F1040846E1D8F8FD
:104140000010EA17C1E90052F6E7D8F800100D8018
:10415000F2E70D70F0E718F8041B8DF8001000204E
:104160008DF80100EB46012003E058F804BB4FF046
:10417000FF3061074FF0000102D40DE009F10101A9
:104180008946B9420FDA8145F8DB1BF8091000298E
:10419000F4D108E009F1010189468142FADB1BF8FC
:1041A00009100029F6D103985346A0EB09072146D0
:1041B0003846179A00F080FA284400EB090507E01A
:1041C00044E008E10DE01BF8010B524617999047B7
:1041D000B9F10109F7D2534621463846179AF2E061
:1041E00039E00A21C4F302524FF0000B0091022A79
:1041F00006D058F8040BC117032A09D00AE023E0BF
:1042000008F1070020F00702F2E80201904605E0FD
:1042100000B2C117042A01D140B2C117002906DA41
:104220000A460021404261EB02012D2202E02205F4
:1042300004D52B228DF80420012203E0E20701D0EF
:104240002022F7E7914657E00A2100E010214FF0C5
:10425000000B00910BE010214FF0000B44F0040420
:104260000827009103E008204FF0000B0090C4F3F2
:104270000252022A05D058F8040B0021032A08D064
:1042800008E008F1070020F00702F2E8020190467A
:1042900003E080B2042A00D1C0B24FF00009220727
:1042A0002AD53278702A07D0DDF800C08CF0100CC7
:1042B0005CEA0B0C05D00EE040228DF804200122B0
:1042C00008E050EA010306D030238DF804308DF861
:1042D000052002229146009B83F0080353EA0B035A
:1042E0000AD150EA010201D1620705D530228DF8CA
:1042F00004204FF001097F1E3278582A04D039A2D9
:104300000C920CAA02920BE03BA2F9E75B46009AE2
:10431000FCF7ACF90C9B9B5C029A521E0292137044
:1043200050EA0102F2D1029804A9081A00F1200B08
:10433000600702D524F4803400E001275F4502DDE8
:10434000A7EB0B0000E0002000EB0B0100900398AE
:104350004944401A0390E00306D453462146179A75
:10436000039800F0A9F90544002706E001A8524689
:10437000C05D179990476D1C7F1C4F45F6DBE0032D
:104380000CD553462146179A039800F095F9054439
:1043900004E030205246179990476D1C0099481E42
:1043A00000900029F5DC08E0029802995246007856
:1043B000491C0291179990476D1CBBF10001ABF1AC
:1043C000010BF1DC5BE100F065F90544761C307807
:1043D00000287FF40DAE19B02846BDE8F08F00002C
:1043E00009280100303132333435363738396162CB
:1043F000636465660000000030313233343536378F
:10440000383941424344454600000000600700D46B
:10441000062708F1070020F00700F0E80223804695
:1044200003F0004C5FEA0C0001D097A009E02005E2
:1044300001D596A005E0E00701D095A001E0AFF21C
:104440004C001390307823F0004365280CD006DC34
:10445000452809D046281DD047287FD13BE0662853
:1044600018D067287AD136E00021112F01DB112006
:1044700000E0781CCDE9000104A90CA8FFF7EEFCD0
:10448000DDE90D010C9A4FF0000B07F101091092C4
:1044900000914EE04FF000400097CDE9011004A9D3
:1044A0000CA8FFF7DBFCDDE90D020C9B0F994FF028
:1044B000000B91461093009211B9791C00EB010991
:1044C000B7EB090003D4C0F1FF3B07F10109A9EBE9
:1044D0000700019042E0012F00DA01270021112F8F
:1044E00001DD112000E03846CDE9000104A90CA847
:1044F000FFF7B4FCDDE90D010C9A00914FF0000BC1
:10450000B946109221070FD4009A4A4503DA914622
:1045100001E0A9F10109B9F1010F05DD109AA9F136
:104520000101515C3029F4D0B84202DA10F1040FD5
:1045300003DA0121CDE9011010E0002803DC8344F7
:10454000A9EB000102E0411C494500DD8946A0EBD2
:104550000B00401C01904FF000400290200705D452
:104560000198484502DB4FF0FF30019000208DF8A4
:104570004B0002980DF14B07B0F1004F25D00220FF
:104580000C902B200D90029800280CDA40420290EB
:104590002D200D9007E00A210298FCF751F83031E8
:1045A000029007F8011D0C99481E0C900029F2DCBE
:1045B00002980028EFD1791E0D980870307800F02D
:1045C000200040F0450007F8020D11A8C01BC01DD7
:1045D00002901398007800B1012000EB09010198C6
:1045E00001EBE071029801440398401A401E0390C9
:1045F000E00306D453462146179A039800F05CF86E
:1046000005441398007818B15246179990476D1CCD
:10461000E00323D553462146179A039800F04CF83F
:1046200005441BE0BBF1000F07DB0098584504DD93
:104630001098179910F80B0001E017993020524696
:10464000904701980BF1010B401E05F10105019007
:1046500004D12E205246179990476D1CB9F10001E4
:10466000A9F10109DEDC05E017F8010B52461799A4
:1046700090476D1C0299481E02900029F4DC5346B5
:104680002146179A03989EE62D0000002B0000009B
:10469000200000002DE9F041044600251E46174683
:1046A000880404D405E039462020B0476D1C641E00
:1046B000F9D52846BDE8F0812DE9F04104460025F2
:1046C0001E469046C80301D5302700E02027880405
:1046D00004D505E041463846B0476D1C641EF9D547
:1046E0002846BDE8F081000070B504460D46A1B231
:1046F0000548FFF7B8FA00BF40210348FFF71DFA4D
:104700000028F9D0204670BD0038014010B50028BF
:1047100021D0114B0022001F196803E0814203D809
:104720000A4649680029F9D152B11368841A9C429B
:1047300004D1006818441060104602E0506000E0A8
:10474000186039B102680B1A934203D10B681A44FE
:1047500002604968416010BD0801002072B6FDF793
:10476000C2FFFEF723FAFDF783FAFEF7D7FDFEF747
:104770004FFFFDF7ADFBFDF771FBFCF701FCFCF70C
:10478000EEFFFDF7C1FAFDF73FFF09A0FFF7B6FA0C
:1047900008A0FFF7B3FA62B609E0FEF757FAFCF794
:1047A0000DFCFEF7C7FDFEF76FFFFCF707FCF4E713
:1047B0000D0A0000B3F5CABCBBAFB3C9B9A621212D
:1047C0000D0A0000F0B50B30154D20F00701002454
:1047D000144A0FE003688B420BD38B4205D95E1A53
:1047E00043184768C3E9006700E04368136002C0EC
:1047F00004E0021D10680028ECD12046002802D1F8
:10480000286808B10020F0BD064A07481060074A32
:10481000121A22F00702C0E9002401202860D7E71D
:104820000C010020080100200C0C0020082C0020A6
:104830002DE9F04D1D460C4698B0174621F0004179
:1048400023F00043002814BF4FF0010C4FF0000C80
:104850000CEB440CFE4A0CEB02064FEA620C664578
:104860002BD33E0018BF012606EB45061644F94A35
:10487000964222D3F84A53EA070C02D0944205D15B
:1048800048B918B000201146BDE8F08D002808BFD7
:104890004FF0000C01D04FF0010C0CEB440212F56C
:1048A000001F0AD8002F14BF4FF0010C4FF0000C6E
:1048B0000CEB450212F5001F07D918B03A462B46FB
:1048C0002146BDE8F04DFFF79BBA0022DFF88CA32C
:1048D000002CB8BF534526DADFF884C36345A8BF70
:1048E000022220DADFF870C39C451CDCDFF874C3B9
:1048F0000CEB235CBCF1140F08DDCCF1340627FA75
:1049000006FC0CFA06F6BE420DD108E05FB9CCF108
:10491000140623FA06FC0CFA06F69E4203D10CF0AC
:104920000102C2F1020251EA000C19D1002D17DA7E
:10493000002C18BF022A01D0012A07D00220FFF75D
:1049400087FA18B0BDE8F04DFFF752BA0220FFF722
:104950007FFAFFF74DFA18B081F00041BDE8F08D05
:10496000B7F1000C6CD1534525D104F1804212F50A
:10497000801201BF00280020B74918B008BFBDE869
:10498000F08DB548884207DC002DA1BF604629465E
:1049900018B0BDE8F08D07E0281E05DA80F0004170
:1049A00018B06046BDE8F08DAF497944D1E9000107
:1049B00018B0BDE8F08DDFF8A0C2634525D1002D09
:1049C0001FDA19B1514512D1D8B909E0002840F0D9
:1049D000EC82A24A214618B062F31E01BDE8F08DB8
:1049E0000020214618B060F31E01BDE8F08D08DA02
:1049F00018B02346BDE8F04D024600206146FBF7A3
:104A00000DBD18B02146BDE8F08D514518DAB5F15D
:104A1000804F0DD0A5F1005CBCF1FF5C10D1B4F16A
:104A2000000C0DDB18B06146BDE8F04D00F0ECBBAA
:104A3000234618B00246BDE8F04D1946FBF77CBC92
:104A4000060024F0004C3BD1D9B1514533D1002CA4
:104A500006DD002DA1BF0020514618B0BDE8F08D45
:104A6000002C01DD002D1BDB002C13DA002D11DBE7
:104A7000012A4FF0000014BF78497C4918B0BDE806
:104A8000F08D022A18BF002C0AD0012A08D1002C70
:104A900006DA0AE0002CB8BF002D11DA012A04D092
:104AA000002018B00146BDE8F08D18B000204FF08E
:104AB0000041BDE8F08DA1F14050B0F17F601AD007
:104AC000012000EBE47050EA020421D0624C521E37
:104AD0004FF0000B104304BF4FF0000B644C6548CF
:104AE00083427CDD644A654893421FDD884217DBC0
:104AF000002D25DB37E0002C00DA4AB1022A0CBF7A
:104B000001204FF0FF3018B0BDE8F04DFBF731BF8A
:104B10000120FFF79DF918B0BDE8F04DFFF772B91D
:104B20004D4A8A4202DC002D0ADC1CE0814202DA96
:104B3000002D18DA04E0484B994220DD002D12DDEB
:104B40000220FFF785F9FFF763F905460E460022BC
:104B5000534658462146FBF7EFFB18B066F31E019B
:104B60002846BDE8F08D0220FFF772F9FFF758F9EB
:104B70000A46214618B062F31E01BDE8F08D0022FE
:104B800030466146FBF7D8FE80460E466FF00102C4
:104B9000FBF7D8FE4FF05532394BFBF7D0FE4246BB
:104BA0003346FBF7C9FB0022364BFBF7C8FE8246B3
:104BB00042463346049110461946FBF7BDFB524668
:104BC000049BFBF7B9FB8A4600904FF0C0422E4B86
:104BD00040463146FBF7B0FB2C4A2B4B00E027E068
:104BE000CDE9060151460098FBF7A6FB82460191EC
:104BF000274A284B40463146FBF79EFB5246019B15
:104C0000FBF79AFE82460B4602460591DDE9060156
:104C1000FBF7F1FDDDE90623002688463046FBF769
:104C20008BFE5246059BFBF78AFE024600F07EB9DA
:104C30000020B1F5801F07DA352230466146FBF7C8
:104C400081FE06466FF0340000EB215024E00000A6
:104C5000FFFF1F00FFFF0F000000F03F0000F07F8C
:104C60000000404301FCFFFFCA0900000000F0FF04
:104C70000000F0BF0000E0410000F043FFFFEF3F05
:104C80005555D53F0000E03F4715F73FFE822B65A5
:104C900044DF5DF80BAE543EA0F2FF300190C1F34B
:104CA000130040F07F6141F040510291FE4988427B
:104CB000D8BF002004DDFD498142C8BF012001DDCD
:104CC0000D9008E000200D900198401C0190029882
:104CD000A0F5801002900299F54878440B910D9947
:104CE00000EBC100D0E900230F9330460A920B99E4
:104CF000FBF722FECDE90601DDE90A2130460F9BD4
:104D0000FBF779FD02460B460020EA49FBF786FBDC
:104D1000059102460B460090DDE90601FBF70CFB0E
:104D20001490E5488A464FF00008784402990068DC
:104D300012904FF0005040EA61010D980F9B01EB7B
:104D4000804000F5002109910A9A1298FBF7F4FDC2
:104D500032460B9BFBF7F3FD42465346FBF7ECFA5A
:104D60000646029140465146099B129AFBF7E4FA27
:104D7000DDE90623FBF7E3FD3246029BFBF7DCFD92
:104D8000059B009AFBF7D8FA0091149A04905346B9
:104D900010461946FBF7D0FA06460246C7480B46AE
:104DA000029106217844FEF7CDFFCDE90510029B64
:104DB000324610461946FBF7BFFADDE90532FBF72C
:104DC000BBFA05910646534640461946149AFBF72E
:104DD00012FD009B049AFBF7AFFA3246059BFBF7E6
:104DE0000AFDCDE905104246534610461946FBF729
:104DF000A3FA0022B24B02910A90FBF7FCFCDDE91A
:104E00000532FBF7F8FC0E464246AD4B4046FBF739
:104E100093FD029B0A9AFBF78FFDDDE90532FBF754
:104E20008EFD424602910A90334610465146FBF7EA
:104E300083FACDE906015346149A02990A98FBF7C2
:104E40007BFA8A4602903346424600990498FBF763
:104E500073FA5346029AFBF7CEFC82460B46024693
:104E60000591DDE90601FBF7C6FCDDE9062300201C
:104E700088460646FBF760FD5246059BFBF75FFD43
:104E8000824609914FF060428E4B30464146FBF717
:104E900053FA049006918C4A8A4B50460999FBF7C5
:104EA0004BFA82460291894A894B30464146FBF7CC
:104EB00043FA5246029BFBF79EFC864B7B440D9ABD
:104EC00003EBC203D3E90023FBF795FC0E90079197
:104ED0000198FBF74EFD0591DDE9061382460E9A17
:104EE0000498FBF788FC7C4A7A440D9B02EBC303D1
:104EF000D3E9002300930292FBF77DFC5246059B09
:104F0000FBF779FC0026884652463046059BFBF7A6
:104F100013FD009B029AFBF70FFD069B049AFBF71B
:104F20000BFD079B0E9AFBF70AFD024600200B467D
:104F3000029038462946FBF7FFF9824601912B463D
:104F400038461946029AFBF7F7FC32464346FBF710
:104F5000F3F95246019BFBF74EFC07468A46324660
:104F6000434629460298FBF7E7F905460E463A46BE
:104F70005346FBF740FC594A8846914221DBA8EB97
:104F8000020353EA000210D12A463346FBF7D4FC51
:104F9000CDE90401524A534B38465146FBF72BFCEE
:104FA000DDE90423FBF704FB21D20220FEF750FFCA
:104FB000FEF72EFF0A46214618B062F31E01BDE837
:104FC000F08D494B28F000429A4210D3474A08EB33
:104FD000020353EA00027FF4C6AD2A463346FBF7CC
:104FE000ABFC3A465346FBF7E3FA7FF6BCAD002232
:104FF000019228F000403E493E4A01EB2051824296
:1050000023DA481C4FF4801121FA00F040443A4A58
:10501000C0F30A517A44394BA1F2FF31CB4020EA68
:105020000303C0F3130040F48010C1F11401C84021
:1050300012680190B8F1000FBCBF404201902846B1
:105040003146FBF779FC05460E462A46334638467C
:105050005146FBF7D0FB4FF000084246284B404634
:105060000591FBF769F9CDE90601264A264B404632
:105070000599FBF761F9009102902A4633464046B4
:105080000599FBF759FC3A465346FBF758FC1F4A73
:105090001F4BFBF751F9009B029AFBF7ACFB07464D
:1050A000884602460B4635E08E9803007AB60B0020
:1050B000120600000000F03F4A06000078050000DC
:1050C0000000084009C7EE3FFD033ADCF5015B1420
:1050D000E02F3EBE50040000140400000000904089
:1050E000FE822B654715973C00CC904000346F3F03
:1050F00001FCFFFF0000E03F60030000FFFF0F0026
:10510000432EE63F396CA80C615C20BEEF39FAFEF5
:10511000422EE63FDDE90601FBF76DFBDDE90623E4
:1051200005460E46FBF708FC3A464346FBF707FCEC
:105130000F462A463346009010461946FBF7FCF806
:10514000824602462E4888460B4605217844FEF7E3
:10515000F9FD52464346FBF7EFF82A463346FBF784
:10516000EEFB80468A463B4628463146009AFBF7CE
:10517000E3F83B46009AFBF73EFB069100900022C5
:105180004FF0804340465146FBF7D6FB0F460C904C
:105190004246534628463146FBF7CEF83B460C9A2A
:1051A000FBF73CF9069B009AFBF7C6FB2A46334601
:1051B000FBF7C2FB0022134BFBF7C1FB054601982E
:1051C0000E4601EB00510815002810DC2846314638
:1051D000019AFBF7B7FBFEF7A1FD042808BFFEF715
:1051E0001FFE28463146019AFBF7ACFB05460B46ED
:1051F00018B02A4658462146BDE8F04DFBF79CB84A
:10520000000200000000F03F2DE9F04106460F4685
:10521000FBF71BFC041E0D4618BF0120284320F09D
:105220000040C0F17F6000F1E040C00F0ED0301CA4
:1052300018BF0120384320F00040C0F17F6000F12A
:10524000E040C00F04BF0120FEF702FE20462946C1
:10525000BDE8F0810000000000000000010203042E
:1052600006070809A0860100400D0300801A060009
:1052700000350C0040420F0080841E0000093D00F4
:1052800000000000010203040102030406070809EC
:1052900001020406080A0C102020202020202020D3
:1052A000010002000400060008000A000C001000C3
:1052B0002000400080000001000100010001000109
:1052C000A0860100400D0300801A060000350C0086
:1052D00040420F0080841E0000093D00CDCC0C40F0
:1052E0003333D33FCDCC8C3FCDCC0C3F01060305EF
:1052F000000000000000F03F000000000000F83F48
:1053000000000000000000000000004003B8E23F81
:10531000000000000000000006D0CF43EBFD4C3E33
:10532000033333333333E33FFFAB6FDBB66DDB3F28
:105330004D268F515555D53F01411DA96074D13F70
:1053400065DBC9934A86CD3FEF4E454A287ECA3F6A
:105350003E5555555555C53F93BDBE166CC166BFEC
:105360002CDE25AF6A56113FF16BD2C541BDBBBEE5
:10537000D0A4BE726937663E000000000000000045
:10538000A05300080000002014010000303E000877
:10539000B454000814010020F42C0000403E000822
:1053A000006CDC0200020000000C0140080000005C
:1053B00000010000000C0140080000000001000096
:1053C000000801400400000000800000000C0140C3
:1053D0000800000000200000001001401000000044
:1053E00000800000000801400400000008000000E8
:1053F000000C01400800000010000000000C0140FB
:105400000800000020000000000C0140080000001F
:1054100040000000000C0140080000008000000077
:10542000000C01400800000000000000080000001F
:10543000000C01400040000008000000000C01408A
:105440000020000008000000000C014000100000D7
:1054500008000000000C01400200000008000000ED
:10546000000C0140010000000400000000080140A1
:10547000200000000400000000080140400000007F
:10548000040000000008014080000000040000004B
:1054900000080140040000000000000000000000BF
:1054A00000000000000000000000000000000000FC
:0454B00000000000F8
:0400000508000149A5
:00000001FF
