:020000040001F9
:10900000E83F0020C5930100EF930100F1930100B8
:10901000F3930100F5930100F793010000000000B5
:10902000000000000000000000000000F9930100B3
:10903000FB93010000000000FD930100FF9301007D
:10904000B9A1010001940100F1AB010001940100FC
:1090500001940100000000006D96010025A20100AE
:1090600001940100019401000194010001940100A8
:109070000194010001940100019401000194010098
:10908000019401000DA2010001940100019401006E
:1090900001940100019401002DA60100019401003A
:1090A0000194010001940100000000000000000094
:1090B0000194010001940100000000000000000084
:1090C00000000000000000000000000000000000A0
:1090D0000000000000000000000000000000000090
:1090E0000000000000000000000000000000000080
:1090F0000000000000000000000000000000000070
:10910000000000000000000000000000000000005F
:10911000000000000000000000000000000000004F
:10912000000000000000000000000000000000003F
:10913000000000000000000000000000000000002F
:10914000000000000000000000000000000000001F
:10915000000000000000000000000000000000000F
:1091600000000000000000000000000000000000FF
:1091700000000000000000000000000000000000EF
:1091800000000000000000000000000000000000DF
:1091900000000000000000000000000000000000CF
:1091A00000000000000000000000000000000000BF
:1091B00000000000000000000000000000000000AF
:1091C000000000000000000000000000000000009F
:1091D000000000000000000000000000000000008F
:1091E000000000000000000000000000000000007F
:1091F000000000000000000000000000000000006F
:10920000DFF810D000F0AAF90048004731DA010079
:10921000AFF30080E83F002030B450E8012F93B254
:10922000C48923448489A34228BF1B1B0489A34209
:1092300002BFBFF32F8F002007E0C3EA020340E81C
:109240000134002CE9D14FF001000A6030BC7047B6
:1092500050E8012FC2EA024240E801210029F7D17B
:10926000704730B450E8022F1FFAA2F3C488A3421B
:1092700002BFBFF32F8F00200DE0C48923448489EF
:10928000A34228BF1B1BC2EA034340E80234002C60
:10929000E8D14FF001000A6030BC704750E8022F5F
:1092A000C2EA224240E802210029F7D17047034672
:1092B00053E8022FD988B2EB324F4FF0000017BFAE
:1092C00092B241EA014142EA014104E05A68B2EB3C
:1092D000324F08BF012043E80212002AE8D170474C
:1092E00030B4044654E8000F0D4644E80053002B08
:1092F000F8D1156030BC704730B4044654E8000F14
:1093000040EA010544E80053002BF7D1156030BC5A
:10931000704730B4044654E8000F00EA010544E801
:109320000053002BF7D1156030BC704730B40446B1
:1093300054E8000F80EA010544E80053002BF7D100
:10934000156030BC704730B4044654E8000F00EBA1
:10935000010544E80053002BF7D1156030BC70477D
:1093600030B4044654E8000FA0EB010544E8005374
:10937000002BF7D1156030BC704770B404464FF035
:10938000000054E8006F0D68AE4207BF44E80023B8
:10939000012044E800630E60002B1CBF0020F0E7B2
:1093A00070BC704730B4044654E8000F88422CBFAC
:1093B000451A054644E80053002BF5D1156030BC32
:1093C000704700000F4800680F4909680A280AD151
:1093D000002908D10D4802686FF070031A404FF061
:1093E00040031A4302600A4880470A480047FEE7E4
:1093F000FEE7FEE7FEE7FEE7FEE7FEE7FEE7FEE745
:10940000FEE700003001001034010010E40E0040BF
:1094100045A60100019201002DE9F05F05460020FC
:1094200092469B4688460646814640241BE02846D5
:1094300041464746224600F081F853465A46C01A34
:10944000914110D311461846224600F016F82D1A05
:1094500067EB01084F4622460120002100F00DF87D
:1094600017EB00094E41201EA4F10104DFDC484641
:1094700031462A464346BDE8F09F202A04DB203AC5
:1094800000FA02F1002070479140C2F1200320FA57
:1094900003F3194390407047004870473C33020083
:1094A00040EA01039B0703D009E008C9121F08C066
:1094B000042AFAD203E011F8013B00F8013B521EE6
:1094C000F9D27047D2B201E000F8012B491EFBD25D
:1094D00070470022F6E710B513460A4604461946BF
:1094E000FFF7F0FF204610BD10B5044604E00B78EE
:1094F00000F8013B03B1491C521EF8D2204610BDB2
:10950000421C10F8011B0029FBD1801A704710B5CE
:10951000002200E0521C835C8C5CA34201D1002B32
:10952000F8D1D8B2E1B2401A10BD034611F8012BB0
:1095300000F8012B002AF9D118467047202A04DBD5
:10954000203A21FA02F00021704721FA02F3D040BC
:10955000C2F120029140084319467047064C074D5E
:1095600006E0E06840F0010394E8070098471034F3
:10957000AC42F6D3FFF748FE743A0200943A020078
:1095800070B58C1810F8015B15F0070301D110F8C5
:10959000013B2A1106D110F8012B03E010F8016BF2
:1095A00001F8016B5B1EF9D12B0705D40023521E75
:1095B0000DD401F8013BFAE710F8013BCB1A921CDD
:1095C00003E013F8015B01F8015B521EF9D5A142DB
:1095D000D8D3002070BD000010B50C480178007889
:1095E000401C0A4A107005290ED10020114608704F
:1095F00000F09AF80649088000F0ACF80A2803DA6F
:109600000321002000F016FD10BD00000C240020F6
:109610000A24002073B505460A4800884FF6FF71FA
:10962000884201D101207CBD0648038801AA294651
:10963000054802F03BFD04460CB90020F3E7E0B218
:10964000F1E70000F4230020D423002010B50246E7
:109650000B460024002100BF03E0505C4440481C3E
:10966000C1B29942F9DBE043C0B210BD2DE9F84F19
:109670000026002000904FF480770125002410E0A0
:10968000384605F077FC40B100BF25480068284007
:1096900018B1384605F060FC2E436D00381D87B2C6
:1096A000641C082CECD34FF4BE7005F063FC50B181
:1096B0004FF4BE7005F050FC46F000466A460121AA
:1096C000002005F0B3FBF0B210B3012500241DE02B
:1096D00005EA0600C0B100BF124850F82400C0F3EC
:1096E0000420814600BF0F4850F82400C0F3014019
:1096F0008246204602F0ACFE8046B8F1000F02D050
:1097000051464846C04700BF6D00641C082CDFD39B
:1097100006F0004010B1684607F054FDBDE8F88F30
:10972000046300401065004000B58FB0342101A8EB
:10973000FFF7CFFE0EA9002006F0BCFFBDF83800F1
:109740004FF4616210FB02F1C81701EB90508012D8
:109750000FB000BD00200D49098840F6E442914257
:1097600001DB642011E009490988B1F5FA6F01DCD9
:1097700000200AE005490988A1F5FA6164225143F5
:1097800040F2145291FBF2F1C8B270470A24002053
:109790000121014A11707047A829002030B500242A
:1097A00022E0002104EB84022E4800F8321000254C
:1097B0000BE04FF4004104EB84022A4800EBC200A6
:1097C000801C20F81510681CC5B2022DF1DB0025A5
:1097D00006E00021244800EB84004155681CC5B216
:1097E000042DF6DB601CC4B2062CDADB002405E095
:1097F000FF211C48C01E0155601CC4B2002CF7D0CC
:1098000000201849091F81F8F40000211548001FA5
:1098100080F8F51000240AE0072113481A3800F8F0
:109820001410052100EB44004170601CC4B20A2CE6
:10983000F2DB00200B49091F81F82C01087000F0B1
:109840006BF900200749091FC1F80C0100BF06E0B1
:10985000FF2206490A54891F0A54411CC8B206282F
:10986000F6DB30BDAC290020B82A0020DE2A00201B
:109870002DE9F04100270026B0460024002559E0DC
:1098800005EB85012D4800EBC1073978B81C00EBCA
:109890004104208800F40048208820F40046B8F1F4
:1098A000000F3BD1012E08D10021284600F050F9CD
:1098B000208800F4004020803AE0012E38DD204866
:1098C00030F8150006EB8601B0EB810F07D10221BD
:1098D000284600F03DF92088401C208028E01848E8
:1098E00030F81500174931F81510084406EB8601C9
:1098F000B0EB810F1CDC0321284600F029F92088F9
:1099000000F4004020800E4830F81500142190FB30
:10991000F1F0401C21880844208009E0012E07D185
:109920000121284600F014F9208800F4004020802E
:10993000681CC5B2062DA3DBBDE8F081AC29002070
:10994000902E02009C2E020010B500F029F8FFF7BF
:109950008FFF00F09BF810BD0149C1F80C01704762
:10996000A829002030B5062800DB30BD042900DB23
:10997000FBE702B9F9E700EB8005084C04EBC504EE
:10998000083444F8212000EB8005044C04EBC504A6
:10999000183444F8213000BFE7E70000AC2900206C
:1099A0002DE9F04700250027A846A946002635489E
:1099B000007808B9BDE8F0870020324908700846F1
:1099C000D0F80C0100B9F5E72E48D0F80C11401C76
:1099D0008847002451E004EB84012A48001D00EB75
:1099E000C1052978A81C00EB4106308800F4004925
:1099F000308820F400482046E21704EB5272D3105E
:109A0000204A521CD25C2146E31704EB5373DB104F
:109A1000A4EBC30C012303FA0CF302EA0307E117DA
:109A200004EB5171C910A4EBC101C1F10F0107FA98
:109A300001F18FB24F450ED147F6FF7080451ADA1B
:109A4000B8F1000F03D13088801C308013E03088DB
:109A5000401C30800FE02878401C2870287800EBEC
:109A6000D0714910A0EB41012970781C81B22A788D
:109A7000A81C20F81210601CC4B2062CABDB00BF7F
:109A800098E70000A82900207047000070B5002664
:109A9000204890F8F41090F8F500814200D170BD94
:109AA0001C4890F8F410F63010F81140F63890F891
:109AB000F410F63000EB41004578062C00DBEEE7B1
:109AC000042D00DBEBE704EB84011248001D00EBE2
:109AD000C100083050F8256004EB84020D49091DCF
:109AE00001EBC201183151F82500B047094890F840
:109AF000F400401C074981F8F400084690F8F4008F
:109B00000A2190FBF1F201FB1200024981F8F400F6
:109B100000BFC4E7A829002010B5002010E00021F4
:109B20000AE0094B00EB8004084A02EBC402083249
:109B300042F821304A1CD1B20429F2DB421CD0B2D7
:109B40000628ECDB10BD0000899A0100AC2900203A
:109B500070B504460D463049304A891AC9080322B7
:109B600042EA01402B4622462DA105F0A3FC3248D3
:109B700000EB8400405D30B100212F4800EB8400F1
:109B80004155002070BD2D4890F8280108B10020F3
:109B9000F8E72A4890F8F500401C0A2190FBF1F202
:109BA00001FB1200254991F8F410884211D1234895
:109BB00090F8F400401C214981F8F400084690F820
:109BC000F4000A2190FBF1F201FB12001B4981F81D
:109BD000F4001A4890F8F510F63000F81140F63805
:109BE00090F8F510F63000EB41004570134890F8FE
:109BF000F500401CC1B2114880F8F51090F8F5004E
:109C00000A2190FBF1F201FB1200C1B20B4880F86F
:109C1000F5100120B6E70000143B0200A43A020050
:109C20004B45594D53475F5448726F774D73673AB0
:109C30002564202D20256400B82A0020A8290020B2
:109C40003EB5044613A207CA8DE80700E0B28DF8BE
:109C500005001348008800128DF8060010480078AF
:109C60008DF80700FFF776FD8DF80800092168469A
:109C7000FFF7ECFC8DF809000A4800884FF6FF71E9
:109C8000884200D13EBD0A216846FFF7C3FC00BFF1
:109C9000F8E7000055A106010000000000000000E8
:109CA0000A240020F4230020F8B5074607260024E4
:109CB000FF25002000900E2005F004F9C5B26806CB
:109CC000050E0F2005F0FEF82843C5B26806050E04
:109CD0000C2005F0F7F82843C5B200BF10E0364865
:109CE000005D4006000E344908550846005D45FAFF
:109CF00004F101F0010108432F490855601CC4B26A
:109D0000032CECDB00242DE02B48005D3040B042FA
:109D10000DD12046E11704EB5171C910A4EBC1022B
:109D200001219140CAB22449891D0A5507E0224801
:109D3000005D304018B900211F48801D0155E11712
:109D400004EB5171C9101DF801101B4A921D125DE0
:109D500011432046E21704EB5272D2100DF80210A4
:109D6000601CC4B2032CCFDB9DF8000040F038002B
:109D700000909DF8000000F0030020B99DF800005D
:109D800020F0080000909DF8000000F0050020B9C8
:109D90009DF8000020F0100000909DF8000000F0F9
:109DA000060020B99DF8000020F0200000909DF8EA
:109DB00000003870F8BD0000D82A00203EB50446E7
:109DC00013A207CA8DE80700E0B28DF8050013481A
:109DD000008800128DF80600104800788DF8070002
:109DE000FFF7B8FC8DF8080009216846FFF72EFC44
:109DF0008DF809000A4800884FF6FF71884200D1AB
:109E00003EBD0A216846FFF705FC00BFF8E70000E9
:109E100055A1060100000000000000000A240020F7
:109E2000F42300207CB506F033FA044600BF254633
:109E300025B100BF284601F0B7FB00BF00BF244892
:109E40000068019001A9102006F08CFA0446204811
:109E5000001D0068009003208DF801001D4A69462E
:109E60000C2006F09BF9044600BF254625B100BF33
:109E7000284601F099FB00BF00BF164A69460E2034
:109E800006F08CF9044600BF254625B100BF2846E0
:109E900001F08AFB00BF00BF0E4A69460F2006F0A2
:109EA0007DF9044600BF254625B100BF284601F0D4
:109EB0007BFB00BF00BF01210C2006F019F9012136
:109EC0000E2006F015F901210F2006F011F97CBDD6
:109ED0007C2E0200ABD501001CB503210C2004F040
:109EE0005DFF03210F2004F059FF03210E2004F031
:109EF00055FFFFF753FC0648FFF72EFD0020411EDB
:109F00000346044ACDE90010142100F0EDFC1CBD0D
:109F1000A99C0100919701003EB504461AA207CA08
:109F20008DE80700E0B28DF805001A48008800129D
:109F30008DF80600174800788DF80700FFF70AFC37
:109F40008DF8080009216846FFF780FB8DF80900AD
:109F50009DF808301049114A891AC908032242EABB
:109F600001400C490A880EA105F0A4FA0E480088A9
:109F70004FF6FF71884200D13EBD0A216846FFF7C7
:109F800049FB00BFF8E7000055A1060100000000F2
:109F9000000000000A240020143B0200A43A020042
:109FA0002564202D20256400F423002010B50446EC
:109FB0000221012000F03EF810BD00001CB504464F
:109FC00019480078E8B1002017490870102004F003
:109FD0009CFF0020411ECDE9001014480023AFF281
:109FE00023024168022000F07FFC1148006810B98C
:109FF000022000F05FFD0E480068401E0C4908601A
:10A0000011E0012008490870102004F034FF0020FE
:10A01000411ECDE9001005480023AFF25F02016840
:10A02000022000F061FC1CBD44240020982900207F
:10A03000482400207CB504460D4624B9234850F836
:10A04000240000B17CBD05EB4500214951F82000FA
:10A05000204941F8340005EB45001D4901EB800023
:10A0600040681C4901EBC401486005EB45001849F4
:10A0700001EB80008068154941F8240094B9012063
:10A0800015490855102004F0F6FE0020411ECDE9C8
:10A090000010104850F834100023104A022000F03D
:10A0A00023FC11E001200C490855122004F0E3FEC6
:10A0B0000020411ECDE90010064850F8341000235E
:10A0C000074A032000F010FC00BFBBE74824002033
:10A0D000142400209829002044240020BD9F010062
:10A0E000E5A001001CB5044619484078E8B10020FD
:10A0F00017494870122004F008FF0020411ECDE9E6
:10A10000001014480023AFF22302C168032000F0BE
:10A11000EBFB1148406810B9032000F0CBFC0E485F
:10A120004068401E0C49486011E001200849487011
:10A13000122004F0A0FE0020411ECDE900100548C9
:10A140000023AFF25F028168032000F0CDFB1CBD4D
:10A1500044240020982900204824002010B5102015
:10A1600004F033FE122004F030FE142004F02DFE23
:10A17000102004F0CAFE122004F0C7FE142004F0E0
:10A18000C4FE10BD10B5032000F094FC0020074968
:10A19000886000210548C1600020054948700549D4
:10A1A0004860122004F0B1FE10BD00009829002084
:10A1B000442400204824002010B54FF4807004F09F
:10A1C0000EFA80B14FF4807004F012FA012004F00E
:10A1D00019FA0D48407930B901200B4948710846F9
:10A1E0000168002088474FF4827004F0F8F950B1FC
:10A1F0004FF4827004F0FCF9022004F003FA0248E4
:10A2000001680120884710BD6424002010B5034A6E
:10A210001068034A1168884710BD0000A024002080
:10A220009C240020FEB54FF4827005F0B7FB002897
:10A2300037D04FF4827005F0BBFB6C4890F82E00CD
:10A2400018B16A4890F82F0058B300208DF800002C
:10A2500066484068019065480189ADF80810C068FB
:10A2600018B900206149087412E06048008B5F490A
:10A2700048830846C06848600846008B0881002073
:10A28000C860084690F82E0010B9002005F0A8FB21
:10A2900056480168684688470020544981F82F00D5
:10A2A00000BF524890F82E00002852D04FF4807022
:10A2B00005F074FB00284CD04FF4807005F078FB5B
:10A2C0004A48408B494991F82D10884216DD47488D
:10A2D000408B464991F82D10401A444948830A465C
:10A2E00012890B465B8BD21A0B465B6803EB42006C
:10A2F0000A4692F82D1005F03DFB23E03B48408BC9
:10A300003A4991F82D1088420FD13848C06860B1A1
:10A310000120364981F82F00002048830A4692F830
:10A320002D10D06805F026FB0CE03048408B2F49FB
:10A3300091F82D10884205D101202C4981F82F0079
:10A34000002048834FF4827005F032FB042005F0B2
:10A3500047FB4FF4887005F021FB70B14FF4887013
:10A3600005F026FB00202149087402208DF800002A
:10A37000084601686846884700BF4FF48A7005F0B8
:10A380000DFB38B14FF48A7005F012FB002017491D
:10A3900008742AE01548456924E0B5FA85F64FF0BF
:10A3A0000040F0408543B00000F58C74204605F075
:10A3B000F5FAB8B1204605F0FBFA01208DF800004F
:10A3C000A4F58C70C0F3C7008DF80400A4F58C7060
:10A3D000012121EA90018DF80510044801686846C2
:10A3E000884700BF002DD8D100BFFEBD542D0020EE
:10A3F00010B500F005FC10BD2DE9F0470746884672
:10A400001646C24607EB47011B4800EBC109D9F8C5
:10A41000140020B1012811D0022826D11EE04846A0
:10A4200000F026FC0546B54201D2002405E0344682
:10A4300032465146484600F062FC18E0484600F0BB
:10A4400017FC0546B54201D2284600E030460446D6
:10A4500022465146484600F052FC08E0324651463A
:10A46000484600F013FC044601E0002400BF00BF92
:10A470002046BDE8F0870000743500201CB5044676
:10A4800054480078534948700846047000780528FD
:10A490007ED2DFE800F003044458920098E0FFF712
:10A4A00071FE012000900423AFF22F024EF66021CE
:10A4B000019000F019FAFFF72FFB0023464A012113
:10A4C0001846FFF74FFA0023434A01210846FFF7D9
:10A4D00049FA0023404A01210220FFF743FA0223F0
:10A4E000AFF2670219460320FFF73CFA394840787B
:10A4F000022803D1002000F069FF0FE035484078C2
:10A50000032805D108F082F9002000F05FFF05E084
:10A5100008F07CF902210120FFF78CFD58E00120B2
:10A5200000F054FF012000900346AFF2AF024EF658
:10A530006021019000F0D8F9FFF7EEFA0021012028
:10A54000FFF778FD44E0012000F0B4FA012000900C
:10A550000023224A42F210710190042000F0C4F955
:10A56000FFF7DAFA04231E4A00210846FFF7FAF93A
:10A5700020231C4A00210120FFF7F4F940231A4A46
:10A5800000210220FFF7EEF90023134A012100E029
:10A590001DE01846FFF7E6F900230F4A012108469F
:10A5A000FFF7E0F900230C4A01210220FFF7DAF956
:10A5B00001210846FFF73EFD0AE0102004F0B0FC40
:10A5C000122004F0ADFCFFF72DFC33DF00E000BFEC
:10A5D00000BF1CBD50240020AD9F0100B1AB0100A5
:10A5E000199F0100BD9D0100419C010010B5002094
:10A5F00003490870487088700120FFF73FFF10BDC5
:10A60000502400200848007830B1012805D00228E5
:10A6100004D0032804D102E003E002E001E000E0FE
:10A6200000BF00BF704700005024002010B505F0A7
:10A6300007FC10BD01480249086070470090D00334
:10A640005025002010B503F087FB28B195480088FD
:10A65000C0F304209449086003F0E6FB10B193486E
:10A660009349486703F036FC30B18E48E038006803
:10A67000C0F342308F49086003F066FC28B18E4871
:10A68000006820F080708C49086003F07DFC48B1C0
:10A6900000208A4908604FF08041C1F810018549C7
:10A6A000091F086003F0AAFC18B103208149643136
:10A6B000086003F0C3FC68B10520814908600120EF
:10A6C0007F497831086000207D49083108603F20CB
:10A6D000091F086003F0D2FC002855D07148E03013
:10A6E0000068784908606F48E4300068091D086018
:10A6F0006C48E8300068091D08606A48EC30006862
:10A70000091D08606748F0300068091D0860654849
:10A71000F4300068091D08606248F8300068694933
:10A72000203108605F48FC300068091D08606648F9
:10A730000068091D08606448001D0068091D086064
:10A74000614808300068091D08605F480C300068E7
:10A75000091D08605C48103000685A4940310860A3
:10A76000594814300068091D0860574818300068BF
:10A77000091D086054481C300068091D08605248D3
:10A7800020300068091D086003F0B6FA10B1FB2004
:10A790004E49086003F0B2FA30B14248CC38006844
:10A7A00000F04F004A49086003F004FB40B14948FB
:10A7B000006800F0010018B16FF001004549086021
:10A7C00003F052FB28B14448006840F480604249DD
:10A7D000086003F069FB28B13D48006840F00F00B5
:10A7E0003B4908603D48006800F0004028B93B48FC
:10A7F000001D006800F0004010B3012038490860D7
:10A8000000BF384800680028FBD015203349086095
:10A8100000BF344800680028FBD015212F48001DD8
:10A82000016000BF2F4800680028FBD000202C49A1
:10A83000086000BF2B4800680028FBD000F09AFA9F
:10A840002648007800F0010028B92448001D00784F
:10A8500000F0010010B301202149086000BF214829
:10A8600000680028FBD000201C49086000BF1D487C
:10A8700000680028FBD000201849091D086000BFAF
:10A88000184800680028FBD000201549086000BF68
:10A89000144800680028FBD000F06CFAFFF7CAFEED
:10A8A00010BD000024030010403501400DF0ADBA8A
:10A8B00000C007403C050040FCED00E00C010040FA
:10A8C0001056004020C500402404001018F5004038
:10A8D000E40E0040000400403C170040001200104D
:10A8E00004E5014000E40140F0B50446DDE9055609
:10A8F0000DB90020F0BD0A20B1FBF0F00D4F47F874
:10A90000240007F1280040F82420143040F82430B7
:10A910006F1E143040F824700A20B1FBF0F7054890
:10A92000143040F82470503006550127401D07555B
:10A930000120DFE7082B002010B50246184890F8E8
:10A940009900401C052390FBF3F403FB1403144807
:10A9500090F89800834201D1002010BD104890F873
:10A960009930703040F83320703890F8993070305A
:10A9700000EBC30041600A4890F89900401CC3B244
:10A98000074880F8993090F89900052390FBF3F47C
:10A9900003FB1400C3B2024880F899300120DCE7C1
:10A9A000082B002070B5054600244CE0274850F8DD
:10A9B0002400002844D025485530005D00B940E00F
:10A9C000224850F82410491E40F8241050F8240062
:10A9D00060BB1E483C3050F82400002807DA1B48B2
:10A9E000143850F82410143040F8241012E017489E
:10A9F0003C3050F8240000280CDD1448143850F87E
:10AA00002410143040F824103C3050F82410491E13
:10AA100040F824100D485030005D40B90B4A2832F0
:10AA200052F82400143A52F82410884708E0074AE4
:10AA3000283252F82410143A52F82400FFF77CFF11
:10AA400000BF601CC4B2052CB0DB70BD1C2B002005
:10AA50007047000010B5002419E00021134840F8A9
:10AA6000241000201149143941F8240010490F48DE
:10AA7000143040F824100021143040F82410143011
:10AA800040F82410012119300155601C44B2052CF6
:10AA9000E3DB00210548143880F8981080F89910FD
:10AAA00000F090F800F042F810BD00001C2B0020D0
:10AAB00051AA01000146B1F1FF3F01D0052900DB99
:10AAC00070470023174A42F82130143A92F8980050
:10AAD00020E0144A5C3252F83030483A52F82120D3
:10AAE00093420FD10F4A5C3202EBC00253680D4A09
:10AAF000283252F82120934204D10B4B094A5C3290
:10AB000042F83030421CD0B2052290FBF2F302FB37
:10AB10001302D0B2034A143A92F899208242D8D153
:10AB200000BFCDE71C2B002051AA010070B5002406
:10AB30000022A4210748006800F092FD044600BFEF
:10AB4000254625B100BF284600F02EFD00BF00BFFE
:10AB500070BD0000A82E020070B500260025134825
:10AB600090F8981090F89900814200D170BD0F487C
:10AB700090F89810703000EBC1052E686C68204684
:10AB8000B0470A4890F89800401CC1B2074880F8C6
:10AB9000981090F89800052190FBF1F201FB12004B
:10ABA000C1B2024880F8981000BFDFE7082B0020F0
:10ABB00010B5044613210248008876DF10BD00005E
:10ABC000F423002070B50024074A0121074800F053
:10ABD00001FD044600BF254625B100BF284600F010
:10ABE000E3FC00BF00BF70BDA5A90100A82E0200B4
:10ABF00010B502490868804710BD00006C24002091
:10AC000010B5124C02202061606111A0A0611349AF
:10AC1000E1614FF4007121620021A1626162E16291
:10AC20000BA0A0640E49E164102121650021A165FB
:10AC30006165E1650BA1E01DFEF777FC0AA12046E6
:10AC4000FEF773FC2020A07110BD00005C350020D1
:10AC50005465726D696E616C00000000D43500208F
:10AC6000D437002052545400534547474552000002
:10AC700010B501460A69CB689A4204D88C68641EF4
:10AC8000E41AA01801E0D41A601E10BD2DE9F047A7
:10AC90000446894617464FF0000AE56800BFD4F81D
:10ACA0001080A84503D9A8EB0500461E04E0A5EBDB
:10ACB0000800401CA1680E1AA068401BB04201D9D0
:10ACC000304601E0A068401B0646BE4201D2304635
:10ACD00000E0384606466168481932464946FEF7A4
:10ACE000DFFBB244B144BF1B3544A068A84200D189
:10ACF0000025E560002FD2D15046BDE8F0872DE950
:10AD0000F047044689461546E668A068871BAF42AF
:10AD100008D9616888192A464946FEF7C1FB7019AF
:10AD2000E06010E0B8466168881942464946FEF77F
:10AD3000B7FBA5EB070809EB070142466068FEF781
:10AD4000AFFBC4F80C80BDE8F08700000FB4084BDF
:10AD500010B504A902AA039800F05EF8044602A9FF
:10AD6000002000F084FA204610BC5DF814FB0000BF
:10AD70006FB2010000BF00BF00BFBFF34F8F00BF25
:10AD800000BF00BF0948006800F4E06008490843BC
:10AD9000001D0649086000BF00BF00BFBFF34F8F12
:10ADA00000BF00BF00BF00BF00BFFDE70CED00E02B
:10ADB0000000FA0502E008C8121F08C1002AFAD1F3
:10ADC00070477047002001E001C1121F002AFBD12B
:10ADD000704700000146202908DA012088400A4A0D
:10ADE000104008B1012070470020FCE7402909DA33
:10ADF000A1F12000012202FA00F008B10120F2E7DF
:10AE00000020F0E70120EEE7FC06FFBD00BFEFF3F6
:10AE10001081084672B670472DE9FF4F8DB00F467E
:10AE20000546002606E025280BD0DDE90F129047E5
:10AE30006D1C761C28780028F5D111B03046BDE88D
:10AE4000F08F0024A246A1460122E94900E0044314
:10AE500015F8013F203B02FA03F00842F7D12878A9
:10AE60002A2810D06FF02F022878A0F1300109298C
:10AE700014D80AEB8A0102EB410144F0020400EB12
:10AE8000010A6D1CF0E701CF5FEA000A03D544F424
:10AE90000054CAF1000A44F002046D1C28782E28E0
:10AEA00017D115F8010F44F004042A280ED06FF0D2
:10AEB0002F022878A0F1300109290AD809EB89016D
:10AEC00002EB410100EB01096D1CF2E757F8049B0E
:10AED0006D1C28786C280FD006DC4C2817D0682809
:10AEE0000DD06A2814D104E0742810D07A280FD12C
:10AEF0000DE044F400140AE044F4801401E044F44A
:10AF000040146978814202D104F580146D1C6D1CD7
:10AF100028786E281ED00CDC632830D004DC002892
:10AF20008BD0582811D19FE0642867D069280CD1B4
:10AF300064E073282DD004DC6F2872D0702804D10F
:10AF400094E075286ED078286DD0DDE90F12904717
:10AF5000761C4BE1C4F30250022806D0032809D026
:10AF6000042801CF09D0066040E101CFF117C0E904
:10AF700000613BE101CF068038E1067036E117F849
:10AF8000040B8DF8000000208DF80100EB46012035
:10AF900003E057F804BB4FF0FF3061074FF00001AA
:10AFA00002D40DE008F10101884649450FDA8045D9
:10AFB000F8DB1BF808100029F4D108E008F10101C2
:10AFC00088468142FADB1BF808100029F6D1DDE93A
:10AFD0000F23AAEB08008146214600F031F93044E6
:10AFE00000EB080604E0DDE90F121BF8010B9047A7
:10AFF000B8F10108F7D221464846F2E00A21C4F32D
:10B0000002524FF0000B0891022A04D001CFC11761
:10B01000032A09D00AE0FF1D27F00707F7E802011D
:10B0200008E02CE01EE01FE000B2C117042A01D1A5
:10B0300040B2C117021E71F1000206DA0023D0EB04
:10B04000030063EB01012D2202E0220504D52B222F
:10B050008DF82420012203E0E20701D02022F7E747
:10B06000904653E00A210BE0102109E010214FF037
:10B07000000B44F004044FF00809089103E0082194
:10B080004FF0000B0891C4F30252022A04D001CF02
:10B090000021032A06D006E0FF1D27F00707F7E886
:10B0A000020103E080B2042A00D1C0B24FF00008D0
:10B0B00022072BD52A78702A07D0DDF820C08CF023
:10B0C000100C5CEA0B0C05D00EE040228DF8242019
:10B0D000012208E050EA010306D030238DF8243025
:10B0E0008DF8252002229046089B83F0080353EA3E
:10B0F0000B030BD150EA010201D1620706D53022C1
:10B100008DF824204FF00108A9F101092A78582A66
:10B1100004D038A20B9208AA0A920BE03AA2F9E7EF
:10B120005B46089AFEF778F90B9B9B5C0A9A521EC5
:10B130000A92137050EA0102F2D10A98ADEB0000B6
:10B1400000F1200B600702D524F4803401E04FF0B9
:10B150000109D94502DDA9EB0B0000E0002000EB5E
:10B160000B0141440890AAEB010AE00306D4DDE993
:10B170000F232146504600F063F806444FF00009C3
:10B1800008E009A911F80900DDE90F12904709F15B
:10B190000109761CC145F4DBE0030CD5DDE90F2382
:10B1A0002146504600F04CF8064404E0DDE90F1259
:10B1B00030209047761C0899481E08900029F5DC3D
:10B1C00008E00A980A990078491C0A91DDE90F12F3
:10B1D0009047761CBBF10001ABF1010BF1DC21467D
:10B1E0005046DDE90F2300F019F806446D1C21E6F6
:10B1F000092801003031323334353637383961624D
:10B200006364656600000000303132333435363710
:10B210003839414243444546000000002DE9F041E1
:10B22000044600251E461746880404D405E0394626
:10B230002020B0476D1C641EF9D52846BDE8F0817A
:10B240002DE9F041044600251E469046C80301D56D
:10B25000302700E02027880404D505E04146384621
:10B26000B0476D1C641EF9D52846BDE8F0810A6818
:10B27000531C0B6010707047014601F0030008B9C1
:10B28000012070470020FCE7024650680068401E1D
:10B29000084008B9012070470020FCE70246002161
:10B2A00004E0505C08B101207047491C0629F8D31E
:10B2B0000020F9E710B50346D868884206D88818F8
:10B2C000401E1C69A04201D8012010BD0020FCE7EF
:10B2D00010B504466CB10848C068A04209D80648B9
:10B2E0000069A04205D3204602F0F3FA08B101201C
:10B2F00010BD0020FCE700005425002070B5044676
:10B300000D4604F1EB00FFF7C9FF0646012D06D0FC
:10B31000022D0DD0032D11D0042D19D113E0A079E9
:10B3200028B194F8240010B90EB1012070BD00BFFF
:10B33000E07910B10EB10220F8E700BF207A08B121
:10B340000320F3E700BF607A08B10420EEE700BFF6
:10B350000020EBE70146481C052290FBF2F302FBBC
:10B360001300C0B27047014691F82420012A01D190
:10B370001F2000E01F20704710B50122022100208D
:10B3800000F092FF044600BF1CB1072C01D02046FC
:10B3900010BD00BF07220221012000F085FF0446F6
:10B3A00000BF1CB1072C01D02046F1E700BF0A22E4
:10B3B0000021084600F078FF044600BF1CB1072CAE
:10B3C00001D02046E4E700BF0020E1E770B588B077
:10B3D00005460020039004900590069002903248A4
:10B3E00000788DF808004FF0805090F8A5008DF897
:10B3F00009002D48801E00788DF80A0000BF9DF8D6
:10B400001C0020F00F00401C07909DF81C0020F04D
:10B41000F0001030079000BF5DB19DF80A00009069
:10B420009DF809309DF8082020A103A8FFF78EFCA5
:10B430000AE09DF80A0000909DF809309DF8082068
:10B440001EA103A8FFF782FC1F4991F8540074DF86
:10B45000044600BF264626B100BF304600F0A4F8DF
:10B4600000BF00BF03A8FEF74BF886B2324603A91F
:10B4700007A87CDF044600BF264626B100BF304641
:10B4800000F092F800BF00BF07F08CF907F0BEF99A
:10B490000E490F4A891AC908032242EA01400DA148
:10B4A00003F0F2FF08B070BDA6000010504B33311E
:10B4B000572D257825782578000000004B3331572B
:10B4C0002D2578257825780084250020143B02005E
:10B4D000A43A0200616476206E616D652075706427
:10B4E0006174652E2E2E000010B572B600BF04F0F8
:10B4F000C1F800BF00BF03F039FE0028FBD100BF38
:10B5000000BF1E491E4A891AC908012242EA0140A9
:10B510001CA103F0B9FF00BF1D48006800F0010046
:10B5200000B100BE00BF1549154A891AC908022298
:10B5300042EA014017A103F0A7FF00BF00BF00BF10
:10B5400000BF00BFBFF34F8F00BF00BF00BF104858
:10B55000E438006800F4E06012490843001D0C491B
:10B56000E439086000BF00BF00BFBFF34F8F00BFCA
:10B5700000BF00BF00BF00BFFDE70000143B02009A
:10B58000A43A0200466174616C206572726F7200A9
:10B59000F0ED00E053797374656D20726573657426
:10B5A000000000000000FA053EB5044600200090AF
:10B5B0000190029002946A46002144F20100FFF7D4
:10B5C00093FF3EBD10B5024801F04CFA10BD0000DB
:10B5D0007824002010B503460C460AB9072010BD98
:10B5E00019684A61012C01D1012000E000200861A6
:10B5F0000020F4E738B5134800680090082358226B
:10B6000011491248006802F07EFD04460CB1204644
:10B6100038BD0F4A69460F4801F02AFA04460CB1BA
:10B620002046F5E701210B4801F0C8FA01230A4A38
:10B630001946084801F0E8F9012008490870204639
:10B64000E6E70000CC2F0200842D0020BC2F020072
:10B65000871A020078240020FFFF7F008424002046
:10B660002DE9F04106460D4617463446207F10B1BD
:10B670000020BDE8F081A76101F048FF401941F1C9
:10B680000001C4E90201206900B1256121460020C2
:10B6900006F038FFEDE770B5044625460020287710
:10B6A0002946012006F02EFF70BD10B50446204645
:10B6B00006F05CFB10BD000070B5044625460E4840
:10B6C0008068B0B1ADB9FFF7A1FB06460A48006833
:10B6D0000A490860084840684FF0E021C1F80401B9
:10B6E0000020054988601EB900BF62B600BF00BFD8
:10B6F00000BF00BF70BD0000EC2D002000E100E0A5
:10B70000F8B505460C4617462088001DB84201D9F9
:10B710000C20F8BD684679DF064600BF304600B110
:10B72000F7E700BF0320218868542088401C208050
:10B730001920218868542088401C208020884119C5
:10B74000BDF8000006F02EFF21880844208000206C
:10B75000DFE70000002114E00C48D0F8102401239A
:10B7600008E000BFD0680079884201D1002303E0DF
:10B77000D0680268002AF4D100BF0BB108467047B8
:10B78000491C0A29E8DB4FF0FF30F8E73C31002084
:10B790002DE9F04104460F46154615B90E20BDE8C7
:10B7A000F0810020286000BF0CB90E20F7E700BF31
:10B7B00000BF206808B90E20F1E700BF00BFE08895
:10B7C000C11700EB91718910A0EB810109B107202D
:10B7D000E5E700BF384600F0B5FAC6B2142E01D135
:10B7E0000520DCE72079B04201DC0420D7E7E188BE
:10B7F000206806FB010028600020D0E72DE9FC410D
:10B80000054688461646002437880020308095F883
:10B810002D0058B13A463146404600F0ABFA044696
:10B8200000BF204608B1BDE8FC8100BFA87850B138
:10B830003A4631464046FFF763FF044600BF2046C4
:10B8400000B1F0E700BFE87860B1E97848B23B4664
:10B850003246414601F0D1FB044600BF204600B10C
:10B86000E1E700BF686868B1696891F900003B468C
:10B870003246414606F075FE044600BF204600B140
:10B88000D1E700BF288900280EDD434606220221A9
:10B8900005F10800CDE9006707F0C4F8044600BFD1
:10B8A000204600B1BFE700BF288A00280EDD4346CE
:10B8B0000722032105F11000CDE9006707F0B2F877
:10B8C000044600BF204600B1ADE700BF288B00282A
:10B8D0000EDD43461522142105F11800CDE900675D
:10B8E00007F0A0F8044600BF204600B19BE700BF68
:10B8F000286A58B13B4632464146286A00F078FF34
:10B90000044600BF204600B18DE700BF686A58B109
:10B910003B4632464146686A02F0CEF8044600BF14
:10B92000204600B17FE700BF95F82C0000280BDD12
:10B930003B4632464146284606F02CFB044600BFF3
:10B94000204600B16FE700BF287858B13B46324629
:10B950004146284602F06CF9044600BF204600B17B
:10B9600061E700BF20465EE7F8B504460E4615467F
:10B97000002000902B466A463146204600F008F829
:10B9800007460FB90020F8BDBDF800002044FAE7D3
:10B99000F0B504460D461E4604B10AB90020F0BDBC
:10B9A000002103E0605C401C084481B2481CA842AE
:10B9B00006DA10888842F5DC481C205CB042F1D1E0
:10B9C000A94201DB0020EAE7881C87B2605C10B165
:10B9D000605C401E00E0002083B213B1F818A8425A
:10B9E00001DD0020DBE717801846D8E780F830102B
:10B9F000704770B504460D4605B10CB90E2070BDF8
:10BA000005F1780000F095FE08B90720F7E700205F
:10BA1000A0702C2205F17801201DFDF741FD0020CA
:10BA200084F83000D5F8A4006063D5F8A800A063BE
:10BA30004FF6FF70A4F8E80004F1D400C4F8E40065
:10BA40000021F020C4F8EA10A4F8EE100155207887
:10BA500010B9FF2084F8540004F15500C4F8D40054
:10BA60002046FFF780FCD821085304F1D80204F1E6
:10BA700055012846FFF7C2FE064600BF304600B11A
:10BA8000BDE700BF04F19300DC2108512046FFF719
:10BA90006AFCA4F8E000DC20015904F1E00205F1A1
:10BAA0003C00FFF7ABFE064600BF304600B1A6E7FC
:10BAB00000BF012151200155208B81B24820015344
:10BAC000012084F83C000021216450200155616967
:10BAD000616404F13C02002104F1540072DF064667
:10BAE00000BF304600B18AE700BF01202070304619
:10BAF00085E72DE9F04104460D4600272E462088B3
:10BB0000102804D0112807D026280FD109E021469B
:10BB1000304605F019F80AE02146304605F089F86C
:10BB200005E02146304605F0ECF900E000BF00BF1B
:10BB3000BDE8F08170B504460E46207808B90820AB
:10BB400070BDA6700021F020C4F8EA10A4F8EE1031
:10BB50000155A07910B1A078012809D0E07910B181
:10BB6000A078012804D0E07970B1A07802280BD128
:10BB7000606B30B1012084F8F1000820616B8847C8
:10BB800002E0002084F8F10031462046FFF7B6FBC2
:10BB9000A070606BA0B1A078032802D0A078042820
:10BBA0000ED1607960B194F8F20048B9002084F8B1
:10BBB000F400012084F8F3000720616B884702E05D
:10BBC000002084F8F300182104F13C00FDF781FC0B
:10BBD000012084F83C0004F12C0005F0A7FA20B104
:10BBE00094F82C105120015502E0012151200155FB
:10BBF00094F8240060B104F1280005F097FA20B110
:10BC000094F828105220015502E0012152200155DC
:10BC1000002150200155A078052824D2DFE800F04B
:10BC20001F030A11180004F13C01204606F03EFAF9
:10BC3000054619E004F13C01204606F025FA0546C8
:10BC400012E004F13C01204606F042FA05460BE002
:10BC500004F13C01204606F062FA054604E00020AB
:10BC600084F8310000E000BF00BFA07898B104F173
:10BC70003C0204F15400D4F8E41072DF05460DB123
:10BC800028465DE794F8301094F8540073DF0546B9
:10BC90000DB1284654E7606B18B194F83100616B20
:10BCA000884700204CE700002DE9F041044600BF22
:10BCB00014B90E20BDE8F08100BF1C2221461C48AB
:10BCC000FDF7EEFB1B481A490860206860B1206848
:10BCD0007ADF05460DB12846ECE7164821680A6868
:10BCE00002604968416005E012487BDF05460DB1FE
:10BCF0002846DFE7002617E006EB86000E4901EB39
:10BD0000800700BF4FF6FF70388000BF0B4800EB84
:10BD1000461078600A4A0021381DFFF75BFC054693
:10BD20000DB10320C6E7761C002EE5D00020C1E748
:10BD30004C2C00205C240020382C0020182C0020E3
:10BD40001127020010B50446204600F005F808B19E
:10BD5000204610BD1420FCE710B50446142C01DB6E
:10BD6000002010BD2146024802F028FAF9E7000041
:10BD70006C2C00202DE9FC4105460C461746208816
:10BD80000930B84202D90C20BDE8FC8168466DDF5D
:10BD9000064600BF304600B1F6E700BF0820218804
:10BDA00068542088401C20801B20218868542088EB
:10BDB000401C208020882844DDF801100160BDF877
:10BDC000051081802088801D20809DF8000040089B
:10BDD00018B900202188685402E0012021886854A5
:10BDE0002088401C20800020CEE70000F8B50546E2
:10BDF0000F462888212840D006DC10280BD01128B7
:10BE000029D0132879D148E03B2868D0522855D052
:10BE10005628F7D172E04249424A891AC9080322DA
:10BE200042EA014040A103F02FFBA8884149088065
:10BE300008460188404802F06BFB044600BF2646D6
:10BE400026B100BF3046FFF7AFFB00BF00BF0320A5
:10BE5000FEF714FB61E03249324A891AC90803220D
:10BE600042EA014035A103F00FFB4FF6FF70314964
:10BE700008800120FEF702FB4FE000200090A88818
:10BE800069468FDF044600BF264626B100BF304614
:10BE9000FFF78AFB00BF00BF3FE000231A46852161
:10BEA000244800887FDF044600BF264626B100BF35
:10BEB0003046FFF779FB00BF00BF2EE000231A4693
:10BEC00019461C480088B1DF044600BF264626B14B
:10BED00000BF3046FFF768FB00BF00BF1DE0A88829
:10BEE000132176DF044600BF264626B100BF304648
:10BEF000FFF75AFB00BF00BF0FE00DE0A888132139
:10BF000076DF044600BF264626B100BF3046FFF765
:10BF10004BFB00BF00BF00E000BF00BFF8BD00004A
:10BF2000143B0200A43A0200436F6E6E65637465B1
:10BF300064000000F4230020782500204469736326
:10BF40006F6E6E65637465640000000070B5054631
:10BF50000E462888102802D011282CD115E0174849
:10BF6000006860B900F0D8FC044600BF34B1144842
:10BF7000006818B1204612490968884700BF0F4879
:10BF80000068401C0D49086016E00C480068401E1F
:10BF90000A4908600846006860B9FFF7EDF90446F1
:10BFA00000BF34B10648006818B12046044909684A
:10BFB000884700BF00E000BF00BF70BD58240020CC
:10BFC0005424002070B504460D462088102806D061
:10BFD000112808D012280ED0502810D107E0204692
:10BFE00004F040FD0CE0204604F00AFE08E0204684
:10BFF00004F0B8FF04E0204604F01CFD00E000BFA0
:10C0000000BF70BD2DE9F04104460F46A688208888
:10C01000102806D0112810D0192835D01A283FD161
:10C020000FE005F0E7FC304605F068FB20B900BFE3
:10C030000420FFF7B9FA00BF32E0304605F0FEFCFD
:10C040002EE0207A0509042D01DB012000E000200C
:10C0500002463146144800F0C1FF032D01DB0120E8
:10C0600000E00020024631460F48001F00F0B6FFF6
:10C07000022D01DB012000E00020024631460A4883
:10C08000083800F0ABFF0BE0207A40B9607AC0F3CB
:10C09000C0052A463146044800F0A0FF00BF00BF9B
:10C0A00000BFBDE8F0810000802C00202DE9F041A8
:10C0B00086B00446884617461D4600BF1CB90E20B0
:10C0C00006B0BDE8F08100BF01AA2946A069FFF7CC
:10C0D0005FFB064600BF304600B1F1E700BF4FF6F8
:10C0E000FF70854201D0019808B90520E8E7019862
:10C0F000007808B90820E3E73888F42801DD072034
:10C10000DEE700200290039004900590E089ADF8EE
:10C110000800CDF81480049701208DF80A0002A9C8
:10C120002846AEDFCCE7000070B58EB004460E4660
:10C13000464B0FCB09AD0FC500BF14B90E200EB092
:10C1400070BD00BF00BF0EB90E20F8E700BF306819
:10C15000E061214609A862DF054600BF284600B11C
:10C16000EDE700BF20788DF836004FF6E570ADF8AA
:10C170003400A21C0DA90120A8DF054600BF2846F7
:10C1800000B1DCE700BF202101A8FDF7A2F94FF6BE
:10C19000E970ADF8040020788DF80600F420ADF8C1
:10C1A00008000120ADF80A008DF810009DF811007C
:10C1B00020F0080008308DF811009DF8110020F0E3
:10C1C0000400001D8DF8110001208DF815008DF878
:10C1D00016006088A21D01A900F088F905460DB17E
:10C1E0002846ACE720788DF836004FF6E070ADF8C1
:10C1F0003400221D0DA90120A8DF0546202101A839
:10C20000FDF767F94FF6E470ADF8040020788DF87B
:10C210000600F420ADF808000120ADF80A008DF802
:10C2200010009DF8110020F0100010308DF8110062
:10C2300001208DF815008DF816008DF81700A088E4
:10C2400004F10E0201A900F051F978E7BC2E0200BA
:10C2500070B504460D4605B104B970BD2E46208860
:10C26000102804D0502807D057280FD109E02146C4
:10C27000304604F02FFC0AE02146304604F09EFED2
:10C2800005E02146304604F093FD00E000BF00BF0A
:10C2900000BFE2E770B50446204606F07DF905468A
:10C2A00005F0010070BD000030B503460020042BEE
:10C2B00023D2012A07D1012903D103F10E04E4B2EC
:10C2C00000E00024224679B1012902D0022911D1CF
:10C2D00004E003EB43040A4D2A550DE003EB43044D
:10C2E000074D2C44627007E003EB4304044D2C44DB
:10C2F000A27001E0072000BF00E0072030BD000071
:10C30000E82B00202DE9FC4704460D461646A71CE5
:10C310004FF001080020019001A8FFF7C6F930484E
:10C32000406828602E4840682D498968411A2D4888
:10C330000068401CA0EB010915E001212A4801F02A
:10C3400070FF01F00FFB82465146274801F069FF5C
:10C350002348406822498968411A22480068401CE5
:10C36000A0EB010900BF4F45E7D8B8F1000F30D06E
:10C370000021009176B1009921F00301491C009140
:10C38000009921F00401091D0091009964F38911BD
:10C3900000910DE0009921F00301891C00910099A2
:10C3A00021F00401091D0091009964F39F5100914F
:10C3B0000B4949680B4A12681140094A0C3202EBDA
:10C3C0008100009901600649496839440C3A51607E
:10C3D00000BF9DF80400FFF76FF94046BDE8FC87F9
:10C3E0003C310020082500205835002070B5044657
:10C3F0000D460A2D03D10D212046FFF7F7FFA16856
:10C40000481CA06020684554D4E90110884202D33A
:10C41000204602F054F970BD044880680349496819
:10C42000884201D1012070470020FCE73C31002008
:10C430004FF0FF31054A42F82010082804DBFF23A3
:10C44000A0F108015032535470470000F82C00202E
:10C450000146024850F8210070470000F82C0020E7
:10C460002DE9F04F03460C464FF0FF390AB100208A
:10C4700000E0082084460AB1082000E00C20804635
:10C48000614624E0154850F82100401CF0B91D46D3
:10C490000846274616464FFA80FBDFF840A00AF10F
:10C4A000300A0AF805B0DFF834A04AF820704EB917
:10C4B0004FFA85FBA0F1080ADFF820E00EF1500EDC
:10C4C0000EF80AB000BF4FFA81F902E0491C41455D
:10C4D000D8D300BF4846BDE8F08F0000F82C0020FC
:10C4E0000146014840567047282D002070B590B095
:10C4F00006460C461546A07818B901208DF80E00A6
:10C5000002E0A0788DF80E002088ADF80C00002025
:10C510000290607C02A905F029FEA07C0DF10901C2
:10C5200005F024FEE07B08B1012000E000209DF82A
:10C530000A1060F3C3018DF80A10207C08B10120B5
:10C5400000E000209DF80A1060F304118DF80A1035
:10C55000207B08B1012000E000209DF80A1060F364
:10C5600000018DF80A10207D08B1022000E00120B2
:10C570009DF80A1060F342018DF80A101C2109A8E9
:10C58000FCF7A7FF607BC0F3001018B9607BC0F315
:10C590004010F8B100200090E07C0DF1010105F0A1
:10C5A000E5FD00BF9DF8000020F00F00401C8DF855
:10C5B00000009DF8000020F0F00010308DF8000021
:10C5C00000BF9DF8020020F00600801C8DF80200DC
:10C5D000CDF838D0607B8DF82400A07B8DF8250045
:10C5E000142104A8FCF775FF03A8049002A8059085
:10C5F000A088ADF81C00A06820B1E088ADF8180054
:10C60000A0680890A069002849D000200190A06986
:10C610000088ADF82C00A0694088ADF82E00A06914
:10C6200040680A9001A80D90A169087B01A905F056
:10C630009DFDA169487B0DF1050105F097FDA069FD
:10C64000807A08B1012000E000209DF8061060F318
:10C65000C3018DF80610A069C07A08B1012000E07E
:10C6600000209DF8061060F304118DF80610A069F3
:10C67000007A08B1012000E000209DF8061060F368
:10C6800000018DF80610A069807B08B1022000E04F
:10C6900001209DF8061060F342018DF80610E06954
:10C6A00008B1E0690C902B4604AA09A93046AADF1C
:10C6B00010B070BD70B505460DB9094C01E0084CCD
:10C6C000083409E0204601F00CF9064606B904E0FA
:10C6D00028467168884700BFF4E700BF70BD0000BE
:10C6E000EC2C002010B504462CB9012006494870F6
:10C6F0000020FFF7DFFF012C04D1012002498870E0
:10C70000FFF7D8FF10BD0000E42C00202DE9F04712
:10C71000024613468C46D3E90245DCE90267B6EBD4
:10C72000040877EB050002D30120BDE8F087002064
:10C73000FBE701468878012805D191F820000128FF
:10C7400001D100207047886A042802D0486A042872
:10C7500001D10020F6E70120F4E733B58BB00546A0
:10C76000002000900C9878B100240BE021460CA822
:10C7700001F024FD28B1009A501C009001A820F877
:10C780001240641C142CF1D32C2269462846FCF775
:10C7900087FE0DB030BD01460888062808DB0888F2
:10C7A000B0F5486F06DD08884FF6FF72904201D061
:10C7B000072070474888062808DB4888B0F5486F8E
:10C7C00006DD48884FF6FF72904201D00720F0E75F
:10C7D00008884FF6FF72904208D04888904205D0F2
:10C7E00008884A88904201DD0720E2E70020E0E760
:10C7F0002DE9F04107460D46144698462088801DD5
:10C80000404502D90C20BDE8F0813846FFF7C3FF50
:10C81000064600BF304600B1F5E700BF052021887D
:10C8200068542088401C2080122021886854208869
:10C83000401C208022885119388805F0B3FE2188D9
:10C840000844208022885119788805F0ABFE2188A1
:10C85000084420800020D6E710B5044600BF2046DB
:10C86000FEF7A2FE00BF10BD30B587B01C216846A0
:10C87000FCF72FFE002000904FF4A03001904FF401
:10C88000F020029003208DF80C000020ADF80E007F
:10C890008DF8100009480590094806906846FFF792
:10C8A00003FA044600BF254625B100BF2846FEF71F
:10C8B0007BFE00BF00BF07B030BD0000090A0200C8
:10C8C00059C80100F8B505460C46607A88B9207A47
:10C8D00010B91048476801E00E4887682A46394673
:10C8E0006068FEF7BDFE064616B1304605F0F2FA66
:10C8F0000EE0002020720748406948B101208DF801
:10C900000000ADF80250034841696846884700BFFF
:10C91000F8BD00004C2C002010B501220021084673
:10C92000FFF7C2FC044600BF1CB1072C01D0204613
:10C9300010BD00BF072202210120FFF7B5FC04460D
:10C9400000BF1CB1072C01D02046F1E700BF042234
:10C9500002210020FFF7A8FC044600BF1CB1072CF1
:10C9600001D02046E4E700BF0020E1E770B50646AD
:10C970000D4616B14FF4064070BD287920B101284C
:10C9800009D0022815D111E002202871284604F0B0
:10C9900013FF044610E0284600F006FB044648F268
:10C9A0000960844201D141F61D5405E041F61D5451
:10C9B00002E048F20E6400BF00BF2046DCE7000042
:10C9C00010B50021034801F063FC044684F3100015
:10C9D00010BD00005835002070B505460C464FF4D8
:10C9E000803000FA04F1284600F040FA70BD70B5BE
:10C9F00005460C464FF4A07000EB840086B2314629
:10CA0000284600F04DFA70BD2DE9F04704460D466A
:10CA100016461F464FF4803000FA05F84FF4A07018
:10CA200000EB85001FFA80F926F07F46414620681A
:10CA300002F097FF4146206802F08DFF49462068CA
:10CA400002F082FF32462946206802F074FF414618
:10CA5000206802F083FF1FB14146206802F084FF86
:10CA6000BDE8F08710B50446206802F069FF10BDEC
:10CA70002DE9F04704460D4617466079324941F8E2
:10CA800020706079314901EBC000007968B1082657
:10CA90002F49304A891AC908022242EA01402EA1D0
:10CAA00002F0F2FC3046BDE8F08729882068C0F823
:10CAB000081500BF94F90420AB78104619460028E9
:10CAC00008DB4FEA417C4FEA1C68DFF8B0C00CF885
:10CAD00000800BE04FEA417C4FEA1C69DFF8A0C000
:10CAE00000F00F08A8F104080CF8089000BF00BF80
:10CAF00094F90410084600280DDB00BF00BF00F0C9
:10CB00001F0301229A4043099B0003F1E023C3F86D
:10CB1000002100BF00BF00BF00BF012061790B4AA8
:10CB200002EBC10108716079114641F830400026DE
:10CB30000749084A891AC908032242EA014011A19B
:10CB400002F0A2FC3046AEE79C240020A024002086
:10CB5000F43A0200A43A020052544320696E7374FE
:10CB6000616E636520616C726561647920696E69CC
:10CB70007469616C697A65642E00000000E400E06D
:10CB800018ED00E05254433A20696E697469616C93
:10CB9000697A65642E00000010B5014691F9040021
:10CBA000002807DB00F01F0301229A40024B4409D2
:10CBB00043F8242000BF10BD00E200E070B5054638
:10CBC0000C4622460221284600F05CF970BD10B5E3
:10CBD00004464FF48271204600F062F910BD10B592
:10CBE00004460021206802F0C2FE10BD10B50446C4
:10CBF0000421206802F0BBFE10BD2DE9F84F044669
:10CC00008846154699464FF4803000FA08FA4FF4EA
:10CC1000A07000EB88001FFA80FB25F07F4551468D
:10CC2000204600F023F9206802F08AFE06464146BD
:10CC3000206802F07AFE009032464146206802F0F9
:10CC40007AFE5946206802F07FFE3146009805F0D2
:10CC5000D3FB012806D1102003F036FA594620688C
:10CC600002F072FE206802F06BFE0646314628464E
:10CC700005F0C2FB07465146206802F06FFE012F07
:10CC80000FD16A1C4146206802F055FE102003F0C7
:10CC90001BFA206802F054FEB04225D00D20BDE8FA
:10CCA000F88F2A464146206802F045FE206802F0CF
:10CCB00047FE0646681E314605F09EFB07466FF0AC
:10CCC0007F40A0EB0900B84201D20D20E7E75FB931
:10CCD0006A1C4146206802F02EFE206802F030FEF9
:10CCE000B04201D00D20DAE701225146204600F083
:10CCF000C9F80020D3E700002DE9F84305460E46A9
:10CD00001746984669461048006801F010FA044634
:10CD100014B90420BDE8F8831C212046FCF7D9FB98
:10CD2000012020712560C4F8088008480068B6FB1F
:10CD3000F0F0E060676169460348006801F021FA9D
:10CD400004F046FC0020E5E76C310200603102008F
:10CD500010B50446D4E90321501828DF10BD02782D
:10CD6000072A38D2DFE802F037040712222B3400FA
:10CD700000220A7030E001220A7003898B818388C7
:10CD8000CB81C2688A6000230B7425E002220A70FE
:10CD900003898B818388CB81C2688A60827D062A61
:10CDA00001D1012300E000230B7415E003220A7077
:10CDB000C3888B810389CB81C2688A600CE004221E
:10CDC0000A70C3888B810023CB8100228A6003E034
:10CDD00005220A7000E000BF00BF704770B505462D
:10CDE000002409E0064850F8240020B1044850F817
:10CDF000241028468847641C042CF3D370BD00001F
:10CE0000042E002030B587B004460D4620688068A7
:10CE100008B907B030BD182101A8FCF75AFB0295EC
:10CE2000A0680690207910B1012815D109E00120F1
:10CE30008DF8040020690390E06804906069059013
:10CE40000BE002208DF804000749E06809684843B8
:10CE500003906069059000E000BF00BF2068816812
:10CE600001A8884700BFD4E76031020070B50446CE
:10CE70000D462946206802F06EFD2946206802F022
:10CE800070FD70BD70B504460E46154631462068EB
:10CE900002F064FD1DB13146206802F065FD70BDF1
:10CEA00070B505460C462868015929B12146286805
:10CEB00002F04AFD012070BD0020FCE738B50446B1
:10CEC00014B948F2046038BD6946204604F092FC6B
:10CED00008B3BDF8000000EB8000114901EB8000B1
:10CEE000C068A8B1A07A98B1BDF8000000EB80003E
:10CEF00001EB8000C068401EBDF8001001EB81010D
:10CF0000074A02EB8101C8600020A072002504E0FE
:10CF100048F2056501E048F209652846D3E70000BC
:10CF2000B02E00207FB514461D462B46224601A98F
:10CF3000684604F0F7FB04B070BD0000F8B5044685
:10CF40000D4604B115B948F20460F8BD69462046A3
:10CF500004F050FCA0B16668BDF8001001EB81013F
:10CF6000094A02EB810101F10C00012101F059F99C
:10CF70002E6060680C3068600120A0720020E4E739
:10CF800048F20960E1E70000B02E002070B50446C9
:10CF90000D4614B948F2046070BD032300222946EF
:10CFA000204605F00DFEF7E73EB504460A4B6A46FB
:10CFB0000021A01D04F0B6FB054635B9064A91884C
:10CFC000019804F091FC054603E00348002101604C
:10CFD000416028463EBD0000D024002070B50546C3
:10CFE0000E46144624B13146284601F0F6F803E017
:10CFF0003146284601F0D3F870BD30B5044610889C
:10D00000C01C984201D90C2030BD0220158848551B
:10D010001088401C10800120158848551088401C3D
:10D02000108015884C551088401C10800020EBE7BC
:10D0300070B504460D46D822115B0122D4F8D40005
:10D04000FEF792FC064606B1357004F13C0204F18D
:10D05000D40104F1540072DF70BD10B5044660685D
:10D0600004F000FA10BD000030B589B00020029035
:10D07000039004900590019000BF9DF8180020F0E7
:10D080000F00401C06909DF8180020F0F0001030B2
:10D09000069000BF244800788DF804004FF08050BF
:10D0A00090F8A5008DF805001F48801E00788DF8C7
:10D0B00006009DF8060000909DF805309DF80420BC
:10D0C0001AA101A8FDF742FE01A8FCF719FA85B2E2
:10D0D0002A4601A906A87CDF044600BF254625B1E3
:10D0E00000BF2846FEF760FA00BF00BF002007908F
:10D0F00008901020ADF81C002820ADF81E0000207C
:10D10000ADF820004FF4C870ADF8220007A87ADF10
:10D11000044600BF254625B100BF2846FEF744FA65
:10D1200000BF00BF09B030BDA60000104B3331571F
:10D130002D25303278253032582530325800000005
:10D1400070B505460C4660880D490988884215D19E
:10D15000208840F67721884210D1A088C01E094956
:10D1600008800949094A891AC908032242EA01408C
:10D1700004490B880A8806A102F09CF970BD0000E2
:10D18000F4230020F6230020143B0200A43A0200FE
:10D1900044617461206C656E20697320736574202E
:10D1A000746F2030782558282564290070B50E4901
:10D1B0000E4801F015F9044600BF254625B100BF11
:10D1C0002846FEF7F1F900BF00BFF721074801F03C
:10D1D000F8F8044600BF254625B100BF2846FEF7F3
:10D1E000E3F900BF00BF70BD41D1010068250020F8
:10D1F00070B5054615B14FF4064070BD1848007B68
:10D2000018B100201649087301E000F0DFF8144857
:10D21000007808281DD2DFE800F01C04080C101C60
:10D22000141800F03FF8044616E000F0BDF804467C
:10D2300012E000F099F804460EE000F047F80446CA
:10D240000AE000F035F9044606E000F043F9044630
:10D2500002E048F20E6400BF00BF2046CDE70000A8
:10D26000D82E00200D480089401C0C490881002060
:10D270004880087300BF0DE000EB8001084A12F8F7
:10D28000211009B9012200E0002204490A310A54A0
:10D29000411C88B20228EFDB70470000D82E002026
:10D2A000B02E002010B5084800F036F840B9002034
:10D2B0000549891E08704880486041F61D5010BD20
:10D2C00000F072F8FBE70000DA2E002070B50F487E
:10D2D000458805EB85000E4901EB8000C06878B9F0
:10D2E00004200A49087005EB8500094A02EB80001A
:10D2F000002301224168074801F0E8FA044602E0F1
:10D3000000F090F80446204670BD0000D82E0020A2
:10D31000B02E00205425002010B501460022002028
:10D3200018E00F4B1B5C9BB100240D4B1C5400EB11
:10D3300080030C4C04EB8303DB684BB900EB8003E8
:10D3400004EB83031B7C012B02D10880012203E044
:10D35000431C98B20228E4DB00BF104610BD000059
:10D36000E22E0020B02E0020F8B50C4844680C488E
:10D3700000680B49898800EB81056088C01C86B273
:10D380000320064908700020B30000900846294693
:10D390004268044801F0BCFBF8BD0000D82E002014
:10D3A000C82400205425002010B507494888091DCD
:10D3B00004F05EFA18B1FFF7D7FF044602E0FFF76A
:10D3C00085FF0446204610BDD82E002010B5144815
:10D3D0000078082820D2DFE800F0041F1F0A10168A
:10D3E000171BFFF73FFF01200D49087015E000F003
:10D3F0007DF802200A4908700FE000F029F80620A5
:10D400000749087009E000BF07200549087004E0DB
:10D4100001200349087000E000BF00BF10BD0000FC
:10D42000D82E002010B505200649087002200649B4
:10D4300088800846002301220168044801F046FA6A
:10D4400010BD0000D82E0020C82400205425002044
:10D45000144908681449498801EB8101134A02EB19
:10D46000810149680F4A11600F49498801EB810128
:10D470000E4A02EB810148600A4989880A4A5288AB
:10D4800002EB8202094B03EB820211810221054A61
:10D4900091800021044A528802EB820203EB82024F
:10D4A00011747047C8240020D82E0020B02E002010
:10D4B00010B5062005490870498801EB8101044A2E
:10D4C00002EB8101486803F00FFE10BDD82E00204A
:10D4D000B02E002010B507200349087000204860D6
:10D4E00003F012FE10BD0000D82E0020054A50683F
:10D4F0004288D21C91B2044A92880A44024B9A8014
:10D5000070470000D82E0020C824002070B50B48BA
:10D51000FFF7A8FA0A4B0CCB841843F10005094920
:10D5200003C9201A75EB010004D24FF08073E41890
:10D5300045F100052046294670BD000078240020F2
:10D54000882400209024002070B504460D46204613
:10D5500000F01DF8A84201D9022070BDA0884FF646
:10D56000FF71884204D0208810B1A068401C08B91F
:10D570000120F2E70020F0E7024613468B4204D276
:10D580001868401C08B1012070470020FCE70146E4
:10D590004A8801F10C0000EB8200704710B501F0E1
:10D5A000E5FD08B902F0A0F910BD704770B504465A
:10D5B0000D4609486060094800F02CFE50B902F0A1
:10D5C00057FC064908741C238C220549054800684D
:10D5D00000F099FD002070BD60310200902F002006
:10D5E000F42E00206C3102002DE9F04106460C4675
:10D5F00048F20E6736B10020434948604FF40640B8
:10D60000BDE8F081207930B101280AD0022835D058
:10D6100003286DD140E00120207103F075FD07461D
:10D6200067E04FF00008002519E005EB8500374959
:10D6300011F82000022810D1002005EB8501334AA3
:10D6400002F821004FF0010805EB850102EB810192
:10D65000486803F049FD074603E0681C85B2022DC7
:10D66000E3DB00BFB8F1000F07D1012026490870A5
:10D670000020486041F61D50C2E73AE000202071CA
:10D68000022023498880084600230122016821489E
:10D6900001F01CF907462CE0002020711C490868A5
:10D6A00003F022FD07461C4845881948D0F8008041
:10D6B00005EB8500154901EB8000406814490860BE
:10D6C00005EB8500114901EB8000C0F8048010488B
:10D6D000808805EB85010D4A02EB8101088102205B
:10D6E0000B498880002005EB850102F8210000E04D
:10D6F00000BF00BF2FB100200349486048F20D6011
:10D700007EE700207CE70000B4240020B02E00203B
:10D71000C824002054250020D82E002002460021D5
:10D720000CE001EB8100074B33F82000904204D15C
:10D7300001EB810003EB80007047491C0029F0D009
:10D740000020F9E7382C00202DE9FC5F83460E46C7
:10D7500091461F46DDE90C45002E01DA704200E0DB
:10D76000304682464FF0010803E09AFBF9FA08F1CF
:10D770000108CA45F9DA474500D9B84634B1002E48
:10D7800003DB05F00400042800D1641E05F002004C
:10D7900000B167B105F0010048B944B104E0641E6E
:10D7A00020215846FEF722FE0CB1A045F7D3002EEB
:10D7B00005DA76422D215846FEF718FE07E005F0FF
:10D7C0000400042803D12B215846FEF70FFE05F074
:10D7D000020002280DD105F0010050B94FB944B143
:10D7E00004E0641E30215846FEF700FE0CB1A0454F
:10D7F000F7D33B464A4631465846CDE9004504F04A
:10D80000E9FEBDE8FC9F30B5024600201378C3F363
:10D810008003D3B1137803F00303012B02D0022B52
:10D8200010D107E01388C3F383139B1C0C682344B7
:10D830000B6008E00B680225146805EB9454234440
:10D840000B6000E000BF00BF012030BD014603486F
:10D85000007A08B1012070470020FCE7902F0020DB
:10D860002DE9F0410446A08800EB020CB4F80480D6
:10D87000904501DD104600E0A088A8EB0005E08897
:10D88000C618B4F80680984501DD184600E0E08827
:10D89000A8EB00074888B4F80080404504DB4888BE
:10D8A000B4F80280404502DD0020BDE8F0818888A0
:10D8B000A84202D38888604501D90020F5E7C888CE
:10D8C000B84202D3C888B04201D90020EDE7012058
:10D8D000EBE7014601F0030008B901207047002082
:10D8E000FCE70146086808B102680A60704710B595
:10D8F000044622460121002001F098FA002105E0AB
:10D9000054F8210008B1012010BD491C0029F7D0AE
:10D910000020F9E710B502F08FFB20B902F0B2FB4E
:10D9200000200149887010BDE42C0020F7210180FF
:10D9300017214180002101714171704770B54FF48A
:10D940008041002001F056FE044600BF254625B167
:10D9500000BF2846FDF728FE00BF00BF01F0F2FB24
:10D9600070BD00002DE9FF4100272E4800F04BFC60
:10D970002C48001F00F047FC2B48806803902B4880
:10D9800005680398284028490C3101EB800800BF46
:10D9900003A94046FFF737FF30B1039828402249DA
:10D9A0000C3101EB800800E000E0F1E700BF00244B
:10D9B0000AE00398411C284003911B490C3151F89F
:10D9C00020004DF82400641C022CF2D3009800F0D3
:10D9D000030001280DD0022814D1BDF806700421DF
:10D9E000009801EB9050401E039901EB90000390CA
:10D9F00009E0BDF806700098C0F38310039908444D
:10DA0000039000E000BF00BF0648001F00F0F4FBD9
:10DA1000064616B1044903988860384604B0BDE84C
:10DA2000F0810000543500203C3100200825002002
:10DA300000BF00BFFFF782FF04F084FD03F056FC37
:10DA400001201249086004F0F3FE1149114A891AB5
:10DA5000C908032242EA01400FA101F015FD04F0BC
:10DA6000C3F8FCF7F7FFFCF737FAFCF777FBFCF796
:10DA7000BDFD00BFFDF770F8FBF766FFFCF7C2FDC8
:10DA8000FBF7AAFDFFF78AFDF4E7000078050040E8
:10DA9000143B0200A43A02004465627567206C6F73
:10DAA0006767696E67206F766572205254542073E1
:10DAB0007461727465642E002DE9F04105460E46CE
:10DAC00014469846A888871C2088801C3844404506
:10DAD00002D90C20BDE8F081FE2F01D90C20F9E716
:10DAE000781C218870542088401C2080FF202188C9
:10DAF00070542088401C208022889119288804F0C6
:10DB000051FD218808442080A88800280DDDA868E0
:10DB100008B90720DEE7AA8823889819A968FBF7C7
:10DB2000BFFC2088A988084420800020D2E72DE986
:10DB3000FF4F87B0044691461E46A2462546BAF8D6
:10DB400006009AF805104843001F0690BAF806B080
:10DB5000301DB0FBFBF00590301DB0FBFBF10BFB63
:10DB600011000490D9F8000081190698814202D969
:10DB70000698801B01E0D9F800000746C9F800703C
:10DB800003E02D680598401E059005980028F8D1FF
:10DB900003900498ABEB0008B84501D9384600E083
:10DBA0004046804623E00399089808440290281DC7
:10DBB000049908440190149828B14246DDE9011007
:10DBC000FBF76EFC04E04246DDE90101FBF768FC6F
:10DBD000002004902D68A7EB0807039840440390A9
:10DBE000BB4501D9384600E05846804600BF002FAB
:10DBF000D9D10BB0BDE8F08F70B503460C469CB18F
:10DC000001F01CFD054600220AE0084800EB8201F5
:10DC100008881E68B04202D11A60002070BD521CF4
:10DC2000AA42F2D30520F9E70020F7E70000000040
:10DC30002DE9F84F05460F461446984628780128E6
:10DC400004D1687810B90720BDE8F88F2088801CBF
:10DC5000404508D82878012807D12088801C697899
:10DC60000844404501D90C20EEE72088A8EB0000CD
:10DC7000801E86B200962188891CC81969467DDFFE
:10DC8000814600BF484600B1DEE700BF2878022881
:10DC900004D06878BDF80010884206DBBDF80000AB
:10DCA000B04202DC4FF0090A0BE04FF0080A287876
:10DCB000012805D16878B04202DC6878009000E065
:10DCC0000096BDF80000FE2801D90C20BCE7BDF885
:10DCD0000000401C218878542088401C2080208827
:10DCE00007F800A02088401C20802088BDF8001084
:10DCF000084420800020A7E70020704714480068EF
:10DD0000401C38B913480178124808300078C0F335
:10DD1000031205E00E4801684FF08050D0F834211E
:10DD2000062912D1032A06D0042A06D0052A06D0D5
:10DD3000062A08D105E0012070470120FCE70120F8
:10DD4000FAE70120F8E70120F6E70020F4E70000F9
:10DD500030010010E00F00F014480068401C38B992
:10DD600013480178124808300078C0F3031205E028
:10DD70000E4801684FF08050D0F83421062912D1A6
:10DD8000032A06D0042A06D0052A06D0062A08D17E
:10DD900005E0012070470120FCE70120FAE701209F
:10DDA000F8E70120F6E70020F4E70000300100105A
:10DDB000E00F00F01A480068401C38B91948017893
:10DDC000184808300078C0F3031205E014480168D1
:10DDD0004FF08050D0F83421062912D1032A06D002
:10DDE000042A06D0052A06D0062A08D105E001201B
:10DDF00070470120FCE70120FAE70120F8E7012045
:10DE0000F6E70A2909D112B1012A04D101E0012063
:10DE1000EEE70120ECE70120EAE70020E8E7000058
:10DE200030010010E00F00F00E4802780D48083075
:10DE30000078C0F30311062A12D1032906D0042961
:10DE400006D0052906D0062908D105E00120704733
:10DE50000020FCE70020FAE70020F8E70020F6E7C2
:10DE60000020F4E7E00F00F00E4802684FF0805009
:10DE7000D0F83411062A12D1032906D0042906D07D
:10DE8000052906D0062908D105E0002070470020AA
:10DE9000FCE70020FAE70120F8E70120F6E7002080
:10DEA000F4E7000030010010094802684FF080508C
:10DEB000D0F834110A2A09D111B1012904D101E0A5
:10DEC000002070470120FCE70120FAE70020F8E776
:10DED000300100101A480068401C38B91948017810
:10DEE000184808300078C0F3031205E014480168B0
:10DEF0004FF08050D0F83421062912D1032A06D0E1
:10DF0000042A06D0052A06D0062A08D105E00120F9
:10DF100070470120FCE70120FAE70120F8E7012023
:10DF2000F6E70A2909D112B1012A04D101E0012042
:10DF3000EEE70120ECE70120EAE70020E8E7000037
:10DF400030010010E00F00F00E4802780D48083054
:10DF50000078C0F30311062A12D1032906D0042940
:10DF600006D0052906D0062908D105E00120704712
:10DF70000020FCE70020FAE70020F8E70020F6E7A1
:10DF80000020F4E7E00F00F01A480068401C38B9A0
:10DF900019480178184808300078C0F3031205E0EA
:10DFA000144801684FF08050D0F83421062912D16E
:10DFB000032A06D0042A06D0052A06D0062A08D14C
:10DFC00005E0012070470120FCE70120FAE701206D
:10DFD000F8E70120F6E70A2909D112B1012A04D194
:10DFE00001E00120EEE70120ECE70120EAE7002054
:10DFF000E8E7000030010010E00F00F00E48027862
:10E000000D4808300078C0F30311062A12D1032905
:10E0100006D0042906D0052906D0062908D105E036
:10E02000012070470020FCE70020FAE70020F8E715
:10E030000020F6E70020F4E7E00F00F00E48027839
:10E040000D4808300078C0F30311062A12D10329C5
:10E0500006D0042906D0052906D0062908D105E0F6
:10E06000012070470020FCE70020FAE70020F8E7D5
:10E070000020F6E70020F4E7E00F00F01A480068FF
:10E08000401C38B919480178184808300078C0F3A6
:10E09000031205E0144801684FF08050D0F8342195
:10E0A000062912D1032A06D0042A06D0052A06D052
:10E0B000062A08D105E0002070470020FCE7012077
:10E0C000FAE70120F8E70120F6E70A2909D112B1A1
:10E0D000012A04D101E00120EEE70120ECE7012054
:10E0E000EAE70020E8E7000030010010E00F00F050
:10E0F00070B504462046FBF7DAF805460DB100205E
:10E1000070BD1120FCE710B5044609B90E2010BD02
:10E1100092FBF3F003FB102008B10920F7E7216020
:10E1200000206060A060A281E38100BFEFE770B5CE
:10E1300004460D4629462046FBF76EF818B12A889A
:10E140002168881870BD0020FCE770B505460C46B4
:10E1500020886188884204D12846FBF79FF8012077
:10E1600070BD0020FCE770B504460D4629462046E8
:10E17000FBF777F818B16A882168881870BD00200D
:10E18000FCE770B505460C4620886188884204D1BA
:10E190002846FBF75DF8012070BD0020FCE770B554
:10E1A00005460C4604F01F0301229A40D143620940
:10E1B00005EB820000F040F8064670BD10B502463F
:10E1C000480952F8200001F01F040123A340184021
:10E1D00008B1012010BD0020FCE770B505460C46D3
:10E1E00004F01F03012202FA03F1620905EB820029
:10E1F00000F059F8064670BD10B5044600212046CF
:10E2000000F030F810BD10B504460121204600F0A2
:10E210004AF810BD10B504460121204600F02DF843
:10E2200010BDF8B504460D466A4629462046FBF760
:10E230008AF806460098F8BDF8B504460D466A46C9
:10E2400029462046FBF765F806460098F8BDF8B564
:10E2500004460D466A4629462046FBF774F80646F2
:10E260003046F8BDF8B504460D466A4629462046B4
:10E27000FBF74FF806463046F8BDF8B504460D46A4
:10E280006A4629462046FBF737F806463046F8BD71
:10E29000F8B504460D466A4629462046FBF720F8A5
:10E2A00006463046F8BDF8B504460D466A4629468E
:10E2B0002046FBF721F806460098F8BDF8B504465D
:10E2C0000D466A4629462046FBF74AF8064600985E
:10E2D000F8BDF8B504460026002000906846FDF71A
:10E2E000E4F9206800686168884215D920680068F0
:10E2F000401E226810600178204600F033F8064680
:10E30000207A21680978401AC5B220680079A842AD
:10E3100001DA2068057100BF9DF80000FDF7CCF917
:10E320003046F8BD0246D068081A138AB0FBF3F0F5
:10E33000C0B27047F8B504460D462E460020009046
:10E340006846FDF7B2F931462046FFF7EBFF21683A
:10E350000A68511C2368196010709DF80000FDF7D1
:10E36000ABF9F8BD0246138AD06801FB0300704781
:10E3700010B5014600BF09B90E2010BD00BF087AD4
:10E380000B79C01AC2B2D1E90030186005E0086804
:10E390000368581C0C6820601A70101EA2F101035B
:10E3A000DAB2F4D10B68187100BFE6E730B5024667
:10E3B0000B46D40802F00702012090401D5D284062
:10E3C00030BD024600BF0AB90E20704700BF1729B2
:10E3D00001DBF72901DD0720F7E711800020F4E7D2
:10E3E00070B504460E4600BF0CB90E2070BD00BFCC
:10E3F000E660F72020806080FB202071002507E088
:10E4000005EB4502A11D01EB4200FFF78FFA6D1CE1
:10E41000002DF5D00020E9E72DE9F04706468846B3
:10E420004546B488012C01DBBDE8F0873088102810
:10E4300006D0112809D03A280CD0552814D10EE066
:10E440003146284602F088FB0FE03146284602F0AC
:10E4500009FC0AE03146284602F076FC05E0314628
:10E46000284602F00BFC00E000BF00BF04EB4401B3
:10E47000A81D00EB4100007948B304EB4402A81D3D
:10E4800030F812102046A5DF074677B9002104EBCB
:10E490004402A81D00EB42000171012104EB44027B
:10E4A000A81D00EB4200417110E0112F0ED038463C
:10E4B00001F0B4FD81460749074A891AC9080122BB
:10E4C00042EA01404A4605A100F0E8FF00BF00BF54
:10E4D000AAE70000A43A0200A43A020073645F6253
:10E4E0006C655F67617474635F65786368616E67AC
:10E4F000655F6D74755F7265717565737428292029
:10E5000072657475726E65642025732E00000000BC
:10E51000024600BF0AB90E20704700BF00BF107846
:10E52000DE2801D00820F7E700BF51800020F3E784
:10E53000024600BF0AB90E20704700BF00BF09B9EC
:10E540000E20F9E700BF1078DE2801D10820F3E79C
:10E5500008685060DE2010704FF6FF705080002079
:10E56000EAE770B504460E4600BF06B970BD00BFAD
:10E5700000BF04B9FAE700BF354600BF2878DE289F
:10E5800000D0F3E700BFA0886988884202D12846FE
:10E5900004F032FA2088012806D0022809D0112878
:10E5A00011D0512817D109E0211D284602F0CAFCDC
:10E5B00012E0211D284602F0C4FC0DE0211D284672
:10E5C00002F06AFC08E0A0886988884202D14FF610
:10E5D000FF70688000E000BF00BF00BFC6E70146D3
:10E5E0004FF08040405808B1012070470020FCE700
:10E5F00008B500224FF080410A500958009100BF31
:10E6000008BD000001490860704700000803004091
:10E61000012291070A50704710B500240F48007876
:10E6200008B1852411E000200C4988604860086129
:10E63000C8600B4801F014FD044601F019FC08B94C
:10E6400001F004FD01200549087001F0F5FC10B14E
:10E65000012002498870204610BD0000E42C0020F3
:10E66000E5C6010008B5002000906846FDF71DF8DA
:10E670000748C068401E0649C8600846C06808B917
:10E68000FFF748F99DF80000FDF716F808BD0000F7
:10E69000E42C00200FB438B50446059810B938BCF6
:10E6A0005DF814FB0020009006A800906A46204602
:10E6B000059900F012F80020009000BFEFE770B558
:10E6C0000446A06800B970BDD4E90403A2682168BB
:10E6D00098470020A06000BFF5E72DE9FC5F824667
:10E6E0000D4614460DB9BDE8FC9F00BF2E786D1C89
:10E6F00006B9E1E0252E70D100274FF0010900BFD7
:10E700002E782B2E0CD02D2E02D0302E0CD103E0E3
:10E7100047F001076D1C0AE047F002076D1C06E098
:10E7200047F004076D1C02E04FF0000900BF00BF76
:10E73000B9F1000FE4D14FF0000800BF2A2E06D136
:10E740002168081D2060086880446D1C0DE02E784B
:10E75000302E01DB392E00DD07E06D1CA6F1300004
:10E7600008EB880100EB4108E8E700BF4FF0000B21
:10E770002E782E2E10D16D1C00BF2E78302E01DB8E
:10E78000392E00DD07E06D1CA6F130000BEB8B018C
:10E7900000EB410BF1E700BF2E7800BF6C2E01D0DB
:10E7A000682E02D16D1C2E7800E000E0F6E700BF75
:10E7B000692E21D008DC252E6DD0582E39D0632E3D
:10E7C0000CD0642E6CD116E0702E4CD0732E3ED03F
:10E7D000752E1FD0782E63D12AE065E02168081DD0
:10E7E0002060D1F8009009F0FF0001905046019997
:10E7F000FDF7FCFD55E000BF2168081D2060D1F841
:10E8000000905B460A2249465046CDE90087FEF754
:10E810009BFF46E02168081D2060D1F800905B4610
:10E820000A2249465046CDE9008703F0D3FE38E07E
:10E8300000BF2168081D2060D1F800905B461022BF
:10E8400049465046CDE9008703F0C4FE29E021681F
:10E85000081D2060086801903B46424650460199D9
:10E8600003F090FD1DE02168081D2060D1F80090A4
:10E8700030215046FDF7BAFD78215046FDF7B6FD30
:10E88000002008210B461022CDE9001049465046D1
:10E8900003F0A0FE05E025215046FDF7A7FD00E0AE
:10E8A00000BF00BF6D1C03E031465046FDF79EFDE2
:10E8B000287800287FF41AAF00BF9AF80C0010B136
:10E8C0005046FFF7FCFE00BF0DE70000F8B5044618
:10E8D0000E4615461F4600BF7CB90E203849394AFE
:10E8E000891AC9080122009042EA0140364B37A23A
:10E8F00038A100F0EFFD0E20F8BD00BF00BF20687A
:10E9000078B908202E492F4A891AC9080122009097
:10E9100042EA01402C4B3AA22EA100F0DBFD082078
:10E92000EAE700BF00BF7DB909202549254A891AB9
:10E93000C9080122009042EA0140234B33A225A1DD
:10E9400000F0C8FD0920D7E700BF00BF31462046D0
:10E95000FCF79AFC78B9102019491A4A891AC90893
:10E960000122009042EA0140174B29A219A100F0B0
:10E97000B1FD1020C0E700BF00BF6068006800FB69
:10E9800005F231462046FCF795FC78B910200C4979
:10E990000C4A891AC9080122009042EA01400A4B38
:10E9A000254A0CA100F096FD1020A5E700BF2068C5
:10E9B0003B462A463146D0F810C02046E0479BE748
:10E9C0000C3B0200A43A0200DB310200705F667368
:10E9D00000000000257320636865636B2066616931
:10E9E0006C656420696E2025732829207769746816
:10E9F0002076616C756520307825782E0000000047
:10EA0000705F66732D3E705F617069006C656E00AB
:10EA1000616464725F69735F706167655F616C698F
:10EA2000676E656428705F66732C20706167655F30
:10EA300061646472290000002C3702000246012044
:10EA4000044B58741846007A08B90120704700201A
:10EA5000FCE70000902F002070B504460D46012C05
:10EA600001D0032C0BD1002005494874012C01D1A1
:10EA7000012000E000200249087402F055FD70BD3D
:10EA8000902F002070B504460E46022C02D0032CB5
:10EA900000D070BD1C48007A20B1012803D00228A4
:10EAA00026D101E0F5E723E00025022C02D0032C5B
:10EAB0000CD105E01548006802F0B0F9054606E003
:10EAC0001248006802F098F9054600E000BF00BF58
:10EAD0006DB100200C490872022C00D100E00D201D
