:020000040800F2
:10000000300B0020950000087D0100087F010008EA
:1000100000000000000000000000000000000000E0
:100020000000000000000000000000008101000846
:1000300000000000000000008301000885010008A6
:10004000A7000008A7000008A7000008A7000008F4
:10005000A7000008A7000008A70000083912000840
:10006000A7000008A7000008A7000008A7000008D4
:10007000A7000008CB170008A7000008A700000889
:100080000348854602F004FF004800472D010008A0
:10009000300B00200448804704480047FEE7FEE795
:1000A000FEE7FEE7FEE7FEE7CD2C00088100000832
:1000B0007CB502460020009001466D460190104636
:1000C00088400006C00F6854491CC9B20829F6D3FD
:1000D0000024295D24A002F0EDFE641CE4B2082C8B
:1000E000F7D322A002F0AEFF7CBD00B58FB038215F
:1000F000684602F0C2FE00206A461070508006205A
:100100009080FF2090711A480078D0711848401CE8
:10011000017811724178517281789172C078D072F1
:100120001146144801F0C4FA0FB000BD1CB501F02F
:10013000DDFA01F09BF800F0CDFB00F03FF901F093
:1001400071F90121881E0191009000230A4A1421AF
:10015000022001F0A9F801F0E3F800F084FA00F0C1
:10016000D9FB01F058FAF6E72564200000000000F2
:100170000000002090020020EB0000087047FEE71E
:10018000704770477047000000B58BB0002001F049
:100190001EFD042001F0A2FD0120000301F094FDEA
:1001A000012001F032FD0320800201F026FD6846A7
:1001B00001F013FF022000900320019069463C48A3
:1001C00001F0E3FE01206946087600204876089099
:1001D0000120400248210990079106A801F0BEFBCA
:1001E00001F0E0FB08220421022001F061FC00285C
:1001F000F8D010220421022001F05AFC0028F8D186
:100200000BB000BD10B50021084601F072FC0D20B6
:1002100001F004FCFF20813001F0E6FB08220221FE
:10022000012001F045FC0028F8D0022001F051FC2B
:10023000042001F04EFC002001F00AFC10BDF0B5D6
:1002400087B01821684602F018FE002425466F4644
:10025000FFF7D8FF69006D1CEDB278520C2DF7D373
:100260000020401CC0B20C28FBD3002100200B2230
:10027000521A944609E04500EE197A5B73889A4257
:1002800001D97B537280401CC0B28445F3DC491C09
:10029000C9B20B29EAD300204100C9190989401CC1
:1002A0000C19C0B20428F7D3A003000C07B0F0BDAE
:1002B000001C004000B587B0042001F00FFD684627
:1002C00001F08BFE0420009000200190029069460E
:1002D0001C4801F05AFEFFF757FF07B000BD10B5EC
:1002E0000024FFF7ACFF0146FF396139292901D805
:1002F000022424E05121C900411A442901D80124D3
:100300001DE0114941186B2901D8042417E00F4959
:100310004118772901D8082411E00146FF393739FF
:10032000242901D810240AE04121C900411A3929A1
:1003300001D8202403E0F2381C2800D840242046AD
:1003400010BD0000001C004019FBFFFFC3F9FFFFB8
:1003500005E003210A46491EC9B2002AFAD1014626
:10036000401E80B20029F4D1704710B5FF24BD347F
:100370000CE0224605E00A210B46491E89B2002BFB
:10038000FAD11146521E92B20029F4D10146401E04
:1003900080B20029EDD110BD10B5FFF7A0FFC0431A
:1003A000C4B204210A4801F022FE002801D0FF2037
:1003B00000E07F2007492040087010BD10B5FFF70E
:1003C00079FF00F024F8044800F077F810BD000031
:1003D000001C004000000020990300087047B44949
:1003E00001200870704730B5B24AB14D0021282372
:1003F00000204B435B1984001C19401CC0B2E26012
:100400000428F8D3491CC9B20829F0D330BD7CB503
:1004100000210122A64ED2030C462820484383190E
:100420001C71002045005D19401CC0B2EA80022802
:10043000F8D300208B009B191D18FF356135401C37
:10044000C0B22C700428F7D3491CC9B20829E4D3E0
:100450000020FF253118401C00064D70000EF9D019
:10046000954809220471447100200523410089192F
:10047000FF314131401C8A71C0B2CB710A28F5D3DB
:100480008D48403004713470FFF7ADFF8A48012178
:100490004038C465881E0B4601910090874A14219C
:1004A000052000F001FF864900200A1815720D543E
:1004B000401CC0B20828F8D37CBD7F494039C865CC
:1004C000704710B508280BD2042909D2002A07D09A
:1004D00028246043764C890000194018C361C2602B
:1004E00010BD082809D2042907D228235843704B8D
:1004F0008900C0186F4A4018C26070476C48017884
:10050000002908D000210170C11DF931C96D0029F1
:1005100001D0401C08477047F8B50D4606468100DB
:10052000634808184019FF3061300178002902D073
:100530000021017004E0604840300078002801D0BC
:100540000020F8BD5C4C0A2160790746401C02F08F
:1005500053FC2079814205D1401CC0B20A2102F02F
:100560004BFC2171524879000918FF3141318E71DD
:10057000617949000818FF304130C57160790A215E
:10058000401CC0B202F038FC61710120F8BDF8B522
:10059000002528204649684340180179001D49007C
:1005A0000C186088A41CC10B4004C903400C00292E
:1005B00002D0012829D030E001280ED02DD91421F5
:1005C000404A48436E00915B884208D10221284688
:1005D000FFF7A2FF2088401C1EE0002116E0394AE8
:1005E0001032925B8918814217D803212846FFF701
:1005F00093FF20881421C70BFF0332482780805BBC
:1006000002F0FAFB401CC01906E001212846FFF762
:1006100083FF2088C00BC00320806D1CEDB2082D25
:10062000B7D3F8BD10B5244C20796179884219D030
:100630001F4A40008118FF3141318879C979082863
:1006400010D204290ED2282358438018890040185C
:10065000C168C069884720790A21401CC0B202F0F5
:10066000CBFB217110BD10B5FFF748FFFFF78FFFDF
:10067000FFF7D8FF10BD0E4B8000C01840180122B4
:10068000FF30613002707047094B8000C01840187D
:100690000022FF306130027070470748012140306E
:1006A000017070470448002140300170704700001D
:1006B00058000020DD03000898010020DF03000837
:1006C000480000206430000800B587B0042001F025
:1006D00005FB684601F081FC30200090112001905C
:1006E0000020039069467A4801F04FFC07B000BD36
:1006F000704710B5764C2021204601F088FC10216F
:10070000204601F084FC2021204601F082FC1021CB
:10071000204601F07EFC10BD10B56D4C1021204626
:1007200001F077FC2021204601F071FC10212046C9
:1007300001F06DFC2021204601F069FC10BD70B570
:10074000634D00242021284601F061FC2021284629
:1007500001F05DFC1021284601F059FC07E0641C03
:10076000E4B2FA2C03D9FFF7D7FF012070BD202196
:10077000284601F03CFC0028F1D11021284601F068
:1007800048FC002070BD10B5514C1021204601F0EE
:1007900040FC2021204601F03CFC1021204601F0C5
:1007A00036FC1021204601F034FC10BD10B5484C39
:1007B0001021204601F02DFC2021204601F027FCCD
:1007C0001021204601F023FC1021204601F021FCDD
:1007D00010BD70B53E4E05461021304601F019FCA3
:1007E0000024E80904D02021304601F010FC03E089
:1007F0002021304601F00DFC6806050E1021304620
:1008000001F005FC1021304601F003FC641CE4B249
:10081000082CE6D370BDF8B52D4E074600242021E4
:10082000304601F0F4FB00251021304601F0F1FBC9
:100830001021304601F0EBFB6006040E202130460B
:1008400001F0D5FB002801D0641CE4B26D1CEDB2B0
:10085000082DE9D3002F03D0FFF795FF2046F8BD00
:10086000FFF7A4FFFAE770B50D460446FFF741FF16
:100870005620FFF7AEFFFFF762FF2046FFF7A9FF04
:10088000FFF75DFF2846FFF7A4FFFFF758FFFFF7CC
:1008900043FF70BD10B50446FFF72BFF5620FFF74E
:1008A00098FFFFF74CFF2046FFF793FFFFF747FF46
:1008B000FFF71FFF5720FFF78CFFFFF740FF0020D7
:1008C000FFF7A9FF0446FFF727FF204610BD0000F1
:1008D000001C004010B500F069FB10BD1C49012050
:1008E000087070471CB5002401220092014623467F
:1008F0000194184A042000F0D7FC154804701CBD70
:1009000010B5042000F0E8FC10BD11494A788A7047
:100910004870704710B50E49487800280CD001285F
:100920000ED002280BD1887802280CD0FF20F53099
:10093000FFF7D8FF022000E00120FFF7E6FF10BD1F
:1009400000F0B7FAF6E708780128F5D010BD704737
:1009500005000020DD08000870B50C46054600F0D3
:10096000EFFB20430146284600F0E6FB70BD10B5C2
:10097000142000F0E5FB800703D103211420FFF7CA
:10098000EBFF10BD70B50C46054600F0D9FBA04347
:100990000146284600F0D0FB70BD03211420F1E78A
:1009A000F8B50E460746154604210520FFF7EAFF75
:1009B0000021012000F0C0FB80210A20FFF7CCFFBE
:1009C000002405E0395D092000F0B6FB641CE4B2A8
:1009D000B442F7D30321012000F0AEFBFF24052031
:1009E00000F0AEFB641E2406240E01D04007F6D5AD
:1009F000222000F0A5FB2870212000F0A1FB6870E8
:100A0000F8BDFFB5002081B0054600900198022690
:100A100017460C2805D00E2806D11220102500906C
:100A200002E077203025009080210420FFF7AAFF04
:100A30000021012000F080FB80210A20FFF78CFFBD
:100A4000002405E00298015D092000F075FB641C9C
:100A5000BC42F7D30120019900F06EFB01980C28ED
:100A600003D180210D20FFF777FF7D24240104208E
:100A700000F066FB0746641E03D0F80701D12F4241
:100A8000F5D080210D20FFF77DFF002C15D006202A
:100A900000F056FBFE490870062000F051FB1B21B8
:100AA000084209D1009800260740F80700D0012627
:100AB00001980C280CD000E0022680210C20FFF7C2
:100AC0004BFF0021012000F037FB304605B0F0BDA0
:100AD0000A2000F035FB05460C2000F031FB4007F2
:100AE000400F03D0E9000839091800E0E9000A982E
:100AF000002D016004D0122D00D91225002407E03A
:100B00000125FBE7092000F01BFB04990855641C34
:100B1000AC42F7D3D1E730B50C460546082187B083
:100B20000846FFF72FFF07210D2000F005FB0321EA
:100B30001420FFF711FF6846057106A801AB00906D
:100B4000012219460C20FFF75CFF002802D106990C
:100B5000102902D0022007B030BD69460979217002
:100B6000694649796170F6E770B50D460646082179
:100B700088B000240846FFF705FF00210D2000F093
:100B8000DBFA80210E20FFF7FDFE69460D71202063
:100B9000487106A801AB0090022219460C20FFF70D
:100BA00030FF05000DD1002101A8425C7254425C67
:100BB000491C5440C9B20429F7D3405CA04200D07C
:100BC000022580210E20FFF7C7FE284608B070BD21
:100BD00030B587B00C4693216A461171702151716E
:100BE000002191720B4601AAC15CD518A9706D460F
:100BF000A97AC55C5B1C69406D46DBB2A972042B07
:100C0000F2D3072101A8D21DFFF7CAFE082108462A
:100C1000FFF7B8FE06A801AB0090092219460C2088
:100C2000FFF7EFFE002802D10699182901D0022013
:100C300091E76946097921708DE730B587B00C4698
:100C400093216A46117170215171002191720B46F6
:100C500001AAC15CD518A9706D46A97AC55C5B1C58
:100C600069406D46DBB2A972042BF2D3072101A8BB
:100C7000D21DFFF795FE08210846FFF783FE06A860
:100C800001AB0090092219460C20FFF7BAFE00289C
:100C900002D10699182901D002205CE7694609793A
:100CA000217058E730B587B00C4695216A4611711E
:100CB00070215171002191720B4601AAC15CD518B7
:100CC000A9706D46A97AC55C5B1C69406D46DBB2B4
:100CD000A972042BF2D3072101A8D21DFFF760FEF1
:100CE00008210846FFF74EFE06A801AB0090092236
:100CF00019460C20FFF785FE002802D10699182915
:100D000001D0022027E769460979217023E730B531
:100D100087B00C4695216A461171702151710021EE
:100D200091720B4601AAC15CD518A9706D46A97ACB
:100D3000C55C5B1C69406D46DBB2A972042BF2D323
:100D4000072101A8D21DFFF72BFE08210846FFF757
:100D500019FE06A801AB0090092219460C20FFF7E6
:100D600050FE002802D10699182901D00220F2E68F
:100D7000694609792170EEE600B587B069465020D2
:100D80000871002048718A1D022101A8FFF708FEA2
:100D900006A801AB0090042219460C20FFF731FE93
:100DA00007B000BD10B51C4688B013466A461071E6
:100DB000517101A806221946023002F045F80622B8
:100DC000214603A802F040F806A801AB00900C22CF
:100DD00019460E20FFF715FE040004D1082000F08C
:100DE000AFF9000700D40224204608B010BD30B58A
:100DF00087B00D4630216A4611715071921D022153
:100E000001A8FFF7CDFD06A801AB0090042219460A
:100E10000C20FFF7F6FD040002D10698902802D0BE
:100E20000224204697E6102201A9284602F00CF879
:100E3000F7E730B587B00D46A0216A4611715071B1
:100E4000921D022101A8FFF7ABFD06AC01AB042205
:100E500019460C200094FFF7D4FD002827D10698EE
:100E6000042824D1684600790007000F0A281ED103
:100E70001022294601A801F0E7FF05AA102101A8C8
:100E8000FFF78EFD01AB122219460C20009401E001
:100E900009000020FFF7B5FD002808D106990429B4
:100EA00005D1694609790907090F0A2900D00220EE
:100EB00051E670B586B0002568460573924CFF2058
:100EC00020706070A070E0706821262000F034F976
:100ED0008E4804A945702620FFF71DFE002813D078
:100EE0004821262000F028F904A92620FFF713FE48
:100EF000002809D05821262000F01EF904A9262038
:100F0000FFF709FE002830D193216846FFF72CFE39
:100F100000282AD103A96846FFF78FFE002824D1B4
:100F20006846007B40072BD595216C4601A8FFF74A
:100F30001BFE002819D103A9201DFFF7B3FE0028CE
:100F400013D16846007B01244007714D002813DA55
:100F500002A897210646FFF707FE002805D103A93E
:100F60003046FFF7D4FE002802D0012006B070BD45
:100F70006846007B40070FD4EC70FFF7E8FC0BE0FD
:100F800068460078207068464078607068468078CF
:100F9000A0706846C078E0700020E7E7FF24F534D1
:100FA000FFF787FF2046FFF7E0F9F9E710B500F0FB
:100FB000BFF83220FFF7D9F908210846FFF7E2FC15
:100FC0000021122000F0B8F80021132000F0B4F83E
:100FD0002621242000F0B0F86821262000F0ACF88B
:100FE00080212A2000F0A8F8A9212B2000F0A4F8E5
:100FF00003212C2000F0A0F8E8212D2000F09CF81F
:101000004021152000F098F83D21112000F094F8BF
:101010000021012000F090F8FFF7A9FC10BD30B5C9
:1010200091B00020694608700190029003900490EE
:1010300038A00FC805AC0FC43AA007C80CAB07C353
:1010400000240FA92620FFF766FD002836D1932142
:1010500009A8FFF789FD002830D1694609A8FFF7E4
:10106000ECFD00282AD109AB0CAA04216020FFF76F
:1010700099FE002822D101A90420FFF7B8FE00281C
:101080001CD1641CE4B2102CFBD3002405AD01F08C
:10109000C9FE2855641CE4B2102CF8D305A904201D
:1010A000FFF7C7FE002809D1401CC0B21028FBD3AF
:1010B00001A90420FFF79BFE002802D0012011B0F7
:1010C00030BD401CC0B21028FBD30020F7E710B59C
:1010D0000F21012000F030F8012000F031F8C006A7
:1010E000FAD410BD704770B514460E46054600F0A0
:1010F00027F8002E01D0204300E0A04301462846F7
:1011000000F01AF870BD0000010000200900002066
:1011100005000020000102030405060708090A0B68
:101120000C0D0E0FFFFFFFFFFFFFFFFFFFFF000093
:1011300010B5FFF7C9FA10BD10B5FFF794FB10BD4D
:1011400010B5FFF7A7FB10BD1FB50120000300F08D
:10115000C5FD07206946087301204873887303A8FA
:1011600000F072FB684601F00CF8964869468880EA
:1011700000200880C880944C4880204600F0D9FFA9
:101180000121204600F0B4FF0121204601F080FC3F
:101190001FBDF8B58D4C0646607B0D460746052100
:1011A000401C01F029FE207B814201D10020F8BDC6
:1011B0008648F900A038091880314E60617BC9006B
:1011C000081880308560607B0521401CC0B201F0AA
:1011D00013FE61730120F8BD70B57C4D0024A03D65
:1011E000A1004A19906900281DD02B196033987FFF
:1011F000002818D09069401E90619069002812D193
:10120000106E002802DA6858906105E0002803DDBE
:1012100069589161401E1066187E002808D0916CB4
:10122000106BFFF7B6FF641CE4B2062CD8D370BD78
:10123000116B906C8847F6E710B5634C012120468E
:1012400001F02EFC002805D00121204601F034FCDD
:10125000FFF7C2FF10BD10B55B4800F0A5FF10BD41
:1012600010B5594800F0A5FF10BD704770B5574B39
:101270000020A03B564D024601268400E1188A61F9
:101280001A518A640D630A6619186031401C40B215
:101290008E770628F1DB4D4802734273FFF754FF47
:1012A000494800F081FF70BDF0B5059E069F002EF5
:1012B00010D0464D8400A03D29516419761E266643
:1012C000A3642263A1612818603007760121817729
:1012D0000846F0BD0020F0BDF8B5411C1FD006281F
:1012E0001DDA3A4E00218000A03E8419A161374DDD
:1012F000374F297B10E0C800801980304268236B8B
:101300009A4204D18268A36C9A4200D14760491C7A
:10131000C8B2052101F070FD687B8842EBD1F8BDB1
:1013200010B52A4C207B617B88420ED02146C0003C
:10133000A03940188430016840688847207B052127
:10134000401CC0B201F058FD217310BD411C07D0F4
:10135000062805DA1D4A0021A03A1018603081776E
:101360007047411C07D0062805DA184A0121A03A27
:10137000101860308177704710B50020134B144C63
:101380000246A03B8100C9188A610A66C100C918DB
:101390008031401C40B24C600628F3DB10BD411C7C
:1013A00007D0062805DA09498000A0390A584018F4
:1013B00082617047054A8000A03A1150801881610F
:1013C0000120704780BB0000000400408002002024
:1013D0006B120008F8B50E460746002517E0B74C1B
:1013E000785DE18C2246403A5054E08C401CE08409
:1013F000E08C642101F000FDE184E08C6421401C5C
:1014000001F0FAFCA08C814203D06D1CEDB2B54214
:10141000E5D3F8BD10B5002803D08D21C90001F037
:101420002CFD10BD10B500F061F9A4484038FFF75D
:10143000F1FFA34800F048F910BD70B5040018D0C2
:10144000092080012518E88C652141430919CA311A
:10145000097900290DD0401C80B2052101F0CCFC97
:10146000E9846520414308190022C03082730120BD
:1014700070BD002070BD30B5642100220C5C1146A7
:10148000631E03E0455C6A40491C89B29942F9DB5E
:1014900000192038D143C07FC9B2884201D1012050
:1014A00030BD002030BDFEB5070044D03C4640347E
:1014B000A18CE28C092080013818009091423AD02A
:1014C00035E00098C28C65205043C619785C3546DB
:1014D000CA35019028796A3600282DD064284DD26B
:1014E000795C421C2A713154208D6421401C80B2E9
:1014F00001F082FC21852979052918D3F0782D285F
:101500003CD8401D814212D33046FFF7B4FF00287B
:1015100034D0A08C29794018A084A08C642101F0DB
:101520006BFCA184A08C20853846FFF786FFE08CF9
:10153000218D8842C5D1FEBD019855280AD0A08CC6
:10154000401CA084A08C642101F056FCA184A08CD6
:101550002085ECE7501C642101F04EFC0098808C43
:101560008142E8D00121019829713070208D6421D9
:10157000401C80B201F040FC2185D8E70020287192
:10158000DDE770B50546092080012C18002D11D02B
:10159000E68CA18CB1420DD06520484340196A30D9
:1015A0000078552807D088B2401C80B2052101F090
:1015B00023FCA18470BD491C88B2052101F01CFCEC
:1015C000A184E6E770B5050024D0112080012C1815
:1015D000608CA18C88421DD018E0608C6521484346
:1015E0000B21401989014018017B608C6522504312
:1015F0004D224019D200801800F0B7F8608C401CD2
:101600006084608C052101F0F7FB6184608CA18C03
:101610008842E2D170BD294810B54038FFF743FF3A
:1016200026484038FFF7ADFF24484038FFF7CAFF8F
:1016300010BDF8B5234D0446A88C0F4600260521A1
:10164000401C01F0D9FB688C814201D10020F8BD1B
:10165000112080012018808C652148434D210019FC
:10166000C90044185520207004206070B878A0701C
:101670003879E070BA88201DB91D01F0E5FBB98802
:101680000020091D03E0225C5640401C80B28842C5
:10169000F9DBF0436054491C60342171A88C401C74
:1016A000A884A88C052101F0A7FBA9840120F8BD1E
:1016B0000A78002A00D1BCE770470000D002002061
:1016C000D5130008D006002059490860704770B54E
:1016D000584D0446C1B2284601F0B0FA8021284690
:1016E00001F0C3FA0028F9D0204670BDF0B58BB0E8
:1016F000082000F0F3FA402000F0F0FA38214E48BC
:1017000001F0BBFB01A800F068FC012602254B4F4D
:101710000196029501A93846069500F036FC002492
:10172000019501A938460695029400F02EFCE120AF
:101730004002079068460484448484840C21C18458
:101740003C4D07A9284601F00BFA284601F029FA7A
:101750000D21684601704470867000F075F83849B4
:10176000284601F02AFA0BB0F0BDF8B50D46064642
:101770000024304F0BE0315D384601F05FFA8021E4
:10178000384601F072FA0028F9D0641CA4B2AC42C9
:10179000F1D3F8BD10B50C46322900D932240146E8
:1017A0002246254801F050FB234801228486014649
:1017B00020318A7501781F4C4286204601F03EFA9E
:1017C0002049204601F0F9F910BDF8B5002568461A
:1017D000184E05701A49304601F04FFA00280BD018
:1017E000304601F02FFA6946087011480268002A55
:1017F00002D0012168469047124F3046394601F029
:101800003CFA002812D00C4C608E215C401C608693
:10181000304601F013FAA08E618E884206D1394617
:10182000304601F0DDF9204620308575F8BD000016
:101830000C00002000440040F8060020002000407A
:10184000250500002707000010B500214156FF23A1
:10185000CAB29207D40E4278A3409207120EA24059
:1018600000290BDA0907090F08398C081A49A40066
:101870006118CC699C431443CC6107E08C0817497C
:10188000A40061180C689C4314430C608278012109
:101890000078002A04D0C006C00E8140104804E041
:1018A000C006C00E81400E488030016010BD0A495C
:1018B0000A6902430A61704707490A6982430A615B
:1018C0007047042207490428086902D09043086140
:1018D00070471043FBE7000000ED00E000E400E08B
:1018E00000E100E000E000E010B5FF20013000F072
:1018F000FFF910BD9D4881688214114381607047D3
:101900009A48816882149143816070479748816842
:1019100002221143816070479448816802229143FA
:101920008160704791498A68F8239A438A608A687F
:1019300002438A6070478D498A6804239A438A600B
:101940008A6802438A60704788498A6807235B0275
:101950009A438A608A6802438A60704710B50446D9
:101960000078002802D0FFF7C5FF01E0FFF7C8FFAD
:101970006078002802D0FFF7C9FF01E0FFF7CCFF35
:101980006068FFF7CFFFA068FFF7D5FFE068FFF7BB
:10199000DBFF10BD00210170417080228160426038
:1019A000C1607047714881680122114381607047AE
:1019B0006E48816849084900816070476B4A012878
:1019C00003D05068084350607047D0680843D06027
:1019D0007047664A012803D05068884350607047BA
:1019E000D0688843D060704702466049FF3A813A28
:1019F00007D00246FF3282320BD0C21FF93A03D021
:101A00000AE08A68024306E08968014204D00120A6
:101A100070478A6802408A600020704753490A690B
:101A2000520952010A610A6902430A6170474F492B
:101A3000802806D00246813202D18A6802408A603C
:101A400070478A680243FAE74848C06980B2704725
:101A5000464980004018808B80B27047434A402836
:101A600004D0506840218843506070475368034356
:101A70005360506800090001506050680843F3E764
:101A80003A494A6802434A60704738494A68824383
:101A90004A607047354948617047344988617047EA
:101AA00032490968014201D0012070470020704787
:101AB0002E4B012805D0D8681040002800D0012006
:101AC000704718680840F8E728490A6882430A60A6
:101AD000704726490A6882430A6070472349CA69E9
:101AE0000F231B049A43CA61CA6900040243CA61F6
:101AF00070470F231D4A1B04000400290ED0012942
:101B000013D0022918D003291DD0042905D1D16A88
:101B10009943D162D16A0143D1627047D169994337
:101B2000D161D1690143D1617047116A9943116252
:101B3000116A014311627047516A99435162516AB7
:101B4000014351627047916A99439162916A0143DE
:101B5000916270470548C16802221143C160704715
:101B60000248C16802229143C160704700080240E8
:101B70008E484168032212031143416041688C4A38
:101B8000114041608169802291438161016A894AE3
:101B900011400162016A884A114301627047834A19
:101BA0001168F023994300010843106070477F4A91
:101BB00091697C23994380000843906170477B4A78
:101BC000516803231B039943014351607047774ACF
:101BD0005168F0239943014351607047734A51683B
:101BE00007231B0299430143516070476F4A116AF2
:101BF000490049080143116270476C4A116A032386
:101C00009B029943014311627047684A116A0909AE
:101C10000901014311627047644A116A93049943B0
:101C200001431162704770B5044664484069402121
:101C300008405E4D40286249624A68682FD080049F
:101C4000614E800F3BD068688004800F012838D037
:101C5000216068680007000F115C304601F0CCF885
:101C60002061686857490005800F1C39095C3046BF
:101C700001F0C2F8E060686852490006000F1039B0
:101C8000095C206801F0B8F8606069684D4A490550
:101C9000490F183A515C01F0AFF8A06070BD8004A4
:101CA000830F4A4809D0216069680907090F515C10
:101CB00001F0A2F820614648DCE72060F4E72660E6
:101CC000C7E744482060C4E738490A6902430A610B
:101CD000704736490A6982430A61704733494A6945
:101CE00002434A61704731494A6982434A617047F9
:101CF0002E49CA680243CA60CA688243CA607047F4
:101D00002A4A516809010909014351607047274A6D
:101D1000516803235B0699430143516070474109B1
:101D2000224A01290AD002290AD0D169C006C00E70
:101D3000012282400A4205D0012070471168F5E770
:101D40009169F3E7002070471848C16901221143E7
:101D5000C161C1699143C16170471448416A8214ED
:101D60009143416270471148416A821411434162B4
:101D700070470E48416A49084900416270470B4864
:101D8000416A0122114341627047084881698022FB
:101D900091438161704705488169802211438161C7
:101DA0007047024880690002000C70470010024032
:101DB0000FF8FFF9F0FFFF3F010C0000007000403A
:101DC00000127A002C000020006CDC02005A620233
:101DD00040420F0000366E01B34910B5884201D170
:101DE000042003E0B149884202D10820FFF780FFB8
:101DF00010BD10B50120FFF77BFF10BDF0B500212D
:101E00000F27A94B41E001228A4002423CD0082919
:101E100015D0092913D01D684E000324B440254372
:101E20001D600C0716D508290DD009290BD05D6A55
:101E30004C07E60E3C46B44025435D6211E01D6848
:101E40004E000224EAE75D6A4C07E60E3C46B440C9
:101E5000A543F2E71D6A4C07E60E3C46B440254315
:101E60001D625C6894435C60082912D0092914D073
:101E7000DD684E000324B440A543DD609C68144334
:101E80009C60DC6A9443DC62491C0246CA40BAD1B9
:101E9000F0BDDC6801252D0402E0DC680125ED04BD
:101EA0002C43DC60EAE7F0B500211EE001238B4003
:101EB000034219D07D4A15684E000324B4402543DF
:101EC0001560156A4E07F70E0F26BE4035431562A2
:101ED00055689D435560D568A543D56094681C43FB
:101EE0009460D46A9C43D462491C0246CA40DDD146
:101EF000F0BD10B5140752070F23D20E9340914046
:101F0000002C04DA426A9A431143416210BD026A0E
:101F10009A431143016210BD70B505688C07A40F88
:101F2000530003269E40B5439C402C430460012986
:101F300005D0112903D0022901D0122908D1436804
:101F400001249440C906C90FA3439140194341603D
:101F500070BD10B5C368520003249440A343914060
:101F60001943C16010BD10B5836801249440A34398
:101F700091401943816010BD10B5C36A012494409B
:101F8000A34391401943C16210BD70B50C4606468B
:101F900000251DE00120A840014218D02A46304605
:101FA0006169FFF7A6FF2A4630466168FFF7B4FF74
:101FB0002A463046A168FFF7CCFF2A463046E16842
:101FC000FFF7D1FF2A4630462169FFF7D5FF6D1C88
:101FD00021680846E840DDD170BD35490160002127
:101FE000C16041600F2281604261016170470069F8
:101FF000084000D001207047006980B270474069F6
:10200000084000D001207047406980B2704781616C
:10201000704781627047090481617047816270472F
:102020004161704742694A4042617047012212048F
:102030008A18C261C161C261C169C069704710B5C7
:1020400000280DD019480C074907CB0E0F219940E5
:102050009A40002C06DA436A8B431A43426210BD51
:102060001148F0E7036A8B431A43026210BD114A1C
:102070001168490949010143116070470D4B196806
:1020800040229143002801D0114300E091431960A0
:102090007047084B196820229143002801D0114352
:1020A00000E0914319607047001C00400020004090
:1020B000FFFF000000140040FE4910B5884201D126
:1020C000C01403E0FC49884203D18014FFF710FEDE
:1020D00010BDFA498842FBD14014F7E7026870232B
:1020E0009A430A43026070478185704701857047B3
:1020F00081827047018670470122D202002901685F
:1021000001D0114300E09143016070470122D203E6
:102110000029016801D0114300E09143016070473C
:10212000026803231B029A43026002680A430260AA
:10213000704770B5E14E0D460446B04206D069883E
:10214000FFF7CCFFE9882046FFF7EAFFA888A085C3
:1021500028882085D74B9C4201D1287A20860120EF
:10216000A082B44203D0697A2046FFF7C5FF9C42A3
:1021700002D0D148844203D1A97A2046FFF7C6FF96
:1021800070BD0021C943818000210180C180418050
:10219000017241728172704781847047808C7047F0
:1021A000808D7047008D70470168012211430160E6
:1021B000704701684908490001607047028B082395
:1021C0009A430A4302837047028BBD4B09021A40AF
:1021D000114301837047828B08239A430A43828309
:1021E0007047828BB64B09021A40114381837047B6
:1021F0004030828A08239A430A43828270470168EA
:102200008022114301607047016880229143016080
:102210007047016802229143016070470168022201
:1022200011430160704704220029016801D0114365
:1022300000E0914301607047818270474168042249
:1022400011434160704741680422914341607047E7
:1022500041680122114341607047416849084900C3
:10226000416070478186704701877047818770475A
:10227000403001807047403001837047808E704746
:10228000008F7047808F7047403000887047403023
:10229000008B7047028970239A430A43028170477A
:1022A00070B5046A640864000462058B046A1B0547
:1022B000F3261B0CB54313432B437E4D0122A8424A
:1022C00002D07D4DA84201D1022500E00A25AC4391
:1022D0000C4314430383046270BDF0B59446026A54
:1022E0001025AA430262078B046A764A0E01174042
:1022F0001A076346120C1B063A431B0C13436D4A24
:10230000904202D06C4A904203D120218C43344346
:1023100002E0A02294430C432C4303830462F0BDEB
:10232000F0B59446026AFF250135AA430262878B05
:10233000046AF32297431A05120C63461A435D4B55
:102340000E023A43984203D141158C43344303E0D3
:1023500005235B029C430C432C4382830462F0BD43
:10236000F0B59C46036A01252D03AB430362878BBE
:10237000046A544B12061F40120C63463A431B0773
:102380001B0C13434B4F0E036A00B84202D1944317
:10239000344301E094430C432C4383830462F0BD37
:1023A0000289494B09021A40114301817047028991
:1023B000464B1A400A43028170470122D2039142E0
:1023C000018901D1114301E04904490C01817047A1
:1023D0000189C908C90001817047028B0C239A4307
:1023E0000283028B0A4302837047028B384B1A40E8
:1023F0000283028B09020A4302837047828B0C23FB
:102400009A438283828B0A4382837047828B304B4C
:102410001A408283828B09020A438283704710B577
:102420000446FFF737FF208907210843208110BDAC
:1024300070B516460D46044660290CD0012231467F
:10244000FFF72EFF29462046FFF724FF20890721AA
:102450000843208170BD01223146FFF73EFFF1E7BE
:1024600070B50D46164604461946FFF799FF3146EA
:102470002046FFF7A2FF29462046FFF798FF208954
:10248000C108C90007200143702081430143218115
:1024900070BD70B50D46164604461946FFF780FF1D
:1024A00031462046FFF789FF29462046FFF77FFF88
:1024B00020890FE0000C00400004004000100040A4
:1024C000FFF70000FF0C0000FFF00000FFCF00004E
:1024D000FFF30000012189030843208170BD0289B8
:1024E000D208D200028102890A4302817047028920
:1024F00080239A43028102890A430281704742681D
:1025000070239A43426042680A43426070470268FF
:1025100008239A43026002680A4302607047002160
:10252000418001228280C1800181704730B50C4614
:10253000054608884988A288238900280BD00428EA
:1025400011D00828284616D0FFF70AFFE188284650
:10255000FFF75CFF30BD2846FFF7A2FEE188284662
:10256000FFF73BFF30BD2846FFF7B7FEE18828465E
:10257000FFF73BFF30BDFFF7D3FEE1882846FFF7AA
:102580003DFF30BDF0B50C464988002601250746C1
:10259000002900D10226A288012A00D10225208824
:1025A00023890028384610D0FFF797FEE188384687
:1025B000FFF71BFF23892A4631463846FFF770FE96
:1025C000E1883846FFF709FFF0BDFFF769FEE188B3
:1025D0003846FFF702FF23892A4631463846FFF77F
:1025E0007CFEE1883846FFF700FFF0BD10B5036AB6
:1025F00002249440A34391401943016210BD10B5D9
:10260000036A08249440A34391401943016210BD1A
:10261000026A01238B401A4302627047026A012357
:102620008B409A4302627047026A04238B401A432C
:1026300002627047026A04238B409A430262704729
:10264000006A084000D00120704730B503461833B7
:102650000124056A9440E443A4B225400562002A9F
:1026600010D0082A0ED0121F1004400CC0180268A7
:1026700007231B039A43026002680906090C0A43F8
:10268000026030BD5008C018026870239A4302608F
:102690000268F4E7028B70239A430A43028370476F
:1026A000028BF74B09021A40114301837047828B5A
:1026B00070239A430A4382837047828BF04B09024E
:1026C0001A401143818370474030828A70239A43B5
:1026D0000A4382827047028B04239A430A4302838F
:1026E0007047028BE74B09021A4011430183704780
:1026F000828B04239A430A4382837047828BE14B87
:1027000009021A401143818370474030828A0423B2
:102710009A430A4382827047028B80239A430A437A
:1027200002837047028B5204520C09021143018349
:102730007047828B80239A430A4382837047828B3F
:102740005204520C09021143818370474030828A3F
:1027500080239A430A4382827047F0B50C460546AF
:102760000021FFF75BFF6E68288B7021884380088B
:10277000278880000743218900222846FFF736FF7B
:102780006088002804D000212846FFF741FF03E0BD
:1027900000212846FFF742FFBB48854217D16189D7
:1027A00000222846FFF72BFFA088002804D0002134
:1027B0002846FFF739FF03E000212846FFF73AFFDC
:1027C000032000028643A0893043E68906436E60F9
:1027D0002F83E088A886F0BDF0B50C46054604219D
:1027E000FFF71CFF6E68288BA84904220840217857
:1027F00009060F0C074321892846FFF7F7FE60887A
:10280000002804D004212846FFF702FF03E004213A
:102810002846FFF703FF9C48854219D161890422AD
:102820002846FFF7ECFEA088002804D004212846A3
:10283000FFF7FAFE03E004212846FFF7FBFE032022
:1028400080028643A089E189800030438E000643E0
:102850006E602F83E0882887F0BDF0B50C460546F2
:102860000821FFF7DBFE6E68A88B70218843800883
:10287000278880000743218908222846FFF7B6FEF3
:102880006088002804D008212846FFF7C1FE03E035
:1028900008212846FFF7C2FE7B48854219D161898D
:1028A00008222846FFF7ABFEA088002804D00821A4
:1028B0002846FFF7B9FE03E008212846FFF7BAFED5
:1028C000032000038643A089E189000130430E0103
:1028D00006436E60AF83E088A887F0BDF0B50D4673
:1028E00004460C21FFF79AFE6668A08B67490C220C
:1028F0000840297809060F0C074329892046FFF76D
:1029000075FE6888002804D00C212046FFF780FE61
:1029100003E00C212046FFF781FE5B48844205D18D
:10292000304621148843A9898E0106436660A78337
:10293000E88840342080F0BDF0B50C4606461021F2
:10294000FFF76CFE756837464037B88A70218843B8
:102950002188102201438C4621893046FFF746FE2C
:102960006088002804D010213046FFF751FE03E0B4
:1029700010213046FFF752FE4348864205D12846D3
:10298000B1138843A1890D02054375606046B88282
:10299000E0883883F0BD403081880122D2031143A2
:1029A00081807047403081884904490C818070479C
:1029B0000021018041808180C1800181418181812C
:1029C000C181704701680122120411430160704700
:1029D00001680122120491430160704701680122DD
:1029E000520411430160704701680122520491436F
:1029F00001607047012292020029016801D0114351
:102A000000E091430160704710B504460B4608880A
:102A10004988DA880843998811430843198908438B
:102A2000598908439989084344210853987B002811
:102A300001D0002100E001212046FFF7DBFFD97B18
:102A4000012000040029216801D0014300E08143F6
:102A50002160197C012040040029216801D0014334
:102A600000E08143216010BD002101804180818010
:102A7000C1800181418181818173C173017470477B
:102A8000FF8F0000FFFB0000000C0040FF8C0000E7
:102A900082890A438281F2E782898A438281EEE752
:102AA000026980890A400840002A03D0002801D02A
:102AB0000120E4E70020E2E7C9430161DFE70069A4
:102AC0000840DCD00120DAE7C9430161D7E7000004
:102AD0007C4910B5884201D1102003E07A49884230
:102AE00002D12020FFF704F910BD82890C239A43FC
:102AF0000A4382817047828903235B029A430A4317
:102B000082817047028A03231B039A430A4302828D
:102B10007047828901231B039A430A4382817047CD
:102B200070B586B005460C466846FFF77CF80298FB
:102B30001922A100504300F05FF90646642100F01D
:102B40005BF90401200964214843301A0001323046
:102B500000F052F90007000F2043288106B070BD35
:102B600070B50C4605460968FFF7DAFFA1882846CC
:102B7000FFF7CFFFE1882846FFF7C4FF21892846E9
:102B8000FFF7B9FF61892846FFF7AFFF70BD4B2102
:102B9000C901016000218180C18001810C21418136
:102BA00070478189012252031143818170478189D5
:102BB000012252039143818170470A06CB06520FCE
:102BC000DB0E01219940012A06D0022A06D01430DA
:102BD00002680A43026070470C30F9E71030F7E7EB
:102BE0000A06CB06520FDB0E01219940012A06D0BE
:102BF000022A06D0143002688A43026070470C3003
:102C0000F9E71030F7E7028A120912010282028AFC
:102C10000A430282704782890123DB029A43828140
:102C200082890A438281704781890222114381810E
:102C3000704781890222914381817047C905C90D7E
:102C4000818070478088C005C00D7047818901224E
:102C5000114381817047818A082211438182704724
:102C6000818A08229143818270470088084000D001
:102C700001207047C9430180704730B50A06530FE1
:102C8000CD060124ED0E2246AA40012B0DD0022BC9
:102C90000DD0838A090A134000888C402040002B05
:102CA00007D0002805D0012030BD8389F2E7038AD0
:102CB000F0E7002030BD0A0A01219140C94301809C
:102CC00070470000004400400048004010B53E48F6
:102CD00041694022914341613C484168032212030B
:102CE0001143416041683A4A114041608169802244
:102CF00091438161016A374A11400162016A364A93
:102D000011430162354C206810210843206000F017
:102D10002DF80120C006606210BD10B52A48416937
:102D200040200140294840292D4A2E4C416808D0B6
:102D30008904890F15D041688904890F012912D0AF
:102D400002E08904890F0AD0226040682649000603
:102D5000000F095C206800F04FF8206010BD234987
:102D600002E0234900E023492160EEE70EB5002090
:102D70001A4A00900190029010680121C008C0001A
:102D800008431060114B58685860586858600E48E6
:102D900041694022914341610220052109021A68DC
:102DA00002400192029A521C0292019A002A02D019
:102DB000022A04D002E0029A8A42F0D1FEE7002003
:102DC000FEF7FDFE0EBD0000007000400010024046
:102DD0000FF8FFF9F0FFFF3F010C00000020024058
:102DE00000127A003C00002084300008005A620281
:102DF000006CDC0200366E0130B50B460146002047
:102E00002022012409E00D46D5409D4205D31D46F0
:102E10009540491B2546954040191546521E002DE8
:102E2000F1DC30BD0549064A08685043054A801860
:102E30000860400870470149086070474000002062
:102E40006D4EC6413930000003460B439B0703D04B
:102E500009E008C9121F08C0042AFAD203E00B785F
:102E60000370401C491C521EF9D27047D2B201E0D7
:102E70000270401C491EFBD270470022F6E710B5D5
:102E800013460A4604461946FFF7F0FF204610BDD8
:102E9000064C0125064E05E0E36807CC2B430C3CAD
:102EA00098471034B442F7D3FDF7EEF89430000899
:102EB000B43000080FB410B503A9044B044A0298BB
:102EC00000F018F810BC08BC04B01847CF16000872
:102ED0004400002002E008C8121F08C1002AFAD1ED
:102EE00070477047002001E001C1121F002AFBD18A
:102EF00070470000FFB58DB00446002506E0252888
:102F00000AD0109A0F999047641C6D1C20780028F5
:102F1000F5D1284611B0F0BD00270121484A00979D
:102F200000E00743641C23780846203B9840104289
:102F3000F7D120782E2817D1042007436078641C2D
:102F40002A280CD10E98641C02C800910E900BE048
:102F500000990A22514330394018641C00902078AF
:102F6000014630390929F3D920780028D1D06428C6
:102F700008D0692806D075281ED0109A0F9990475E
:102F80006D1C5BE00A200E99019001C90E9100288A
:102F900002DA40422D2102E0390504D52B216A4690
:102FA0001172012103E0F90704D02021F7E70BAEED
:102FB0000B910DE00021FAE70A200E99019001C95A
:102FC0000E91F7E70199FFF717FF3031761E317048
:102FD0000028F7D103A8801B20300190780701D585
:102FE000009801E0012000900199884201DD401A1B
:102FF00000E000200027009006E002A8109AC05DC3
:103000000F9990476D1C7F1C0B988742F5DB04E0FD
:10301000109A30200F9990476D1C0099481E00901F
:103020000029F5DC05E03078109A761C0F9990475E
:103030006D1C0199481E01900029F4DC641C65E7B1
:103040000928010010B5044601E0FEF740FB207896
:10305000641C03490028F8D10A20FEF738FB10BD94
:1030600044000020E803E803E803E803E803E8037A
:10307000E803E803C800C800C800C800C800C800CA
:10308000C800C80001010101010101010204080C8E
:1030900010181818B4300008000000204800000084
:1030A000D42E0008FC30000848000020E80A000088
:1030B000E42E0008FFFFFFFFFF00000000000000FB
:1030C00000000000060C1830010101010204081084
:1030D00001010101010101010204080C1018181876
:1030E0000102030406080A0C1820202020202020BA
:0C30F000006CDC0200000000000000008A
:04000005080000816E
:00000001FF
